{
  "abi": [
    {
      "inputs": [
        {
          "internalType": "uint256",
          "name": "u_id",
          "type": "uint256"
        },
        {
          "internalType": "string",
          "name": "c_title",
          "type": "string"
        },
        {
          "internalType": "string",
          "name": "c_description",
          "type": "string"
        },
        {
          "internalType": "string",
          "name": "imgHash",
          "type": "string"
        },
        {
          "internalType": "uint256",
          "name": "f_amount",
          "type": "uint256"
        },
        {
          "internalType": "string",
          "name": "a_raised",
          "type": "string"
        },
        {
          "internalType": "string",
          "name": "c_ttl",
          "type": "string"
        },
        {
          "internalType": "address",
          "name": "c_metamask_address",
          "type": "address"
        },
        {
          "internalType": "string",
          "name": "u_mail",
          "type": "string"
        }
      ],
      "stateMutability": "nonpayable",
      "type": "constructor"
    },
    {
      "inputs": [
        {
          "internalType": "uint256",
          "name": "sender_id",
          "type": "uint256"
        },
        {
          "internalType": "string",
          "name": "a_raised",
          "type": "string"
        }
      ],
      "name": "donate",
      "outputs": [],
      "stateMutability": "payable",
      "type": "function"
    },
    {
      "inputs": [],
      "name": "getCampaignDetails",
      "outputs": [
        {
          "internalType": "uint256",
          "name": "",
          "type": "uint256"
        },
        {
          "internalType": "string",
          "name": "",
          "type": "string"
        },
        {
          "internalType": "string",
          "name": "",
          "type": "string"
        },
        {
          "internalType": "string",
          "name": "",
          "type": "string"
        },
        {
          "internalType": "uint256",
          "name": "",
          "type": "uint256"
        },
        {
          "internalType": "string",
          "name": "",
          "type": "string"
        },
        {
          "internalType": "string",
          "name": "",
          "type": "string"
        },
        {
          "internalType": "address",
          "name": "",
          "type": "address"
        },
        {
          "internalType": "string",
          "name": "",
          "type": "string"
        }
      ],
      "stateMutability": "view",
      "type": "function"
    },
    {
      "inputs": [
        {
          "internalType": "uint256",
          "name": "transaction_id",
          "type": "uint256"
        }
      ],
      "name": "getTransaction",
      "outputs": [
        {
          "internalType": "uint256",
          "name": "",
          "type": "uint256"
        },
        {
          "internalType": "address",
          "name": "",
          "type": "address"
        },
        {
          "internalType": "uint256",
          "name": "",
          "type": "uint256"
        }
      ],
      "stateMutability": "view",
      "type": "function"
    },
    {
      "inputs": [],
      "name": "getTransactionCount",
      "outputs": [
        {
          "internalType": "uint256",
          "name": "",
          "type": "uint256"
        }
      ],
      "stateMutability": "view",
      "type": "function"
    }
  ],
  "devdoc": {
    "kind": "dev",
    "methods": {},
    "version": 1
  },
  "evm": {
    "assembly": "    /* \"Crowdfunding\":869:2961  contract Campaign {\r... */\n  mstore(0x40, 0x80)\n    /* \"Crowdfunding\":1149:1689  constructor ( uint u_id, string memory c_title, string memory c_description, string memory imgHash, uint f_amount, string memory a_raised, string memory c_ttl, address c_metamask_address, string memory u_mail) {\r... */\n  callvalue\n  dup1\n  iszero\n  tag_1\n  jumpi\n  0x00\n  dup1\n  revert\ntag_1:\n  pop\n  mload(0x40)\n  sub(codesize, bytecodeSize)\n  dup1\n  bytecodeSize\n  dup4\n  codecopy\n  dup2\n  dup2\n  add\n  0x40\n  mstore\n  dup2\n  add\n  swap1\n  tag_2\n  swap2\n  swap1\n  tag_3\n  jump\t// in\ntag_2:\n    /* \"Crowdfunding\":1380:1384  u_id */\n  dup9\n    /* \"Crowdfunding\":1370:1377  user_id */\n  0x00\n    /* \"Crowdfunding\":1370:1384  user_id = u_id */\n  dup2\n  swap1\n  sstore\n  pop\n    /* \"Crowdfunding\":1412:1419  c_title */\n  dup8\n    /* \"Crowdfunding\":1395:1409  campaign_title */\n  0x01\n    /* \"Crowdfunding\":1395:1419  campaign_title = c_title */\n  swap1\n  dup1\n  mload\n  swap1\n  0x20\n  add\n  swap1\n  tag_6\n  swap3\n  swap2\n  swap1\n  tag_7\n  jump\t// in\ntag_6:\n  pop\n    /* \"Crowdfunding\":1453:1466  c_description */\n  dup7\n    /* \"Crowdfunding\":1430:1450  campaign_description */\n  0x02\n    /* \"Crowdfunding\":1430:1466  campaign_description = c_description */\n  swap1\n  dup1\n  mload\n  swap1\n  0x20\n  add\n  swap1\n  tag_8\n  swap3\n  swap2\n  swap1\n  tag_7\n  jump\t// in\ntag_8:\n  pop\n    /* \"Crowdfunding\":1489:1496  imgHash */\n  dup6\n    /* \"Crowdfunding\":1477:1486  imageHash */\n  0x03\n    /* \"Crowdfunding\":1477:1496  imageHash = imgHash */\n  swap1\n  dup1\n  mload\n  swap1\n  0x20\n  add\n  swap1\n  tag_9\n  swap3\n  swap2\n  swap1\n  tag_7\n  jump\t// in\ntag_9:\n  pop\n    /* \"Crowdfunding\":1521:1529  f_amount */\n  dup5\n    /* \"Crowdfunding\":1507:1518  fund_amount */\n  0x04\n    /* \"Crowdfunding\":1507:1529  fund_amount = f_amount */\n  dup2\n  swap1\n  sstore\n  pop\n    /* \"Crowdfunding\":1556:1564  a_raised */\n  dup4\n    /* \"Crowdfunding\":1540:1553  amount_raised */\n  0x05\n    /* \"Crowdfunding\":1540:1564  amount_raised = a_raised */\n  swap1\n  dup1\n  mload\n  swap1\n  0x20\n  add\n  swap1\n  tag_10\n  swap3\n  swap2\n  swap1\n  tag_7\n  jump\t// in\ntag_10:\n  pop\n    /* \"Crowdfunding\":1590:1595  c_ttl */\n  dup3\n    /* \"Crowdfunding\":1575:1587  campaign_ttl */\n  0x06\n    /* \"Crowdfunding\":1575:1595  campaign_ttl = c_ttl */\n  swap1\n  dup1\n  mload\n  swap1\n  0x20\n  add\n  swap1\n  tag_11\n  swap3\n  swap2\n  swap1\n  tag_7\n  jump\t// in\ntag_11:\n  pop\n    /* \"Crowdfunding\":1634:1652  c_metamask_address */\n  dup2\n    /* \"Crowdfunding\":1606:1631  campaign_metamask_address */\n  0x07\n  0x00\n    /* \"Crowdfunding\":1606:1652  campaign_metamask_address = c_metamask_address */\n  0x0100\n  exp\n  dup2\n  sload\n  dup2\n  0xffffffffffffffffffffffffffffffffffffffff\n  mul\n  not\n  and\n  swap1\n  dup4\n  0xffffffffffffffffffffffffffffffffffffffff\n  and\n  mul\n  or\n  swap1\n  sstore\n  pop\n    /* \"Crowdfunding\":1675:1681  u_mail */\n  dup1\n    /* \"Crowdfunding\":1663:1672  user_mail */\n  0x08\n    /* \"Crowdfunding\":1663:1681  user_mail = u_mail */\n  swap1\n  dup1\n  mload\n  swap1\n  0x20\n  add\n  swap1\n  tag_12\n  swap3\n  swap2\n  swap1\n  tag_7\n  jump\t// in\ntag_12:\n  pop\n    /* \"Crowdfunding\":1149:1689  constructor ( uint u_id, string memory c_title, string memory c_description, string memory imgHash, uint f_amount, string memory a_raised, string memory c_ttl, address c_metamask_address, string memory u_mail) {\r... */\n  pop\n  pop\n  pop\n  pop\n  pop\n  pop\n  pop\n  pop\n  pop\n    /* \"Crowdfunding\":869:2961  contract Campaign {\r... */\n  jump(tag_13)\ntag_7:\n  dup3\n  dup1\n  sload\n  tag_14\n  swap1\n  tag_15\n  jump\t// in\ntag_14:\n  swap1\n  0x00\n  mstore\n  keccak256(0x00, 0x20)\n  swap1\n  0x1f\n  add\n  0x20\n  swap1\n  div\n  dup2\n  add\n  swap3\n  dup3\n  tag_17\n  jumpi\n  0x00\n  dup6\n  sstore\n  jump(tag_16)\ntag_17:\n  dup3\n  0x1f\n  lt\n  tag_18\n  jumpi\n  dup1\n  mload\n  not(0xff)\n  and\n  dup4\n  dup1\n  add\n  or\n  dup6\n  sstore\n  jump(tag_16)\ntag_18:\n  dup3\n  dup1\n  add\n  0x01\n  add\n  dup6\n  sstore\n  dup3\n  iszero\n  tag_16\n  jumpi\n  swap2\n  dup3\n  add\ntag_19:\n  dup3\n  dup2\n  gt\n  iszero\n  tag_20\n  jumpi\n  dup3\n  mload\n  dup3\n  sstore\n  swap2\n  0x20\n  add\n  swap2\n  swap1\n  0x01\n  add\n  swap1\n  jump(tag_19)\ntag_20:\ntag_16:\n  pop\n  swap1\n  pop\n  tag_21\n  swap2\n  swap1\n  tag_22\n  jump\t// in\ntag_21:\n  pop\n  swap1\n  jump\t// out\ntag_22:\ntag_23:\n  dup1\n  dup3\n  gt\n  iszero\n  tag_24\n  jumpi\n  0x00\n  dup2\n  0x00\n  swap1\n  sstore\n  pop\n  0x01\n  add\n  jump(tag_23)\ntag_24:\n  pop\n  swap1\n  jump\t// out\n    /* \"#utility.yul\":7:428   */\ntag_26:\n    /* \"#utility.yul\":96:101   */\n  0x00\n    /* \"#utility.yul\":121:187   */\n  tag_28\n    /* \"#utility.yul\":137:186   */\n  tag_29\n    /* \"#utility.yul\":179:185   */\n  dup5\n    /* \"#utility.yul\":137:186   */\n  tag_30\n  jump\t// in\ntag_29:\n    /* \"#utility.yul\":121:187   */\n  tag_31\n  jump\t// in\ntag_28:\n    /* \"#utility.yul\":112:187   */\n  swap1\n  pop\n    /* \"#utility.yul\":210:216   */\n  dup3\n    /* \"#utility.yul\":203:208   */\n  dup2\n    /* \"#utility.yul\":196:217   */\n  mstore\n    /* \"#utility.yul\":248:252   */\n  0x20\n    /* \"#utility.yul\":241:246   */\n  dup2\n    /* \"#utility.yul\":237:253   */\n  add\n    /* \"#utility.yul\":286:289   */\n  dup5\n    /* \"#utility.yul\":277:283   */\n  dup5\n    /* \"#utility.yul\":272:275   */\n  dup5\n    /* \"#utility.yul\":268:284   */\n  add\n    /* \"#utility.yul\":265:290   */\n  gt\n    /* \"#utility.yul\":262:264   */\n  iszero\n  tag_32\n  jumpi\n    /* \"#utility.yul\":293:372   */\n  tag_33\n  tag_34\n  jump\t// in\ntag_33:\n    /* \"#utility.yul\":262:264   */\ntag_32:\n    /* \"#utility.yul\":383:422   */\n  tag_35\n    /* \"#utility.yul\":415:421   */\n  dup5\n    /* \"#utility.yul\":410:413   */\n  dup3\n    /* \"#utility.yul\":405:408   */\n  dup6\n    /* \"#utility.yul\":383:422   */\n  tag_36\n  jump\t// in\ntag_35:\n    /* \"#utility.yul\":102:428   */\n  pop\n  swap4\n  swap3\n  pop\n  pop\n  pop\n  jump\t// out\n    /* \"#utility.yul\":434:577   */\ntag_37:\n    /* \"#utility.yul\":491:496   */\n  0x00\n    /* \"#utility.yul\":522:528   */\n  dup2\n    /* \"#utility.yul\":516:529   */\n  mload\n    /* \"#utility.yul\":507:529   */\n  swap1\n  pop\n    /* \"#utility.yul\":538:571   */\n  tag_39\n    /* \"#utility.yul\":565:570   */\n  dup2\n    /* \"#utility.yul\":538:571   */\n  tag_40\n  jump\t// in\ntag_39:\n    /* \"#utility.yul\":497:577   */\n  swap3\n  swap2\n  pop\n  pop\n  jump\t// out\n    /* \"#utility.yul\":597:952   */\ntag_41:\n    /* \"#utility.yul\":664:669   */\n  0x00\n    /* \"#utility.yul\":713:716   */\n  dup3\n    /* \"#utility.yul\":706:710   */\n  0x1f\n    /* \"#utility.yul\":698:704   */\n  dup4\n    /* \"#utility.yul\":694:711   */\n  add\n    /* \"#utility.yul\":690:717   */\n  slt\n    /* \"#utility.yul\":680:682   */\n  tag_43\n  jumpi\n    /* \"#utility.yul\":721:800   */\n  tag_44\n  tag_45\n  jump\t// in\ntag_44:\n    /* \"#utility.yul\":680:682   */\ntag_43:\n    /* \"#utility.yul\":831:837   */\n  dup2\n    /* \"#utility.yul\":825:838   */\n  mload\n    /* \"#utility.yul\":856:946   */\n  tag_46\n    /* \"#utility.yul\":942:945   */\n  dup5\n    /* \"#utility.yul\":934:940   */\n  dup3\n    /* \"#utility.yul\":927:931   */\n  0x20\n    /* \"#utility.yul\":919:925   */\n  dup7\n    /* \"#utility.yul\":915:932   */\n  add\n    /* \"#utility.yul\":856:946   */\n  tag_26\n  jump\t// in\ntag_46:\n    /* \"#utility.yul\":847:946   */\n  swap2\n  pop\n    /* \"#utility.yul\":670:952   */\n  pop\n  swap3\n  swap2\n  pop\n  pop\n  jump\t// out\n    /* \"#utility.yul\":958:1101   */\ntag_47:\n    /* \"#utility.yul\":1015:1020   */\n  0x00\n    /* \"#utility.yul\":1046:1052   */\n  dup2\n    /* \"#utility.yul\":1040:1053   */\n  mload\n    /* \"#utility.yul\":1031:1053   */\n  swap1\n  pop\n    /* \"#utility.yul\":1062:1095   */\n  tag_49\n    /* \"#utility.yul\":1089:1094   */\n  dup2\n    /* \"#utility.yul\":1062:1095   */\n  tag_50\n  jump\t// in\ntag_49:\n    /* \"#utility.yul\":1021:1101   */\n  swap3\n  swap2\n  pop\n  pop\n  jump\t// out\n    /* \"#utility.yul\":1107:3750   */\ntag_3:\n    /* \"#utility.yul\":1309:1315   */\n  0x00\n    /* \"#utility.yul\":1317:1323   */\n  dup1\n    /* \"#utility.yul\":1325:1331   */\n  0x00\n    /* \"#utility.yul\":1333:1339   */\n  dup1\n    /* \"#utility.yul\":1341:1347   */\n  0x00\n    /* \"#utility.yul\":1349:1355   */\n  dup1\n    /* \"#utility.yul\":1357:1363   */\n  0x00\n    /* \"#utility.yul\":1365:1371   */\n  dup1\n    /* \"#utility.yul\":1373:1379   */\n  0x00\n    /* \"#utility.yul\":1422:1425   */\n  0x0120\n    /* \"#utility.yul\":1410:1419   */\n  dup11\n    /* \"#utility.yul\":1401:1408   */\n  dup13\n    /* \"#utility.yul\":1397:1420   */\n  sub\n    /* \"#utility.yul\":1393:1426   */\n  slt\n    /* \"#utility.yul\":1390:1392   */\n  iszero\n  tag_52\n  jumpi\n    /* \"#utility.yul\":1429:1508   */\n  tag_53\n  tag_54\n  jump\t// in\ntag_53:\n    /* \"#utility.yul\":1390:1392   */\ntag_52:\n    /* \"#utility.yul\":1549:1550   */\n  0x00\n    /* \"#utility.yul\":1574:1638   */\n  tag_55\n    /* \"#utility.yul\":1630:1637   */\n  dup13\n    /* \"#utility.yul\":1621:1627   */\n  dup3\n    /* \"#utility.yul\":1610:1619   */\n  dup14\n    /* \"#utility.yul\":1606:1628   */\n  add\n    /* \"#utility.yul\":1574:1638   */\n  tag_47\n  jump\t// in\ntag_55:\n    /* \"#utility.yul\":1564:1638   */\n  swap10\n  pop\n    /* \"#utility.yul\":1520:1648   */\n  pop\n    /* \"#utility.yul\":1708:1710   */\n  0x20\n    /* \"#utility.yul\":1697:1706   */\n  dup11\n    /* \"#utility.yul\":1693:1711   */\n  add\n    /* \"#utility.yul\":1687:1712   */\n  mload\n    /* \"#utility.yul\":1739:1757   */\n  0xffffffffffffffff\n    /* \"#utility.yul\":1731:1737   */\n  dup2\n    /* \"#utility.yul\":1728:1758   */\n  gt\n    /* \"#utility.yul\":1725:1727   */\n  iszero\n  tag_56\n  jumpi\n    /* \"#utility.yul\":1761:1840   */\n  tag_57\n  tag_58\n  jump\t// in\ntag_57:\n    /* \"#utility.yul\":1725:1727   */\ntag_56:\n    /* \"#utility.yul\":1866:1940   */\n  tag_59\n    /* \"#utility.yul\":1932:1939   */\n  dup13\n    /* \"#utility.yul\":1923:1929   */\n  dup3\n    /* \"#utility.yul\":1912:1921   */\n  dup14\n    /* \"#utility.yul\":1908:1930   */\n  add\n    /* \"#utility.yul\":1866:1940   */\n  tag_41\n  jump\t// in\ntag_59:\n    /* \"#utility.yul\":1856:1940   */\n  swap9\n  pop\n    /* \"#utility.yul\":1658:1950   */\n  pop\n    /* \"#utility.yul\":2010:2012   */\n  0x40\n    /* \"#utility.yul\":1999:2008   */\n  dup11\n    /* \"#utility.yul\":1995:2013   */\n  add\n    /* \"#utility.yul\":1989:2014   */\n  mload\n    /* \"#utility.yul\":2041:2059   */\n  0xffffffffffffffff\n    /* \"#utility.yul\":2033:2039   */\n  dup2\n    /* \"#utility.yul\":2030:2060   */\n  gt\n    /* \"#utility.yul\":2027:2029   */\n  iszero\n  tag_60\n  jumpi\n    /* \"#utility.yul\":2063:2142   */\n  tag_61\n  tag_58\n  jump\t// in\ntag_61:\n    /* \"#utility.yul\":2027:2029   */\ntag_60:\n    /* \"#utility.yul\":2168:2242   */\n  tag_62\n    /* \"#utility.yul\":2234:2241   */\n  dup13\n    /* \"#utility.yul\":2225:2231   */\n  dup3\n    /* \"#utility.yul\":2214:2223   */\n  dup14\n    /* \"#utility.yul\":2210:2232   */\n  add\n    /* \"#utility.yul\":2168:2242   */\n  tag_41\n  jump\t// in\ntag_62:\n    /* \"#utility.yul\":2158:2242   */\n  swap8\n  pop\n    /* \"#utility.yul\":1960:2252   */\n  pop\n    /* \"#utility.yul\":2312:2314   */\n  0x60\n    /* \"#utility.yul\":2301:2310   */\n  dup11\n    /* \"#utility.yul\":2297:2315   */\n  add\n    /* \"#utility.yul\":2291:2316   */\n  mload\n    /* \"#utility.yul\":2343:2361   */\n  0xffffffffffffffff\n    /* \"#utility.yul\":2335:2341   */\n  dup2\n    /* \"#utility.yul\":2332:2362   */\n  gt\n    /* \"#utility.yul\":2329:2331   */\n  iszero\n  tag_63\n  jumpi\n    /* \"#utility.yul\":2365:2444   */\n  tag_64\n  tag_58\n  jump\t// in\ntag_64:\n    /* \"#utility.yul\":2329:2331   */\ntag_63:\n    /* \"#utility.yul\":2470:2544   */\n  tag_65\n    /* \"#utility.yul\":2536:2543   */\n  dup13\n    /* \"#utility.yul\":2527:2533   */\n  dup3\n    /* \"#utility.yul\":2516:2525   */\n  dup14\n    /* \"#utility.yul\":2512:2534   */\n  add\n    /* \"#utility.yul\":2470:2544   */\n  tag_41\n  jump\t// in\ntag_65:\n    /* \"#utility.yul\":2460:2544   */\n  swap7\n  pop\n    /* \"#utility.yul\":2262:2554   */\n  pop\n    /* \"#utility.yul\":2593:2596   */\n  0x80\n    /* \"#utility.yul\":2620:2684   */\n  tag_66\n    /* \"#utility.yul\":2676:2683   */\n  dup13\n    /* \"#utility.yul\":2667:2673   */\n  dup3\n    /* \"#utility.yul\":2656:2665   */\n  dup14\n    /* \"#utility.yul\":2652:2674   */\n  add\n    /* \"#utility.yul\":2620:2684   */\n  tag_47\n  jump\t// in\ntag_66:\n    /* \"#utility.yul\":2610:2684   */\n  swap6\n  pop\n    /* \"#utility.yul\":2564:2694   */\n  pop\n    /* \"#utility.yul\":2754:2757   */\n  0xa0\n    /* \"#utility.yul\":2743:2752   */\n  dup11\n    /* \"#utility.yul\":2739:2758   */\n  add\n    /* \"#utility.yul\":2733:2759   */\n  mload\n    /* \"#utility.yul\":2786:2804   */\n  0xffffffffffffffff\n    /* \"#utility.yul\":2778:2784   */\n  dup2\n    /* \"#utility.yul\":2775:2805   */\n  gt\n    /* \"#utility.yul\":2772:2774   */\n  iszero\n  tag_67\n  jumpi\n    /* \"#utility.yul\":2808:2887   */\n  tag_68\n  tag_58\n  jump\t// in\ntag_68:\n    /* \"#utility.yul\":2772:2774   */\ntag_67:\n    /* \"#utility.yul\":2913:2987   */\n  tag_69\n    /* \"#utility.yul\":2979:2986   */\n  dup13\n    /* \"#utility.yul\":2970:2976   */\n  dup3\n    /* \"#utility.yul\":2959:2968   */\n  dup14\n    /* \"#utility.yul\":2955:2977   */\n  add\n    /* \"#utility.yul\":2913:2987   */\n  tag_41\n  jump\t// in\ntag_69:\n    /* \"#utility.yul\":2903:2987   */\n  swap5\n  pop\n    /* \"#utility.yul\":2704:2997   */\n  pop\n    /* \"#utility.yul\":3057:3060   */\n  0xc0\n    /* \"#utility.yul\":3046:3055   */\n  dup11\n    /* \"#utility.yul\":3042:3061   */\n  add\n    /* \"#utility.yul\":3036:3062   */\n  mload\n    /* \"#utility.yul\":3089:3107   */\n  0xffffffffffffffff\n    /* \"#utility.yul\":3081:3087   */\n  dup2\n    /* \"#utility.yul\":3078:3108   */\n  gt\n    /* \"#utility.yul\":3075:3077   */\n  iszero\n  tag_70\n  jumpi\n    /* \"#utility.yul\":3111:3190   */\n  tag_71\n  tag_58\n  jump\t// in\ntag_71:\n    /* \"#utility.yul\":3075:3077   */\ntag_70:\n    /* \"#utility.yul\":3216:3290   */\n  tag_72\n    /* \"#utility.yul\":3282:3289   */\n  dup13\n    /* \"#utility.yul\":3273:3279   */\n  dup3\n    /* \"#utility.yul\":3262:3271   */\n  dup14\n    /* \"#utility.yul\":3258:3280   */\n  add\n    /* \"#utility.yul\":3216:3290   */\n  tag_41\n  jump\t// in\ntag_72:\n    /* \"#utility.yul\":3206:3290   */\n  swap4\n  pop\n    /* \"#utility.yul\":3007:3300   */\n  pop\n    /* \"#utility.yul\":3339:3342   */\n  0xe0\n    /* \"#utility.yul\":3366:3430   */\n  tag_73\n    /* \"#utility.yul\":3422:3429   */\n  dup13\n    /* \"#utility.yul\":3413:3419   */\n  dup3\n    /* \"#utility.yul\":3402:3411   */\n  dup14\n    /* \"#utility.yul\":3398:3420   */\n  add\n    /* \"#utility.yul\":3366:3430   */\n  tag_37\n  jump\t// in\ntag_73:\n    /* \"#utility.yul\":3356:3430   */\n  swap3\n  pop\n    /* \"#utility.yul\":3310:3440   */\n  pop\n    /* \"#utility.yul\":3500:3503   */\n  0x0100\n    /* \"#utility.yul\":3489:3498   */\n  dup11\n    /* \"#utility.yul\":3485:3504   */\n  add\n    /* \"#utility.yul\":3479:3505   */\n  mload\n    /* \"#utility.yul\":3532:3550   */\n  0xffffffffffffffff\n    /* \"#utility.yul\":3524:3530   */\n  dup2\n    /* \"#utility.yul\":3521:3551   */\n  gt\n    /* \"#utility.yul\":3518:3520   */\n  iszero\n  tag_74\n  jumpi\n    /* \"#utility.yul\":3554:3633   */\n  tag_75\n  tag_58\n  jump\t// in\ntag_75:\n    /* \"#utility.yul\":3518:3520   */\ntag_74:\n    /* \"#utility.yul\":3659:3733   */\n  tag_76\n    /* \"#utility.yul\":3725:3732   */\n  dup13\n    /* \"#utility.yul\":3716:3722   */\n  dup3\n    /* \"#utility.yul\":3705:3714   */\n  dup14\n    /* \"#utility.yul\":3701:3723   */\n  add\n    /* \"#utility.yul\":3659:3733   */\n  tag_41\n  jump\t// in\ntag_76:\n    /* \"#utility.yul\":3649:3733   */\n  swap2\n  pop\n    /* \"#utility.yul\":3450:3743   */\n  pop\n    /* \"#utility.yul\":1380:3750   */\n  swap3\n  swap6\n  swap9\n  pop\n  swap3\n  swap6\n  swap9\n  pop\n  swap3\n  swap6\n  swap9\n  jump\t// out\n    /* \"#utility.yul\":3756:3885   */\ntag_31:\n    /* \"#utility.yul\":3790:3796   */\n  0x00\n    /* \"#utility.yul\":3817:3837   */\n  tag_78\n  tag_79\n  jump\t// in\ntag_78:\n    /* \"#utility.yul\":3807:3837   */\n  swap1\n  pop\n    /* \"#utility.yul\":3846:3879   */\n  tag_80\n    /* \"#utility.yul\":3874:3878   */\n  dup3\n    /* \"#utility.yul\":3866:3872   */\n  dup3\n    /* \"#utility.yul\":3846:3879   */\n  tag_81\n  jump\t// in\ntag_80:\n    /* \"#utility.yul\":3797:3885   */\n  swap2\n  swap1\n  pop\n  jump\t// out\n    /* \"#utility.yul\":3891:3966   */\ntag_79:\n    /* \"#utility.yul\":3924:3930   */\n  0x00\n    /* \"#utility.yul\":3957:3959   */\n  0x40\n    /* \"#utility.yul\":3951:3960   */\n  mload\n    /* \"#utility.yul\":3941:3960   */\n  swap1\n  pop\n    /* \"#utility.yul\":3931:3966   */\n  swap1\n  jump\t// out\n    /* \"#utility.yul\":3972:4280   */\ntag_30:\n    /* \"#utility.yul\":4034:4038   */\n  0x00\n    /* \"#utility.yul\":4124:4142   */\n  0xffffffffffffffff\n    /* \"#utility.yul\":4116:4122   */\n  dup3\n    /* \"#utility.yul\":4113:4143   */\n  gt\n    /* \"#utility.yul\":4110:4112   */\n  iszero\n  tag_84\n  jumpi\n    /* \"#utility.yul\":4146:4164   */\n  tag_85\n  tag_86\n  jump\t// in\ntag_85:\n    /* \"#utility.yul\":4110:4112   */\ntag_84:\n    /* \"#utility.yul\":4184:4213   */\n  tag_87\n    /* \"#utility.yul\":4206:4212   */\n  dup3\n    /* \"#utility.yul\":4184:4213   */\n  tag_88\n  jump\t// in\ntag_87:\n    /* \"#utility.yul\":4176:4213   */\n  swap1\n  pop\n    /* \"#utility.yul\":4268:4272   */\n  0x20\n    /* \"#utility.yul\":4262:4266   */\n  dup2\n    /* \"#utility.yul\":4258:4273   */\n  add\n    /* \"#utility.yul\":4250:4273   */\n  swap1\n  pop\n    /* \"#utility.yul\":4039:4280   */\n  swap2\n  swap1\n  pop\n  jump\t// out\n    /* \"#utility.yul\":4286:4382   */\ntag_89:\n    /* \"#utility.yul\":4323:4330   */\n  0x00\n    /* \"#utility.yul\":4352:4376   */\n  tag_91\n    /* \"#utility.yul\":4370:4375   */\n  dup3\n    /* \"#utility.yul\":4352:4376   */\n  tag_92\n  jump\t// in\ntag_91:\n    /* \"#utility.yul\":4341:4376   */\n  swap1\n  pop\n    /* \"#utility.yul\":4331:4382   */\n  swap2\n  swap1\n  pop\n  jump\t// out\n    /* \"#utility.yul\":4388:4514   */\ntag_92:\n    /* \"#utility.yul\":4425:4432   */\n  0x00\n    /* \"#utility.yul\":4465:4507   */\n  0xffffffffffffffffffffffffffffffffffffffff\n    /* \"#utility.yul\":4458:4463   */\n  dup3\n    /* \"#utility.yul\":4454:4508   */\n  and\n    /* \"#utility.yul\":4443:4508   */\n  swap1\n  pop\n    /* \"#utility.yul\":4433:4514   */\n  swap2\n  swap1\n  pop\n  jump\t// out\n    /* \"#utility.yul\":4520:4597   */\ntag_94:\n    /* \"#utility.yul\":4557:4564   */\n  0x00\n    /* \"#utility.yul\":4586:4591   */\n  dup2\n    /* \"#utility.yul\":4575:4591   */\n  swap1\n  pop\n    /* \"#utility.yul\":4565:4597   */\n  swap2\n  swap1\n  pop\n  jump\t// out\n    /* \"#utility.yul\":4603:4910   */\ntag_36:\n    /* \"#utility.yul\":4671:4672   */\n  0x00\n    /* \"#utility.yul\":4681:4794   */\ntag_97:\n    /* \"#utility.yul\":4695:4701   */\n  dup4\n    /* \"#utility.yul\":4692:4693   */\n  dup2\n    /* \"#utility.yul\":4689:4702   */\n  lt\n    /* \"#utility.yul\":4681:4794   */\n  iszero\n  tag_99\n  jumpi\n    /* \"#utility.yul\":4780:4781   */\n  dup1\n    /* \"#utility.yul\":4775:4778   */\n  dup3\n    /* \"#utility.yul\":4771:4782   */\n  add\n    /* \"#utility.yul\":4765:4783   */\n  mload\n    /* \"#utility.yul\":4761:4762   */\n  dup2\n    /* \"#utility.yul\":4756:4759   */\n  dup5\n    /* \"#utility.yul\":4752:4763   */\n  add\n    /* \"#utility.yul\":4745:4784   */\n  mstore\n    /* \"#utility.yul\":4717:4719   */\n  0x20\n    /* \"#utility.yul\":4714:4715   */\n  dup2\n    /* \"#utility.yul\":4710:4720   */\n  add\n    /* \"#utility.yul\":4705:4720   */\n  swap1\n  pop\n    /* \"#utility.yul\":4681:4794   */\n  jump(tag_97)\ntag_99:\n    /* \"#utility.yul\":4812:4818   */\n  dup4\n    /* \"#utility.yul\":4809:4810   */\n  dup2\n    /* \"#utility.yul\":4806:4819   */\n  gt\n    /* \"#utility.yul\":4803:4805   */\n  iszero\n  tag_100\n  jumpi\n    /* \"#utility.yul\":4892:4893   */\n  0x00\n    /* \"#utility.yul\":4883:4889   */\n  dup5\n    /* \"#utility.yul\":4878:4881   */\n  dup5\n    /* \"#utility.yul\":4874:4890   */\n  add\n    /* \"#utility.yul\":4867:4894   */\n  mstore\n    /* \"#utility.yul\":4803:4805   */\ntag_100:\n    /* \"#utility.yul\":4652:4910   */\n  pop\n  pop\n  pop\n  pop\n  jump\t// out\n    /* \"#utility.yul\":4916:5236   */\ntag_15:\n    /* \"#utility.yul\":4960:4966   */\n  0x00\n    /* \"#utility.yul\":4997:4998   */\n  0x02\n    /* \"#utility.yul\":4991:4995   */\n  dup3\n    /* \"#utility.yul\":4987:4999   */\n  div\n    /* \"#utility.yul\":4977:4999   */\n  swap1\n  pop\n    /* \"#utility.yul\":5044:5045   */\n  0x01\n    /* \"#utility.yul\":5038:5042   */\n  dup3\n    /* \"#utility.yul\":5034:5046   */\n  and\n    /* \"#utility.yul\":5065:5083   */\n  dup1\n    /* \"#utility.yul\":5055:5057   */\n  tag_102\n  jumpi\n    /* \"#utility.yul\":5121:5125   */\n  0x7f\n    /* \"#utility.yul\":5113:5119   */\n  dup3\n    /* \"#utility.yul\":5109:5126   */\n  and\n    /* \"#utility.yul\":5099:5126   */\n  swap2\n  pop\n    /* \"#utility.yul\":5055:5057   */\ntag_102:\n    /* \"#utility.yul\":5183:5185   */\n  0x20\n    /* \"#utility.yul\":5175:5181   */\n  dup3\n    /* \"#utility.yul\":5172:5186   */\n  lt\n    /* \"#utility.yul\":5152:5170   */\n  dup2\n    /* \"#utility.yul\":5149:5187   */\n  eq\n    /* \"#utility.yul\":5146:5148   */\n  iszero\n  tag_103\n  jumpi\n    /* \"#utility.yul\":5202:5220   */\n  tag_104\n  tag_105\n  jump\t// in\ntag_104:\n    /* \"#utility.yul\":5146:5148   */\ntag_103:\n    /* \"#utility.yul\":4967:5236   */\n  pop\n  swap2\n  swap1\n  pop\n  jump\t// out\n    /* \"#utility.yul\":5242:5523   */\ntag_81:\n    /* \"#utility.yul\":5325:5352   */\n  tag_107\n    /* \"#utility.yul\":5347:5351   */\n  dup3\n    /* \"#utility.yul\":5325:5352   */\n  tag_88\n  jump\t// in\ntag_107:\n    /* \"#utility.yul\":5317:5323   */\n  dup2\n    /* \"#utility.yul\":5313:5353   */\n  add\n    /* \"#utility.yul\":5455:5461   */\n  dup2\n    /* \"#utility.yul\":5443:5453   */\n  dup2\n    /* \"#utility.yul\":5440:5462   */\n  lt\n    /* \"#utility.yul\":5419:5437   */\n  0xffffffffffffffff\n    /* \"#utility.yul\":5407:5417   */\n  dup3\n    /* \"#utility.yul\":5404:5438   */\n  gt\n    /* \"#utility.yul\":5401:5463   */\n  or\n    /* \"#utility.yul\":5398:5400   */\n  iszero\n  tag_108\n  jumpi\n    /* \"#utility.yul\":5466:5484   */\n  tag_109\n  tag_86\n  jump\t// in\ntag_109:\n    /* \"#utility.yul\":5398:5400   */\ntag_108:\n    /* \"#utility.yul\":5506:5516   */\n  dup1\n    /* \"#utility.yul\":5502:5504   */\n  0x40\n    /* \"#utility.yul\":5495:5517   */\n  mstore\n    /* \"#utility.yul\":5285:5523   */\n  pop\n  pop\n  pop\n  jump\t// out\n    /* \"#utility.yul\":5529:5709   */\ntag_105:\n    /* \"#utility.yul\":5577:5654   */\n  0x4e487b7100000000000000000000000000000000000000000000000000000000\n    /* \"#utility.yul\":5574:5575   */\n  0x00\n    /* \"#utility.yul\":5567:5655   */\n  mstore\n    /* \"#utility.yul\":5674:5678   */\n  0x22\n    /* \"#utility.yul\":5671:5672   */\n  0x04\n    /* \"#utility.yul\":5664:5679   */\n  mstore\n    /* \"#utility.yul\":5698:5702   */\n  0x24\n    /* \"#utility.yul\":5695:5696   */\n  0x00\n    /* \"#utility.yul\":5688:5703   */\n  revert\n    /* \"#utility.yul\":5715:5895   */\ntag_86:\n    /* \"#utility.yul\":5763:5840   */\n  0x4e487b7100000000000000000000000000000000000000000000000000000000\n    /* \"#utility.yul\":5760:5761   */\n  0x00\n    /* \"#utility.yul\":5753:5841   */\n  mstore\n    /* \"#utility.yul\":5860:5864   */\n  0x41\n    /* \"#utility.yul\":5857:5858   */\n  0x04\n    /* \"#utility.yul\":5850:5865   */\n  mstore\n    /* \"#utility.yul\":5884:5888   */\n  0x24\n    /* \"#utility.yul\":5881:5882   */\n  0x00\n    /* \"#utility.yul\":5874:5889   */\n  revert\n    /* \"#utility.yul\":5901:6018   */\ntag_45:\n    /* \"#utility.yul\":6010:6011   */\n  0x00\n    /* \"#utility.yul\":6007:6008   */\n  dup1\n    /* \"#utility.yul\":6000:6012   */\n  revert\n    /* \"#utility.yul\":6024:6141   */\ntag_34:\n    /* \"#utility.yul\":6133:6134   */\n  0x00\n    /* \"#utility.yul\":6130:6131   */\n  dup1\n    /* \"#utility.yul\":6123:6135   */\n  revert\n    /* \"#utility.yul\":6147:6264   */\ntag_58:\n    /* \"#utility.yul\":6256:6257   */\n  0x00\n    /* \"#utility.yul\":6253:6254   */\n  dup1\n    /* \"#utility.yul\":6246:6258   */\n  revert\n    /* \"#utility.yul\":6270:6387   */\ntag_54:\n    /* \"#utility.yul\":6379:6380   */\n  0x00\n    /* \"#utility.yul\":6376:6377   */\n  dup1\n    /* \"#utility.yul\":6369:6381   */\n  revert\n    /* \"#utility.yul\":6393:6495   */\ntag_88:\n    /* \"#utility.yul\":6434:6440   */\n  0x00\n    /* \"#utility.yul\":6485:6487   */\n  0x1f\n    /* \"#utility.yul\":6481:6488   */\n  not\n    /* \"#utility.yul\":6476:6478   */\n  0x1f\n    /* \"#utility.yul\":6469:6474   */\n  dup4\n    /* \"#utility.yul\":6465:6479   */\n  add\n    /* \"#utility.yul\":6461:6489   */\n  and\n    /* \"#utility.yul\":6451:6489   */\n  swap1\n  pop\n    /* \"#utility.yul\":6441:6495   */\n  swap2\n  swap1\n  pop\n  jump\t// out\n    /* \"#utility.yul\":6501:6623   */\ntag_40:\n    /* \"#utility.yul\":6574:6598   */\n  tag_118\n    /* \"#utility.yul\":6592:6597   */\n  dup2\n    /* \"#utility.yul\":6574:6598   */\n  tag_89\n  jump\t// in\ntag_118:\n    /* \"#utility.yul\":6567:6572   */\n  dup2\n    /* \"#utility.yul\":6564:6599   */\n  eq\n    /* \"#utility.yul\":6554:6556   */\n  tag_119\n  jumpi\n    /* \"#utility.yul\":6613:6614   */\n  0x00\n    /* \"#utility.yul\":6610:6611   */\n  dup1\n    /* \"#utility.yul\":6603:6615   */\n  revert\n    /* \"#utility.yul\":6554:6556   */\ntag_119:\n    /* \"#utility.yul\":6544:6623   */\n  pop\n  jump\t// out\n    /* \"#utility.yul\":6629:6751   */\ntag_50:\n    /* \"#utility.yul\":6702:6726   */\n  tag_121\n    /* \"#utility.yul\":6720:6725   */\n  dup2\n    /* \"#utility.yul\":6702:6726   */\n  tag_94\n  jump\t// in\ntag_121:\n    /* \"#utility.yul\":6695:6700   */\n  dup2\n    /* \"#utility.yul\":6692:6727   */\n  eq\n    /* \"#utility.yul\":6682:6684   */\n  tag_122\n  jumpi\n    /* \"#utility.yul\":6741:6742   */\n  0x00\n    /* \"#utility.yul\":6738:6739   */\n  dup1\n    /* \"#utility.yul\":6731:6743   */\n  revert\n    /* \"#utility.yul\":6682:6684   */\ntag_122:\n    /* \"#utility.yul\":6672:6751   */\n  pop\n  jump\t// out\n    /* \"Crowdfunding\":869:2961  contract Campaign {\r... */\ntag_13:\n  dataSize(sub_0)\n  dup1\n  dataOffset(sub_0)\n  0x00\n  codecopy\n  0x00\n  return\nstop\n\nsub_0: assembly {\n        /* \"Crowdfunding\":869:2961  contract Campaign {\r... */\n      mstore(0x40, 0x80)\n      jumpi(tag_1, lt(calldatasize, 0x04))\n      shr(0xe0, calldataload(0x00))\n      dup1\n      0x0c611f24\n      eq\n      tag_2\n      jumpi\n      dup1\n      0x2e7700f0\n      eq\n      tag_3\n      jumpi\n      dup1\n      0x33ea3dc8\n      eq\n      tag_4\n      jumpi\n      dup1\n      0x8d59d1f1\n      eq\n      tag_5\n      jumpi\n    tag_1:\n      0x00\n      dup1\n      revert\n        /* \"Crowdfunding\":1701:2030  function getCampaignDetails () public view returns ( uint, string memory, string memory, string memory, uint, string memory, string memory, address, string memory) {\r... */\n    tag_2:\n      callvalue\n      dup1\n      iszero\n      tag_6\n      jumpi\n      0x00\n      dup1\n      revert\n    tag_6:\n      pop\n      tag_7\n      tag_8\n      jump\t// in\n    tag_7:\n      mload(0x40)\n      tag_9\n      swap10\n      swap9\n      swap8\n      swap7\n      swap6\n      swap5\n      swap4\n      swap3\n      swap2\n      swap1\n      tag_10\n      jump\t// in\n    tag_9:\n      mload(0x40)\n      dup1\n      swap2\n      sub\n      swap1\n      return\n        /* \"Crowdfunding\":2594:2697  function getTransactionCount () public view returns (uint) {\r... */\n    tag_3:\n      callvalue\n      dup1\n      iszero\n      tag_11\n      jumpi\n      0x00\n      dup1\n      revert\n    tag_11:\n      pop\n      tag_12\n      tag_13\n      jump\t// in\n    tag_12:\n      mload(0x40)\n      tag_14\n      swap2\n      swap1\n      tag_15\n      jump\t// in\n    tag_14:\n      mload(0x40)\n      dup1\n      swap2\n      sub\n      swap1\n      return\n        /* \"Crowdfunding\":2709:2952  function getTransaction (uint transaction_id) public view returns (uint, address, uint) {\r... */\n    tag_4:\n      callvalue\n      dup1\n      iszero\n      tag_16\n      jumpi\n      0x00\n      dup1\n      revert\n    tag_16:\n      pop\n      tag_17\n      0x04\n      dup1\n      calldatasize\n      sub\n      dup2\n      add\n      swap1\n      tag_18\n      swap2\n      swap1\n      tag_19\n      jump\t// in\n    tag_18:\n      tag_20\n      jump\t// in\n    tag_17:\n      mload(0x40)\n      tag_21\n      swap4\n      swap3\n      swap2\n      swap1\n      tag_22\n      jump\t// in\n    tag_21:\n      mload(0x40)\n      dup1\n      swap2\n      sub\n      swap1\n      return\n        /* \"Crowdfunding\":2273:2578  function donate (uint sender_id, string memory a_raised) public payable{\r... */\n    tag_5:\n      tag_23\n      0x04\n      dup1\n      calldatasize\n      sub\n      dup2\n      add\n      swap1\n      tag_24\n      swap2\n      swap1\n      tag_25\n      jump\t// in\n    tag_24:\n      tag_26\n      jump\t// in\n    tag_23:\n      stop\n        /* \"Crowdfunding\":1701:2030  function getCampaignDetails () public view returns ( uint, string memory, string memory, string memory, uint, string memory, string memory, address, string memory) {\r... */\n    tag_8:\n        /* \"Crowdfunding\":1754:1758  uint */\n      0x00\n        /* \"Crowdfunding\":1760:1773  string memory */\n      0x60\n        /* \"Crowdfunding\":1775:1788  string memory */\n      dup1\n        /* \"Crowdfunding\":1790:1803  string memory */\n      0x60\n        /* \"Crowdfunding\":1805:1809  uint */\n      0x00\n        /* \"Crowdfunding\":1811:1824  string memory */\n      0x60\n        /* \"Crowdfunding\":1826:1839  string memory */\n      dup1\n        /* \"Crowdfunding\":1841:1848  address */\n      0x00\n        /* \"Crowdfunding\":1850:1863  string memory */\n      0x60\n        /* \"Crowdfunding\":1885:1892  user_id */\n      sload(0x00)\n        /* \"Crowdfunding\":1894:1908  campaign_title */\n      0x01\n        /* \"Crowdfunding\":1910:1930  campaign_description */\n      0x02\n        /* \"Crowdfunding\":1932:1941  imageHash */\n      0x03\n        /* \"Crowdfunding\":1943:1954  fund_amount */\n      sload(0x04)\n        /* \"Crowdfunding\":1956:1969  amount_raised */\n      0x05\n        /* \"Crowdfunding\":1971:1983  campaign_ttl */\n      0x06\n        /* \"Crowdfunding\":1985:2010  campaign_metamask_address */\n      0x07\n      0x00\n      swap1\n      sload\n      swap1\n      0x0100\n      exp\n      swap1\n      div\n      0xffffffffffffffffffffffffffffffffffffffff\n      and\n        /* \"Crowdfunding\":2012:2021  user_mail */\n      0x08\n        /* \"Crowdfunding\":1876:2022  return ( user_id, campaign_title, campaign_description, imageHash, fund_amount, amount_raised, campaign_ttl, campaign_metamask_address, user_mail) */\n      dup8\n      dup1\n      sload\n      tag_28\n      swap1\n      tag_29\n      jump\t// in\n    tag_28:\n      dup1\n      0x1f\n      add\n      0x20\n      dup1\n      swap2\n      div\n      mul\n      0x20\n      add\n      mload(0x40)\n      swap1\n      dup2\n      add\n      0x40\n      mstore\n      dup1\n      swap3\n      swap2\n      swap1\n      dup2\n      dup2\n      mstore\n      0x20\n      add\n      dup3\n      dup1\n      sload\n      tag_30\n      swap1\n      tag_29\n      jump\t// in\n    tag_30:\n      dup1\n      iszero\n      tag_31\n      jumpi\n      dup1\n      0x1f\n      lt\n      tag_32\n      jumpi\n      0x0100\n      dup1\n      dup4\n      sload\n      div\n      mul\n      dup4\n      mstore\n      swap2\n      0x20\n      add\n      swap2\n      jump(tag_31)\n    tag_32:\n      dup3\n      add\n      swap2\n      swap1\n      0x00\n      mstore\n      keccak256(0x00, 0x20)\n      swap1\n    tag_33:\n      dup2\n      sload\n      dup2\n      mstore\n      swap1\n      0x01\n      add\n      swap1\n      0x20\n      add\n      dup1\n      dup4\n      gt\n      tag_33\n      jumpi\n      dup3\n      swap1\n      sub\n      0x1f\n      and\n      dup3\n      add\n      swap2\n    tag_31:\n      pop\n      pop\n      pop\n      pop\n      pop\n      swap8\n      pop\n      dup7\n      dup1\n      sload\n      tag_34\n      swap1\n      tag_29\n      jump\t// in\n    tag_34:\n      dup1\n      0x1f\n      add\n      0x20\n      dup1\n      swap2\n      div\n      mul\n      0x20\n      add\n      mload(0x40)\n      swap1\n      dup2\n      add\n      0x40\n      mstore\n      dup1\n      swap3\n      swap2\n      swap1\n      dup2\n      dup2\n      mstore\n      0x20\n      add\n      dup3\n      dup1\n      sload\n      tag_35\n      swap1\n      tag_29\n      jump\t// in\n    tag_35:\n      dup1\n      iszero\n      tag_36\n      jumpi\n      dup1\n      0x1f\n      lt\n      tag_37\n      jumpi\n      0x0100\n      dup1\n      dup4\n      sload\n      div\n      mul\n      dup4\n      mstore\n      swap2\n      0x20\n      add\n      swap2\n      jump(tag_36)\n    tag_37:\n      dup3\n      add\n      swap2\n      swap1\n      0x00\n      mstore\n      keccak256(0x00, 0x20)\n      swap1\n    tag_38:\n      dup2\n      sload\n      dup2\n      mstore\n      swap1\n      0x01\n      add\n      swap1\n      0x20\n      add\n      dup1\n      dup4\n      gt\n      tag_38\n      jumpi\n      dup3\n      swap1\n      sub\n      0x1f\n      and\n      dup3\n      add\n      swap2\n    tag_36:\n      pop\n      pop\n      pop\n      pop\n      pop\n      swap7\n      pop\n      dup6\n      dup1\n      sload\n      tag_39\n      swap1\n      tag_29\n      jump\t// in\n    tag_39:\n      dup1\n      0x1f\n      add\n      0x20\n      dup1\n      swap2\n      div\n      mul\n      0x20\n      add\n      mload(0x40)\n      swap1\n      dup2\n      add\n      0x40\n      mstore\n      dup1\n      swap3\n      swap2\n      swap1\n      dup2\n      dup2\n      mstore\n      0x20\n      add\n      dup3\n      dup1\n      sload\n      tag_40\n      swap1\n      tag_29\n      jump\t// in\n    tag_40:\n      dup1\n      iszero\n      tag_41\n      jumpi\n      dup1\n      0x1f\n      lt\n      tag_42\n      jumpi\n      0x0100\n      dup1\n      dup4\n      sload\n      div\n      mul\n      dup4\n      mstore\n      swap2\n      0x20\n      add\n      swap2\n      jump(tag_41)\n    tag_42:\n      dup3\n      add\n      swap2\n      swap1\n      0x00\n      mstore\n      keccak256(0x00, 0x20)\n      swap1\n    tag_43:\n      dup2\n      sload\n      dup2\n      mstore\n      swap1\n      0x01\n      add\n      swap1\n      0x20\n      add\n      dup1\n      dup4\n      gt\n      tag_43\n      jumpi\n      dup3\n      swap1\n      sub\n      0x1f\n      and\n      dup3\n      add\n      swap2\n    tag_41:\n      pop\n      pop\n      pop\n      pop\n      pop\n      swap6\n      pop\n      dup4\n      dup1\n      sload\n      tag_44\n      swap1\n      tag_29\n      jump\t// in\n    tag_44:\n      dup1\n      0x1f\n      add\n      0x20\n      dup1\n      swap2\n      div\n      mul\n      0x20\n      add\n      mload(0x40)\n      swap1\n      dup2\n      add\n      0x40\n      mstore\n      dup1\n      swap3\n      swap2\n      swap1\n      dup2\n      dup2\n      mstore\n      0x20\n      add\n      dup3\n      dup1\n      sload\n      tag_45\n      swap1\n      tag_29\n      jump\t// in\n    tag_45:\n      dup1\n      iszero\n      tag_46\n      jumpi\n      dup1\n      0x1f\n      lt\n      tag_47\n      jumpi\n      0x0100\n      dup1\n      dup4\n      sload\n      div\n      mul\n      dup4\n      mstore\n      swap2\n      0x20\n      add\n      swap2\n      jump(tag_46)\n    tag_47:\n      dup3\n      add\n      swap2\n      swap1\n      0x00\n      mstore\n      keccak256(0x00, 0x20)\n      swap1\n    tag_48:\n      dup2\n      sload\n      dup2\n      mstore\n      swap1\n      0x01\n      add\n      swap1\n      0x20\n      add\n      dup1\n      dup4\n      gt\n      tag_48\n      jumpi\n      dup3\n      swap1\n      sub\n      0x1f\n      and\n      dup3\n      add\n      swap2\n    tag_46:\n      pop\n      pop\n      pop\n      pop\n      pop\n      swap4\n      pop\n      dup3\n      dup1\n      sload\n      tag_49\n      swap1\n      tag_29\n      jump\t// in\n    tag_49:\n      dup1\n      0x1f\n      add\n      0x20\n      dup1\n      swap2\n      div\n      mul\n      0x20\n      add\n      mload(0x40)\n      swap1\n      dup2\n      add\n      0x40\n      mstore\n      dup1\n      swap3\n      swap2\n      swap1\n      dup2\n      dup2\n      mstore\n      0x20\n      add\n      dup3\n      dup1\n      sload\n      tag_50\n      swap1\n      tag_29\n      jump\t// in\n    tag_50:\n      dup1\n      iszero\n      tag_51\n      jumpi\n      dup1\n      0x1f\n      lt\n      tag_52\n      jumpi\n      0x0100\n      dup1\n      dup4\n      sload\n      div\n      mul\n      dup4\n      mstore\n      swap2\n      0x20\n      add\n      swap2\n      jump(tag_51)\n    tag_52:\n      dup3\n      add\n      swap2\n      swap1\n      0x00\n      mstore\n      keccak256(0x00, 0x20)\n      swap1\n    tag_53:\n      dup2\n      sload\n      dup2\n      mstore\n      swap1\n      0x01\n      add\n      swap1\n      0x20\n      add\n      dup1\n      dup4\n      gt\n      tag_53\n      jumpi\n      dup3\n      swap1\n      sub\n      0x1f\n      and\n      dup3\n      add\n      swap2\n    tag_51:\n      pop\n      pop\n      pop\n      pop\n      pop\n      swap3\n      pop\n      dup1\n      dup1\n      sload\n      tag_54\n      swap1\n      tag_29\n      jump\t// in\n    tag_54:\n      dup1\n      0x1f\n      add\n      0x20\n      dup1\n      swap2\n      div\n      mul\n      0x20\n      add\n      mload(0x40)\n      swap1\n      dup2\n      add\n      0x40\n      mstore\n      dup1\n      swap3\n      swap2\n      swap1\n      dup2\n      dup2\n      mstore\n      0x20\n      add\n      dup3\n      dup1\n      sload\n      tag_55\n      swap1\n      tag_29\n      jump\t// in\n    tag_55:\n      dup1\n      iszero\n      tag_56\n      jumpi\n      dup1\n      0x1f\n      lt\n      tag_57\n      jumpi\n      0x0100\n      dup1\n      dup4\n      sload\n      div\n      mul\n      dup4\n      mstore\n      swap2\n      0x20\n      add\n      swap2\n      jump(tag_56)\n    tag_57:\n      dup3\n      add\n      swap2\n      swap1\n      0x00\n      mstore\n      keccak256(0x00, 0x20)\n      swap1\n    tag_58:\n      dup2\n      sload\n      dup2\n      mstore\n      swap1\n      0x01\n      add\n      swap1\n      0x20\n      add\n      dup1\n      dup4\n      gt\n      tag_58\n      jumpi\n      dup3\n      swap1\n      sub\n      0x1f\n      and\n      dup3\n      add\n      swap2\n    tag_56:\n      pop\n      pop\n      pop\n      pop\n      pop\n      swap1\n      pop\n      swap9\n      pop\n      swap9\n      pop\n      swap9\n      pop\n      swap9\n      pop\n      swap9\n      pop\n      swap9\n      pop\n      swap9\n      pop\n      swap9\n      pop\n      swap9\n      pop\n        /* \"Crowdfunding\":1701:2030  function getCampaignDetails () public view returns ( uint, string memory, string memory, string memory, uint, string memory, string memory, address, string memory) {\r... */\n      swap1\n      swap2\n      swap3\n      swap4\n      swap5\n      swap6\n      swap7\n      swap8\n      swap9\n      jump\t// out\n        /* \"Crowdfunding\":2594:2697  function getTransactionCount () public view returns (uint) {\r... */\n    tag_13:\n        /* \"Crowdfunding\":2647:2651  uint */\n      0x00\n        /* \"Crowdfunding\":2672:2688  transactionCount */\n      sload(0x09)\n        /* \"Crowdfunding\":2664:2689  return (transactionCount) */\n      swap1\n      pop\n        /* \"Crowdfunding\":2594:2697  function getTransactionCount () public view returns (uint) {\r... */\n      swap1\n      jump\t// out\n        /* \"Crowdfunding\":2709:2952  function getTransaction (uint transaction_id) public view returns (uint, address, uint) {\r... */\n    tag_20:\n        /* \"Crowdfunding\":2776:2780  uint */\n      0x00\n        /* \"Crowdfunding\":2782:2789  address */\n      dup1\n        /* \"Crowdfunding\":2791:2795  uint */\n      0x00\n        /* \"Crowdfunding\":2816:2827  transaction */\n      0x0a\n        /* \"Crowdfunding\":2816:2843  transaction[transaction_id] */\n      0x00\n        /* \"Crowdfunding\":2828:2842  transaction_id */\n      dup6\n        /* \"Crowdfunding\":2816:2843  transaction[transaction_id] */\n      dup2\n      mstore\n      0x20\n      add\n      swap1\n      dup2\n      mstore\n      0x20\n      add\n      0x00\n      keccak256\n        /* \"Crowdfunding\":2816:2853  transaction[transaction_id].sender_id */\n      0x00\n      add\n      sload\n        /* \"Crowdfunding\":2855:2866  transaction */\n      0x0a\n        /* \"Crowdfunding\":2855:2882  transaction[transaction_id] */\n      0x00\n        /* \"Crowdfunding\":2867:2881  transaction_id */\n      dup7\n        /* \"Crowdfunding\":2855:2882  transaction[transaction_id] */\n      dup2\n      mstore\n      0x20\n      add\n      swap1\n      dup2\n      mstore\n      0x20\n      add\n      0x00\n      keccak256\n        /* \"Crowdfunding\":2855:2907  transaction[transaction_id].donator_metamask_address */\n      0x01\n      add\n      0x00\n      swap1\n      sload\n      swap1\n      0x0100\n      exp\n      swap1\n      div\n      0xffffffffffffffffffffffffffffffffffffffff\n      and\n        /* \"Crowdfunding\":2909:2920  transaction */\n      0x0a\n        /* \"Crowdfunding\":2909:2936  transaction[transaction_id] */\n      0x00\n        /* \"Crowdfunding\":2921:2935  transaction_id */\n      dup8\n        /* \"Crowdfunding\":2909:2936  transaction[transaction_id] */\n      dup2\n      mstore\n      0x20\n      add\n      swap1\n      dup2\n      mstore\n      0x20\n      add\n      0x00\n      keccak256\n        /* \"Crowdfunding\":2909:2943  transaction[transaction_id].amount */\n      0x02\n      add\n      sload\n        /* \"Crowdfunding\":2808:2944  return (transaction[transaction_id].sender_id, transaction[transaction_id].donator_metamask_address, transaction[transaction_id].amount) */\n      swap3\n      pop\n      swap3\n      pop\n      swap3\n      pop\n        /* \"Crowdfunding\":2709:2952  function getTransaction (uint transaction_id) public view returns (uint, address, uint) {\r... */\n      swap2\n      swap4\n      swap1\n      swap3\n      pop\n      jump\t// out\n        /* \"Crowdfunding\":2273:2578  function donate (uint sender_id, string memory a_raised) public payable{\r... */\n    tag_26:\n        /* \"Crowdfunding\":2355:2371  transactionCount */\n      0x09\n      0x00\n        /* \"Crowdfunding\":2355:2373  transactionCount++ */\n      dup2\n      sload\n      dup1\n      swap3\n      swap2\n      swap1\n      tag_62\n      swap1\n      tag_63\n      jump\t// in\n    tag_62:\n      swap2\n      swap1\n      pop\n      sstore\n      pop\n        /* \"Crowdfunding\":2416:2470  campaignTransaction( sender_id, msg.sender, msg.value) */\n      mload(0x40)\n      dup1\n      0x60\n      add\n      0x40\n      mstore\n      dup1\n        /* \"Crowdfunding\":2437:2446  sender_id */\n      dup4\n        /* \"Crowdfunding\":2416:2470  campaignTransaction( sender_id, msg.sender, msg.value) */\n      dup2\n      mstore\n      0x20\n      add\n        /* \"Crowdfunding\":2448:2458  msg.sender */\n      caller\n        /* \"Crowdfunding\":2416:2470  campaignTransaction( sender_id, msg.sender, msg.value) */\n      0xffffffffffffffffffffffffffffffffffffffff\n      and\n      dup2\n      mstore\n      0x20\n      add\n        /* \"Crowdfunding\":2460:2469  msg.value */\n      callvalue\n        /* \"Crowdfunding\":2416:2470  campaignTransaction( sender_id, msg.sender, msg.value) */\n      dup2\n      mstore\n      pop\n        /* \"Crowdfunding\":2384:2395  transaction */\n      0x0a\n        /* \"Crowdfunding\":2384:2413  transaction[transactionCount] */\n      0x00\n        /* \"Crowdfunding\":2396:2412  transactionCount */\n      sload(0x09)\n        /* \"Crowdfunding\":2384:2413  transaction[transactionCount] */\n      dup2\n      mstore\n      0x20\n      add\n      swap1\n      dup2\n      mstore\n      0x20\n      add\n      0x00\n      keccak256\n        /* \"Crowdfunding\":2384:2470  transaction[transactionCount] = campaignTransaction( sender_id, msg.sender, msg.value) */\n      0x00\n      dup3\n      add\n      mload\n      dup2\n      0x00\n      add\n      sstore\n      0x20\n      dup3\n      add\n      mload\n      dup2\n      0x01\n      add\n      exp(0x0100, 0x00)\n      dup2\n      sload\n      dup2\n      0xffffffffffffffffffffffffffffffffffffffff\n      mul\n      not\n      and\n      swap1\n      dup4\n      0xffffffffffffffffffffffffffffffffffffffff\n      and\n      mul\n      or\n      swap1\n      sstore\n      pop\n      0x40\n      dup3\n      add\n      mload\n      dup2\n      0x02\n      add\n      sstore\n      swap1\n      pop\n      pop\n        /* \"Crowdfunding\":2489:2514  campaign_metamask_address */\n      0x07\n      0x00\n      swap1\n      sload\n      swap1\n      0x0100\n      exp\n      swap1\n      div\n      0xffffffffffffffffffffffffffffffffffffffff\n      and\n        /* \"Crowdfunding\":2481:2524  payable(campaign_metamask_address).transfer */\n      0xffffffffffffffffffffffffffffffffffffffff\n      and\n        /* \"Crowdfunding\":2481:2535  payable(campaign_metamask_address).transfer(msg.value) */\n      0x08fc\n        /* \"Crowdfunding\":2525:2534  msg.value */\n      callvalue\n        /* \"Crowdfunding\":2481:2535  payable(campaign_metamask_address).transfer(msg.value) */\n      swap1\n      dup2\n      iszero\n      mul\n      swap1\n      mload(0x40)\n      0x00\n      mload(0x40)\n      dup1\n      dup4\n      sub\n      dup2\n      dup6\n      dup9\n      dup9\n      call\n      swap4\n      pop\n      pop\n      pop\n      pop\n      iszero\n      dup1\n      iszero\n      tag_65\n      jumpi\n      returndatasize\n      0x00\n      dup1\n      returndatacopy\n      revert(0x00, returndatasize)\n    tag_65:\n      pop\n        /* \"Crowdfunding\":2562:2570  a_raised */\n      dup1\n        /* \"Crowdfunding\":2546:2559  amount_raised */\n      0x05\n        /* \"Crowdfunding\":2546:2570  amount_raised = a_raised */\n      swap1\n      dup1\n      mload\n      swap1\n      0x20\n      add\n      swap1\n      tag_66\n      swap3\n      swap2\n      swap1\n      tag_67\n      jump\t// in\n    tag_66:\n      pop\n        /* \"Crowdfunding\":2273:2578  function donate (uint sender_id, string memory a_raised) public payable{\r... */\n      pop\n      pop\n      jump\t// out\n    tag_67:\n      dup3\n      dup1\n      sload\n      tag_68\n      swap1\n      tag_29\n      jump\t// in\n    tag_68:\n      swap1\n      0x00\n      mstore\n      keccak256(0x00, 0x20)\n      swap1\n      0x1f\n      add\n      0x20\n      swap1\n      div\n      dup2\n      add\n      swap3\n      dup3\n      tag_70\n      jumpi\n      0x00\n      dup6\n      sstore\n      jump(tag_69)\n    tag_70:\n      dup3\n      0x1f\n      lt\n      tag_71\n      jumpi\n      dup1\n      mload\n      not(0xff)\n      and\n      dup4\n      dup1\n      add\n      or\n      dup6\n      sstore\n      jump(tag_69)\n    tag_71:\n      dup3\n      dup1\n      add\n      0x01\n      add\n      dup6\n      sstore\n      dup3\n      iszero\n      tag_69\n      jumpi\n      swap2\n      dup3\n      add\n    tag_72:\n      dup3\n      dup2\n      gt\n      iszero\n      tag_73\n      jumpi\n      dup3\n      mload\n      dup3\n      sstore\n      swap2\n      0x20\n      add\n      swap2\n      swap1\n      0x01\n      add\n      swap1\n      jump(tag_72)\n    tag_73:\n    tag_69:\n      pop\n      swap1\n      pop\n      tag_74\n      swap2\n      swap1\n      tag_75\n      jump\t// in\n    tag_74:\n      pop\n      swap1\n      jump\t// out\n    tag_75:\n    tag_76:\n      dup1\n      dup3\n      gt\n      iszero\n      tag_77\n      jumpi\n      0x00\n      dup2\n      0x00\n      swap1\n      sstore\n      pop\n      0x01\n      add\n      jump(tag_76)\n    tag_77:\n      pop\n      swap1\n      jump\t// out\n        /* \"#utility.yul\":7:419   */\n    tag_79:\n        /* \"#utility.yul\":85:90   */\n      0x00\n        /* \"#utility.yul\":110:176   */\n      tag_81\n        /* \"#utility.yul\":126:175   */\n      tag_82\n        /* \"#utility.yul\":168:174   */\n      dup5\n        /* \"#utility.yul\":126:175   */\n      tag_83\n      jump\t// in\n    tag_82:\n        /* \"#utility.yul\":110:176   */\n      tag_84\n      jump\t// in\n    tag_81:\n        /* \"#utility.yul\":101:176   */\n      swap1\n      pop\n        /* \"#utility.yul\":199:205   */\n      dup3\n        /* \"#utility.yul\":192:197   */\n      dup2\n        /* \"#utility.yul\":185:206   */\n      mstore\n        /* \"#utility.yul\":237:241   */\n      0x20\n        /* \"#utility.yul\":230:235   */\n      dup2\n        /* \"#utility.yul\":226:242   */\n      add\n        /* \"#utility.yul\":275:278   */\n      dup5\n        /* \"#utility.yul\":266:272   */\n      dup5\n        /* \"#utility.yul\":261:264   */\n      dup5\n        /* \"#utility.yul\":257:273   */\n      add\n        /* \"#utility.yul\":254:279   */\n      gt\n        /* \"#utility.yul\":251:253   */\n      iszero\n      tag_85\n      jumpi\n        /* \"#utility.yul\":282:361   */\n      tag_86\n      tag_87\n      jump\t// in\n    tag_86:\n        /* \"#utility.yul\":251:253   */\n    tag_85:\n        /* \"#utility.yul\":372:413   */\n      tag_88\n        /* \"#utility.yul\":406:412   */\n      dup5\n        /* \"#utility.yul\":401:404   */\n      dup3\n        /* \"#utility.yul\":396:399   */\n      dup6\n        /* \"#utility.yul\":372:413   */\n      tag_89\n      jump\t// in\n    tag_88:\n        /* \"#utility.yul\":91:419   */\n      pop\n      swap4\n      swap3\n      pop\n      pop\n      pop\n      jump\t// out\n        /* \"#utility.yul\":439:779   */\n    tag_90:\n        /* \"#utility.yul\":495:500   */\n      0x00\n        /* \"#utility.yul\":544:547   */\n      dup3\n        /* \"#utility.yul\":537:541   */\n      0x1f\n        /* \"#utility.yul\":529:535   */\n      dup4\n        /* \"#utility.yul\":525:542   */\n      add\n        /* \"#utility.yul\":521:548   */\n      slt\n        /* \"#utility.yul\":511:513   */\n      tag_92\n      jumpi\n        /* \"#utility.yul\":552:631   */\n      tag_93\n      tag_94\n      jump\t// in\n    tag_93:\n        /* \"#utility.yul\":511:513   */\n    tag_92:\n        /* \"#utility.yul\":669:675   */\n      dup2\n        /* \"#utility.yul\":656:676   */\n      calldataload\n        /* \"#utility.yul\":694:773   */\n      tag_95\n        /* \"#utility.yul\":769:772   */\n      dup5\n        /* \"#utility.yul\":761:767   */\n      dup3\n        /* \"#utility.yul\":754:758   */\n      0x20\n        /* \"#utility.yul\":746:752   */\n      dup7\n        /* \"#utility.yul\":742:759   */\n      add\n        /* \"#utility.yul\":694:773   */\n      tag_79\n      jump\t// in\n    tag_95:\n        /* \"#utility.yul\":685:773   */\n      swap2\n      pop\n        /* \"#utility.yul\":501:779   */\n      pop\n      swap3\n      swap2\n      pop\n      pop\n      jump\t// out\n        /* \"#utility.yul\":785:924   */\n    tag_96:\n        /* \"#utility.yul\":831:836   */\n      0x00\n        /* \"#utility.yul\":869:875   */\n      dup2\n        /* \"#utility.yul\":856:876   */\n      calldataload\n        /* \"#utility.yul\":847:876   */\n      swap1\n      pop\n        /* \"#utility.yul\":885:918   */\n      tag_98\n        /* \"#utility.yul\":912:917   */\n      dup2\n        /* \"#utility.yul\":885:918   */\n      tag_99\n      jump\t// in\n    tag_98:\n        /* \"#utility.yul\":837:924   */\n      swap3\n      swap2\n      pop\n      pop\n      jump\t// out\n        /* \"#utility.yul\":930:1259   */\n    tag_19:\n        /* \"#utility.yul\":989:995   */\n      0x00\n        /* \"#utility.yul\":1038:1040   */\n      0x20\n        /* \"#utility.yul\":1026:1035   */\n      dup3\n        /* \"#utility.yul\":1017:1024   */\n      dup5\n        /* \"#utility.yul\":1013:1036   */\n      sub\n        /* \"#utility.yul\":1009:1041   */\n      slt\n        /* \"#utility.yul\":1006:1008   */\n      iszero\n      tag_101\n      jumpi\n        /* \"#utility.yul\":1044:1123   */\n      tag_102\n      tag_103\n      jump\t// in\n    tag_102:\n        /* \"#utility.yul\":1006:1008   */\n    tag_101:\n        /* \"#utility.yul\":1164:1165   */\n      0x00\n        /* \"#utility.yul\":1189:1242   */\n      tag_104\n        /* \"#utility.yul\":1234:1241   */\n      dup5\n        /* \"#utility.yul\":1225:1231   */\n      dup3\n        /* \"#utility.yul\":1214:1223   */\n      dup6\n        /* \"#utility.yul\":1210:1232   */\n      add\n        /* \"#utility.yul\":1189:1242   */\n      tag_96\n      jump\t// in\n    tag_104:\n        /* \"#utility.yul\":1179:1242   */\n      swap2\n      pop\n        /* \"#utility.yul\":1135:1252   */\n      pop\n        /* \"#utility.yul\":996:1259   */\n      swap3\n      swap2\n      pop\n      pop\n      jump\t// out\n        /* \"#utility.yul\":1265:1919   */\n    tag_25:\n        /* \"#utility.yul\":1343:1349   */\n      0x00\n        /* \"#utility.yul\":1351:1357   */\n      dup1\n        /* \"#utility.yul\":1400:1402   */\n      0x40\n        /* \"#utility.yul\":1388:1397   */\n      dup4\n        /* \"#utility.yul\":1379:1386   */\n      dup6\n        /* \"#utility.yul\":1375:1398   */\n      sub\n        /* \"#utility.yul\":1371:1403   */\n      slt\n        /* \"#utility.yul\":1368:1370   */\n      iszero\n      tag_106\n      jumpi\n        /* \"#utility.yul\":1406:1485   */\n      tag_107\n      tag_103\n      jump\t// in\n    tag_107:\n        /* \"#utility.yul\":1368:1370   */\n    tag_106:\n        /* \"#utility.yul\":1526:1527   */\n      0x00\n        /* \"#utility.yul\":1551:1604   */\n      tag_108\n        /* \"#utility.yul\":1596:1603   */\n      dup6\n        /* \"#utility.yul\":1587:1593   */\n      dup3\n        /* \"#utility.yul\":1576:1585   */\n      dup7\n        /* \"#utility.yul\":1572:1594   */\n      add\n        /* \"#utility.yul\":1551:1604   */\n      tag_96\n      jump\t// in\n    tag_108:\n        /* \"#utility.yul\":1541:1604   */\n      swap3\n      pop\n        /* \"#utility.yul\":1497:1614   */\n      pop\n        /* \"#utility.yul\":1681:1683   */\n      0x20\n        /* \"#utility.yul\":1670:1679   */\n      dup4\n        /* \"#utility.yul\":1666:1684   */\n      add\n        /* \"#utility.yul\":1653:1685   */\n      calldataload\n        /* \"#utility.yul\":1712:1730   */\n      0xffffffffffffffff\n        /* \"#utility.yul\":1704:1710   */\n      dup2\n        /* \"#utility.yul\":1701:1731   */\n      gt\n        /* \"#utility.yul\":1698:1700   */\n      iszero\n      tag_109\n      jumpi\n        /* \"#utility.yul\":1734:1813   */\n      tag_110\n      tag_111\n      jump\t// in\n    tag_110:\n        /* \"#utility.yul\":1698:1700   */\n    tag_109:\n        /* \"#utility.yul\":1839:1902   */\n      tag_112\n        /* \"#utility.yul\":1894:1901   */\n      dup6\n        /* \"#utility.yul\":1885:1891   */\n      dup3\n        /* \"#utility.yul\":1874:1883   */\n      dup7\n        /* \"#utility.yul\":1870:1892   */\n      add\n        /* \"#utility.yul\":1839:1902   */\n      tag_90\n      jump\t// in\n    tag_112:\n        /* \"#utility.yul\":1829:1902   */\n      swap2\n      pop\n        /* \"#utility.yul\":1624:1912   */\n      pop\n        /* \"#utility.yul\":1358:1919   */\n      swap3\n      pop\n      swap3\n      swap1\n      pop\n      jump\t// out\n        /* \"#utility.yul\":1925:2043   */\n    tag_113:\n        /* \"#utility.yul\":2012:2036   */\n      tag_115\n        /* \"#utility.yul\":2030:2035   */\n      dup2\n        /* \"#utility.yul\":2012:2036   */\n      tag_116\n      jump\t// in\n    tag_115:\n        /* \"#utility.yul\":2007:2010   */\n      dup3\n        /* \"#utility.yul\":2000:2037   */\n      mstore\n        /* \"#utility.yul\":1990:2043   */\n      pop\n      pop\n      jump\t// out\n        /* \"#utility.yul\":2049:2413   */\n    tag_117:\n        /* \"#utility.yul\":2137:2140   */\n      0x00\n        /* \"#utility.yul\":2165:2204   */\n      tag_119\n        /* \"#utility.yul\":2198:2203   */\n      dup3\n        /* \"#utility.yul\":2165:2204   */\n      tag_120\n      jump\t// in\n    tag_119:\n        /* \"#utility.yul\":2220:2291   */\n      tag_121\n        /* \"#utility.yul\":2284:2290   */\n      dup2\n        /* \"#utility.yul\":2279:2282   */\n      dup6\n        /* \"#utility.yul\":2220:2291   */\n      tag_122\n      jump\t// in\n    tag_121:\n        /* \"#utility.yul\":2213:2291   */\n      swap4\n      pop\n        /* \"#utility.yul\":2300:2352   */\n      tag_123\n        /* \"#utility.yul\":2345:2351   */\n      dup2\n        /* \"#utility.yul\":2340:2343   */\n      dup6\n        /* \"#utility.yul\":2333:2337   */\n      0x20\n        /* \"#utility.yul\":2326:2331   */\n      dup7\n        /* \"#utility.yul\":2322:2338   */\n      add\n        /* \"#utility.yul\":2300:2352   */\n      tag_124\n      jump\t// in\n    tag_123:\n        /* \"#utility.yul\":2377:2406   */\n      tag_125\n        /* \"#utility.yul\":2399:2405   */\n      dup2\n        /* \"#utility.yul\":2377:2406   */\n      tag_126\n      jump\t// in\n    tag_125:\n        /* \"#utility.yul\":2372:2375   */\n      dup5\n        /* \"#utility.yul\":2368:2407   */\n      add\n        /* \"#utility.yul\":2361:2407   */\n      swap2\n      pop\n        /* \"#utility.yul\":2141:2413   */\n      pop\n      swap3\n      swap2\n      pop\n      pop\n      jump\t// out\n        /* \"#utility.yul\":2419:2537   */\n    tag_127:\n        /* \"#utility.yul\":2506:2530   */\n      tag_129\n        /* \"#utility.yul\":2524:2529   */\n      dup2\n        /* \"#utility.yul\":2506:2530   */\n      tag_130\n      jump\t// in\n    tag_129:\n        /* \"#utility.yul\":2501:2504   */\n      dup3\n        /* \"#utility.yul\":2494:2531   */\n      mstore\n        /* \"#utility.yul\":2484:2537   */\n      pop\n      pop\n      jump\t// out\n        /* \"#utility.yul\":2543:2765   */\n    tag_15:\n        /* \"#utility.yul\":2636:2640   */\n      0x00\n        /* \"#utility.yul\":2674:2676   */\n      0x20\n        /* \"#utility.yul\":2663:2672   */\n      dup3\n        /* \"#utility.yul\":2659:2677   */\n      add\n        /* \"#utility.yul\":2651:2677   */\n      swap1\n      pop\n        /* \"#utility.yul\":2687:2758   */\n      tag_132\n        /* \"#utility.yul\":2755:2756   */\n      0x00\n        /* \"#utility.yul\":2744:2753   */\n      dup4\n        /* \"#utility.yul\":2740:2757   */\n      add\n        /* \"#utility.yul\":2731:2737   */\n      dup5\n        /* \"#utility.yul\":2687:2758   */\n      tag_127\n      jump\t// in\n    tag_132:\n        /* \"#utility.yul\":2641:2765   */\n      swap3\n      swap2\n      pop\n      pop\n      jump\t// out\n        /* \"#utility.yul\":2771:3213   */\n    tag_22:\n        /* \"#utility.yul\":2920:2924   */\n      0x00\n        /* \"#utility.yul\":2958:2960   */\n      0x60\n        /* \"#utility.yul\":2947:2956   */\n      dup3\n        /* \"#utility.yul\":2943:2961   */\n      add\n        /* \"#utility.yul\":2935:2961   */\n      swap1\n      pop\n        /* \"#utility.yul\":2971:3042   */\n      tag_134\n        /* \"#utility.yul\":3039:3040   */\n      0x00\n        /* \"#utility.yul\":3028:3037   */\n      dup4\n        /* \"#utility.yul\":3024:3041   */\n      add\n        /* \"#utility.yul\":3015:3021   */\n      dup7\n        /* \"#utility.yul\":2971:3042   */\n      tag_127\n      jump\t// in\n    tag_134:\n        /* \"#utility.yul\":3052:3124   */\n      tag_135\n        /* \"#utility.yul\":3120:3122   */\n      0x20\n        /* \"#utility.yul\":3109:3118   */\n      dup4\n        /* \"#utility.yul\":3105:3123   */\n      add\n        /* \"#utility.yul\":3096:3102   */\n      dup6\n        /* \"#utility.yul\":3052:3124   */\n      tag_113\n      jump\t// in\n    tag_135:\n        /* \"#utility.yul\":3134:3206   */\n      tag_136\n        /* \"#utility.yul\":3202:3204   */\n      0x40\n        /* \"#utility.yul\":3191:3200   */\n      dup4\n        /* \"#utility.yul\":3187:3205   */\n      add\n        /* \"#utility.yul\":3178:3184   */\n      dup5\n        /* \"#utility.yul\":3134:3206   */\n      tag_127\n      jump\t// in\n    tag_136:\n        /* \"#utility.yul\":2925:3213   */\n      swap5\n      swap4\n      pop\n      pop\n      pop\n      pop\n      jump\t// out\n        /* \"#utility.yul\":3219:4873   */\n    tag_10:\n        /* \"#utility.yul\":3656:3660   */\n      0x00\n        /* \"#utility.yul\":3694:3697   */\n      0x0120\n        /* \"#utility.yul\":3683:3692   */\n      dup3\n        /* \"#utility.yul\":3679:3698   */\n      add\n        /* \"#utility.yul\":3671:3698   */\n      swap1\n      pop\n        /* \"#utility.yul\":3708:3779   */\n      tag_138\n        /* \"#utility.yul\":3776:3777   */\n      0x00\n        /* \"#utility.yul\":3765:3774   */\n      dup4\n        /* \"#utility.yul\":3761:3778   */\n      add\n        /* \"#utility.yul\":3752:3758   */\n      dup13\n        /* \"#utility.yul\":3708:3779   */\n      tag_127\n      jump\t// in\n    tag_138:\n        /* \"#utility.yul\":3826:3835   */\n      dup2\n        /* \"#utility.yul\":3820:3824   */\n      dup2\n        /* \"#utility.yul\":3816:3836   */\n      sub\n        /* \"#utility.yul\":3811:3813   */\n      0x20\n        /* \"#utility.yul\":3800:3809   */\n      dup4\n        /* \"#utility.yul\":3796:3814   */\n      add\n        /* \"#utility.yul\":3789:3837   */\n      mstore\n        /* \"#utility.yul\":3854:3932   */\n      tag_139\n        /* \"#utility.yul\":3927:3931   */\n      dup2\n        /* \"#utility.yul\":3918:3924   */\n      dup12\n        /* \"#utility.yul\":3854:3932   */\n      tag_117\n      jump\t// in\n    tag_139:\n        /* \"#utility.yul\":3846:3932   */\n      swap1\n      pop\n        /* \"#utility.yul\":3979:3988   */\n      dup2\n        /* \"#utility.yul\":3973:3977   */\n      dup2\n        /* \"#utility.yul\":3969:3989   */\n      sub\n        /* \"#utility.yul\":3964:3966   */\n      0x40\n        /* \"#utility.yul\":3953:3962   */\n      dup4\n        /* \"#utility.yul\":3949:3967   */\n      add\n        /* \"#utility.yul\":3942:3990   */\n      mstore\n        /* \"#utility.yul\":4007:4085   */\n      tag_140\n        /* \"#utility.yul\":4080:4084   */\n      dup2\n        /* \"#utility.yul\":4071:4077   */\n      dup11\n        /* \"#utility.yul\":4007:4085   */\n      tag_117\n      jump\t// in\n    tag_140:\n        /* \"#utility.yul\":3999:4085   */\n      swap1\n      pop\n        /* \"#utility.yul\":4132:4141   */\n      dup2\n        /* \"#utility.yul\":4126:4130   */\n      dup2\n        /* \"#utility.yul\":4122:4142   */\n      sub\n        /* \"#utility.yul\":4117:4119   */\n      0x60\n        /* \"#utility.yul\":4106:4115   */\n      dup4\n        /* \"#utility.yul\":4102:4120   */\n      add\n        /* \"#utility.yul\":4095:4143   */\n      mstore\n        /* \"#utility.yul\":4160:4238   */\n      tag_141\n        /* \"#utility.yul\":4233:4237   */\n      dup2\n        /* \"#utility.yul\":4224:4230   */\n      dup10\n        /* \"#utility.yul\":4160:4238   */\n      tag_117\n      jump\t// in\n    tag_141:\n        /* \"#utility.yul\":4152:4238   */\n      swap1\n      pop\n        /* \"#utility.yul\":4248:4321   */\n      tag_142\n        /* \"#utility.yul\":4316:4319   */\n      0x80\n        /* \"#utility.yul\":4305:4314   */\n      dup4\n        /* \"#utility.yul\":4301:4320   */\n      add\n        /* \"#utility.yul\":4292:4298   */\n      dup9\n        /* \"#utility.yul\":4248:4321   */\n      tag_127\n      jump\t// in\n    tag_142:\n        /* \"#utility.yul\":4369:4378   */\n      dup2\n        /* \"#utility.yul\":4363:4367   */\n      dup2\n        /* \"#utility.yul\":4359:4379   */\n      sub\n        /* \"#utility.yul\":4353:4356   */\n      0xa0\n        /* \"#utility.yul\":4342:4351   */\n      dup4\n        /* \"#utility.yul\":4338:4357   */\n      add\n        /* \"#utility.yul\":4331:4380   */\n      mstore\n        /* \"#utility.yul\":4397:4475   */\n      tag_143\n        /* \"#utility.yul\":4470:4474   */\n      dup2\n        /* \"#utility.yul\":4461:4467   */\n      dup8\n        /* \"#utility.yul\":4397:4475   */\n      tag_117\n      jump\t// in\n    tag_143:\n        /* \"#utility.yul\":4389:4475   */\n      swap1\n      pop\n        /* \"#utility.yul\":4523:4532   */\n      dup2\n        /* \"#utility.yul\":4517:4521   */\n      dup2\n        /* \"#utility.yul\":4513:4533   */\n      sub\n        /* \"#utility.yul\":4507:4510   */\n      0xc0\n        /* \"#utility.yul\":4496:4505   */\n      dup4\n        /* \"#utility.yul\":4492:4511   */\n      add\n        /* \"#utility.yul\":4485:4534   */\n      mstore\n        /* \"#utility.yul\":4551:4629   */\n      tag_144\n        /* \"#utility.yul\":4624:4628   */\n      dup2\n        /* \"#utility.yul\":4615:4621   */\n      dup7\n        /* \"#utility.yul\":4551:4629   */\n      tag_117\n      jump\t// in\n    tag_144:\n        /* \"#utility.yul\":4543:4629   */\n      swap1\n      pop\n        /* \"#utility.yul\":4639:4712   */\n      tag_145\n        /* \"#utility.yul\":4707:4710   */\n      0xe0\n        /* \"#utility.yul\":4696:4705   */\n      dup4\n        /* \"#utility.yul\":4692:4711   */\n      add\n        /* \"#utility.yul\":4683:4689   */\n      dup6\n        /* \"#utility.yul\":4639:4712   */\n      tag_113\n      jump\t// in\n    tag_145:\n        /* \"#utility.yul\":4760:4769   */\n      dup2\n        /* \"#utility.yul\":4754:4758   */\n      dup2\n        /* \"#utility.yul\":4750:4770   */\n      sub\n        /* \"#utility.yul\":4744:4747   */\n      0x0100\n        /* \"#utility.yul\":4733:4742   */\n      dup4\n        /* \"#utility.yul\":4729:4748   */\n      add\n        /* \"#utility.yul\":4722:4771   */\n      mstore\n        /* \"#utility.yul\":4788:4866   */\n      tag_146\n        /* \"#utility.yul\":4861:4865   */\n      dup2\n        /* \"#utility.yul\":4852:4858   */\n      dup5\n        /* \"#utility.yul\":4788:4866   */\n      tag_117\n      jump\t// in\n    tag_146:\n        /* \"#utility.yul\":4780:4866   */\n      swap1\n      pop\n        /* \"#utility.yul\":3661:4873   */\n      swap11\n      swap10\n      pop\n      pop\n      pop\n      pop\n      pop\n      pop\n      pop\n      pop\n      pop\n      pop\n      jump\t// out\n        /* \"#utility.yul\":4879:5008   */\n    tag_84:\n        /* \"#utility.yul\":4913:4919   */\n      0x00\n        /* \"#utility.yul\":4940:4960   */\n      tag_148\n      tag_149\n      jump\t// in\n    tag_148:\n        /* \"#utility.yul\":4930:4960   */\n      swap1\n      pop\n        /* \"#utility.yul\":4969:5002   */\n      tag_150\n        /* \"#utility.yul\":4997:5001   */\n      dup3\n        /* \"#utility.yul\":4989:4995   */\n      dup3\n        /* \"#utility.yul\":4969:5002   */\n      tag_151\n      jump\t// in\n    tag_150:\n        /* \"#utility.yul\":4920:5008   */\n      swap2\n      swap1\n      pop\n      jump\t// out\n        /* \"#utility.yul\":5014:5089   */\n    tag_149:\n        /* \"#utility.yul\":5047:5053   */\n      0x00\n        /* \"#utility.yul\":5080:5082   */\n      0x40\n        /* \"#utility.yul\":5074:5083   */\n      mload\n        /* \"#utility.yul\":5064:5083   */\n      swap1\n      pop\n        /* \"#utility.yul\":5054:5089   */\n      swap1\n      jump\t// out\n        /* \"#utility.yul\":5095:5403   */\n    tag_83:\n        /* \"#utility.yul\":5157:5161   */\n      0x00\n        /* \"#utility.yul\":5247:5265   */\n      0xffffffffffffffff\n        /* \"#utility.yul\":5239:5245   */\n      dup3\n        /* \"#utility.yul\":5236:5266   */\n      gt\n        /* \"#utility.yul\":5233:5235   */\n      iszero\n      tag_154\n      jumpi\n        /* \"#utility.yul\":5269:5287   */\n      tag_155\n      tag_156\n      jump\t// in\n    tag_155:\n        /* \"#utility.yul\":5233:5235   */\n    tag_154:\n        /* \"#utility.yul\":5307:5336   */\n      tag_157\n        /* \"#utility.yul\":5329:5335   */\n      dup3\n        /* \"#utility.yul\":5307:5336   */\n      tag_126\n      jump\t// in\n    tag_157:\n        /* \"#utility.yul\":5299:5336   */\n      swap1\n      pop\n        /* \"#utility.yul\":5391:5395   */\n      0x20\n        /* \"#utility.yul\":5385:5389   */\n      dup2\n        /* \"#utility.yul\":5381:5396   */\n      add\n        /* \"#utility.yul\":5373:5396   */\n      swap1\n      pop\n        /* \"#utility.yul\":5162:5403   */\n      swap2\n      swap1\n      pop\n      jump\t// out\n        /* \"#utility.yul\":5409:5508   */\n    tag_120:\n        /* \"#utility.yul\":5461:5467   */\n      0x00\n        /* \"#utility.yul\":5495:5500   */\n      dup2\n        /* \"#utility.yul\":5489:5501   */\n      mload\n        /* \"#utility.yul\":5479:5501   */\n      swap1\n      pop\n        /* \"#utility.yul\":5468:5508   */\n      swap2\n      swap1\n      pop\n      jump\t// out\n        /* \"#utility.yul\":5514:5683   */\n    tag_122:\n        /* \"#utility.yul\":5598:5609   */\n      0x00\n        /* \"#utility.yul\":5632:5638   */\n      dup3\n        /* \"#utility.yul\":5627:5630   */\n      dup3\n        /* \"#utility.yul\":5620:5639   */\n      mstore\n        /* \"#utility.yul\":5672:5676   */\n      0x20\n        /* \"#utility.yul\":5667:5670   */\n      dup3\n        /* \"#utility.yul\":5663:5677   */\n      add\n        /* \"#utility.yul\":5648:5677   */\n      swap1\n      pop\n        /* \"#utility.yul\":5610:5683   */\n      swap3\n      swap2\n      pop\n      pop\n      jump\t// out\n        /* \"#utility.yul\":5689:5785   */\n    tag_116:\n        /* \"#utility.yul\":5726:5733   */\n      0x00\n        /* \"#utility.yul\":5755:5779   */\n      tag_161\n        /* \"#utility.yul\":5773:5778   */\n      dup3\n        /* \"#utility.yul\":5755:5779   */\n      tag_162\n      jump\t// in\n    tag_161:\n        /* \"#utility.yul\":5744:5779   */\n      swap1\n      pop\n        /* \"#utility.yul\":5734:5785   */\n      swap2\n      swap1\n      pop\n      jump\t// out\n        /* \"#utility.yul\":5791:5917   */\n    tag_162:\n        /* \"#utility.yul\":5828:5835   */\n      0x00\n        /* \"#utility.yul\":5868:5910   */\n      0xffffffffffffffffffffffffffffffffffffffff\n        /* \"#utility.yul\":5861:5866   */\n      dup3\n        /* \"#utility.yul\":5857:5911   */\n      and\n        /* \"#utility.yul\":5846:5911   */\n      swap1\n      pop\n        /* \"#utility.yul\":5836:5917   */\n      swap2\n      swap1\n      pop\n      jump\t// out\n        /* \"#utility.yul\":5923:6000   */\n    tag_130:\n        /* \"#utility.yul\":5960:5967   */\n      0x00\n        /* \"#utility.yul\":5989:5994   */\n      dup2\n        /* \"#utility.yul\":5978:5994   */\n      swap1\n      pop\n        /* \"#utility.yul\":5968:6000   */\n      swap2\n      swap1\n      pop\n      jump\t// out\n        /* \"#utility.yul\":6006:6160   */\n    tag_89:\n        /* \"#utility.yul\":6090:6096   */\n      dup3\n        /* \"#utility.yul\":6085:6088   */\n      dup2\n        /* \"#utility.yul\":6080:6083   */\n      dup4\n        /* \"#utility.yul\":6067:6097   */\n      calldatacopy\n        /* \"#utility.yul\":6152:6153   */\n      0x00\n        /* \"#utility.yul\":6143:6149   */\n      dup4\n        /* \"#utility.yul\":6138:6141   */\n      dup4\n        /* \"#utility.yul\":6134:6150   */\n      add\n        /* \"#utility.yul\":6127:6154   */\n      mstore\n        /* \"#utility.yul\":6057:6160   */\n      pop\n      pop\n      pop\n      jump\t// out\n        /* \"#utility.yul\":6166:6473   */\n    tag_124:\n        /* \"#utility.yul\":6234:6235   */\n      0x00\n        /* \"#utility.yul\":6244:6357   */\n    tag_167:\n        /* \"#utility.yul\":6258:6264   */\n      dup4\n        /* \"#utility.yul\":6255:6256   */\n      dup2\n        /* \"#utility.yul\":6252:6265   */\n      lt\n        /* \"#utility.yul\":6244:6357   */\n      iszero\n      tag_169\n      jumpi\n        /* \"#utility.yul\":6343:6344   */\n      dup1\n        /* \"#utility.yul\":6338:6341   */\n      dup3\n        /* \"#utility.yul\":6334:6345   */\n      add\n        /* \"#utility.yul\":6328:6346   */\n      mload\n        /* \"#utility.yul\":6324:6325   */\n      dup2\n        /* \"#utility.yul\":6319:6322   */\n      dup5\n        /* \"#utility.yul\":6315:6326   */\n      add\n        /* \"#utility.yul\":6308:6347   */\n      mstore\n        /* \"#utility.yul\":6280:6282   */\n      0x20\n        /* \"#utility.yul\":6277:6278   */\n      dup2\n        /* \"#utility.yul\":6273:6283   */\n      add\n        /* \"#utility.yul\":6268:6283   */\n      swap1\n      pop\n        /* \"#utility.yul\":6244:6357   */\n      jump(tag_167)\n    tag_169:\n        /* \"#utility.yul\":6375:6381   */\n      dup4\n        /* \"#utility.yul\":6372:6373   */\n      dup2\n        /* \"#utility.yul\":6369:6382   */\n      gt\n        /* \"#utility.yul\":6366:6368   */\n      iszero\n      tag_170\n      jumpi\n        /* \"#utility.yul\":6455:6456   */\n      0x00\n        /* \"#utility.yul\":6446:6452   */\n      dup5\n        /* \"#utility.yul\":6441:6444   */\n      dup5\n        /* \"#utility.yul\":6437:6453   */\n      add\n        /* \"#utility.yul\":6430:6457   */\n      mstore\n        /* \"#utility.yul\":6366:6368   */\n    tag_170:\n        /* \"#utility.yul\":6215:6473   */\n      pop\n      pop\n      pop\n      pop\n      jump\t// out\n        /* \"#utility.yul\":6479:6799   */\n    tag_29:\n        /* \"#utility.yul\":6523:6529   */\n      0x00\n        /* \"#utility.yul\":6560:6561   */\n      0x02\n        /* \"#utility.yul\":6554:6558   */\n      dup3\n        /* \"#utility.yul\":6550:6562   */\n      div\n        /* \"#utility.yul\":6540:6562   */\n      swap1\n      pop\n        /* \"#utility.yul\":6607:6608   */\n      0x01\n        /* \"#utility.yul\":6601:6605   */\n      dup3\n        /* \"#utility.yul\":6597:6609   */\n      and\n        /* \"#utility.yul\":6628:6646   */\n      dup1\n        /* \"#utility.yul\":6618:6620   */\n      tag_172\n      jumpi\n        /* \"#utility.yul\":6684:6688   */\n      0x7f\n        /* \"#utility.yul\":6676:6682   */\n      dup3\n        /* \"#utility.yul\":6672:6689   */\n      and\n        /* \"#utility.yul\":6662:6689   */\n      swap2\n      pop\n        /* \"#utility.yul\":6618:6620   */\n    tag_172:\n        /* \"#utility.yul\":6746:6748   */\n      0x20\n        /* \"#utility.yul\":6738:6744   */\n      dup3\n        /* \"#utility.yul\":6735:6749   */\n      lt\n        /* \"#utility.yul\":6715:6733   */\n      dup2\n        /* \"#utility.yul\":6712:6750   */\n      eq\n        /* \"#utility.yul\":6709:6711   */\n      iszero\n      tag_173\n      jumpi\n        /* \"#utility.yul\":6765:6783   */\n      tag_174\n      tag_175\n      jump\t// in\n    tag_174:\n        /* \"#utility.yul\":6709:6711   */\n    tag_173:\n        /* \"#utility.yul\":6530:6799   */\n      pop\n      swap2\n      swap1\n      pop\n      jump\t// out\n        /* \"#utility.yul\":6805:7086   */\n    tag_151:\n        /* \"#utility.yul\":6888:6915   */\n      tag_177\n        /* \"#utility.yul\":6910:6914   */\n      dup3\n        /* \"#utility.yul\":6888:6915   */\n      tag_126\n      jump\t// in\n    tag_177:\n        /* \"#utility.yul\":6880:6886   */\n      dup2\n        /* \"#utility.yul\":6876:6916   */\n      add\n        /* \"#utility.yul\":7018:7024   */\n      dup2\n        /* \"#utility.yul\":7006:7016   */\n      dup2\n        /* \"#utility.yul\":7003:7025   */\n      lt\n        /* \"#utility.yul\":6982:7000   */\n      0xffffffffffffffff\n        /* \"#utility.yul\":6970:6980   */\n      dup3\n        /* \"#utility.yul\":6967:7001   */\n      gt\n        /* \"#utility.yul\":6964:7026   */\n      or\n        /* \"#utility.yul\":6961:6963   */\n      iszero\n      tag_178\n      jumpi\n        /* \"#utility.yul\":7029:7047   */\n      tag_179\n      tag_156\n      jump\t// in\n    tag_179:\n        /* \"#utility.yul\":6961:6963   */\n    tag_178:\n        /* \"#utility.yul\":7069:7079   */\n      dup1\n        /* \"#utility.yul\":7065:7067   */\n      0x40\n        /* \"#utility.yul\":7058:7080   */\n      mstore\n        /* \"#utility.yul\":6848:7086   */\n      pop\n      pop\n      pop\n      jump\t// out\n        /* \"#utility.yul\":7092:7325   */\n    tag_63:\n        /* \"#utility.yul\":7131:7134   */\n      0x00\n        /* \"#utility.yul\":7154:7178   */\n      tag_181\n        /* \"#utility.yul\":7172:7177   */\n      dup3\n        /* \"#utility.yul\":7154:7178   */\n      tag_130\n      jump\t// in\n    tag_181:\n        /* \"#utility.yul\":7145:7178   */\n      swap2\n      pop\n        /* \"#utility.yul\":7200:7266   */\n      0xffffffffffffffffffffffffffffffffffffffffffffffffffffffffffffffff\n        /* \"#utility.yul\":7193:7198   */\n      dup3\n        /* \"#utility.yul\":7190:7267   */\n      eq\n        /* \"#utility.yul\":7187:7189   */\n      iszero\n      tag_182\n      jumpi\n        /* \"#utility.yul\":7270:7288   */\n      tag_183\n      tag_184\n      jump\t// in\n    tag_183:\n        /* \"#utility.yul\":7187:7189   */\n    tag_182:\n        /* \"#utility.yul\":7317:7318   */\n      0x01\n        /* \"#utility.yul\":7310:7315   */\n      dup3\n        /* \"#utility.yul\":7306:7319   */\n      add\n        /* \"#utility.yul\":7299:7319   */\n      swap1\n      pop\n        /* \"#utility.yul\":7135:7325   */\n      swap2\n      swap1\n      pop\n      jump\t// out\n        /* \"#utility.yul\":7331:7511   */\n    tag_184:\n        /* \"#utility.yul\":7379:7456   */\n      0x4e487b7100000000000000000000000000000000000000000000000000000000\n        /* \"#utility.yul\":7376:7377   */\n      0x00\n        /* \"#utility.yul\":7369:7457   */\n      mstore\n        /* \"#utility.yul\":7476:7480   */\n      0x11\n        /* \"#utility.yul\":7473:7474   */\n      0x04\n        /* \"#utility.yul\":7466:7481   */\n      mstore\n        /* \"#utility.yul\":7500:7504   */\n      0x24\n        /* \"#utility.yul\":7497:7498   */\n      0x00\n        /* \"#utility.yul\":7490:7505   */\n      revert\n        /* \"#utility.yul\":7517:7697   */\n    tag_175:\n        /* \"#utility.yul\":7565:7642   */\n      0x4e487b7100000000000000000000000000000000000000000000000000000000\n        /* \"#utility.yul\":7562:7563   */\n      0x00\n        /* \"#utility.yul\":7555:7643   */\n      mstore\n        /* \"#utility.yul\":7662:7666   */\n      0x22\n        /* \"#utility.yul\":7659:7660   */\n      0x04\n        /* \"#utility.yul\":7652:7667   */\n      mstore\n        /* \"#utility.yul\":7686:7690   */\n      0x24\n        /* \"#utility.yul\":7683:7684   */\n      0x00\n        /* \"#utility.yul\":7676:7691   */\n      revert\n        /* \"#utility.yul\":7703:7883   */\n    tag_156:\n        /* \"#utility.yul\":7751:7828   */\n      0x4e487b7100000000000000000000000000000000000000000000000000000000\n        /* \"#utility.yul\":7748:7749   */\n      0x00\n        /* \"#utility.yul\":7741:7829   */\n      mstore\n        /* \"#utility.yul\":7848:7852   */\n      0x41\n        /* \"#utility.yul\":7845:7846   */\n      0x04\n        /* \"#utility.yul\":7838:7853   */\n      mstore\n        /* \"#utility.yul\":7872:7876   */\n      0x24\n        /* \"#utility.yul\":7869:7870   */\n      0x00\n        /* \"#utility.yul\":7862:7877   */\n      revert\n        /* \"#utility.yul\":7889:8006   */\n    tag_94:\n        /* \"#utility.yul\":7998:7999   */\n      0x00\n        /* \"#utility.yul\":7995:7996   */\n      dup1\n        /* \"#utility.yul\":7988:8000   */\n      revert\n        /* \"#utility.yul\":8012:8129   */\n    tag_87:\n        /* \"#utility.yul\":8121:8122   */\n      0x00\n        /* \"#utility.yul\":8118:8119   */\n      dup1\n        /* \"#utility.yul\":8111:8123   */\n      revert\n        /* \"#utility.yul\":8135:8252   */\n    tag_111:\n        /* \"#utility.yul\":8244:8245   */\n      0x00\n        /* \"#utility.yul\":8241:8242   */\n      dup1\n        /* \"#utility.yul\":8234:8246   */\n      revert\n        /* \"#utility.yul\":8258:8375   */\n    tag_103:\n        /* \"#utility.yul\":8367:8368   */\n      0x00\n        /* \"#utility.yul\":8364:8365   */\n      dup1\n        /* \"#utility.yul\":8357:8369   */\n      revert\n        /* \"#utility.yul\":8381:8483   */\n    tag_126:\n        /* \"#utility.yul\":8422:8428   */\n      0x00\n        /* \"#utility.yul\":8473:8475   */\n      0x1f\n        /* \"#utility.yul\":8469:8476   */\n      not\n        /* \"#utility.yul\":8464:8466   */\n      0x1f\n        /* \"#utility.yul\":8457:8462   */\n      dup4\n        /* \"#utility.yul\":8453:8467   */\n      add\n        /* \"#utility.yul\":8449:8477   */\n      and\n        /* \"#utility.yul\":8439:8477   */\n      swap1\n      pop\n        /* \"#utility.yul\":8429:8483   */\n      swap2\n      swap1\n      pop\n      jump\t// out\n        /* \"#utility.yul\":8489:8611   */\n    tag_99:\n        /* \"#utility.yul\":8562:8586   */\n      tag_194\n        /* \"#utility.yul\":8580:8585   */\n      dup2\n        /* \"#utility.yul\":8562:8586   */\n      tag_130\n      jump\t// in\n    tag_194:\n        /* \"#utility.yul\":8555:8560   */\n      dup2\n        /* \"#utility.yul\":8552:8587   */\n      eq\n        /* \"#utility.yul\":8542:8544   */\n      tag_195\n      jumpi\n        /* \"#utility.yul\":8601:8602   */\n      0x00\n        /* \"#utility.yul\":8598:8599   */\n      dup1\n        /* \"#utility.yul\":8591:8603   */\n      revert\n        /* \"#utility.yul\":8542:8544   */\n    tag_195:\n        /* \"#utility.yul\":8532:8611   */\n      pop\n      jump\t// out\n\n    auxdata: 0xa2646970667358221220bff003abcf9e062201439a600a3f11c2f099d9c3fa85646aa3e6a57ebb53b85164736f6c63430008060033\n}\n",
    "bytecode": {
      "linkReferences": {},
      "object": "60806040523480156200001157600080fd5b506040516200123a3803806200123a833981810160405281019062000037919062000287565b886000819055508760019080519060200190620000569291906200012b565b5086600290805190602001906200006f9291906200012b565b508560039080519060200190620000889291906200012b565b50846004819055508360059080519060200190620000a89291906200012b565b508260069080519060200190620000c19291906200012b565b5081600760006101000a81548173ffffffffffffffffffffffffffffffffffffffff021916908373ffffffffffffffffffffffffffffffffffffffff16021790555080600890805190602001906200011b9291906200012b565b5050505050505050505062000616565b8280546200013990620004f3565b90600052602060002090601f0160209004810192826200015d5760008555620001a9565b82601f106200017857805160ff1916838001178555620001a9565b82800160010185558215620001a9579182015b82811115620001a85782518255916020019190600101906200018b565b5b509050620001b89190620001bc565b5090565b5b80821115620001d7576000816000905550600101620001bd565b5090565b6000620001f2620001ec8462000449565b62000420565b905082815260208101848484011115620002115762000210620005c2565b5b6200021e848285620004bd565b509392505050565b6000815190506200023781620005e2565b92915050565b600082601f830112620002555762000254620005bd565b5b815162000267848260208601620001db565b91505092915050565b6000815190506200028181620005fc565b92915050565b60008060008060008060008060006101208a8c031215620002ad57620002ac620005cc565b5b6000620002bd8c828d0162000270565b99505060208a015167ffffffffffffffff811115620002e157620002e0620005c7565b5b620002ef8c828d016200023d565b98505060408a015167ffffffffffffffff811115620003135762000312620005c7565b5b620003218c828d016200023d565b97505060608a015167ffffffffffffffff811115620003455762000344620005c7565b5b620003538c828d016200023d565b9650506080620003668c828d0162000270565b95505060a08a015167ffffffffffffffff8111156200038a5762000389620005c7565b5b620003988c828d016200023d565b94505060c08a015167ffffffffffffffff811115620003bc57620003bb620005c7565b5b620003ca8c828d016200023d565b93505060e0620003dd8c828d0162000226565b9250506101008a015167ffffffffffffffff811115620004025762000401620005c7565b5b620004108c828d016200023d565b9150509295985092959850929598565b60006200042c6200043f565b90506200043a828262000529565b919050565b6000604051905090565b600067ffffffffffffffff8211156200046757620004666200058e565b5b6200047282620005d1565b9050602081019050919050565b60006200048c8262000493565b9050919050565b600073ffffffffffffffffffffffffffffffffffffffff82169050919050565b6000819050919050565b60005b83811015620004dd578082015181840152602081019050620004c0565b83811115620004ed576000848401525b50505050565b600060028204905060018216806200050c57607f821691505b602082108114156200052357620005226200055f565b5b50919050565b6200053482620005d1565b810181811067ffffffffffffffff821117156200055657620005556200058e565b5b80604052505050565b7f4e487b7100000000000000000000000000000000000000000000000000000000600052602260045260246000fd5b7f4e487b7100000000000000000000000000000000000000000000000000000000600052604160045260246000fd5b600080fd5b600080fd5b600080fd5b600080fd5b6000601f19601f8301169050919050565b620005ed816200047f565b8114620005f957600080fd5b50565b6200060781620004b3565b81146200061357600080fd5b50565b610c1480620006266000396000f3fe60806040526004361061003f5760003560e01c80630c611f24146100445780632e7700f01461007757806333ea3dc8146100a25780638d59d1f1146100e1575b600080fd5b34801561005057600080fd5b506100596100fd565b60405161006e999897969594939291906108c2565b60405180910390f35b34801561008357600080fd5b5061008c6104a7565b6040516100999190610870565b60405180910390f35b3480156100ae57600080fd5b506100c960048036038101906100c49190610790565b6104b1565b6040516100d89392919061088b565b60405180910390f35b6100fb60048036038101906100f691906107bd565b610528565b005b6000606080606060006060806000606060005460016002600360045460056006600760009054906101000a900473ffffffffffffffffffffffffffffffffffffffff16600887805461014e90610a69565b80601f016020809104026020016040519081016040528092919081815260200182805461017a90610a69565b80156101c75780601f1061019c576101008083540402835291602001916101c7565b820191906000526020600020905b8154815290600101906020018083116101aa57829003601f168201915b505050505097508680546101da90610a69565b80601f016020809104026020016040519081016040528092919081815260200182805461020690610a69565b80156102535780601f1061022857610100808354040283529160200191610253565b820191906000526020600020905b81548152906001019060200180831161023657829003601f168201915b5050505050965085805461026690610a69565b80601f016020809104026020016040519081016040528092919081815260200182805461029290610a69565b80156102df5780601f106102b4576101008083540402835291602001916102df565b820191906000526020600020905b8154815290600101906020018083116102c257829003601f168201915b505050505095508380546102f290610a69565b80601f016020809104026020016040519081016040528092919081815260200182805461031e90610a69565b801561036b5780601f106103405761010080835404028352916020019161036b565b820191906000526020600020905b81548152906001019060200180831161034e57829003601f168201915b5050505050935082805461037e90610a69565b80601f01602080910402602001604051908101604052809291908181526020018280546103aa90610a69565b80156103f75780601f106103cc576101008083540402835291602001916103f7565b820191906000526020600020905b8154815290600101906020018083116103da57829003601f168201915b5050505050925080805461040a90610a69565b80601f016020809104026020016040519081016040528092919081815260200182805461043690610a69565b80156104835780601f1061045857610100808354040283529160200191610483565b820191906000526020600020905b81548152906001019060200180831161046657829003601f168201915b50505050509050985098509850985098509850985098509850909192939495969798565b6000600954905090565b6000806000600a600085815260200190815260200160002060000154600a600086815260200190815260200160002060010160009054906101000a900473ffffffffffffffffffffffffffffffffffffffff16600a6000878152602001908152602001600020600201549250925092509193909250565b6009600081548092919061053b90610acc565b919050555060405180606001604052808381526020013373ffffffffffffffffffffffffffffffffffffffff16815260200134815250600a600060095481526020019081526020016000206000820151816000015560208201518160010160006101000a81548173ffffffffffffffffffffffffffffffffffffffff021916908373ffffffffffffffffffffffffffffffffffffffff16021790555060408201518160020155905050600760009054906101000a900473ffffffffffffffffffffffffffffffffffffffff1673ffffffffffffffffffffffffffffffffffffffff166108fc349081150290604051600060405180830381858888f1935050505015801561064c573d6000803e3d6000fd5b508060059080519060200190610663929190610668565b505050565b82805461067490610a69565b90600052602060002090601f01602090048101928261069657600085556106dd565b82601f106106af57805160ff19168380011785556106dd565b828001600101855582156106dd579182015b828111156106dc5782518255916020019190600101906106c1565b5b5090506106ea91906106ee565b5090565b5b808211156107075760008160009055506001016106ef565b5090565b600061071e6107198461099e565b610979565b90508281526020810184848401111561073a57610739610ba7565b5b610745848285610a27565b509392505050565b600082601f83011261076257610761610ba2565b5b813561077284826020860161070b565b91505092915050565b60008135905061078a81610bc7565b92915050565b6000602082840312156107a6576107a5610bb1565b5b60006107b48482850161077b565b91505092915050565b600080604083850312156107d4576107d3610bb1565b5b60006107e28582860161077b565b925050602083013567ffffffffffffffff81111561080357610802610bac565b5b61080f8582860161074d565b9150509250929050565b610822816109eb565b82525050565b6000610833826109cf565b61083d81856109da565b935061084d818560208601610a36565b61085681610bb6565b840191505092915050565b61086a81610a1d565b82525050565b60006020820190506108856000830184610861565b92915050565b60006060820190506108a06000830186610861565b6108ad6020830185610819565b6108ba6040830184610861565b949350505050565b6000610120820190506108d8600083018c610861565b81810360208301526108ea818b610828565b905081810360408301526108fe818a610828565b905081810360608301526109128189610828565b90506109216080830188610861565b81810360a08301526109338187610828565b905081810360c08301526109478186610828565b905061095660e0830185610819565b8181036101008301526109698184610828565b90509a9950505050505050505050565b6000610983610994565b905061098f8282610a9b565b919050565b6000604051905090565b600067ffffffffffffffff8211156109b9576109b8610b73565b5b6109c282610bb6565b9050602081019050919050565b600081519050919050565b600082825260208201905092915050565b60006109f6826109fd565b9050919050565b600073ffffffffffffffffffffffffffffffffffffffff82169050919050565b6000819050919050565b82818337600083830152505050565b60005b83811015610a54578082015181840152602081019050610a39565b83811115610a63576000848401525b50505050565b60006002820490506001821680610a8157607f821691505b60208210811415610a9557610a94610b44565b5b50919050565b610aa482610bb6565b810181811067ffffffffffffffff82111715610ac357610ac2610b73565b5b80604052505050565b6000610ad782610a1d565b91507fffffffffffffffffffffffffffffffffffffffffffffffffffffffffffffffff821415610b0a57610b09610b15565b5b600182019050919050565b7f4e487b7100000000000000000000000000000000000000000000000000000000600052601160045260246000fd5b7f4e487b7100000000000000000000000000000000000000000000000000000000600052602260045260246000fd5b7f4e487b7100000000000000000000000000000000000000000000000000000000600052604160045260246000fd5b600080fd5b600080fd5b600080fd5b600080fd5b6000601f19601f8301169050919050565b610bd081610a1d565b8114610bdb57600080fd5b5056fea2646970667358221220bff003abcf9e062201439a600a3f11c2f099d9c3fa85646aa3e6a57ebb53b85164736f6c63430008060033",
      "opcodes": "PUSH1 0x80 PUSH1 0x40 MSTORE CALLVALUE DUP1 ISZERO PUSH3 0x11 JUMPI PUSH1 0x0 DUP1 REVERT JUMPDEST POP PUSH1 0x40 MLOAD PUSH3 0x123A CODESIZE SUB DUP1 PUSH3 0x123A DUP4 CODECOPY DUP2 DUP2 ADD PUSH1 0x40 MSTORE DUP2 ADD SWAP1 PUSH3 0x37 SWAP2 SWAP1 PUSH3 0x287 JUMP JUMPDEST DUP9 PUSH1 0x0 DUP2 SWAP1 SSTORE POP DUP8 PUSH1 0x1 SWAP1 DUP1 MLOAD SWAP1 PUSH1 0x20 ADD SWAP1 PUSH3 0x56 SWAP3 SWAP2 SWAP1 PUSH3 0x12B JUMP JUMPDEST POP DUP7 PUSH1 0x2 SWAP1 DUP1 MLOAD SWAP1 PUSH1 0x20 ADD SWAP1 PUSH3 0x6F SWAP3 SWAP2 SWAP1 PUSH3 0x12B JUMP JUMPDEST POP DUP6 PUSH1 0x3 SWAP1 DUP1 MLOAD SWAP1 PUSH1 0x20 ADD SWAP1 PUSH3 0x88 SWAP3 SWAP2 SWAP1 PUSH3 0x12B JUMP JUMPDEST POP DUP5 PUSH1 0x4 DUP2 SWAP1 SSTORE POP DUP4 PUSH1 0x5 SWAP1 DUP1 MLOAD SWAP1 PUSH1 0x20 ADD SWAP1 PUSH3 0xA8 SWAP3 SWAP2 SWAP1 PUSH3 0x12B JUMP JUMPDEST POP DUP3 PUSH1 0x6 SWAP1 DUP1 MLOAD SWAP1 PUSH1 0x20 ADD SWAP1 PUSH3 0xC1 SWAP3 SWAP2 SWAP1 PUSH3 0x12B JUMP JUMPDEST POP DUP2 PUSH1 0x7 PUSH1 0x0 PUSH2 0x100 EXP DUP2 SLOAD DUP2 PUSH20 0xFFFFFFFFFFFFFFFFFFFFFFFFFFFFFFFFFFFFFFFF MUL NOT AND SWAP1 DUP4 PUSH20 0xFFFFFFFFFFFFFFFFFFFFFFFFFFFFFFFFFFFFFFFF AND MUL OR SWAP1 SSTORE POP DUP1 PUSH1 0x8 SWAP1 DUP1 MLOAD SWAP1 PUSH1 0x20 ADD SWAP1 PUSH3 0x11B SWAP3 SWAP2 SWAP1 PUSH3 0x12B JUMP JUMPDEST POP POP POP POP POP POP POP POP POP POP PUSH3 0x616 JUMP JUMPDEST DUP3 DUP1 SLOAD PUSH3 0x139 SWAP1 PUSH3 0x4F3 JUMP JUMPDEST SWAP1 PUSH1 0x0 MSTORE PUSH1 0x20 PUSH1 0x0 KECCAK256 SWAP1 PUSH1 0x1F ADD PUSH1 0x20 SWAP1 DIV DUP2 ADD SWAP3 DUP3 PUSH3 0x15D JUMPI PUSH1 0x0 DUP6 SSTORE PUSH3 0x1A9 JUMP JUMPDEST DUP3 PUSH1 0x1F LT PUSH3 0x178 JUMPI DUP1 MLOAD PUSH1 0xFF NOT AND DUP4 DUP1 ADD OR DUP6 SSTORE PUSH3 0x1A9 JUMP JUMPDEST DUP3 DUP1 ADD PUSH1 0x1 ADD DUP6 SSTORE DUP3 ISZERO PUSH3 0x1A9 JUMPI SWAP2 DUP3 ADD JUMPDEST DUP3 DUP2 GT ISZERO PUSH3 0x1A8 JUMPI DUP3 MLOAD DUP3 SSTORE SWAP2 PUSH1 0x20 ADD SWAP2 SWAP1 PUSH1 0x1 ADD SWAP1 PUSH3 0x18B JUMP JUMPDEST JUMPDEST POP SWAP1 POP PUSH3 0x1B8 SWAP2 SWAP1 PUSH3 0x1BC JUMP JUMPDEST POP SWAP1 JUMP JUMPDEST JUMPDEST DUP1 DUP3 GT ISZERO PUSH3 0x1D7 JUMPI PUSH1 0x0 DUP2 PUSH1 0x0 SWAP1 SSTORE POP PUSH1 0x1 ADD PUSH3 0x1BD JUMP JUMPDEST POP SWAP1 JUMP JUMPDEST PUSH1 0x0 PUSH3 0x1F2 PUSH3 0x1EC DUP5 PUSH3 0x449 JUMP JUMPDEST PUSH3 0x420 JUMP JUMPDEST SWAP1 POP DUP3 DUP2 MSTORE PUSH1 0x20 DUP2 ADD DUP5 DUP5 DUP5 ADD GT ISZERO PUSH3 0x211 JUMPI PUSH3 0x210 PUSH3 0x5C2 JUMP JUMPDEST JUMPDEST PUSH3 0x21E DUP5 DUP3 DUP6 PUSH3 0x4BD JUMP JUMPDEST POP SWAP4 SWAP3 POP POP POP JUMP JUMPDEST PUSH1 0x0 DUP2 MLOAD SWAP1 POP PUSH3 0x237 DUP2 PUSH3 0x5E2 JUMP JUMPDEST SWAP3 SWAP2 POP POP JUMP JUMPDEST PUSH1 0x0 DUP3 PUSH1 0x1F DUP4 ADD SLT PUSH3 0x255 JUMPI PUSH3 0x254 PUSH3 0x5BD JUMP JUMPDEST JUMPDEST DUP2 MLOAD PUSH3 0x267 DUP5 DUP3 PUSH1 0x20 DUP7 ADD PUSH3 0x1DB JUMP JUMPDEST SWAP2 POP POP SWAP3 SWAP2 POP POP JUMP JUMPDEST PUSH1 0x0 DUP2 MLOAD SWAP1 POP PUSH3 0x281 DUP2 PUSH3 0x5FC JUMP JUMPDEST SWAP3 SWAP2 POP POP JUMP JUMPDEST PUSH1 0x0 DUP1 PUSH1 0x0 DUP1 PUSH1 0x0 DUP1 PUSH1 0x0 DUP1 PUSH1 0x0 PUSH2 0x120 DUP11 DUP13 SUB SLT ISZERO PUSH3 0x2AD JUMPI PUSH3 0x2AC PUSH3 0x5CC JUMP JUMPDEST JUMPDEST PUSH1 0x0 PUSH3 0x2BD DUP13 DUP3 DUP14 ADD PUSH3 0x270 JUMP JUMPDEST SWAP10 POP POP PUSH1 0x20 DUP11 ADD MLOAD PUSH8 0xFFFFFFFFFFFFFFFF DUP2 GT ISZERO PUSH3 0x2E1 JUMPI PUSH3 0x2E0 PUSH3 0x5C7 JUMP JUMPDEST JUMPDEST PUSH3 0x2EF DUP13 DUP3 DUP14 ADD PUSH3 0x23D JUMP JUMPDEST SWAP9 POP POP PUSH1 0x40 DUP11 ADD MLOAD PUSH8 0xFFFFFFFFFFFFFFFF DUP2 GT ISZERO PUSH3 0x313 JUMPI PUSH3 0x312 PUSH3 0x5C7 JUMP JUMPDEST JUMPDEST PUSH3 0x321 DUP13 DUP3 DUP14 ADD PUSH3 0x23D JUMP JUMPDEST SWAP8 POP POP PUSH1 0x60 DUP11 ADD MLOAD PUSH8 0xFFFFFFFFFFFFFFFF DUP2 GT ISZERO PUSH3 0x345 JUMPI PUSH3 0x344 PUSH3 0x5C7 JUMP JUMPDEST JUMPDEST PUSH3 0x353 DUP13 DUP3 DUP14 ADD PUSH3 0x23D JUMP JUMPDEST SWAP7 POP POP PUSH1 0x80 PUSH3 0x366 DUP13 DUP3 DUP14 ADD PUSH3 0x270 JUMP JUMPDEST SWAP6 POP POP PUSH1 0xA0 DUP11 ADD MLOAD PUSH8 0xFFFFFFFFFFFFFFFF DUP2 GT ISZERO PUSH3 0x38A JUMPI PUSH3 0x389 PUSH3 0x5C7 JUMP JUMPDEST JUMPDEST PUSH3 0x398 DUP13 DUP3 DUP14 ADD PUSH3 0x23D JUMP JUMPDEST SWAP5 POP POP PUSH1 0xC0 DUP11 ADD MLOAD PUSH8 0xFFFFFFFFFFFFFFFF DUP2 GT ISZERO PUSH3 0x3BC JUMPI PUSH3 0x3BB PUSH3 0x5C7 JUMP JUMPDEST JUMPDEST PUSH3 0x3CA DUP13 DUP3 DUP14 ADD PUSH3 0x23D JUMP JUMPDEST SWAP4 POP POP PUSH1 0xE0 PUSH3 0x3DD DUP13 DUP3 DUP14 ADD PUSH3 0x226 JUMP JUMPDEST SWAP3 POP POP PUSH2 0x100 DUP11 ADD MLOAD PUSH8 0xFFFFFFFFFFFFFFFF DUP2 GT ISZERO PUSH3 0x402 JUMPI PUSH3 0x401 PUSH3 0x5C7 JUMP JUMPDEST JUMPDEST PUSH3 0x410 DUP13 DUP3 DUP14 ADD PUSH3 0x23D JUMP JUMPDEST SWAP2 POP POP SWAP3 SWAP6 SWAP9 POP SWAP3 SWAP6 SWAP9 POP SWAP3 SWAP6 SWAP9 JUMP JUMPDEST PUSH1 0x0 PUSH3 0x42C PUSH3 0x43F JUMP JUMPDEST SWAP1 POP PUSH3 0x43A DUP3 DUP3 PUSH3 0x529 JUMP JUMPDEST SWAP2 SWAP1 POP JUMP JUMPDEST PUSH1 0x0 PUSH1 0x40 MLOAD SWAP1 POP SWAP1 JUMP JUMPDEST PUSH1 0x0 PUSH8 0xFFFFFFFFFFFFFFFF DUP3 GT ISZERO PUSH3 0x467 JUMPI PUSH3 0x466 PUSH3 0x58E JUMP JUMPDEST JUMPDEST PUSH3 0x472 DUP3 PUSH3 0x5D1 JUMP JUMPDEST SWAP1 POP PUSH1 0x20 DUP2 ADD SWAP1 POP SWAP2 SWAP1 POP JUMP JUMPDEST PUSH1 0x0 PUSH3 0x48C DUP3 PUSH3 0x493 JUMP JUMPDEST SWAP1 POP SWAP2 SWAP1 POP JUMP JUMPDEST PUSH1 0x0 PUSH20 0xFFFFFFFFFFFFFFFFFFFFFFFFFFFFFFFFFFFFFFFF DUP3 AND SWAP1 POP SWAP2 SWAP1 POP JUMP JUMPDEST PUSH1 0x0 DUP2 SWAP1 POP SWAP2 SWAP1 POP JUMP JUMPDEST PUSH1 0x0 JUMPDEST DUP4 DUP2 LT ISZERO PUSH3 0x4DD JUMPI DUP1 DUP3 ADD MLOAD DUP2 DUP5 ADD MSTORE PUSH1 0x20 DUP2 ADD SWAP1 POP PUSH3 0x4C0 JUMP JUMPDEST DUP4 DUP2 GT ISZERO PUSH3 0x4ED JUMPI PUSH1 0x0 DUP5 DUP5 ADD MSTORE JUMPDEST POP POP POP POP JUMP JUMPDEST PUSH1 0x0 PUSH1 0x2 DUP3 DIV SWAP1 POP PUSH1 0x1 DUP3 AND DUP1 PUSH3 0x50C JUMPI PUSH1 0x7F DUP3 AND SWAP2 POP JUMPDEST PUSH1 0x20 DUP3 LT DUP2 EQ ISZERO PUSH3 0x523 JUMPI PUSH3 0x522 PUSH3 0x55F JUMP JUMPDEST JUMPDEST POP SWAP2 SWAP1 POP JUMP JUMPDEST PUSH3 0x534 DUP3 PUSH3 0x5D1 JUMP JUMPDEST DUP2 ADD DUP2 DUP2 LT PUSH8 0xFFFFFFFFFFFFFFFF DUP3 GT OR ISZERO PUSH3 0x556 JUMPI PUSH3 0x555 PUSH3 0x58E JUMP JUMPDEST JUMPDEST DUP1 PUSH1 0x40 MSTORE POP POP POP JUMP JUMPDEST PUSH32 0x4E487B7100000000000000000000000000000000000000000000000000000000 PUSH1 0x0 MSTORE PUSH1 0x22 PUSH1 0x4 MSTORE PUSH1 0x24 PUSH1 0x0 REVERT JUMPDEST PUSH32 0x4E487B7100000000000000000000000000000000000000000000000000000000 PUSH1 0x0 MSTORE PUSH1 0x41 PUSH1 0x4 MSTORE PUSH1 0x24 PUSH1 0x0 REVERT JUMPDEST PUSH1 0x0 DUP1 REVERT JUMPDEST PUSH1 0x0 DUP1 REVERT JUMPDEST PUSH1 0x0 DUP1 REVERT JUMPDEST PUSH1 0x0 DUP1 REVERT JUMPDEST PUSH1 0x0 PUSH1 0x1F NOT PUSH1 0x1F DUP4 ADD AND SWAP1 POP SWAP2 SWAP1 POP JUMP JUMPDEST PUSH3 0x5ED DUP2 PUSH3 0x47F JUMP JUMPDEST DUP2 EQ PUSH3 0x5F9 JUMPI PUSH1 0x0 DUP1 REVERT JUMPDEST POP JUMP JUMPDEST PUSH3 0x607 DUP2 PUSH3 0x4B3 JUMP JUMPDEST DUP2 EQ PUSH3 0x613 JUMPI PUSH1 0x0 DUP1 REVERT JUMPDEST POP JUMP JUMPDEST PUSH2 0xC14 DUP1 PUSH3 0x626 PUSH1 0x0 CODECOPY PUSH1 0x0 RETURN INVALID PUSH1 0x80 PUSH1 0x40 MSTORE PUSH1 0x4 CALLDATASIZE LT PUSH2 0x3F JUMPI PUSH1 0x0 CALLDATALOAD PUSH1 0xE0 SHR DUP1 PUSH4 0xC611F24 EQ PUSH2 0x44 JUMPI DUP1 PUSH4 0x2E7700F0 EQ PUSH2 0x77 JUMPI DUP1 PUSH4 0x33EA3DC8 EQ PUSH2 0xA2 JUMPI DUP1 PUSH4 0x8D59D1F1 EQ PUSH2 0xE1 JUMPI JUMPDEST PUSH1 0x0 DUP1 REVERT JUMPDEST CALLVALUE DUP1 ISZERO PUSH2 0x50 JUMPI PUSH1 0x0 DUP1 REVERT JUMPDEST POP PUSH2 0x59 PUSH2 0xFD JUMP JUMPDEST PUSH1 0x40 MLOAD PUSH2 0x6E SWAP10 SWAP9 SWAP8 SWAP7 SWAP6 SWAP5 SWAP4 SWAP3 SWAP2 SWAP1 PUSH2 0x8C2 JUMP JUMPDEST PUSH1 0x40 MLOAD DUP1 SWAP2 SUB SWAP1 RETURN JUMPDEST CALLVALUE DUP1 ISZERO PUSH2 0x83 JUMPI PUSH1 0x0 DUP1 REVERT JUMPDEST POP PUSH2 0x8C PUSH2 0x4A7 JUMP JUMPDEST PUSH1 0x40 MLOAD PUSH2 0x99 SWAP2 SWAP1 PUSH2 0x870 JUMP JUMPDEST PUSH1 0x40 MLOAD DUP1 SWAP2 SUB SWAP1 RETURN JUMPDEST CALLVALUE DUP1 ISZERO PUSH2 0xAE JUMPI PUSH1 0x0 DUP1 REVERT JUMPDEST POP PUSH2 0xC9 PUSH1 0x4 DUP1 CALLDATASIZE SUB DUP2 ADD SWAP1 PUSH2 0xC4 SWAP2 SWAP1 PUSH2 0x790 JUMP JUMPDEST PUSH2 0x4B1 JUMP JUMPDEST PUSH1 0x40 MLOAD PUSH2 0xD8 SWAP4 SWAP3 SWAP2 SWAP1 PUSH2 0x88B JUMP JUMPDEST PUSH1 0x40 MLOAD DUP1 SWAP2 SUB SWAP1 RETURN JUMPDEST PUSH2 0xFB PUSH1 0x4 DUP1 CALLDATASIZE SUB DUP2 ADD SWAP1 PUSH2 0xF6 SWAP2 SWAP1 PUSH2 0x7BD JUMP JUMPDEST PUSH2 0x528 JUMP JUMPDEST STOP JUMPDEST PUSH1 0x0 PUSH1 0x60 DUP1 PUSH1 0x60 PUSH1 0x0 PUSH1 0x60 DUP1 PUSH1 0x0 PUSH1 0x60 PUSH1 0x0 SLOAD PUSH1 0x1 PUSH1 0x2 PUSH1 0x3 PUSH1 0x4 SLOAD PUSH1 0x5 PUSH1 0x6 PUSH1 0x7 PUSH1 0x0 SWAP1 SLOAD SWAP1 PUSH2 0x100 EXP SWAP1 DIV PUSH20 0xFFFFFFFFFFFFFFFFFFFFFFFFFFFFFFFFFFFFFFFF AND PUSH1 0x8 DUP8 DUP1 SLOAD PUSH2 0x14E SWAP1 PUSH2 0xA69 JUMP JUMPDEST DUP1 PUSH1 0x1F ADD PUSH1 0x20 DUP1 SWAP2 DIV MUL PUSH1 0x20 ADD PUSH1 0x40 MLOAD SWAP1 DUP2 ADD PUSH1 0x40 MSTORE DUP1 SWAP3 SWAP2 SWAP1 DUP2 DUP2 MSTORE PUSH1 0x20 ADD DUP3 DUP1 SLOAD PUSH2 0x17A SWAP1 PUSH2 0xA69 JUMP JUMPDEST DUP1 ISZERO PUSH2 0x1C7 JUMPI DUP1 PUSH1 0x1F LT PUSH2 0x19C JUMPI PUSH2 0x100 DUP1 DUP4 SLOAD DIV MUL DUP4 MSTORE SWAP2 PUSH1 0x20 ADD SWAP2 PUSH2 0x1C7 JUMP JUMPDEST DUP3 ADD SWAP2 SWAP1 PUSH1 0x0 MSTORE PUSH1 0x20 PUSH1 0x0 KECCAK256 SWAP1 JUMPDEST DUP2 SLOAD DUP2 MSTORE SWAP1 PUSH1 0x1 ADD SWAP1 PUSH1 0x20 ADD DUP1 DUP4 GT PUSH2 0x1AA JUMPI DUP3 SWAP1 SUB PUSH1 0x1F AND DUP3 ADD SWAP2 JUMPDEST POP POP POP POP POP SWAP8 POP DUP7 DUP1 SLOAD PUSH2 0x1DA SWAP1 PUSH2 0xA69 JUMP JUMPDEST DUP1 PUSH1 0x1F ADD PUSH1 0x20 DUP1 SWAP2 DIV MUL PUSH1 0x20 ADD PUSH1 0x40 MLOAD SWAP1 DUP2 ADD PUSH1 0x40 MSTORE DUP1 SWAP3 SWAP2 SWAP1 DUP2 DUP2 MSTORE PUSH1 0x20 ADD DUP3 DUP1 SLOAD PUSH2 0x206 SWAP1 PUSH2 0xA69 JUMP JUMPDEST DUP1 ISZERO PUSH2 0x253 JUMPI DUP1 PUSH1 0x1F LT PUSH2 0x228 JUMPI PUSH2 0x100 DUP1 DUP4 SLOAD DIV MUL DUP4 MSTORE SWAP2 PUSH1 0x20 ADD SWAP2 PUSH2 0x253 JUMP JUMPDEST DUP3 ADD SWAP2 SWAP1 PUSH1 0x0 MSTORE PUSH1 0x20 PUSH1 0x0 KECCAK256 SWAP1 JUMPDEST DUP2 SLOAD DUP2 MSTORE SWAP1 PUSH1 0x1 ADD SWAP1 PUSH1 0x20 ADD DUP1 DUP4 GT PUSH2 0x236 JUMPI DUP3 SWAP1 SUB PUSH1 0x1F AND DUP3 ADD SWAP2 JUMPDEST POP POP POP POP POP SWAP7 POP DUP6 DUP1 SLOAD PUSH2 0x266 SWAP1 PUSH2 0xA69 JUMP JUMPDEST DUP1 PUSH1 0x1F ADD PUSH1 0x20 DUP1 SWAP2 DIV MUL PUSH1 0x20 ADD PUSH1 0x40 MLOAD SWAP1 DUP2 ADD PUSH1 0x40 MSTORE DUP1 SWAP3 SWAP2 SWAP1 DUP2 DUP2 MSTORE PUSH1 0x20 ADD DUP3 DUP1 SLOAD PUSH2 0x292 SWAP1 PUSH2 0xA69 JUMP JUMPDEST DUP1 ISZERO PUSH2 0x2DF JUMPI DUP1 PUSH1 0x1F LT PUSH2 0x2B4 JUMPI PUSH2 0x100 DUP1 DUP4 SLOAD DIV MUL DUP4 MSTORE SWAP2 PUSH1 0x20 ADD SWAP2 PUSH2 0x2DF JUMP JUMPDEST DUP3 ADD SWAP2 SWAP1 PUSH1 0x0 MSTORE PUSH1 0x20 PUSH1 0x0 KECCAK256 SWAP1 JUMPDEST DUP2 SLOAD DUP2 MSTORE SWAP1 PUSH1 0x1 ADD SWAP1 PUSH1 0x20 ADD DUP1 DUP4 GT PUSH2 0x2C2 JUMPI DUP3 SWAP1 SUB PUSH1 0x1F AND DUP3 ADD SWAP2 JUMPDEST POP POP POP POP POP SWAP6 POP DUP4 DUP1 SLOAD PUSH2 0x2F2 SWAP1 PUSH2 0xA69 JUMP JUMPDEST DUP1 PUSH1 0x1F ADD PUSH1 0x20 DUP1 SWAP2 DIV MUL PUSH1 0x20 ADD PUSH1 0x40 MLOAD SWAP1 DUP2 ADD PUSH1 0x40 MSTORE DUP1 SWAP3 SWAP2 SWAP1 DUP2 DUP2 MSTORE PUSH1 0x20 ADD DUP3 DUP1 SLOAD PUSH2 0x31E SWAP1 PUSH2 0xA69 JUMP JUMPDEST DUP1 ISZERO PUSH2 0x36B JUMPI DUP1 PUSH1 0x1F LT PUSH2 0x340 JUMPI PUSH2 0x100 DUP1 DUP4 SLOAD DIV MUL DUP4 MSTORE SWAP2 PUSH1 0x20 ADD SWAP2 PUSH2 0x36B JUMP JUMPDEST DUP3 ADD SWAP2 SWAP1 PUSH1 0x0 MSTORE PUSH1 0x20 PUSH1 0x0 KECCAK256 SWAP1 JUMPDEST DUP2 SLOAD DUP2 MSTORE SWAP1 PUSH1 0x1 ADD SWAP1 PUSH1 0x20 ADD DUP1 DUP4 GT PUSH2 0x34E JUMPI DUP3 SWAP1 SUB PUSH1 0x1F AND DUP3 ADD SWAP2 JUMPDEST POP POP POP POP POP SWAP4 POP DUP3 DUP1 SLOAD PUSH2 0x37E SWAP1 PUSH2 0xA69 JUMP JUMPDEST DUP1 PUSH1 0x1F ADD PUSH1 0x20 DUP1 SWAP2 DIV MUL PUSH1 0x20 ADD PUSH1 0x40 MLOAD SWAP1 DUP2 ADD PUSH1 0x40 MSTORE DUP1 SWAP3 SWAP2 SWAP1 DUP2 DUP2 MSTORE PUSH1 0x20 ADD DUP3 DUP1 SLOAD PUSH2 0x3AA SWAP1 PUSH2 0xA69 JUMP JUMPDEST DUP1 ISZERO PUSH2 0x3F7 JUMPI DUP1 PUSH1 0x1F LT PUSH2 0x3CC JUMPI PUSH2 0x100 DUP1 DUP4 SLOAD DIV MUL DUP4 MSTORE SWAP2 PUSH1 0x20 ADD SWAP2 PUSH2 0x3F7 JUMP JUMPDEST DUP3 ADD SWAP2 SWAP1 PUSH1 0x0 MSTORE PUSH1 0x20 PUSH1 0x0 KECCAK256 SWAP1 JUMPDEST DUP2 SLOAD DUP2 MSTORE SWAP1 PUSH1 0x1 ADD SWAP1 PUSH1 0x20 ADD DUP1 DUP4 GT PUSH2 0x3DA JUMPI DUP3 SWAP1 SUB PUSH1 0x1F AND DUP3 ADD SWAP2 JUMPDEST POP POP POP POP POP SWAP3 POP DUP1 DUP1 SLOAD PUSH2 0x40A SWAP1 PUSH2 0xA69 JUMP JUMPDEST DUP1 PUSH1 0x1F ADD PUSH1 0x20 DUP1 SWAP2 DIV MUL PUSH1 0x20 ADD PUSH1 0x40 MLOAD SWAP1 DUP2 ADD PUSH1 0x40 MSTORE DUP1 SWAP3 SWAP2 SWAP1 DUP2 DUP2 MSTORE PUSH1 0x20 ADD DUP3 DUP1 SLOAD PUSH2 0x436 SWAP1 PUSH2 0xA69 JUMP JUMPDEST DUP1 ISZERO PUSH2 0x483 JUMPI DUP1 PUSH1 0x1F LT PUSH2 0x458 JUMPI PUSH2 0x100 DUP1 DUP4 SLOAD DIV MUL DUP4 MSTORE SWAP2 PUSH1 0x20 ADD SWAP2 PUSH2 0x483 JUMP JUMPDEST DUP3 ADD SWAP2 SWAP1 PUSH1 0x0 MSTORE PUSH1 0x20 PUSH1 0x0 KECCAK256 SWAP1 JUMPDEST DUP2 SLOAD DUP2 MSTORE SWAP1 PUSH1 0x1 ADD SWAP1 PUSH1 0x20 ADD DUP1 DUP4 GT PUSH2 0x466 JUMPI DUP3 SWAP1 SUB PUSH1 0x1F AND DUP3 ADD SWAP2 JUMPDEST POP POP POP POP POP SWAP1 POP SWAP9 POP SWAP9 POP SWAP9 POP SWAP9 POP SWAP9 POP SWAP9 POP SWAP9 POP SWAP9 POP SWAP9 POP SWAP1 SWAP2 SWAP3 SWAP4 SWAP5 SWAP6 SWAP7 SWAP8 SWAP9 JUMP JUMPDEST PUSH1 0x0 PUSH1 0x9 SLOAD SWAP1 POP SWAP1 JUMP JUMPDEST PUSH1 0x0 DUP1 PUSH1 0x0 PUSH1 0xA PUSH1 0x0 DUP6 DUP2 MSTORE PUSH1 0x20 ADD SWAP1 DUP2 MSTORE PUSH1 0x20 ADD PUSH1 0x0 KECCAK256 PUSH1 0x0 ADD SLOAD PUSH1 0xA PUSH1 0x0 DUP7 DUP2 MSTORE PUSH1 0x20 ADD SWAP1 DUP2 MSTORE PUSH1 0x20 ADD PUSH1 0x0 KECCAK256 PUSH1 0x1 ADD PUSH1 0x0 SWAP1 SLOAD SWAP1 PUSH2 0x100 EXP SWAP1 DIV PUSH20 0xFFFFFFFFFFFFFFFFFFFFFFFFFFFFFFFFFFFFFFFF AND PUSH1 0xA PUSH1 0x0 DUP8 DUP2 MSTORE PUSH1 0x20 ADD SWAP1 DUP2 MSTORE PUSH1 0x20 ADD PUSH1 0x0 KECCAK256 PUSH1 0x2 ADD SLOAD SWAP3 POP SWAP3 POP SWAP3 POP SWAP2 SWAP4 SWAP1 SWAP3 POP JUMP JUMPDEST PUSH1 0x9 PUSH1 0x0 DUP2 SLOAD DUP1 SWAP3 SWAP2 SWAP1 PUSH2 0x53B SWAP1 PUSH2 0xACC JUMP JUMPDEST SWAP2 SWAP1 POP SSTORE POP PUSH1 0x40 MLOAD DUP1 PUSH1 0x60 ADD PUSH1 0x40 MSTORE DUP1 DUP4 DUP2 MSTORE PUSH1 0x20 ADD CALLER PUSH20 0xFFFFFFFFFFFFFFFFFFFFFFFFFFFFFFFFFFFFFFFF AND DUP2 MSTORE PUSH1 0x20 ADD CALLVALUE DUP2 MSTORE POP PUSH1 0xA PUSH1 0x0 PUSH1 0x9 SLOAD DUP2 MSTORE PUSH1 0x20 ADD SWAP1 DUP2 MSTORE PUSH1 0x20 ADD PUSH1 0x0 KECCAK256 PUSH1 0x0 DUP3 ADD MLOAD DUP2 PUSH1 0x0 ADD SSTORE PUSH1 0x20 DUP3 ADD MLOAD DUP2 PUSH1 0x1 ADD PUSH1 0x0 PUSH2 0x100 EXP DUP2 SLOAD DUP2 PUSH20 0xFFFFFFFFFFFFFFFFFFFFFFFFFFFFFFFFFFFFFFFF MUL NOT AND SWAP1 DUP4 PUSH20 0xFFFFFFFFFFFFFFFFFFFFFFFFFFFFFFFFFFFFFFFF AND MUL OR SWAP1 SSTORE POP PUSH1 0x40 DUP3 ADD MLOAD DUP2 PUSH1 0x2 ADD SSTORE SWAP1 POP POP PUSH1 0x7 PUSH1 0x0 SWAP1 SLOAD SWAP1 PUSH2 0x100 EXP SWAP1 DIV PUSH20 0xFFFFFFFFFFFFFFFFFFFFFFFFFFFFFFFFFFFFFFFF AND PUSH20 0xFFFFFFFFFFFFFFFFFFFFFFFFFFFFFFFFFFFFFFFF AND PUSH2 0x8FC CALLVALUE SWAP1 DUP2 ISZERO MUL SWAP1 PUSH1 0x40 MLOAD PUSH1 0x0 PUSH1 0x40 MLOAD DUP1 DUP4 SUB DUP2 DUP6 DUP9 DUP9 CALL SWAP4 POP POP POP POP ISZERO DUP1 ISZERO PUSH2 0x64C JUMPI RETURNDATASIZE PUSH1 0x0 DUP1 RETURNDATACOPY RETURNDATASIZE PUSH1 0x0 REVERT JUMPDEST POP DUP1 PUSH1 0x5 SWAP1 DUP1 MLOAD SWAP1 PUSH1 0x20 ADD SWAP1 PUSH2 0x663 SWAP3 SWAP2 SWAP1 PUSH2 0x668 JUMP JUMPDEST POP POP POP JUMP JUMPDEST DUP3 DUP1 SLOAD PUSH2 0x674 SWAP1 PUSH2 0xA69 JUMP JUMPDEST SWAP1 PUSH1 0x0 MSTORE PUSH1 0x20 PUSH1 0x0 KECCAK256 SWAP1 PUSH1 0x1F ADD PUSH1 0x20 SWAP1 DIV DUP2 ADD SWAP3 DUP3 PUSH2 0x696 JUMPI PUSH1 0x0 DUP6 SSTORE PUSH2 0x6DD JUMP JUMPDEST DUP3 PUSH1 0x1F LT PUSH2 0x6AF JUMPI DUP1 MLOAD PUSH1 0xFF NOT AND DUP4 DUP1 ADD OR DUP6 SSTORE PUSH2 0x6DD JUMP JUMPDEST DUP3 DUP1 ADD PUSH1 0x1 ADD DUP6 SSTORE DUP3 ISZERO PUSH2 0x6DD JUMPI SWAP2 DUP3 ADD JUMPDEST DUP3 DUP2 GT ISZERO PUSH2 0x6DC JUMPI DUP3 MLOAD DUP3 SSTORE SWAP2 PUSH1 0x20 ADD SWAP2 SWAP1 PUSH1 0x1 ADD SWAP1 PUSH2 0x6C1 JUMP JUMPDEST JUMPDEST POP SWAP1 POP PUSH2 0x6EA SWAP2 SWAP1 PUSH2 0x6EE JUMP JUMPDEST POP SWAP1 JUMP JUMPDEST JUMPDEST DUP1 DUP3 GT ISZERO PUSH2 0x707 JUMPI PUSH1 0x0 DUP2 PUSH1 0x0 SWAP1 SSTORE POP PUSH1 0x1 ADD PUSH2 0x6EF JUMP JUMPDEST POP SWAP1 JUMP JUMPDEST PUSH1 0x0 PUSH2 0x71E PUSH2 0x719 DUP5 PUSH2 0x99E JUMP JUMPDEST PUSH2 0x979 JUMP JUMPDEST SWAP1 POP DUP3 DUP2 MSTORE PUSH1 0x20 DUP2 ADD DUP5 DUP5 DUP5 ADD GT ISZERO PUSH2 0x73A JUMPI PUSH2 0x739 PUSH2 0xBA7 JUMP JUMPDEST JUMPDEST PUSH2 0x745 DUP5 DUP3 DUP6 PUSH2 0xA27 JUMP JUMPDEST POP SWAP4 SWAP3 POP POP POP JUMP JUMPDEST PUSH1 0x0 DUP3 PUSH1 0x1F DUP4 ADD SLT PUSH2 0x762 JUMPI PUSH2 0x761 PUSH2 0xBA2 JUMP JUMPDEST JUMPDEST DUP2 CALLDATALOAD PUSH2 0x772 DUP5 DUP3 PUSH1 0x20 DUP7 ADD PUSH2 0x70B JUMP JUMPDEST SWAP2 POP POP SWAP3 SWAP2 POP POP JUMP JUMPDEST PUSH1 0x0 DUP2 CALLDATALOAD SWAP1 POP PUSH2 0x78A DUP2 PUSH2 0xBC7 JUMP JUMPDEST SWAP3 SWAP2 POP POP JUMP JUMPDEST PUSH1 0x0 PUSH1 0x20 DUP3 DUP5 SUB SLT ISZERO PUSH2 0x7A6 JUMPI PUSH2 0x7A5 PUSH2 0xBB1 JUMP JUMPDEST JUMPDEST PUSH1 0x0 PUSH2 0x7B4 DUP5 DUP3 DUP6 ADD PUSH2 0x77B JUMP JUMPDEST SWAP2 POP POP SWAP3 SWAP2 POP POP JUMP JUMPDEST PUSH1 0x0 DUP1 PUSH1 0x40 DUP4 DUP6 SUB SLT ISZERO PUSH2 0x7D4 JUMPI PUSH2 0x7D3 PUSH2 0xBB1 JUMP JUMPDEST JUMPDEST PUSH1 0x0 PUSH2 0x7E2 DUP6 DUP3 DUP7 ADD PUSH2 0x77B JUMP JUMPDEST SWAP3 POP POP PUSH1 0x20 DUP4 ADD CALLDATALOAD PUSH8 0xFFFFFFFFFFFFFFFF DUP2 GT ISZERO PUSH2 0x803 JUMPI PUSH2 0x802 PUSH2 0xBAC JUMP JUMPDEST JUMPDEST PUSH2 0x80F DUP6 DUP3 DUP7 ADD PUSH2 0x74D JUMP JUMPDEST SWAP2 POP POP SWAP3 POP SWAP3 SWAP1 POP JUMP JUMPDEST PUSH2 0x822 DUP2 PUSH2 0x9EB JUMP JUMPDEST DUP3 MSTORE POP POP JUMP JUMPDEST PUSH1 0x0 PUSH2 0x833 DUP3 PUSH2 0x9CF JUMP JUMPDEST PUSH2 0x83D DUP2 DUP6 PUSH2 0x9DA JUMP JUMPDEST SWAP4 POP PUSH2 0x84D DUP2 DUP6 PUSH1 0x20 DUP7 ADD PUSH2 0xA36 JUMP JUMPDEST PUSH2 0x856 DUP2 PUSH2 0xBB6 JUMP JUMPDEST DUP5 ADD SWAP2 POP POP SWAP3 SWAP2 POP POP JUMP JUMPDEST PUSH2 0x86A DUP2 PUSH2 0xA1D JUMP JUMPDEST DUP3 MSTORE POP POP JUMP JUMPDEST PUSH1 0x0 PUSH1 0x20 DUP3 ADD SWAP1 POP PUSH2 0x885 PUSH1 0x0 DUP4 ADD DUP5 PUSH2 0x861 JUMP JUMPDEST SWAP3 SWAP2 POP POP JUMP JUMPDEST PUSH1 0x0 PUSH1 0x60 DUP3 ADD SWAP1 POP PUSH2 0x8A0 PUSH1 0x0 DUP4 ADD DUP7 PUSH2 0x861 JUMP JUMPDEST PUSH2 0x8AD PUSH1 0x20 DUP4 ADD DUP6 PUSH2 0x819 JUMP JUMPDEST PUSH2 0x8BA PUSH1 0x40 DUP4 ADD DUP5 PUSH2 0x861 JUMP JUMPDEST SWAP5 SWAP4 POP POP POP POP JUMP JUMPDEST PUSH1 0x0 PUSH2 0x120 DUP3 ADD SWAP1 POP PUSH2 0x8D8 PUSH1 0x0 DUP4 ADD DUP13 PUSH2 0x861 JUMP JUMPDEST DUP2 DUP2 SUB PUSH1 0x20 DUP4 ADD MSTORE PUSH2 0x8EA DUP2 DUP12 PUSH2 0x828 JUMP JUMPDEST SWAP1 POP DUP2 DUP2 SUB PUSH1 0x40 DUP4 ADD MSTORE PUSH2 0x8FE DUP2 DUP11 PUSH2 0x828 JUMP JUMPDEST SWAP1 POP DUP2 DUP2 SUB PUSH1 0x60 DUP4 ADD MSTORE PUSH2 0x912 DUP2 DUP10 PUSH2 0x828 JUMP JUMPDEST SWAP1 POP PUSH2 0x921 PUSH1 0x80 DUP4 ADD DUP9 PUSH2 0x861 JUMP JUMPDEST DUP2 DUP2 SUB PUSH1 0xA0 DUP4 ADD MSTORE PUSH2 0x933 DUP2 DUP8 PUSH2 0x828 JUMP JUMPDEST SWAP1 POP DUP2 DUP2 SUB PUSH1 0xC0 DUP4 ADD MSTORE PUSH2 0x947 DUP2 DUP7 PUSH2 0x828 JUMP JUMPDEST SWAP1 POP PUSH2 0x956 PUSH1 0xE0 DUP4 ADD DUP6 PUSH2 0x819 JUMP JUMPDEST DUP2 DUP2 SUB PUSH2 0x100 DUP4 ADD MSTORE PUSH2 0x969 DUP2 DUP5 PUSH2 0x828 JUMP JUMPDEST SWAP1 POP SWAP11 SWAP10 POP POP POP POP POP POP POP POP POP POP JUMP JUMPDEST PUSH1 0x0 PUSH2 0x983 PUSH2 0x994 JUMP JUMPDEST SWAP1 POP PUSH2 0x98F DUP3 DUP3 PUSH2 0xA9B JUMP JUMPDEST SWAP2 SWAP1 POP JUMP JUMPDEST PUSH1 0x0 PUSH1 0x40 MLOAD SWAP1 POP SWAP1 JUMP JUMPDEST PUSH1 0x0 PUSH8 0xFFFFFFFFFFFFFFFF DUP3 GT ISZERO PUSH2 0x9B9 JUMPI PUSH2 0x9B8 PUSH2 0xB73 JUMP JUMPDEST JUMPDEST PUSH2 0x9C2 DUP3 PUSH2 0xBB6 JUMP JUMPDEST SWAP1 POP PUSH1 0x20 DUP2 ADD SWAP1 POP SWAP2 SWAP1 POP JUMP JUMPDEST PUSH1 0x0 DUP2 MLOAD SWAP1 POP SWAP2 SWAP1 POP JUMP JUMPDEST PUSH1 0x0 DUP3 DUP3 MSTORE PUSH1 0x20 DUP3 ADD SWAP1 POP SWAP3 SWAP2 POP POP JUMP JUMPDEST PUSH1 0x0 PUSH2 0x9F6 DUP3 PUSH2 0x9FD JUMP JUMPDEST SWAP1 POP SWAP2 SWAP1 POP JUMP JUMPDEST PUSH1 0x0 PUSH20 0xFFFFFFFFFFFFFFFFFFFFFFFFFFFFFFFFFFFFFFFF DUP3 AND SWAP1 POP SWAP2 SWAP1 POP JUMP JUMPDEST PUSH1 0x0 DUP2 SWAP1 POP SWAP2 SWAP1 POP JUMP JUMPDEST DUP3 DUP2 DUP4 CALLDATACOPY PUSH1 0x0 DUP4 DUP4 ADD MSTORE POP POP POP JUMP JUMPDEST PUSH1 0x0 JUMPDEST DUP4 DUP2 LT ISZERO PUSH2 0xA54 JUMPI DUP1 DUP3 ADD MLOAD DUP2 DUP5 ADD MSTORE PUSH1 0x20 DUP2 ADD SWAP1 POP PUSH2 0xA39 JUMP JUMPDEST DUP4 DUP2 GT ISZERO PUSH2 0xA63 JUMPI PUSH1 0x0 DUP5 DUP5 ADD MSTORE JUMPDEST POP POP POP POP JUMP JUMPDEST PUSH1 0x0 PUSH1 0x2 DUP3 DIV SWAP1 POP PUSH1 0x1 DUP3 AND DUP1 PUSH2 0xA81 JUMPI PUSH1 0x7F DUP3 AND SWAP2 POP JUMPDEST PUSH1 0x20 DUP3 LT DUP2 EQ ISZERO PUSH2 0xA95 JUMPI PUSH2 0xA94 PUSH2 0xB44 JUMP JUMPDEST JUMPDEST POP SWAP2 SWAP1 POP JUMP JUMPDEST PUSH2 0xAA4 DUP3 PUSH2 0xBB6 JUMP JUMPDEST DUP2 ADD DUP2 DUP2 LT PUSH8 0xFFFFFFFFFFFFFFFF DUP3 GT OR ISZERO PUSH2 0xAC3 JUMPI PUSH2 0xAC2 PUSH2 0xB73 JUMP JUMPDEST JUMPDEST DUP1 PUSH1 0x40 MSTORE POP POP POP JUMP JUMPDEST PUSH1 0x0 PUSH2 0xAD7 DUP3 PUSH2 0xA1D JUMP JUMPDEST SWAP2 POP PUSH32 0xFFFFFFFFFFFFFFFFFFFFFFFFFFFFFFFFFFFFFFFFFFFFFFFFFFFFFFFFFFFFFFFF DUP3 EQ ISZERO PUSH2 0xB0A JUMPI PUSH2 0xB09 PUSH2 0xB15 JUMP JUMPDEST JUMPDEST PUSH1 0x1 DUP3 ADD SWAP1 POP SWAP2 SWAP1 POP JUMP JUMPDEST PUSH32 0x4E487B7100000000000000000000000000000000000000000000000000000000 PUSH1 0x0 MSTORE PUSH1 0x11 PUSH1 0x4 MSTORE PUSH1 0x24 PUSH1 0x0 REVERT JUMPDEST PUSH32 0x4E487B7100000000000000000000000000000000000000000000000000000000 PUSH1 0x0 MSTORE PUSH1 0x22 PUSH1 0x4 MSTORE PUSH1 0x24 PUSH1 0x0 REVERT JUMPDEST PUSH32 0x4E487B7100000000000000000000000000000000000000000000000000000000 PUSH1 0x0 MSTORE PUSH1 0x41 PUSH1 0x4 MSTORE PUSH1 0x24 PUSH1 0x0 REVERT JUMPDEST PUSH1 0x0 DUP1 REVERT JUMPDEST PUSH1 0x0 DUP1 REVERT JUMPDEST PUSH1 0x0 DUP1 REVERT JUMPDEST PUSH1 0x0 DUP1 REVERT JUMPDEST PUSH1 0x0 PUSH1 0x1F NOT PUSH1 0x1F DUP4 ADD AND SWAP1 POP SWAP2 SWAP1 POP JUMP JUMPDEST PUSH2 0xBD0 DUP2 PUSH2 0xA1D JUMP JUMPDEST DUP2 EQ PUSH2 0xBDB JUMPI PUSH1 0x0 DUP1 REVERT JUMPDEST POP JUMP INVALID LOG2 PUSH5 0x6970667358 0x22 SLT KECCAK256 0xBF CREATE SUB 0xAB 0xCF SWAP15 MOD 0x22 ADD NUMBER SWAP11 PUSH1 0xA EXTCODEHASH GT 0xC2 CREATE SWAP10 0xD9 0xC3 STATICCALL DUP6 PUSH5 0x6AA3E6A57E 0xBB MSTORE8 0xB8 MLOAD PUSH5 0x736F6C6343 STOP ADDMOD MOD STOP CALLER "
    },
    "gasEstimates": {
      "creation": {
        "codeDepositCost": "618400",
        "executionCost": "infinite",
        "totalCost": "infinite"
      },
      "external": {
        "donate(uint256,string)": "infinite",
        "getCampaignDetails()": "infinite",
        "getTransaction(uint256)": "infinite",
        "getTransactionCount()": "2437"
      }
    },
    "methodIdentifiers": {
      "donate(uint256,string)": "8d59d1f1",
      "getCampaignDetails()": "0c611f24",
      "getTransaction(uint256)": "33ea3dc8",
      "getTransactionCount()": "2e7700f0"
    }
  },
  "storageLayout": {
    "storage": [
      {
        "astId": 75,
        "contract": "Crowdfunding:Campaign",
        "label": "user_id",
        "offset": 0,
        "slot": "0",
        "type": "t_uint256"
      },
      {
        "astId": 77,
        "contract": "Crowdfunding:Campaign",
        "label": "campaign_title",
        "offset": 0,
        "slot": "1",
        "type": "t_string_storage"
      },
      {
        "astId": 79,
        "contract": "Crowdfunding:Campaign",
        "label": "campaign_description",
        "offset": 0,
        "slot": "2",
        "type": "t_string_storage"
      },
      {
        "astId": 81,
        "contract": "Crowdfunding:Campaign",
        "label": "imageHash",
        "offset": 0,
        "slot": "3",
        "type": "t_string_storage"
      },
      {
        "astId": 83,
        "contract": "Crowdfunding:Campaign",
        "label": "fund_amount",
        "offset": 0,
        "slot": "4",
        "type": "t_uint256"
      },
      {
        "astId": 85,
        "contract": "Crowdfunding:Campaign",
        "label": "amount_raised",
        "offset": 0,
        "slot": "5",
        "type": "t_string_storage"
      },
      {
        "astId": 87,
        "contract": "Crowdfunding:Campaign",
        "label": "campaign_ttl",
        "offset": 0,
        "slot": "6",
        "type": "t_string_storage"
      },
      {
        "astId": 89,
        "contract": "Crowdfunding:Campaign",
        "label": "campaign_metamask_address",
        "offset": 0,
        "slot": "7",
        "type": "t_address"
      },
      {
        "astId": 91,
        "contract": "Crowdfunding:Campaign",
        "label": "user_mail",
        "offset": 0,
        "slot": "8",
        "type": "t_string_storage"
      },
      {
        "astId": 191,
        "contract": "Crowdfunding:Campaign",
        "label": "transactionCount",
        "offset": 0,
        "slot": "9",
        "type": "t_uint256"
      },
      {
        "astId": 196,
        "contract": "Crowdfunding:Campaign",
        "label": "transaction",
        "offset": 0,
        "slot": "10",
        "type": "t_mapping(t_uint256,t_struct(campaignTransaction)189_storage)"
      }
    ],
    "types": {
      "t_address": {
        "encoding": "inplace",
        "label": "address",
        "numberOfBytes": "20"
      },
      "t_mapping(t_uint256,t_struct(campaignTransaction)189_storage)": {
        "encoding": "mapping",
        "key": "t_uint256",
        "label": "mapping(uint256 => struct Campaign.campaignTransaction)",
        "numberOfBytes": "32",
        "value": "t_struct(campaignTransaction)189_storage"
      },
      "t_string_storage": {
        "encoding": "bytes",
        "label": "string",
        "numberOfBytes": "32"
      },
      "t_struct(campaignTransaction)189_storage": {
        "encoding": "inplace",
        "label": "struct Campaign.campaignTransaction",
        "members": [
          {
            "astId": 184,
            "contract": "Crowdfunding:Campaign",
            "label": "sender_id",
            "offset": 0,
            "slot": "0",
            "type": "t_uint256"
          },
          {
            "astId": 186,
            "contract": "Crowdfunding:Campaign",
            "label": "donator_metamask_address",
            "offset": 0,
            "slot": "1",
            "type": "t_address"
          },
          {
            "astId": 188,
            "contract": "Crowdfunding:Campaign",
            "label": "amount",
            "offset": 0,
            "slot": "2",
            "type": "t_uint256"
          }
        ],
        "numberOfBytes": "96"
      },
      "t_uint256": {
        "encoding": "inplace",
        "label": "uint256",
        "numberOfBytes": "32"
      }
    }
  },
  "userdoc": {
    "kind": "user",
    "methods": {},
    "version": 1
  }
}