{
  "abi": [
    {
      "inputs": [
        {
          "internalType": "string",
          "name": "user_email",
          "type": "string"
        },
        {
          "internalType": "string",
          "name": "user_password",
          "type": "string"
        },
        {
          "internalType": "string",
          "name": "user_passport_num",
          "type": "string"
        },
        {
          "internalType": "string",
          "name": "user_passport_name",
          "type": "string"
        },
        {
          "internalType": "string",
          "name": "user_passport_link",
          "type": "string"
        },
        {
          "internalType": "string",
          "name": "secret_key",
          "type": "string"
        }
      ],
      "name": "addUser",
      "outputs": [],
      "stateMutability": "nonpayable",
      "type": "function"
    },
    {
      "inputs": [
        {
          "internalType": "string",
          "name": "a_name",
          "type": "string"
        },
        {
          "internalType": "string",
          "name": "a_pass",
          "type": "string"
        }
      ],
      "name": "adminLogin",
      "outputs": [
        {
          "internalType": "string",
          "name": "",
          "type": "string"
        }
      ],
      "stateMutability": "view",
      "type": "function"
    },
    {
      "inputs": [],
      "name": "getNumOfUsers",
      "outputs": [
        {
          "internalType": "uint256",
          "name": "",
          "type": "uint256"
        }
      ],
      "stateMutability": "view",
      "type": "function"
    },
    {
      "inputs": [
        {
          "internalType": "uint256",
          "name": "user_id",
          "type": "uint256"
        }
      ],
      "name": "getPassportNoById",
      "outputs": [
        {
          "internalType": "string",
          "name": "",
          "type": "string"
        }
      ],
      "stateMutability": "view",
      "type": "function"
    },
    {
      "inputs": [
        {
          "internalType": "uint256",
          "name": "user_id",
          "type": "uint256"
        }
      ],
      "name": "getUnverifiedUser",
      "outputs": [
        {
          "internalType": "string",
          "name": "",
          "type": "string"
        },
        {
          "internalType": "string",
          "name": "",
          "type": "string"
        },
        {
          "internalType": "string",
          "name": "",
          "type": "string"
        },
        {
          "internalType": "string",
          "name": "",
          "type": "string"
        }
      ],
      "stateMutability": "view",
      "type": "function"
    },
    {
      "inputs": [
        {
          "internalType": "uint256",
          "name": "user_id",
          "type": "uint256"
        }
      ],
      "name": "getUser",
      "outputs": [
        {
          "internalType": "string",
          "name": "",
          "type": "string"
        },
        {
          "internalType": "string",
          "name": "",
          "type": "string"
        },
        {
          "internalType": "string",
          "name": "",
          "type": "string"
        },
        {
          "internalType": "string",
          "name": "",
          "type": "string"
        },
        {
          "internalType": "string",
          "name": "",
          "type": "string"
        }
      ],
      "stateMutability": "view",
      "type": "function"
    },
    {
      "inputs": [
        {
          "internalType": "string",
          "name": "user_passport_num",
          "type": "string"
        },
        {
          "internalType": "string",
          "name": "user_password",
          "type": "string"
        }
      ],
      "name": "login",
      "outputs": [
        {
          "internalType": "uint256",
          "name": "",
          "type": "uint256"
        },
        {
          "internalType": "string",
          "name": "",
          "type": "string"
        },
        {
          "internalType": "string",
          "name": "",
          "type": "string"
        }
      ],
      "stateMutability": "view",
      "type": "function"
    },
    {
      "inputs": [
        {
          "internalType": "uint256",
          "name": "user_id",
          "type": "uint256"
        }
      ],
      "name": "suspendUser",
      "outputs": [],
      "stateMutability": "nonpayable",
      "type": "function"
    },
    {
      "inputs": [
        {
          "internalType": "string",
          "name": "user_passport_num",
          "type": "string"
        },
        {
          "internalType": "string",
          "name": "new_user_password",
          "type": "string"
        },
        {
          "internalType": "string",
          "name": "secret_key",
          "type": "string"
        }
      ],
      "name": "updatePassword",
      "outputs": [],
      "stateMutability": "nonpayable",
      "type": "function"
    },
    {
      "inputs": [
        {
          "internalType": "string",
          "name": "user_email",
          "type": "string"
        },
        {
          "internalType": "string",
          "name": "user_passport_num",
          "type": "string"
        },
        {
          "internalType": "string",
          "name": "user_passport_name",
          "type": "string"
        },
        {
          "internalType": "string",
          "name": "user_passport_link",
          "type": "string"
        }
      ],
      "name": "updateUser",
      "outputs": [],
      "stateMutability": "nonpayable",
      "type": "function"
    },
    {
      "inputs": [
        {
          "internalType": "uint256",
          "name": "user_id",
          "type": "uint256"
        },
        {
          "internalType": "string",
          "name": "user_account_status",
          "type": "string"
        }
      ],
      "name": "verifyUser",
      "outputs": [],
      "stateMutability": "nonpayable",
      "type": "function"
    }
  ],
  "devdoc": {
    "kind": "dev",
    "methods": {},
    "version": 1
  },
  "evm": {
    "assembly": "    /* \"DigitalIdentity\":58:6425  contract DigitalIdentity {\r... */\n  mstore(0x40, 0x80)\n    /* \"DigitalIdentity\":5844:5871  string admin_name = \"admin\" */\n  mload(0x40)\n  dup1\n  0x40\n  add\n  0x40\n  mstore\n  dup1\n  0x05\n  dup2\n  mstore\n  0x20\n  add\n  0x61646d696e000000000000000000000000000000000000000000000000000000\n  dup2\n  mstore\n  pop\n  0x03\n  swap1\n  dup1\n  mload\n  swap1\n  0x20\n  add\n  swap1\n  tag_1\n  swap3\n  swap2\n  swap1\n  tag_2\n  jump\t// in\ntag_1:\n  pop\n    /* \"DigitalIdentity\":5909:5933  abi.encodePacked(\"pass\") */\n  add(0x20, mload(0x40))\n  tag_3\n  swap1\n  tag_4\n  jump\t// in\ntag_3:\n  mload(0x40)\n  0x20\n  dup2\n  dup4\n  sub\n  sub\n  dup2\n  mstore\n  swap1\n  0x40\n  mstore\n    /* \"DigitalIdentity\":5899:5934  keccak256(abi.encodePacked(\"pass\")) */\n  dup1\n  mload\n  swap1\n  0x20\n  add\n  keccak256\n    /* \"DigitalIdentity\":5878:5934  bytes32 admin_pass = keccak256(abi.encodePacked(\"pass\")) */\n  0x04\n  sstore\n    /* \"DigitalIdentity\":58:6425  contract DigitalIdentity {\r... */\n  callvalue\n  dup1\n  iszero\n  tag_5\n  jumpi\n  0x00\n  dup1\n  revert\ntag_5:\n  pop\n  jump(tag_6)\ntag_2:\n  dup3\n  dup1\n  sload\n  tag_7\n  swap1\n  tag_8\n  jump\t// in\ntag_7:\n  swap1\n  0x00\n  mstore\n  keccak256(0x00, 0x20)\n  swap1\n  0x1f\n  add\n  0x20\n  swap1\n  div\n  dup2\n  add\n  swap3\n  dup3\n  tag_10\n  jumpi\n  0x00\n  dup6\n  sstore\n  jump(tag_9)\ntag_10:\n  dup3\n  0x1f\n  lt\n  tag_11\n  jumpi\n  dup1\n  mload\n  not(0xff)\n  and\n  dup4\n  dup1\n  add\n  or\n  dup6\n  sstore\n  jump(tag_9)\ntag_11:\n  dup3\n  dup1\n  add\n  0x01\n  add\n  dup6\n  sstore\n  dup3\n  iszero\n  tag_9\n  jumpi\n  swap2\n  dup3\n  add\ntag_12:\n  dup3\n  dup2\n  gt\n  iszero\n  tag_13\n  jumpi\n  dup3\n  mload\n  dup3\n  sstore\n  swap2\n  0x20\n  add\n  swap2\n  swap1\n  0x01\n  add\n  swap1\n  jump(tag_12)\ntag_13:\ntag_9:\n  pop\n  swap1\n  pop\n  tag_14\n  swap2\n  swap1\n  tag_15\n  jump\t// in\ntag_14:\n  pop\n  swap1\n  jump\t// out\ntag_15:\ntag_16:\n  dup1\n  dup3\n  gt\n  iszero\n  tag_17\n  jumpi\n  0x00\n  dup2\n  0x00\n  swap1\n  sstore\n  pop\n  0x01\n  add\n  jump(tag_16)\ntag_17:\n  pop\n  swap1\n  jump\t// out\n    /* \"#utility.yul\":7:407   */\ntag_19:\n    /* \"#utility.yul\":167:170   */\n  0x00\n    /* \"#utility.yul\":188:272   */\n  tag_21\n    /* \"#utility.yul\":270:271   */\n  0x04\n    /* \"#utility.yul\":265:268   */\n  dup4\n    /* \"#utility.yul\":188:272   */\n  tag_22\n  jump\t// in\ntag_21:\n    /* \"#utility.yul\":181:272   */\n  swap2\n  pop\n    /* \"#utility.yul\":281:374   */\n  tag_23\n    /* \"#utility.yul\":370:373   */\n  dup3\n    /* \"#utility.yul\":281:374   */\n  tag_24\n  jump\t// in\ntag_23:\n    /* \"#utility.yul\":399:400   */\n  0x04\n    /* \"#utility.yul\":394:397   */\n  dup3\n    /* \"#utility.yul\":390:401   */\n  add\n    /* \"#utility.yul\":383:401   */\n  swap1\n  pop\n    /* \"#utility.yul\":171:407   */\n  swap2\n  swap1\n  pop\n  jump\t// out\n    /* \"#utility.yul\":413:794   */\ntag_4:\n    /* \"#utility.yul\":598:601   */\n  0x00\n    /* \"#utility.yul\":620:768   */\n  tag_26\n    /* \"#utility.yul\":764:767   */\n  dup3\n    /* \"#utility.yul\":620:768   */\n  tag_19\n  jump\t// in\ntag_26:\n    /* \"#utility.yul\":613:768   */\n  swap2\n  pop\n    /* \"#utility.yul\":785:788   */\n  dup2\n    /* \"#utility.yul\":778:788   */\n  swap1\n  pop\n    /* \"#utility.yul\":602:794   */\n  swap2\n  swap1\n  pop\n  jump\t// out\n    /* \"#utility.yul\":800:948   */\ntag_22:\n    /* \"#utility.yul\":902:913   */\n  0x00\n    /* \"#utility.yul\":939:942   */\n  dup2\n    /* \"#utility.yul\":924:942   */\n  swap1\n  pop\n    /* \"#utility.yul\":914:948   */\n  swap3\n  swap2\n  pop\n  pop\n  jump\t// out\n    /* \"#utility.yul\":954:1274   */\ntag_8:\n    /* \"#utility.yul\":998:1004   */\n  0x00\n    /* \"#utility.yul\":1035:1036   */\n  0x02\n    /* \"#utility.yul\":1029:1033   */\n  dup3\n    /* \"#utility.yul\":1025:1037   */\n  div\n    /* \"#utility.yul\":1015:1037   */\n  swap1\n  pop\n    /* \"#utility.yul\":1082:1083   */\n  0x01\n    /* \"#utility.yul\":1076:1080   */\n  dup3\n    /* \"#utility.yul\":1072:1084   */\n  and\n    /* \"#utility.yul\":1103:1121   */\n  dup1\n    /* \"#utility.yul\":1093:1095   */\n  tag_29\n  jumpi\n    /* \"#utility.yul\":1159:1163   */\n  0x7f\n    /* \"#utility.yul\":1151:1157   */\n  dup3\n    /* \"#utility.yul\":1147:1164   */\n  and\n    /* \"#utility.yul\":1137:1164   */\n  swap2\n  pop\n    /* \"#utility.yul\":1093:1095   */\ntag_29:\n    /* \"#utility.yul\":1221:1223   */\n  0x20\n    /* \"#utility.yul\":1213:1219   */\n  dup3\n    /* \"#utility.yul\":1210:1224   */\n  lt\n    /* \"#utility.yul\":1190:1208   */\n  dup2\n    /* \"#utility.yul\":1187:1225   */\n  eq\n    /* \"#utility.yul\":1184:1186   */\n  iszero\n  tag_30\n  jumpi\n    /* \"#utility.yul\":1240:1258   */\n  tag_31\n  tag_32\n  jump\t// in\ntag_31:\n    /* \"#utility.yul\":1184:1186   */\ntag_30:\n    /* \"#utility.yul\":1005:1274   */\n  pop\n  swap2\n  swap1\n  pop\n  jump\t// out\n    /* \"#utility.yul\":1280:1460   */\ntag_32:\n    /* \"#utility.yul\":1328:1405   */\n  0x4e487b7100000000000000000000000000000000000000000000000000000000\n    /* \"#utility.yul\":1325:1326   */\n  0x00\n    /* \"#utility.yul\":1318:1406   */\n  mstore\n    /* \"#utility.yul\":1425:1429   */\n  0x22\n    /* \"#utility.yul\":1422:1423   */\n  0x04\n    /* \"#utility.yul\":1415:1430   */\n  mstore\n    /* \"#utility.yul\":1449:1453   */\n  0x24\n    /* \"#utility.yul\":1446:1447   */\n  0x00\n    /* \"#utility.yul\":1439:1454   */\n  revert\n    /* \"#utility.yul\":1466:1620   */\ntag_24:\n    /* \"#utility.yul\":1606:1612   */\n  0x7061737300000000000000000000000000000000000000000000000000000000\n    /* \"#utility.yul\":1602:1603   */\n  0x00\n    /* \"#utility.yul\":1594:1600   */\n  dup3\n    /* \"#utility.yul\":1590:1604   */\n  add\n    /* \"#utility.yul\":1583:1613   */\n  mstore\n    /* \"#utility.yul\":1572:1620   */\n  pop\n  jump\t// out\n    /* \"DigitalIdentity\":58:6425  contract DigitalIdentity {\r... */\ntag_6:\n  dataSize(sub_0)\n  dup1\n  dataOffset(sub_0)\n  0x00\n  codecopy\n  0x00\n  return\nstop\n\nsub_0: assembly {\n        /* \"DigitalIdentity\":58:6425  contract DigitalIdentity {\r... */\n      mstore(0x40, 0x80)\n      callvalue\n      dup1\n      iszero\n      tag_1\n      jumpi\n      0x00\n      dup1\n      revert\n    tag_1:\n      pop\n      jumpi(tag_2, lt(calldatasize, 0x04))\n      shr(0xe0, calldataload(0x00))\n      dup1\n      0x507b4e79\n      gt\n      tag_14\n      jumpi\n      dup1\n      0x507b4e79\n      eq\n      tag_8\n      jumpi\n      dup1\n      0x58467dbc\n      eq\n      tag_9\n      jumpi\n      dup1\n      0x880e97a0\n      eq\n      tag_10\n      jumpi\n      dup1\n      0xb0467deb\n      eq\n      tag_11\n      jumpi\n      dup1\n      0xb5c24a01\n      eq\n      tag_12\n      jumpi\n      dup1\n      0xc7154080\n      eq\n      tag_13\n      jumpi\n      jump(tag_2)\n    tag_14:\n      dup1\n      0xa05dc3\n      eq\n      tag_3\n      jumpi\n      dup1\n      0x0d3645ba\n      eq\n      tag_4\n      jumpi\n      dup1\n      0x1112bdf2\n      eq\n      tag_5\n      jumpi\n      dup1\n      0x1d93e5d4\n      eq\n      tag_6\n      jumpi\n      dup1\n      0x45b7ba12\n      eq\n      tag_7\n      jumpi\n    tag_2:\n      0x00\n      dup1\n      revert\n        /* \"DigitalIdentity\":3867:4048  function suspendUser ( uint user_id) public {\r... */\n    tag_3:\n      tag_15\n      0x04\n      dup1\n      calldatasize\n      sub\n      dup2\n      add\n      swap1\n      tag_16\n      swap2\n      swap1\n      tag_17\n      jump\t// in\n    tag_16:\n      tag_18\n      jump\t// in\n    tag_15:\n      stop\n        /* \"DigitalIdentity\":737:881  function getPassportNoById (uint user_id) public view returns (string memory) {\r... */\n    tag_4:\n      tag_19\n      0x04\n      dup1\n      calldatasize\n      sub\n      dup2\n      add\n      swap1\n      tag_20\n      swap2\n      swap1\n      tag_17\n      jump\t// in\n    tag_20:\n      tag_21\n      jump\t// in\n    tag_19:\n      mload(0x40)\n      tag_22\n      swap2\n      swap1\n      tag_23\n      jump\t// in\n    tag_22:\n      mload(0x40)\n      dup1\n      swap2\n      sub\n      swap1\n      return\n        /* \"DigitalIdentity\":5612:5832  function verifyUser( uint user_id, string memory user_account_status) public {\r... */\n    tag_5:\n      tag_24\n      0x04\n      dup1\n      calldatasize\n      sub\n      dup2\n      add\n      swap1\n      tag_25\n      swap2\n      swap1\n      tag_26\n      jump\t// in\n    tag_25:\n      tag_27\n      jump\t// in\n    tag_24:\n      stop\n        /* \"DigitalIdentity\":5040:5600  function getUnverifiedUser( uint user_id) public view returns ( string memory, string memory, string memory, string memory ) {\r... */\n    tag_6:\n      tag_28\n      0x04\n      dup1\n      calldatasize\n      sub\n      dup2\n      add\n      swap1\n      tag_29\n      swap2\n      swap1\n      tag_17\n      jump\t// in\n    tag_29:\n      tag_30\n      jump\t// in\n    tag_28:\n      mload(0x40)\n      tag_31\n      swap5\n      swap4\n      swap3\n      swap2\n      swap1\n      tag_32\n      jump\t// in\n    tag_31:\n      mload(0x40)\n      dup1\n      swap2\n      sub\n      swap1\n      return\n        /* \"DigitalIdentity\":889:1638  function addUser( string memory user_email, string memory user_password , string memory user_passport_num, string memory user_passport_name, string memory user_passport_link, string memory secret_key) public {\r... */\n    tag_7:\n      tag_33\n      0x04\n      dup1\n      calldatasize\n      sub\n      dup2\n      add\n      swap1\n      tag_34\n      swap2\n      swap1\n      tag_35\n      jump\t// in\n    tag_34:\n      tag_36\n      jump\t// in\n    tag_33:\n      stop\n        /* \"DigitalIdentity\":2983:3855  function updatePassword (string memory user_passport_num, string memory new_user_password, string memory secret_key) public {\r... */\n    tag_8:\n      tag_37\n      0x04\n      dup1\n      calldatasize\n      sub\n      dup2\n      add\n      swap1\n      tag_38\n      swap2\n      swap1\n      tag_39\n      jump\t// in\n    tag_38:\n      tag_40\n      jump\t// in\n    tag_37:\n      stop\n        /* \"DigitalIdentity\":4060:5028  function login( string memory user_passport_num, string memory user_password) public view returns (uint, string memory, string memory) {\r... */\n    tag_9:\n      tag_41\n      0x04\n      dup1\n      calldatasize\n      sub\n      dup2\n      add\n      swap1\n      tag_42\n      swap2\n      swap1\n      tag_43\n      jump\t// in\n    tag_42:\n      tag_44\n      jump\t// in\n    tag_41:\n      mload(0x40)\n      tag_45\n      swap4\n      swap3\n      swap2\n      swap1\n      tag_46\n      jump\t// in\n    tag_45:\n      mload(0x40)\n      dup1\n      swap2\n      sub\n      swap1\n      return\n        /* \"DigitalIdentity\":642:729  function getNumOfUsers () public view returns (uint) {\r... */\n    tag_10:\n      tag_47\n      tag_48\n      jump\t// in\n    tag_47:\n      mload(0x40)\n      tag_49\n      swap2\n      swap1\n      tag_50\n      jump\t// in\n    tag_49:\n      mload(0x40)\n      dup1\n      swap2\n      sub\n      swap1\n      return\n        /* \"DigitalIdentity\":1650:2081  function getUser ( uint user_id) public view returns ( string memory, string memory, string memory, string memory, string memory ) {\r... */\n    tag_11:\n      tag_51\n      0x04\n      dup1\n      calldatasize\n      sub\n      dup2\n      add\n      swap1\n      tag_52\n      swap2\n      swap1\n      tag_17\n      jump\t// in\n    tag_52:\n      tag_53\n      jump\t// in\n    tag_51:\n      mload(0x40)\n      tag_54\n      swap6\n      swap5\n      swap4\n      swap3\n      swap2\n      swap1\n      tag_55\n      jump\t// in\n    tag_54:\n      mload(0x40)\n      dup1\n      swap2\n      sub\n      swap1\n      return\n        /* \"DigitalIdentity\":2093:2970  function updateUser (string memory user_email, string memory user_passport_num, string memory user_passport_name, string memory user_passport_link) public {\r... */\n    tag_12:\n      tag_56\n      0x04\n      dup1\n      calldatasize\n      sub\n      dup2\n      add\n      swap1\n      tag_57\n      swap2\n      swap1\n      tag_58\n      jump\t// in\n    tag_57:\n      tag_59\n      jump\t// in\n    tag_56:\n      stop\n        /* \"DigitalIdentity\":5953:6416  function adminLogin (string memory a_name, string memory a_pass) public view returns (string memory) {\r... */\n    tag_13:\n      tag_60\n      0x04\n      dup1\n      calldatasize\n      sub\n      dup2\n      add\n      swap1\n      tag_61\n      swap2\n      swap1\n      tag_43\n      jump\t// in\n    tag_61:\n      tag_62\n      jump\t// in\n    tag_60:\n      mload(0x40)\n      tag_63\n      swap2\n      swap1\n      tag_23\n      jump\t// in\n    tag_63:\n      mload(0x40)\n      dup1\n      swap2\n      sub\n      swap1\n      return\n        /* \"DigitalIdentity\":3867:4048  function suspendUser ( uint user_id) public {\r... */\n    tag_18:\n        /* \"DigitalIdentity\":3922:3943  string memory passNum */\n      0x00\n        /* \"DigitalIdentity\":3946:3972  getPassportNoById(user_id) */\n      tag_65\n        /* \"DigitalIdentity\":3964:3971  user_id */\n      dup3\n        /* \"DigitalIdentity\":3946:3963  getPassportNoById */\n      tag_21\n        /* \"DigitalIdentity\":3946:3972  getPassportNoById(user_id) */\n      jump\t// in\n    tag_65:\n        /* \"DigitalIdentity\":3922:3972  string memory passNum = getPassportNoById(user_id) */\n      swap1\n      pop\n        /* \"DigitalIdentity\":3983:4040  userPassportNo[passNum].user_account_status = \"suspended\" */\n      mload(0x40)\n      dup1\n      0x40\n      add\n      0x40\n      mstore\n      dup1\n      0x09\n      dup2\n      mstore\n      0x20\n      add\n      0x73757370656e6465640000000000000000000000000000000000000000000000\n      dup2\n      mstore\n      pop\n        /* \"DigitalIdentity\":3983:3997  userPassportNo */\n      0x01\n        /* \"DigitalIdentity\":3998:4005  passNum */\n      dup3\n        /* \"DigitalIdentity\":3983:4006  userPassportNo[passNum] */\n      mload(0x40)\n      tag_66\n      swap2\n      swap1\n      tag_67\n      jump\t// in\n    tag_66:\n      swap1\n      dup2\n      mstore\n      0x20\n      add\n      mload(0x40)\n      dup1\n      swap2\n      sub\n      swap1\n      keccak256\n        /* \"DigitalIdentity\":3983:4026  userPassportNo[passNum].user_account_status */\n      0x03\n      add\n        /* \"DigitalIdentity\":3983:4040  userPassportNo[passNum].user_account_status = \"suspended\" */\n      swap1\n      dup1\n      mload\n      swap1\n      0x20\n      add\n      swap1\n      tag_68\n      swap3\n      swap2\n      swap1\n      tag_69\n      jump\t// in\n    tag_68:\n      pop\n        /* \"DigitalIdentity\":3911:4048  {\r... */\n      pop\n        /* \"DigitalIdentity\":3867:4048  function suspendUser ( uint user_id) public {\r... */\n      pop\n      jump\t// out\n        /* \"DigitalIdentity\":737:881  function getPassportNoById (uint user_id) public view returns (string memory) {\r... */\n    tag_21:\n        /* \"DigitalIdentity\":800:813  string memory */\n      0x60\n        /* \"DigitalIdentity\":834:845  userCounter */\n      0x02\n        /* \"DigitalIdentity\":834:854  userCounter[user_id] */\n      0x00\n        /* \"DigitalIdentity\":846:853  user_id */\n      dup4\n        /* \"DigitalIdentity\":834:854  userCounter[user_id] */\n      dup2\n      mstore\n      0x20\n      add\n      swap1\n      dup2\n      mstore\n      0x20\n      add\n      0x00\n      keccak256\n        /* \"DigitalIdentity\":834:872  userCounter[user_id].user_passport_num */\n      0x01\n      add\n        /* \"DigitalIdentity\":826:873  return (userCounter[user_id].user_passport_num) */\n      dup1\n      sload\n      tag_71\n      swap1\n      tag_72\n      jump\t// in\n    tag_71:\n      dup1\n      0x1f\n      add\n      0x20\n      dup1\n      swap2\n      div\n      mul\n      0x20\n      add\n      mload(0x40)\n      swap1\n      dup2\n      add\n      0x40\n      mstore\n      dup1\n      swap3\n      swap2\n      swap1\n      dup2\n      dup2\n      mstore\n      0x20\n      add\n      dup3\n      dup1\n      sload\n      tag_73\n      swap1\n      tag_72\n      jump\t// in\n    tag_73:\n      dup1\n      iszero\n      tag_74\n      jumpi\n      dup1\n      0x1f\n      lt\n      tag_75\n      jumpi\n      0x0100\n      dup1\n      dup4\n      sload\n      div\n      mul\n      dup4\n      mstore\n      swap2\n      0x20\n      add\n      swap2\n      jump(tag_74)\n    tag_75:\n      dup3\n      add\n      swap2\n      swap1\n      0x00\n      mstore\n      keccak256(0x00, 0x20)\n      swap1\n    tag_76:\n      dup2\n      sload\n      dup2\n      mstore\n      swap1\n      0x01\n      add\n      swap1\n      0x20\n      add\n      dup1\n      dup4\n      gt\n      tag_76\n      jumpi\n      dup3\n      swap1\n      sub\n      0x1f\n      and\n      dup3\n      add\n      swap2\n    tag_74:\n      pop\n      pop\n      pop\n      pop\n      pop\n      swap1\n      pop\n        /* \"DigitalIdentity\":737:881  function getPassportNoById (uint user_id) public view returns (string memory) {\r... */\n      swap2\n      swap1\n      pop\n      jump\t// out\n        /* \"DigitalIdentity\":5612:5832  function verifyUser( uint user_id, string memory user_account_status) public {\r... */\n    tag_27:\n        /* \"DigitalIdentity\":5699:5720  string memory passNum */\n      0x00\n        /* \"DigitalIdentity\":5723:5749  getPassportNoById(user_id) */\n      tag_78\n        /* \"DigitalIdentity\":5741:5748  user_id */\n      dup4\n        /* \"DigitalIdentity\":5723:5740  getPassportNoById */\n      tag_21\n        /* \"DigitalIdentity\":5723:5749  getPassportNoById(user_id) */\n      jump\t// in\n    tag_78:\n        /* \"DigitalIdentity\":5699:5749  string memory passNum = getPassportNoById(user_id) */\n      swap1\n      pop\n        /* \"DigitalIdentity\":5805:5824  user_account_status */\n      dup2\n        /* \"DigitalIdentity\":5759:5773  userPassportNo */\n      0x01\n        /* \"DigitalIdentity\":5774:5781  passNum */\n      dup3\n        /* \"DigitalIdentity\":5759:5782  userPassportNo[passNum] */\n      mload(0x40)\n      tag_79\n      swap2\n      swap1\n      tag_67\n      jump\t// in\n    tag_79:\n      swap1\n      dup2\n      mstore\n      0x20\n      add\n      mload(0x40)\n      dup1\n      swap2\n      sub\n      swap1\n      keccak256\n        /* \"DigitalIdentity\":5759:5802  userPassportNo[passNum].user_account_status */\n      0x03\n      add\n        /* \"DigitalIdentity\":5759:5824  userPassportNo[passNum].user_account_status = user_account_status */\n      swap1\n      dup1\n      mload\n      swap1\n      0x20\n      add\n      swap1\n      tag_80\n      swap3\n      swap2\n      swap1\n      tag_69\n      jump\t// in\n    tag_80:\n      pop\n        /* \"DigitalIdentity\":5689:5832  {\r... */\n      pop\n        /* \"DigitalIdentity\":5612:5832  function verifyUser( uint user_id, string memory user_account_status) public {\r... */\n      pop\n      pop\n      jump\t// out\n        /* \"DigitalIdentity\":5040:5600  function getUnverifiedUser( uint user_id) public view returns ( string memory, string memory, string memory, string memory ) {\r... */\n    tag_30:\n        /* \"DigitalIdentity\":5104:5117  string memory */\n      0x60\n        /* \"DigitalIdentity\":5119:5132  string memory */\n      dup1\n        /* \"DigitalIdentity\":5134:5147  string memory */\n      0x60\n        /* \"DigitalIdentity\":5149:5162  string memory */\n      dup1\n        /* \"DigitalIdentity\":5176:5197  string memory passNum */\n      0x00\n        /* \"DigitalIdentity\":5200:5226  getPassportNoById(user_id) */\n      tag_82\n        /* \"DigitalIdentity\":5218:5225  user_id */\n      dup7\n        /* \"DigitalIdentity\":5200:5217  getPassportNoById */\n      tag_21\n        /* \"DigitalIdentity\":5200:5226  getPassportNoById(user_id) */\n      jump\t// in\n    tag_82:\n        /* \"DigitalIdentity\":5176:5226  string memory passNum = getPassportNoById(user_id) */\n      swap1\n      pop\n        /* \"DigitalIdentity\":5331:5361  abi.encodePacked(\"unverified\") */\n      add(0x20, mload(0x40))\n      tag_83\n      swap1\n      tag_84\n      jump\t// in\n    tag_83:\n      mload(0x40)\n      0x20\n      dup2\n      dup4\n      sub\n      sub\n      dup2\n      mstore\n      swap1\n      0x40\n      mstore\n        /* \"DigitalIdentity\":5321:5362  keccak256(abi.encodePacked(\"unverified\")) */\n      dup1\n      mload\n      swap1\n      0x20\n      add\n      keccak256\n        /* \"DigitalIdentity\":5272:5286  userPassportNo */\n      0x01\n        /* \"DigitalIdentity\":5287:5294  passNum */\n      dup3\n        /* \"DigitalIdentity\":5272:5295  userPassportNo[passNum] */\n      mload(0x40)\n      tag_85\n      swap2\n      swap1\n      tag_67\n      jump\t// in\n    tag_85:\n      swap1\n      dup2\n      mstore\n      0x20\n      add\n      mload(0x40)\n      dup1\n      swap2\n      sub\n      swap1\n      keccak256\n        /* \"DigitalIdentity\":5272:5315  userPassportNo[passNum].user_account_status */\n      0x03\n      add\n        /* \"DigitalIdentity\":5255:5316  abi.encodePacked(userPassportNo[passNum].user_account_status) */\n      add(0x20, mload(0x40))\n      tag_86\n      swap2\n      swap1\n      tag_87\n      jump\t// in\n    tag_86:\n      mload(0x40)\n      0x20\n      dup2\n      dup4\n      sub\n      sub\n      dup2\n      mstore\n      swap1\n      0x40\n      mstore\n        /* \"DigitalIdentity\":5245:5317  keccak256(abi.encodePacked(userPassportNo[passNum].user_account_status)) */\n      dup1\n      mload\n      swap1\n      0x20\n      add\n      keccak256\n        /* \"DigitalIdentity\":5245:5362  keccak256(abi.encodePacked(userPassportNo[passNum].user_account_status)) == keccak256(abi.encodePacked(\"unverified\")) */\n      eq\n        /* \"DigitalIdentity\":5237:5407  require(keccak256(abi.encodePacked(userPassportNo[passNum].user_account_status)) == keccak256(abi.encodePacked(\"unverified\")), \"Error! User is already verified/rejected\") */\n      tag_88\n      jumpi\n      mload(0x40)\n      0x08c379a000000000000000000000000000000000000000000000000000000000\n      dup2\n      mstore\n      0x04\n      add\n      tag_89\n      swap1\n      tag_90\n      jump\t// in\n    tag_89:\n      mload(0x40)\n      dup1\n      swap2\n      sub\n      swap1\n      revert\n    tag_88:\n        /* \"DigitalIdentity\":5426:5440  userPassportNo */\n      0x01\n        /* \"DigitalIdentity\":5441:5448  passNum */\n      dup2\n        /* \"DigitalIdentity\":5426:5449  userPassportNo[passNum] */\n      mload(0x40)\n      tag_91\n      swap2\n      swap1\n      tag_67\n      jump\t// in\n    tag_91:\n      swap1\n      dup2\n      mstore\n      0x20\n      add\n      mload(0x40)\n      dup1\n      swap2\n      sub\n      swap1\n      keccak256\n        /* \"DigitalIdentity\":5426:5460  userPassportNo[passNum].user_email */\n      0x01\n      add\n        /* \"DigitalIdentity\":5462:5476  userPassportNo */\n      0x01\n        /* \"DigitalIdentity\":5477:5484  passNum */\n      dup3\n        /* \"DigitalIdentity\":5462:5485  userPassportNo[passNum] */\n      mload(0x40)\n      tag_92\n      swap2\n      swap1\n      tag_67\n      jump\t// in\n    tag_92:\n      swap1\n      dup2\n      mstore\n      0x20\n      add\n      mload(0x40)\n      dup1\n      swap2\n      sub\n      swap1\n      keccak256\n        /* \"DigitalIdentity\":5462:5503  userPassportNo[passNum].user_passport_num */\n      0x04\n      add\n        /* \"DigitalIdentity\":5505:5519  userPassportNo */\n      0x01\n        /* \"DigitalIdentity\":5520:5527  passNum */\n      dup4\n        /* \"DigitalIdentity\":5505:5528  userPassportNo[passNum] */\n      mload(0x40)\n      tag_93\n      swap2\n      swap1\n      tag_67\n      jump\t// in\n    tag_93:\n      swap1\n      dup2\n      mstore\n      0x20\n      add\n      mload(0x40)\n      dup1\n      swap2\n      sub\n      swap1\n      keccak256\n        /* \"DigitalIdentity\":5505:5547  userPassportNo[passNum].user_passport_name */\n      0x05\n      add\n        /* \"DigitalIdentity\":5549:5563  userPassportNo */\n      0x01\n        /* \"DigitalIdentity\":5564:5571  passNum */\n      dup5\n        /* \"DigitalIdentity\":5549:5572  userPassportNo[passNum] */\n      mload(0x40)\n      tag_94\n      swap2\n      swap1\n      tag_67\n      jump\t// in\n    tag_94:\n      swap1\n      dup2\n      mstore\n      0x20\n      add\n      mload(0x40)\n      dup1\n      swap2\n      sub\n      swap1\n      keccak256\n        /* \"DigitalIdentity\":5549:5591  userPassportNo[passNum].user_passport_link */\n      0x06\n      add\n        /* \"DigitalIdentity\":5418:5592  return (userPassportNo[passNum].user_email, userPassportNo[passNum].user_passport_num, userPassportNo[passNum].user_passport_name, userPassportNo[passNum].user_passport_link) */\n      dup4\n      dup1\n      sload\n      tag_95\n      swap1\n      tag_72\n      jump\t// in\n    tag_95:\n      dup1\n      0x1f\n      add\n      0x20\n      dup1\n      swap2\n      div\n      mul\n      0x20\n      add\n      mload(0x40)\n      swap1\n      dup2\n      add\n      0x40\n      mstore\n      dup1\n      swap3\n      swap2\n      swap1\n      dup2\n      dup2\n      mstore\n      0x20\n      add\n      dup3\n      dup1\n      sload\n      tag_96\n      swap1\n      tag_72\n      jump\t// in\n    tag_96:\n      dup1\n      iszero\n      tag_97\n      jumpi\n      dup1\n      0x1f\n      lt\n      tag_98\n      jumpi\n      0x0100\n      dup1\n      dup4\n      sload\n      div\n      mul\n      dup4\n      mstore\n      swap2\n      0x20\n      add\n      swap2\n      jump(tag_97)\n    tag_98:\n      dup3\n      add\n      swap2\n      swap1\n      0x00\n      mstore\n      keccak256(0x00, 0x20)\n      swap1\n    tag_99:\n      dup2\n      sload\n      dup2\n      mstore\n      swap1\n      0x01\n      add\n      swap1\n      0x20\n      add\n      dup1\n      dup4\n      gt\n      tag_99\n      jumpi\n      dup3\n      swap1\n      sub\n      0x1f\n      and\n      dup3\n      add\n      swap2\n    tag_97:\n      pop\n      pop\n      pop\n      pop\n      pop\n      swap4\n      pop\n      dup3\n      dup1\n      sload\n      tag_100\n      swap1\n      tag_72\n      jump\t// in\n    tag_100:\n      dup1\n      0x1f\n      add\n      0x20\n      dup1\n      swap2\n      div\n      mul\n      0x20\n      add\n      mload(0x40)\n      swap1\n      dup2\n      add\n      0x40\n      mstore\n      dup1\n      swap3\n      swap2\n      swap1\n      dup2\n      dup2\n      mstore\n      0x20\n      add\n      dup3\n      dup1\n      sload\n      tag_101\n      swap1\n      tag_72\n      jump\t// in\n    tag_101:\n      dup1\n      iszero\n      tag_102\n      jumpi\n      dup1\n      0x1f\n      lt\n      tag_103\n      jumpi\n      0x0100\n      dup1\n      dup4\n      sload\n      div\n      mul\n      dup4\n      mstore\n      swap2\n      0x20\n      add\n      swap2\n      jump(tag_102)\n    tag_103:\n      dup3\n      add\n      swap2\n      swap1\n      0x00\n      mstore\n      keccak256(0x00, 0x20)\n      swap1\n    tag_104:\n      dup2\n      sload\n      dup2\n      mstore\n      swap1\n      0x01\n      add\n      swap1\n      0x20\n      add\n      dup1\n      dup4\n      gt\n      tag_104\n      jumpi\n      dup3\n      swap1\n      sub\n      0x1f\n      and\n      dup3\n      add\n      swap2\n    tag_102:\n      pop\n      pop\n      pop\n      pop\n      pop\n      swap3\n      pop\n      dup2\n      dup1\n      sload\n      tag_105\n      swap1\n      tag_72\n      jump\t// in\n    tag_105:\n      dup1\n      0x1f\n      add\n      0x20\n      dup1\n      swap2\n      div\n      mul\n      0x20\n      add\n      mload(0x40)\n      swap1\n      dup2\n      add\n      0x40\n      mstore\n      dup1\n      swap3\n      swap2\n      swap1\n      dup2\n      dup2\n      mstore\n      0x20\n      add\n      dup3\n      dup1\n      sload\n      tag_106\n      swap1\n      tag_72\n      jump\t// in\n    tag_106:\n      dup1\n      iszero\n      tag_107\n      jumpi\n      dup1\n      0x1f\n      lt\n      tag_108\n      jumpi\n      0x0100\n      dup1\n      dup4\n      sload\n      div\n      mul\n      dup4\n      mstore\n      swap2\n      0x20\n      add\n      swap2\n      jump(tag_107)\n    tag_108:\n      dup3\n      add\n      swap2\n      swap1\n      0x00\n      mstore\n      keccak256(0x00, 0x20)\n      swap1\n    tag_109:\n      dup2\n      sload\n      dup2\n      mstore\n      swap1\n      0x01\n      add\n      swap1\n      0x20\n      add\n      dup1\n      dup4\n      gt\n      tag_109\n      jumpi\n      dup3\n      swap1\n      sub\n      0x1f\n      and\n      dup3\n      add\n      swap2\n    tag_107:\n      pop\n      pop\n      pop\n      pop\n      pop\n      swap2\n      pop\n      dup1\n      dup1\n      sload\n      tag_110\n      swap1\n      tag_72\n      jump\t// in\n    tag_110:\n      dup1\n      0x1f\n      add\n      0x20\n      dup1\n      swap2\n      div\n      mul\n      0x20\n      add\n      mload(0x40)\n      swap1\n      dup2\n      add\n      0x40\n      mstore\n      dup1\n      swap3\n      swap2\n      swap1\n      dup2\n      dup2\n      mstore\n      0x20\n      add\n      dup3\n      dup1\n      sload\n      tag_111\n      swap1\n      tag_72\n      jump\t// in\n    tag_111:\n      dup1\n      iszero\n      tag_112\n      jumpi\n      dup1\n      0x1f\n      lt\n      tag_113\n      jumpi\n      0x0100\n      dup1\n      dup4\n      sload\n      div\n      mul\n      dup4\n      mstore\n      swap2\n      0x20\n      add\n      swap2\n      jump(tag_112)\n    tag_113:\n      dup3\n      add\n      swap2\n      swap1\n      0x00\n      mstore\n      keccak256(0x00, 0x20)\n      swap1\n    tag_114:\n      dup2\n      sload\n      dup2\n      mstore\n      swap1\n      0x01\n      add\n      swap1\n      0x20\n      add\n      dup1\n      dup4\n      gt\n      tag_114\n      jumpi\n      dup3\n      swap1\n      sub\n      0x1f\n      and\n      dup3\n      add\n      swap2\n    tag_112:\n      pop\n      pop\n      pop\n      pop\n      pop\n      swap1\n      pop\n      swap5\n      pop\n      swap5\n      pop\n      swap5\n      pop\n      swap5\n      pop\n      pop\n        /* \"DigitalIdentity\":5040:5600  function getUnverifiedUser( uint user_id) public view returns ( string memory, string memory, string memory, string memory ) {\r... */\n      swap2\n      swap4\n      pop\n      swap2\n      swap4\n      jump\t// out\n        /* \"DigitalIdentity\":889:1638  function addUser( string memory user_email, string memory user_password , string memory user_passport_num, string memory user_passport_name, string memory user_passport_link, string memory secret_key) public {\r... */\n    tag_36:\n        /* \"DigitalIdentity\":1228:1245  user_passport_num */\n      dup4\n        /* \"DigitalIdentity\":1211:1246  abi.encodePacked(user_passport_num) */\n      add(0x20, mload(0x40))\n      tag_116\n      swap2\n      swap1\n      tag_67\n      jump\t// in\n    tag_116:\n      mload(0x40)\n      0x20\n      dup2\n      dup4\n      sub\n      sub\n      dup2\n      mstore\n      swap1\n      0x40\n      mstore\n        /* \"DigitalIdentity\":1201:1247  keccak256(abi.encodePacked(user_passport_num)) */\n      dup1\n      mload\n      swap1\n      0x20\n      add\n      keccak256\n        /* \"DigitalIdentity\":1144:1158  userPassportNo */\n      0x01\n        /* \"DigitalIdentity\":1159:1176  user_passport_num */\n      dup6\n        /* \"DigitalIdentity\":1144:1177  userPassportNo[user_passport_num] */\n      mload(0x40)\n      tag_117\n      swap2\n      swap1\n      tag_67\n      jump\t// in\n    tag_117:\n      swap1\n      dup2\n      mstore\n      0x20\n      add\n      mload(0x40)\n      dup1\n      swap2\n      sub\n      swap1\n      keccak256\n        /* \"DigitalIdentity\":1144:1195  userPassportNo[user_passport_num].user_passport_num */\n      0x04\n      add\n        /* \"DigitalIdentity\":1127:1196  abi.encodePacked(userPassportNo[user_passport_num].user_passport_num) */\n      add(0x20, mload(0x40))\n      tag_118\n      swap2\n      swap1\n      tag_87\n      jump\t// in\n    tag_118:\n      mload(0x40)\n      0x20\n      dup2\n      dup4\n      sub\n      sub\n      dup2\n      mstore\n      swap1\n      0x40\n      mstore\n        /* \"DigitalIdentity\":1117:1197  keccak256(abi.encodePacked(userPassportNo[user_passport_num].user_passport_num)) */\n      dup1\n      mload\n      swap1\n      0x20\n      add\n      keccak256\n        /* \"DigitalIdentity\":1117:1247  keccak256(abi.encodePacked(userPassportNo[user_passport_num].user_passport_num)) != keccak256(abi.encodePacked(user_passport_num)) */\n      eq\n      iszero\n        /* \"DigitalIdentity\":1108:1279  require (keccak256(abi.encodePacked(userPassportNo[user_passport_num].user_passport_num)) != keccak256(abi.encodePacked(user_passport_num)), \"Error! User already exists.\") */\n      tag_119\n      jumpi\n      mload(0x40)\n      0x08c379a000000000000000000000000000000000000000000000000000000000\n      dup2\n      mstore\n      0x04\n      add\n      tag_120\n      swap1\n      tag_121\n      jump\t// in\n    tag_120:\n      mload(0x40)\n      dup1\n      swap2\n      sub\n      swap1\n      revert\n    tag_119:\n        /* \"DigitalIdentity\":1290:1298  numUsers */\n      0x00\n      dup1\n        /* \"DigitalIdentity\":1290:1300  numUsers++ */\n      dup2\n      sload\n      dup1\n      swap3\n      swap2\n      swap1\n      tag_122\n      swap1\n      tag_123\n      jump\t// in\n    tag_122:\n      swap2\n      swap1\n      pop\n      sstore\n      pop\n        /* \"DigitalIdentity\":1311:1333  bytes32 user_password1 */\n      0x00\n        /* \"DigitalIdentity\":1363:1376  user_password */\n      dup6\n        /* \"DigitalIdentity\":1346:1377  abi.encodePacked(user_password) */\n      add(0x20, mload(0x40))\n      tag_124\n      swap2\n      swap1\n      tag_67\n      jump\t// in\n    tag_124:\n      mload(0x40)\n      0x20\n      dup2\n      dup4\n      sub\n      sub\n      dup2\n      mstore\n      swap1\n      0x40\n      mstore\n        /* \"DigitalIdentity\":1336:1378  keccak256(abi.encodePacked(user_password)) */\n      dup1\n      mload\n      swap1\n      0x20\n      add\n      keccak256\n        /* \"DigitalIdentity\":1311:1378  bytes32 user_password1 = keccak256(abi.encodePacked(user_password)) */\n      swap1\n      pop\n        /* \"DigitalIdentity\":1425:1557  UserData( numUsers, user_email, user_password1, \"unverified\", user_passport_num, user_passport_name, user_passport_link, secret_key) */\n      mload(0x40)\n      dup1\n      0x0100\n      add\n      0x40\n      mstore\n      dup1\n        /* \"DigitalIdentity\":1435:1443  numUsers */\n      sload(0x00)\n        /* \"DigitalIdentity\":1425:1557  UserData( numUsers, user_email, user_password1, \"unverified\", user_passport_num, user_passport_name, user_passport_link, secret_key) */\n      dup2\n      mstore\n      0x20\n      add\n        /* \"DigitalIdentity\":1445:1455  user_email */\n      dup9\n        /* \"DigitalIdentity\":1425:1557  UserData( numUsers, user_email, user_password1, \"unverified\", user_passport_num, user_passport_name, user_passport_link, secret_key) */\n      dup2\n      mstore\n      0x20\n      add\n        /* \"DigitalIdentity\":1457:1471  user_password1 */\n      dup3\n        /* \"DigitalIdentity\":1425:1557  UserData( numUsers, user_email, user_password1, \"unverified\", user_passport_num, user_passport_name, user_passport_link, secret_key) */\n      dup2\n      mstore\n      0x20\n      add\n      mload(0x40)\n      dup1\n      0x40\n      add\n      0x40\n      mstore\n      dup1\n      0x0a\n      dup2\n      mstore\n      0x20\n      add\n      0x756e766572696669656400000000000000000000000000000000000000000000\n      dup2\n      mstore\n      pop\n      dup2\n      mstore\n      0x20\n      add\n        /* \"DigitalIdentity\":1487:1504  user_passport_num */\n      dup7\n        /* \"DigitalIdentity\":1425:1557  UserData( numUsers, user_email, user_password1, \"unverified\", user_passport_num, user_passport_name, user_passport_link, secret_key) */\n      dup2\n      mstore\n      0x20\n      add\n        /* \"DigitalIdentity\":1506:1524  user_passport_name */\n      dup6\n        /* \"DigitalIdentity\":1425:1557  UserData( numUsers, user_email, user_password1, \"unverified\", user_passport_num, user_passport_name, user_passport_link, secret_key) */\n      dup2\n      mstore\n      0x20\n      add\n        /* \"DigitalIdentity\":1526:1544  user_passport_link */\n      dup5\n        /* \"DigitalIdentity\":1425:1557  UserData( numUsers, user_email, user_password1, \"unverified\", user_passport_num, user_passport_name, user_passport_link, secret_key) */\n      dup2\n      mstore\n      0x20\n      add\n        /* \"DigitalIdentity\":1546:1556  secret_key */\n      dup4\n        /* \"DigitalIdentity\":1425:1557  UserData( numUsers, user_email, user_password1, \"unverified\", user_passport_num, user_passport_name, user_passport_link, secret_key) */\n      dup2\n      mstore\n      pop\n        /* \"DigitalIdentity\":1389:1403  userPassportNo */\n      0x01\n        /* \"DigitalIdentity\":1404:1421  user_passport_num */\n      dup7\n        /* \"DigitalIdentity\":1389:1422  userPassportNo[user_passport_num] */\n      mload(0x40)\n      tag_125\n      swap2\n      swap1\n      tag_67\n      jump\t// in\n    tag_125:\n      swap1\n      dup2\n      mstore\n      0x20\n      add\n      mload(0x40)\n      dup1\n      swap2\n      sub\n      swap1\n      keccak256\n        /* \"DigitalIdentity\":1389:1557  userPassportNo[user_passport_num] = UserData( numUsers, user_email, user_password1, \"unverified\", user_passport_num, user_passport_name, user_passport_link, secret_key) */\n      0x00\n      dup3\n      add\n      mload\n      dup2\n      0x00\n      add\n      sstore\n      0x20\n      dup3\n      add\n      mload\n      dup2\n      0x01\n      add\n      swap1\n      dup1\n      mload\n      swap1\n      0x20\n      add\n      swap1\n      tag_126\n      swap3\n      swap2\n      swap1\n      tag_69\n      jump\t// in\n    tag_126:\n      pop\n      0x40\n      dup3\n      add\n      mload\n      dup2\n      0x02\n      add\n      sstore\n      0x60\n      dup3\n      add\n      mload\n      dup2\n      0x03\n      add\n      swap1\n      dup1\n      mload\n      swap1\n      0x20\n      add\n      swap1\n      tag_127\n      swap3\n      swap2\n      swap1\n      tag_69\n      jump\t// in\n    tag_127:\n      pop\n      0x80\n      dup3\n      add\n      mload\n      dup2\n      0x04\n      add\n      swap1\n      dup1\n      mload\n      swap1\n      0x20\n      add\n      swap1\n      tag_128\n      swap3\n      swap2\n      swap1\n      tag_69\n      jump\t// in\n    tag_128:\n      pop\n      0xa0\n      dup3\n      add\n      mload\n      dup2\n      0x05\n      add\n      swap1\n      dup1\n      mload\n      swap1\n      0x20\n      add\n      swap1\n      tag_129\n      swap3\n      swap2\n      swap1\n      tag_69\n      jump\t// in\n    tag_129:\n      pop\n      0xc0\n      dup3\n      add\n      mload\n      dup2\n      0x06\n      add\n      swap1\n      dup1\n      mload\n      swap1\n      0x20\n      add\n      swap1\n      tag_130\n      swap3\n      swap2\n      swap1\n      tag_69\n      jump\t// in\n    tag_130:\n      pop\n      0xe0\n      dup3\n      add\n      mload\n      dup2\n      0x07\n      add\n      swap1\n      dup1\n      mload\n      swap1\n      0x20\n      add\n      swap1\n      tag_131\n      swap3\n      swap2\n      swap1\n      tag_69\n      jump\t// in\n    tag_131:\n      pop\n      swap1\n      pop\n      pop\n        /* \"DigitalIdentity\":1592:1630  UserCred( numUsers, user_passport_num) */\n      mload(0x40)\n      dup1\n      0x40\n      add\n      0x40\n      mstore\n      dup1\n        /* \"DigitalIdentity\":1602:1610  numUsers */\n      sload(0x00)\n        /* \"DigitalIdentity\":1592:1630  UserCred( numUsers, user_passport_num) */\n      dup2\n      mstore\n      0x20\n      add\n        /* \"DigitalIdentity\":1612:1629  user_passport_num */\n      dup7\n        /* \"DigitalIdentity\":1592:1630  UserCred( numUsers, user_passport_num) */\n      dup2\n      mstore\n      pop\n        /* \"DigitalIdentity\":1568:1579  userCounter */\n      0x02\n        /* \"DigitalIdentity\":1568:1589  userCounter[numUsers] */\n      0x00\n        /* \"DigitalIdentity\":1580:1588  numUsers */\n      dup1\n      sload\n        /* \"DigitalIdentity\":1568:1589  userCounter[numUsers] */\n      dup2\n      mstore\n      0x20\n      add\n      swap1\n      dup2\n      mstore\n      0x20\n      add\n      0x00\n      keccak256\n        /* \"DigitalIdentity\":1568:1630  userCounter[numUsers] = UserCred( numUsers, user_passport_num) */\n      0x00\n      dup3\n      add\n      mload\n      dup2\n      0x00\n      add\n      sstore\n      0x20\n      dup3\n      add\n      mload\n      dup2\n      0x01\n      add\n      swap1\n      dup1\n      mload\n      swap1\n      0x20\n      add\n      swap1\n      tag_132\n      swap3\n      swap2\n      swap1\n      tag_69\n      jump\t// in\n    tag_132:\n      pop\n      swap1\n      pop\n      pop\n        /* \"DigitalIdentity\":1097:1638  {\r... */\n      pop\n        /* \"DigitalIdentity\":889:1638  function addUser( string memory user_email, string memory user_password , string memory user_passport_num, string memory user_passport_name, string memory user_passport_link, string memory secret_key) public {\r... */\n      pop\n      pop\n      pop\n      pop\n      pop\n      pop\n      jump\t// out\n        /* \"DigitalIdentity\":2983:3855  function updatePassword (string memory user_passport_num, string memory new_user_password, string memory secret_key) public {\r... */\n    tag_40:\n        /* \"DigitalIdentity\":3238:3255  user_passport_num */\n      dup3\n        /* \"DigitalIdentity\":3221:3256  abi.encodePacked(user_passport_num) */\n      add(0x20, mload(0x40))\n      tag_134\n      swap2\n      swap1\n      tag_67\n      jump\t// in\n    tag_134:\n      mload(0x40)\n      0x20\n      dup2\n      dup4\n      sub\n      sub\n      dup2\n      mstore\n      swap1\n      0x40\n      mstore\n        /* \"DigitalIdentity\":3211:3257  keccak256(abi.encodePacked(user_passport_num)) */\n      dup1\n      mload\n      swap1\n      0x20\n      add\n      keccak256\n        /* \"DigitalIdentity\":3154:3168  userPassportNo */\n      0x01\n        /* \"DigitalIdentity\":3169:3186  user_passport_num */\n      dup5\n        /* \"DigitalIdentity\":3154:3187  userPassportNo[user_passport_num] */\n      mload(0x40)\n      tag_135\n      swap2\n      swap1\n      tag_67\n      jump\t// in\n    tag_135:\n      swap1\n      dup2\n      mstore\n      0x20\n      add\n      mload(0x40)\n      dup1\n      swap2\n      sub\n      swap1\n      keccak256\n        /* \"DigitalIdentity\":3154:3205  userPassportNo[user_passport_num].user_passport_num */\n      0x04\n      add\n        /* \"DigitalIdentity\":3137:3206  abi.encodePacked(userPassportNo[user_passport_num].user_passport_num) */\n      add(0x20, mload(0x40))\n      tag_136\n      swap2\n      swap1\n      tag_87\n      jump\t// in\n    tag_136:\n      mload(0x40)\n      0x20\n      dup2\n      dup4\n      sub\n      sub\n      dup2\n      mstore\n      swap1\n      0x40\n      mstore\n        /* \"DigitalIdentity\":3127:3207  keccak256(abi.encodePacked(userPassportNo[user_passport_num].user_passport_num)) */\n      dup1\n      mload\n      swap1\n      0x20\n      add\n      keccak256\n        /* \"DigitalIdentity\":3127:3257  keccak256(abi.encodePacked(userPassportNo[user_passport_num].user_passport_num)) == keccak256(abi.encodePacked(user_passport_num)) */\n      eq\n        /* \"DigitalIdentity\":3118:3322  require (keccak256(abi.encodePacked(userPassportNo[user_passport_num].user_passport_num)) == keccak256(abi.encodePacked(user_passport_num)), \"Error! User not registered or wrong passport number entered.\") */\n      tag_137\n      jumpi\n      mload(0x40)\n      0x08c379a000000000000000000000000000000000000000000000000000000000\n      dup2\n      mstore\n      0x04\n      add\n      tag_138\n      swap1\n      tag_139\n      jump\t// in\n    tag_138:\n      mload(0x40)\n      dup1\n      swap2\n      sub\n      swap1\n      revert\n    tag_137:\n        /* \"DigitalIdentity\":3438:3467  abi.encodePacked(\"suspended\") */\n      add(0x20, mload(0x40))\n      tag_140\n      swap1\n      tag_141\n      jump\t// in\n    tag_140:\n      mload(0x40)\n      0x20\n      dup2\n      dup4\n      sub\n      sub\n      dup2\n      mstore\n      swap1\n      0x40\n      mstore\n        /* \"DigitalIdentity\":3428:3468  keccak256(abi.encodePacked(\"suspended\")) */\n      dup1\n      mload\n      swap1\n      0x20\n      add\n      keccak256\n        /* \"DigitalIdentity\":3369:3383  userPassportNo */\n      0x01\n        /* \"DigitalIdentity\":3384:3401  user_passport_num */\n      dup5\n        /* \"DigitalIdentity\":3369:3402  userPassportNo[user_passport_num] */\n      mload(0x40)\n      tag_142\n      swap2\n      swap1\n      tag_67\n      jump\t// in\n    tag_142:\n      swap1\n      dup2\n      mstore\n      0x20\n      add\n      mload(0x40)\n      dup1\n      swap2\n      sub\n      swap1\n      keccak256\n        /* \"DigitalIdentity\":3369:3422  userPassportNo[user_passport_num].user_account_status */\n      0x03\n      add\n        /* \"DigitalIdentity\":3352:3423  abi.encodePacked(userPassportNo[user_passport_num].user_account_status) */\n      add(0x20, mload(0x40))\n      tag_143\n      swap2\n      swap1\n      tag_87\n      jump\t// in\n    tag_143:\n      mload(0x40)\n      0x20\n      dup2\n      dup4\n      sub\n      sub\n      dup2\n      mstore\n      swap1\n      0x40\n      mstore\n        /* \"DigitalIdentity\":3342:3424  keccak256(abi.encodePacked(userPassportNo[user_passport_num].user_account_status)) */\n      dup1\n      mload\n      swap1\n      0x20\n      add\n      keccak256\n        /* \"DigitalIdentity\":3342:3468  keccak256(abi.encodePacked(userPassportNo[user_passport_num].user_account_status)) != keccak256(abi.encodePacked(\"suspended\")) */\n      eq\n      iszero\n        /* \"DigitalIdentity\":3333:3502  require (keccak256(abi.encodePacked(userPassportNo[user_passport_num].user_account_status)) != keccak256(abi.encodePacked(\"suspended\")), \"Error! Your account is banned\") */\n      tag_144\n      jumpi\n      mload(0x40)\n      0x08c379a000000000000000000000000000000000000000000000000000000000\n      dup2\n      mstore\n      0x04\n      add\n      tag_145\n      swap1\n      tag_146\n      jump\t// in\n    tag_145:\n      mload(0x40)\n      dup1\n      swap2\n      sub\n      swap1\n      revert\n    tag_144:\n        /* \"DigitalIdentity\":3626:3636  secret_key */\n      dup1\n        /* \"DigitalIdentity\":3609:3637  abi.encodePacked(secret_key) */\n      add(0x20, mload(0x40))\n      tag_147\n      swap2\n      swap1\n      tag_67\n      jump\t// in\n    tag_147:\n      mload(0x40)\n      0x20\n      dup2\n      dup4\n      sub\n      sub\n      dup2\n      mstore\n      swap1\n      0x40\n      mstore\n        /* \"DigitalIdentity\":3599:3638  keccak256(abi.encodePacked(secret_key)) */\n      dup1\n      mload\n      swap1\n      0x20\n      add\n      keccak256\n        /* \"DigitalIdentity\":3549:3563  userPassportNo */\n      0x01\n        /* \"DigitalIdentity\":3564:3581  user_passport_num */\n      dup5\n        /* \"DigitalIdentity\":3549:3582  userPassportNo[user_passport_num] */\n      mload(0x40)\n      tag_148\n      swap2\n      swap1\n      tag_67\n      jump\t// in\n    tag_148:\n      swap1\n      dup2\n      mstore\n      0x20\n      add\n      mload(0x40)\n      dup1\n      swap2\n      sub\n      swap1\n      keccak256\n        /* \"DigitalIdentity\":3549:3593  userPassportNo[user_passport_num].secret_key */\n      0x07\n      add\n        /* \"DigitalIdentity\":3532:3594  abi.encodePacked(userPassportNo[user_passport_num].secret_key) */\n      add(0x20, mload(0x40))\n      tag_149\n      swap2\n      swap1\n      tag_87\n      jump\t// in\n    tag_149:\n      mload(0x40)\n      0x20\n      dup2\n      dup4\n      sub\n      sub\n      dup2\n      mstore\n      swap1\n      0x40\n      mstore\n        /* \"DigitalIdentity\":3522:3595  keccak256(abi.encodePacked(userPassportNo[user_passport_num].secret_key)) */\n      dup1\n      mload\n      swap1\n      0x20\n      add\n      keccak256\n        /* \"DigitalIdentity\":3522:3638  keccak256(abi.encodePacked(userPassportNo[user_passport_num].secret_key)) == keccak256(abi.encodePacked(secret_key)) */\n      eq\n        /* \"DigitalIdentity\":3513:3687  require (keccak256(abi.encodePacked(userPassportNo[user_passport_num].secret_key)) == keccak256(abi.encodePacked(secret_key)), \"Error! Invalid secret key. Please try again.\") */\n      tag_150\n      jumpi\n      mload(0x40)\n      0x08c379a000000000000000000000000000000000000000000000000000000000\n      dup2\n      mstore\n      0x04\n      add\n      tag_151\n      swap1\n      tag_152\n      jump\t// in\n    tag_151:\n      mload(0x40)\n      dup1\n      swap2\n      sub\n      swap1\n      revert\n    tag_150:\n        /* \"DigitalIdentity\":3698:3720  bytes32 user_password1 */\n      0x00\n        /* \"DigitalIdentity\":3750:3767  new_user_password */\n      dup3\n        /* \"DigitalIdentity\":3733:3768  abi.encodePacked(new_user_password) */\n      add(0x20, mload(0x40))\n      tag_153\n      swap2\n      swap1\n      tag_67\n      jump\t// in\n    tag_153:\n      mload(0x40)\n      0x20\n      dup2\n      dup4\n      sub\n      sub\n      dup2\n      mstore\n      swap1\n      0x40\n      mstore\n        /* \"DigitalIdentity\":3723:3769  keccak256(abi.encodePacked(new_user_password)) */\n      dup1\n      mload\n      swap1\n      0x20\n      add\n      keccak256\n        /* \"DigitalIdentity\":3698:3769  bytes32 user_password1 = keccak256(abi.encodePacked(new_user_password)) */\n      swap1\n      pop\n        /* \"DigitalIdentity\":3830:3844  user_password1 */\n      dup1\n        /* \"DigitalIdentity\":3780:3794  userPassportNo */\n      0x01\n        /* \"DigitalIdentity\":3795:3812  user_passport_num */\n      dup6\n        /* \"DigitalIdentity\":3780:3813  userPassportNo[user_passport_num] */\n      mload(0x40)\n      tag_154\n      swap2\n      swap1\n      tag_67\n      jump\t// in\n    tag_154:\n      swap1\n      dup2\n      mstore\n      0x20\n      add\n      mload(0x40)\n      dup1\n      swap2\n      sub\n      swap1\n      keccak256\n        /* \"DigitalIdentity\":3780:3827  userPassportNo[user_passport_num].user_password */\n      0x02\n      add\n        /* \"DigitalIdentity\":3780:3844  userPassportNo[user_passport_num].user_password = user_password1 */\n      dup2\n      swap1\n      sstore\n      pop\n        /* \"DigitalIdentity\":3107:3855  {\r... */\n      pop\n        /* \"DigitalIdentity\":2983:3855  function updatePassword (string memory user_passport_num, string memory new_user_password, string memory secret_key) public {\r... */\n      pop\n      pop\n      pop\n      jump\t// out\n        /* \"DigitalIdentity\":4060:5028  function login( string memory user_passport_num, string memory user_password) public view returns (uint, string memory, string memory) {\r... */\n    tag_44:\n        /* \"DigitalIdentity\":4159:4163  uint */\n      0x00\n        /* \"DigitalIdentity\":4165:4178  string memory */\n      0x60\n        /* \"DigitalIdentity\":4180:4193  string memory */\n      dup1\n        /* \"DigitalIdentity\":4326:4343  user_passport_num */\n      dup5\n        /* \"DigitalIdentity\":4309:4344  abi.encodePacked(user_passport_num) */\n      add(0x20, mload(0x40))\n      tag_156\n      swap2\n      swap1\n      tag_67\n      jump\t// in\n    tag_156:\n      mload(0x40)\n      0x20\n      dup2\n      dup4\n      sub\n      sub\n      dup2\n      mstore\n      swap1\n      0x40\n      mstore\n        /* \"DigitalIdentity\":4299:4345  keccak256(abi.encodePacked(user_passport_num)) */\n      dup1\n      mload\n      swap1\n      0x20\n      add\n      keccak256\n        /* \"DigitalIdentity\":4242:4256  userPassportNo */\n      0x01\n        /* \"DigitalIdentity\":4257:4274  user_passport_num */\n      dup7\n        /* \"DigitalIdentity\":4242:4275  userPassportNo[user_passport_num] */\n      mload(0x40)\n      tag_157\n      swap2\n      swap1\n      tag_67\n      jump\t// in\n    tag_157:\n      swap1\n      dup2\n      mstore\n      0x20\n      add\n      mload(0x40)\n      dup1\n      swap2\n      sub\n      swap1\n      keccak256\n        /* \"DigitalIdentity\":4242:4293  userPassportNo[user_passport_num].user_passport_num */\n      0x04\n      add\n        /* \"DigitalIdentity\":4225:4294  abi.encodePacked(userPassportNo[user_passport_num].user_passport_num) */\n      add(0x20, mload(0x40))\n      tag_158\n      swap2\n      swap1\n      tag_87\n      jump\t// in\n    tag_158:\n      mload(0x40)\n      0x20\n      dup2\n      dup4\n      sub\n      sub\n      dup2\n      mstore\n      swap1\n      0x40\n      mstore\n        /* \"DigitalIdentity\":4215:4295  keccak256(abi.encodePacked(userPassportNo[user_passport_num].user_passport_num)) */\n      dup1\n      mload\n      swap1\n      0x20\n      add\n      keccak256\n        /* \"DigitalIdentity\":4215:4345  keccak256(abi.encodePacked(userPassportNo[user_passport_num].user_passport_num)) == keccak256(abi.encodePacked(user_passport_num)) */\n      eq\n        /* \"DigitalIdentity\":4206:4410  require (keccak256(abi.encodePacked(userPassportNo[user_passport_num].user_passport_num)) == keccak256(abi.encodePacked(user_passport_num)), \"Error! User not registered or wrong passport number entered.\") */\n      tag_159\n      jumpi\n      mload(0x40)\n      0x08c379a000000000000000000000000000000000000000000000000000000000\n      dup2\n      mstore\n      0x04\n      add\n      tag_160\n      swap1\n      tag_139\n      jump\t// in\n    tag_160:\n      mload(0x40)\n      dup1\n      swap2\n      sub\n      swap1\n      revert\n    tag_159:\n        /* \"DigitalIdentity\":4526:4555  abi.encodePacked(\"suspended\") */\n      add(0x20, mload(0x40))\n      tag_161\n      swap1\n      tag_141\n      jump\t// in\n    tag_161:\n      mload(0x40)\n      0x20\n      dup2\n      dup4\n      sub\n      sub\n      dup2\n      mstore\n      swap1\n      0x40\n      mstore\n        /* \"DigitalIdentity\":4516:4556  keccak256(abi.encodePacked(\"suspended\")) */\n      dup1\n      mload\n      swap1\n      0x20\n      add\n      keccak256\n        /* \"DigitalIdentity\":4457:4471  userPassportNo */\n      0x01\n        /* \"DigitalIdentity\":4472:4489  user_passport_num */\n      dup7\n        /* \"DigitalIdentity\":4457:4490  userPassportNo[user_passport_num] */\n      mload(0x40)\n      tag_162\n      swap2\n      swap1\n      tag_67\n      jump\t// in\n    tag_162:\n      swap1\n      dup2\n      mstore\n      0x20\n      add\n      mload(0x40)\n      dup1\n      swap2\n      sub\n      swap1\n      keccak256\n        /* \"DigitalIdentity\":4457:4510  userPassportNo[user_passport_num].user_account_status */\n      0x03\n      add\n        /* \"DigitalIdentity\":4440:4511  abi.encodePacked(userPassportNo[user_passport_num].user_account_status) */\n      add(0x20, mload(0x40))\n      tag_163\n      swap2\n      swap1\n      tag_87\n      jump\t// in\n    tag_163:\n      mload(0x40)\n      0x20\n      dup2\n      dup4\n      sub\n      sub\n      dup2\n      mstore\n      swap1\n      0x40\n      mstore\n        /* \"DigitalIdentity\":4430:4512  keccak256(abi.encodePacked(userPassportNo[user_passport_num].user_account_status)) */\n      dup1\n      mload\n      swap1\n      0x20\n      add\n      keccak256\n        /* \"DigitalIdentity\":4430:4556  keccak256(abi.encodePacked(userPassportNo[user_passport_num].user_account_status)) != keccak256(abi.encodePacked(\"suspended\")) */\n      eq\n      iszero\n        /* \"DigitalIdentity\":4421:4590  require (keccak256(abi.encodePacked(userPassportNo[user_passport_num].user_account_status)) != keccak256(abi.encodePacked(\"suspended\")), \"Error! The account is banned.\") */\n      tag_164\n      jumpi\n      mload(0x40)\n      0x08c379a000000000000000000000000000000000000000000000000000000000\n      dup2\n      mstore\n      0x04\n      add\n      tag_165\n      swap1\n      tag_166\n      jump\t// in\n    tag_165:\n      mload(0x40)\n      dup1\n      swap2\n      sub\n      swap1\n      revert\n    tag_164:\n        /* \"DigitalIdentity\":4601:4623  bytes32 user_password1 */\n      0x00\n        /* \"DigitalIdentity\":4653:4666  user_password */\n      dup5\n        /* \"DigitalIdentity\":4636:4667  abi.encodePacked(user_password) */\n      add(0x20, mload(0x40))\n      tag_167\n      swap2\n      swap1\n      tag_67\n      jump\t// in\n    tag_167:\n      mload(0x40)\n      0x20\n      dup2\n      dup4\n      sub\n      sub\n      dup2\n      mstore\n      swap1\n      0x40\n      mstore\n        /* \"DigitalIdentity\":4626:4668  keccak256(abi.encodePacked(user_password)) */\n      dup1\n      mload\n      swap1\n      0x20\n      add\n      keccak256\n        /* \"DigitalIdentity\":4601:4668  bytes32 user_password1 = keccak256(abi.encodePacked(user_password)) */\n      swap1\n      pop\n        /* \"DigitalIdentity\":4795:4809  user_password1 */\n      dup1\n        /* \"DigitalIdentity\":4778:4810  abi.encodePacked(user_password1) */\n      add(0x20, mload(0x40))\n      tag_168\n      swap2\n      swap1\n      tag_169\n      jump\t// in\n    tag_168:\n      mload(0x40)\n      0x20\n      dup2\n      dup4\n      sub\n      sub\n      dup2\n      mstore\n      swap1\n      0x40\n      mstore\n        /* \"DigitalIdentity\":4768:4811  keccak256(abi.encodePacked(user_password1)) */\n      dup1\n      mload\n      swap1\n      0x20\n      add\n      keccak256\n        /* \"DigitalIdentity\":4715:4729  userPassportNo */\n      0x01\n        /* \"DigitalIdentity\":4730:4747  user_passport_num */\n      dup8\n        /* \"DigitalIdentity\":4715:4748  userPassportNo[user_passport_num] */\n      mload(0x40)\n      tag_170\n      swap2\n      swap1\n      tag_67\n      jump\t// in\n    tag_170:\n      swap1\n      dup2\n      mstore\n      0x20\n      add\n      mload(0x40)\n      dup1\n      swap2\n      sub\n      swap1\n      keccak256\n        /* \"DigitalIdentity\":4715:4762  userPassportNo[user_passport_num].user_password */\n      0x02\n      add\n      sload\n        /* \"DigitalIdentity\":4698:4763  abi.encodePacked(userPassportNo[user_passport_num].user_password) */\n      add(0x20, mload(0x40))\n      tag_171\n      swap2\n      swap1\n      tag_169\n      jump\t// in\n    tag_171:\n      mload(0x40)\n      0x20\n      dup2\n      dup4\n      sub\n      sub\n      dup2\n      mstore\n      swap1\n      0x40\n      mstore\n        /* \"DigitalIdentity\":4688:4764  keccak256(abi.encodePacked(userPassportNo[user_passport_num].user_password)) */\n      dup1\n      mload\n      swap1\n      0x20\n      add\n      keccak256\n        /* \"DigitalIdentity\":4688:4811  keccak256(abi.encodePacked(userPassportNo[user_passport_num].user_password)) == keccak256(abi.encodePacked(user_password1)) */\n      eq\n        /* \"DigitalIdentity\":4679:4858  require (keccak256(abi.encodePacked(userPassportNo[user_passport_num].user_password)) == keccak256(abi.encodePacked(user_password1)), \"Error! Invalid password. Please try again.\") */\n      tag_172\n      jumpi\n      mload(0x40)\n      0x08c379a000000000000000000000000000000000000000000000000000000000\n      dup2\n      mstore\n      0x04\n      add\n      tag_173\n      swap1\n      tag_174\n      jump\t// in\n    tag_173:\n      mload(0x40)\n      dup1\n      swap2\n      sub\n      swap1\n      revert\n    tag_172:\n        /* \"DigitalIdentity\":4877:4891  userPassportNo */\n      0x01\n        /* \"DigitalIdentity\":4892:4909  user_passport_num */\n      dup7\n        /* \"DigitalIdentity\":4877:4910  userPassportNo[user_passport_num] */\n      mload(0x40)\n      tag_175\n      swap2\n      swap1\n      tag_67\n      jump\t// in\n    tag_175:\n      swap1\n      dup2\n      mstore\n      0x20\n      add\n      mload(0x40)\n      dup1\n      swap2\n      sub\n      swap1\n      keccak256\n        /* \"DigitalIdentity\":4877:4918  userPassportNo[user_passport_num].user_id */\n      0x00\n      add\n      sload\n        /* \"DigitalIdentity\":4920:4934  userPassportNo */\n      0x01\n        /* \"DigitalIdentity\":4935:4952  user_passport_num */\n      dup8\n        /* \"DigitalIdentity\":4920:4953  userPassportNo[user_passport_num] */\n      mload(0x40)\n      tag_176\n      swap2\n      swap1\n      tag_67\n      jump\t// in\n    tag_176:\n      swap1\n      dup2\n      mstore\n      0x20\n      add\n      mload(0x40)\n      dup1\n      swap2\n      sub\n      swap1\n      keccak256\n        /* \"DigitalIdentity\":4920:4973  userPassportNo[user_passport_num].user_account_status */\n      0x03\n      add\n        /* \"DigitalIdentity\":4975:4989  userPassportNo */\n      0x01\n        /* \"DigitalIdentity\":4990:5007  user_passport_num */\n      dup9\n        /* \"DigitalIdentity\":4975:5008  userPassportNo[user_passport_num] */\n      mload(0x40)\n      tag_177\n      swap2\n      swap1\n      tag_67\n      jump\t// in\n    tag_177:\n      swap1\n      dup2\n      mstore\n      0x20\n      add\n      mload(0x40)\n      dup1\n      swap2\n      sub\n      swap1\n      keccak256\n        /* \"DigitalIdentity\":4975:5019  userPassportNo[user_passport_num].user_email */\n      0x01\n      add\n        /* \"DigitalIdentity\":4869:5020  return (userPassportNo[user_passport_num].user_id, userPassportNo[user_passport_num].user_account_status, userPassportNo[user_passport_num].user_email) */\n      dup2\n      dup1\n      sload\n      tag_178\n      swap1\n      tag_72\n      jump\t// in\n    tag_178:\n      dup1\n      0x1f\n      add\n      0x20\n      dup1\n      swap2\n      div\n      mul\n      0x20\n      add\n      mload(0x40)\n      swap1\n      dup2\n      add\n      0x40\n      mstore\n      dup1\n      swap3\n      swap2\n      swap1\n      dup2\n      dup2\n      mstore\n      0x20\n      add\n      dup3\n      dup1\n      sload\n      tag_179\n      swap1\n      tag_72\n      jump\t// in\n    tag_179:\n      dup1\n      iszero\n      tag_180\n      jumpi\n      dup1\n      0x1f\n      lt\n      tag_181\n      jumpi\n      0x0100\n      dup1\n      dup4\n      sload\n      div\n      mul\n      dup4\n      mstore\n      swap2\n      0x20\n      add\n      swap2\n      jump(tag_180)\n    tag_181:\n      dup3\n      add\n      swap2\n      swap1\n      0x00\n      mstore\n      keccak256(0x00, 0x20)\n      swap1\n    tag_182:\n      dup2\n      sload\n      dup2\n      mstore\n      swap1\n      0x01\n      add\n      swap1\n      0x20\n      add\n      dup1\n      dup4\n      gt\n      tag_182\n      jumpi\n      dup3\n      swap1\n      sub\n      0x1f\n      and\n      dup3\n      add\n      swap2\n    tag_180:\n      pop\n      pop\n      pop\n      pop\n      pop\n      swap2\n      pop\n      dup1\n      dup1\n      sload\n      tag_183\n      swap1\n      tag_72\n      jump\t// in\n    tag_183:\n      dup1\n      0x1f\n      add\n      0x20\n      dup1\n      swap2\n      div\n      mul\n      0x20\n      add\n      mload(0x40)\n      swap1\n      dup2\n      add\n      0x40\n      mstore\n      dup1\n      swap3\n      swap2\n      swap1\n      dup2\n      dup2\n      mstore\n      0x20\n      add\n      dup3\n      dup1\n      sload\n      tag_184\n      swap1\n      tag_72\n      jump\t// in\n    tag_184:\n      dup1\n      iszero\n      tag_185\n      jumpi\n      dup1\n      0x1f\n      lt\n      tag_186\n      jumpi\n      0x0100\n      dup1\n      dup4\n      sload\n      div\n      mul\n      dup4\n      mstore\n      swap2\n      0x20\n      add\n      swap2\n      jump(tag_185)\n    tag_186:\n      dup3\n      add\n      swap2\n      swap1\n      0x00\n      mstore\n      keccak256(0x00, 0x20)\n      swap1\n    tag_187:\n      dup2\n      sload\n      dup2\n      mstore\n      swap1\n      0x01\n      add\n      swap1\n      0x20\n      add\n      dup1\n      dup4\n      gt\n      tag_187\n      jumpi\n      dup3\n      swap1\n      sub\n      0x1f\n      and\n      dup3\n      add\n      swap2\n    tag_185:\n      pop\n      pop\n      pop\n      pop\n      pop\n      swap1\n      pop\n      swap4\n      pop\n      swap4\n      pop\n      swap4\n      pop\n      pop\n        /* \"DigitalIdentity\":4060:5028  function login( string memory user_passport_num, string memory user_password) public view returns (uint, string memory, string memory) {\r... */\n      swap3\n      pop\n      swap3\n      pop\n      swap3\n      jump\t// out\n        /* \"DigitalIdentity\":642:729  function getNumOfUsers () public view returns (uint) {\r... */\n    tag_48:\n        /* \"DigitalIdentity\":689:693  uint */\n      0x00\n        /* \"DigitalIdentity\":713:721  numUsers */\n      dup1\n      sload\n        /* \"DigitalIdentity\":706:721  return numUsers */\n      swap1\n      pop\n        /* \"DigitalIdentity\":642:729  function getNumOfUsers () public view returns (uint) {\r... */\n      swap1\n      jump\t// out\n        /* \"DigitalIdentity\":1650:2081  function getUser ( uint user_id) public view returns ( string memory, string memory, string memory, string memory, string memory ) {\r... */\n    tag_53:\n        /* \"DigitalIdentity\":1705:1718  string memory */\n      0x60\n        /* \"DigitalIdentity\":1720:1733  string memory */\n      dup1\n        /* \"DigitalIdentity\":1735:1748  string memory */\n      0x60\n        /* \"DigitalIdentity\":1750:1763  string memory */\n      dup1\n        /* \"DigitalIdentity\":1765:1778  string memory */\n      0x60\n        /* \"DigitalIdentity\":1792:1813  string memory passNum */\n      0x00\n        /* \"DigitalIdentity\":1816:1842  getPassportNoById(user_id) */\n      tag_190\n        /* \"DigitalIdentity\":1834:1841  user_id */\n      dup8\n        /* \"DigitalIdentity\":1816:1833  getPassportNoById */\n      tag_21\n        /* \"DigitalIdentity\":1816:1842  getPassportNoById(user_id) */\n      jump\t// in\n    tag_190:\n        /* \"DigitalIdentity\":1792:1842  string memory passNum = getPassportNoById(user_id) */\n      swap1\n      pop\n        /* \"DigitalIdentity\":1862:1876  userPassportNo */\n      0x01\n        /* \"DigitalIdentity\":1877:1884  passNum */\n      dup2\n        /* \"DigitalIdentity\":1862:1885  userPassportNo[passNum] */\n      mload(0x40)\n      tag_191\n      swap2\n      swap1\n      tag_67\n      jump\t// in\n    tag_191:\n      swap1\n      dup2\n      mstore\n      0x20\n      add\n      mload(0x40)\n      dup1\n      swap2\n      sub\n      swap1\n      keccak256\n        /* \"DigitalIdentity\":1862:1896  userPassportNo[passNum].user_email */\n      0x01\n      add\n        /* \"DigitalIdentity\":1898:1912  userPassportNo */\n      0x01\n        /* \"DigitalIdentity\":1913:1920  passNum */\n      dup3\n        /* \"DigitalIdentity\":1898:1921  userPassportNo[passNum] */\n      mload(0x40)\n      tag_192\n      swap2\n      swap1\n      tag_67\n      jump\t// in\n    tag_192:\n      swap1\n      dup2\n      mstore\n      0x20\n      add\n      mload(0x40)\n      dup1\n      swap2\n      sub\n      swap1\n      keccak256\n        /* \"DigitalIdentity\":1898:1941  userPassportNo[passNum].user_account_status */\n      0x03\n      add\n        /* \"DigitalIdentity\":1943:1957  userPassportNo */\n      0x01\n        /* \"DigitalIdentity\":1958:1965  passNum */\n      dup4\n        /* \"DigitalIdentity\":1943:1966  userPassportNo[passNum] */\n      mload(0x40)\n      tag_193\n      swap2\n      swap1\n      tag_67\n      jump\t// in\n    tag_193:\n      swap1\n      dup2\n      mstore\n      0x20\n      add\n      mload(0x40)\n      dup1\n      swap2\n      sub\n      swap1\n      keccak256\n        /* \"DigitalIdentity\":1943:1984  userPassportNo[passNum].user_passport_num */\n      0x04\n      add\n        /* \"DigitalIdentity\":1986:2000  userPassportNo */\n      0x01\n        /* \"DigitalIdentity\":2001:2008  passNum */\n      dup5\n        /* \"DigitalIdentity\":1986:2009  userPassportNo[passNum] */\n      mload(0x40)\n      tag_194\n      swap2\n      swap1\n      tag_67\n      jump\t// in\n    tag_194:\n      swap1\n      dup2\n      mstore\n      0x20\n      add\n      mload(0x40)\n      dup1\n      swap2\n      sub\n      swap1\n      keccak256\n        /* \"DigitalIdentity\":1986:2028  userPassportNo[passNum].user_passport_name */\n      0x05\n      add\n        /* \"DigitalIdentity\":2030:2044  userPassportNo */\n      0x01\n        /* \"DigitalIdentity\":2045:2052  passNum */\n      dup6\n        /* \"DigitalIdentity\":2030:2053  userPassportNo[passNum] */\n      mload(0x40)\n      tag_195\n      swap2\n      swap1\n      tag_67\n      jump\t// in\n    tag_195:\n      swap1\n      dup2\n      mstore\n      0x20\n      add\n      mload(0x40)\n      dup1\n      swap2\n      sub\n      swap1\n      keccak256\n        /* \"DigitalIdentity\":2030:2072  userPassportNo[passNum].user_passport_link */\n      0x06\n      add\n        /* \"DigitalIdentity\":1853:2073  return ( userPassportNo[passNum].user_email, userPassportNo[passNum].user_account_status, userPassportNo[passNum].user_passport_num, userPassportNo[passNum].user_passport_name, userPassportNo[passNum].user_passport_link) */\n      dup5\n      dup1\n      sload\n      tag_196\n      swap1\n      tag_72\n      jump\t// in\n    tag_196:\n      dup1\n      0x1f\n      add\n      0x20\n      dup1\n      swap2\n      div\n      mul\n      0x20\n      add\n      mload(0x40)\n      swap1\n      dup2\n      add\n      0x40\n      mstore\n      dup1\n      swap3\n      swap2\n      swap1\n      dup2\n      dup2\n      mstore\n      0x20\n      add\n      dup3\n      dup1\n      sload\n      tag_197\n      swap1\n      tag_72\n      jump\t// in\n    tag_197:\n      dup1\n      iszero\n      tag_198\n      jumpi\n      dup1\n      0x1f\n      lt\n      tag_199\n      jumpi\n      0x0100\n      dup1\n      dup4\n      sload\n      div\n      mul\n      dup4\n      mstore\n      swap2\n      0x20\n      add\n      swap2\n      jump(tag_198)\n    tag_199:\n      dup3\n      add\n      swap2\n      swap1\n      0x00\n      mstore\n      keccak256(0x00, 0x20)\n      swap1\n    tag_200:\n      dup2\n      sload\n      dup2\n      mstore\n      swap1\n      0x01\n      add\n      swap1\n      0x20\n      add\n      dup1\n      dup4\n      gt\n      tag_200\n      jumpi\n      dup3\n      swap1\n      sub\n      0x1f\n      and\n      dup3\n      add\n      swap2\n    tag_198:\n      pop\n      pop\n      pop\n      pop\n      pop\n      swap5\n      pop\n      dup4\n      dup1\n      sload\n      tag_201\n      swap1\n      tag_72\n      jump\t// in\n    tag_201:\n      dup1\n      0x1f\n      add\n      0x20\n      dup1\n      swap2\n      div\n      mul\n      0x20\n      add\n      mload(0x40)\n      swap1\n      dup2\n      add\n      0x40\n      mstore\n      dup1\n      swap3\n      swap2\n      swap1\n      dup2\n      dup2\n      mstore\n      0x20\n      add\n      dup3\n      dup1\n      sload\n      tag_202\n      swap1\n      tag_72\n      jump\t// in\n    tag_202:\n      dup1\n      iszero\n      tag_203\n      jumpi\n      dup1\n      0x1f\n      lt\n      tag_204\n      jumpi\n      0x0100\n      dup1\n      dup4\n      sload\n      div\n      mul\n      dup4\n      mstore\n      swap2\n      0x20\n      add\n      swap2\n      jump(tag_203)\n    tag_204:\n      dup3\n      add\n      swap2\n      swap1\n      0x00\n      mstore\n      keccak256(0x00, 0x20)\n      swap1\n    tag_205:\n      dup2\n      sload\n      dup2\n      mstore\n      swap1\n      0x01\n      add\n      swap1\n      0x20\n      add\n      dup1\n      dup4\n      gt\n      tag_205\n      jumpi\n      dup3\n      swap1\n      sub\n      0x1f\n      and\n      dup3\n      add\n      swap2\n    tag_203:\n      pop\n      pop\n      pop\n      pop\n      pop\n      swap4\n      pop\n      dup3\n      dup1\n      sload\n      tag_206\n      swap1\n      tag_72\n      jump\t// in\n    tag_206:\n      dup1\n      0x1f\n      add\n      0x20\n      dup1\n      swap2\n      div\n      mul\n      0x20\n      add\n      mload(0x40)\n      swap1\n      dup2\n      add\n      0x40\n      mstore\n      dup1\n      swap3\n      swap2\n      swap1\n      dup2\n      dup2\n      mstore\n      0x20\n      add\n      dup3\n      dup1\n      sload\n      tag_207\n      swap1\n      tag_72\n      jump\t// in\n    tag_207:\n      dup1\n      iszero\n      tag_208\n      jumpi\n      dup1\n      0x1f\n      lt\n      tag_209\n      jumpi\n      0x0100\n      dup1\n      dup4\n      sload\n      div\n      mul\n      dup4\n      mstore\n      swap2\n      0x20\n      add\n      swap2\n      jump(tag_208)\n    tag_209:\n      dup3\n      add\n      swap2\n      swap1\n      0x00\n      mstore\n      keccak256(0x00, 0x20)\n      swap1\n    tag_210:\n      dup2\n      sload\n      dup2\n      mstore\n      swap1\n      0x01\n      add\n      swap1\n      0x20\n      add\n      dup1\n      dup4\n      gt\n      tag_210\n      jumpi\n      dup3\n      swap1\n      sub\n      0x1f\n      and\n      dup3\n      add\n      swap2\n    tag_208:\n      pop\n      pop\n      pop\n      pop\n      pop\n      swap3\n      pop\n      dup2\n      dup1\n      sload\n      tag_211\n      swap1\n      tag_72\n      jump\t// in\n    tag_211:\n      dup1\n      0x1f\n      add\n      0x20\n      dup1\n      swap2\n      div\n      mul\n      0x20\n      add\n      mload(0x40)\n      swap1\n      dup2\n      add\n      0x40\n      mstore\n      dup1\n      swap3\n      swap2\n      swap1\n      dup2\n      dup2\n      mstore\n      0x20\n      add\n      dup3\n      dup1\n      sload\n      tag_212\n      swap1\n      tag_72\n      jump\t// in\n    tag_212:\n      dup1\n      iszero\n      tag_213\n      jumpi\n      dup1\n      0x1f\n      lt\n      tag_214\n      jumpi\n      0x0100\n      dup1\n      dup4\n      sload\n      div\n      mul\n      dup4\n      mstore\n      swap2\n      0x20\n      add\n      swap2\n      jump(tag_213)\n    tag_214:\n      dup3\n      add\n      swap2\n      swap1\n      0x00\n      mstore\n      keccak256(0x00, 0x20)\n      swap1\n    tag_215:\n      dup2\n      sload\n      dup2\n      mstore\n      swap1\n      0x01\n      add\n      swap1\n      0x20\n      add\n      dup1\n      dup4\n      gt\n      tag_215\n      jumpi\n      dup3\n      swap1\n      sub\n      0x1f\n      and\n      dup3\n      add\n      swap2\n    tag_213:\n      pop\n      pop\n      pop\n      pop\n      pop\n      swap2\n      pop\n      dup1\n      dup1\n      sload\n      tag_216\n      swap1\n      tag_72\n      jump\t// in\n    tag_216:\n      dup1\n      0x1f\n      add\n      0x20\n      dup1\n      swap2\n      div\n      mul\n      0x20\n      add\n      mload(0x40)\n      swap1\n      dup2\n      add\n      0x40\n      mstore\n      dup1\n      swap3\n      swap2\n      swap1\n      dup2\n      dup2\n      mstore\n      0x20\n      add\n      dup3\n      dup1\n      sload\n      tag_217\n      swap1\n      tag_72\n      jump\t// in\n    tag_217:\n      dup1\n      iszero\n      tag_218\n      jumpi\n      dup1\n      0x1f\n      lt\n      tag_219\n      jumpi\n      0x0100\n      dup1\n      dup4\n      sload\n      div\n      mul\n      dup4\n      mstore\n      swap2\n      0x20\n      add\n      swap2\n      jump(tag_218)\n    tag_219:\n      dup3\n      add\n      swap2\n      swap1\n      0x00\n      mstore\n      keccak256(0x00, 0x20)\n      swap1\n    tag_220:\n      dup2\n      sload\n      dup2\n      mstore\n      swap1\n      0x01\n      add\n      swap1\n      0x20\n      add\n      dup1\n      dup4\n      gt\n      tag_220\n      jumpi\n      dup3\n      swap1\n      sub\n      0x1f\n      and\n      dup3\n      add\n      swap2\n    tag_218:\n      pop\n      pop\n      pop\n      pop\n      pop\n      swap1\n      pop\n      swap6\n      pop\n      swap6\n      pop\n      swap6\n      pop\n      swap6\n      pop\n      swap6\n      pop\n      pop\n        /* \"DigitalIdentity\":1650:2081  function getUser ( uint user_id) public view returns ( string memory, string memory, string memory, string memory, string memory ) {\r... */\n      swap2\n      swap4\n      swap6\n      swap1\n      swap3\n      swap5\n      pop\n      jump\t// out\n        /* \"DigitalIdentity\":2093:2970  function updateUser (string memory user_email, string memory user_passport_num, string memory user_passport_name, string memory user_passport_link) public {\r... */\n    tag_59:\n        /* \"DigitalIdentity\":2379:2396  user_passport_num */\n      dup3\n        /* \"DigitalIdentity\":2362:2397  abi.encodePacked(user_passport_num) */\n      add(0x20, mload(0x40))\n      tag_222\n      swap2\n      swap1\n      tag_67\n      jump\t// in\n    tag_222:\n      mload(0x40)\n      0x20\n      dup2\n      dup4\n      sub\n      sub\n      dup2\n      mstore\n      swap1\n      0x40\n      mstore\n        /* \"DigitalIdentity\":2352:2398  keccak256(abi.encodePacked(user_passport_num)) */\n      dup1\n      mload\n      swap1\n      0x20\n      add\n      keccak256\n        /* \"DigitalIdentity\":2295:2309  userPassportNo */\n      0x01\n        /* \"DigitalIdentity\":2310:2327  user_passport_num */\n      dup5\n        /* \"DigitalIdentity\":2295:2328  userPassportNo[user_passport_num] */\n      mload(0x40)\n      tag_223\n      swap2\n      swap1\n      tag_67\n      jump\t// in\n    tag_223:\n      swap1\n      dup2\n      mstore\n      0x20\n      add\n      mload(0x40)\n      dup1\n      swap2\n      sub\n      swap1\n      keccak256\n        /* \"DigitalIdentity\":2295:2346  userPassportNo[user_passport_num].user_passport_num */\n      0x04\n      add\n        /* \"DigitalIdentity\":2278:2347  abi.encodePacked(userPassportNo[user_passport_num].user_passport_num) */\n      add(0x20, mload(0x40))\n      tag_224\n      swap2\n      swap1\n      tag_87\n      jump\t// in\n    tag_224:\n      mload(0x40)\n      0x20\n      dup2\n      dup4\n      sub\n      sub\n      dup2\n      mstore\n      swap1\n      0x40\n      mstore\n        /* \"DigitalIdentity\":2268:2348  keccak256(abi.encodePacked(userPassportNo[user_passport_num].user_passport_num)) */\n      dup1\n      mload\n      swap1\n      0x20\n      add\n      keccak256\n        /* \"DigitalIdentity\":2268:2398  keccak256(abi.encodePacked(userPassportNo[user_passport_num].user_passport_num)) == keccak256(abi.encodePacked(user_passport_num)) */\n      eq\n        /* \"DigitalIdentity\":2259:2463  require (keccak256(abi.encodePacked(userPassportNo[user_passport_num].user_passport_num)) == keccak256(abi.encodePacked(user_passport_num)), \"Error! User not registered or wrong passport number entered.\") */\n      tag_225\n      jumpi\n      mload(0x40)\n      0x08c379a000000000000000000000000000000000000000000000000000000000\n      dup2\n      mstore\n      0x04\n      add\n      tag_226\n      swap1\n      tag_139\n      jump\t// in\n    tag_226:\n      mload(0x40)\n      dup1\n      swap2\n      sub\n      swap1\n      revert\n    tag_225:\n        /* \"DigitalIdentity\":2579:2608  abi.encodePacked(\"suspended\") */\n      add(0x20, mload(0x40))\n      tag_227\n      swap1\n      tag_141\n      jump\t// in\n    tag_227:\n      mload(0x40)\n      0x20\n      dup2\n      dup4\n      sub\n      sub\n      dup2\n      mstore\n      swap1\n      0x40\n      mstore\n        /* \"DigitalIdentity\":2569:2609  keccak256(abi.encodePacked(\"suspended\")) */\n      dup1\n      mload\n      swap1\n      0x20\n      add\n      keccak256\n        /* \"DigitalIdentity\":2510:2524  userPassportNo */\n      0x01\n        /* \"DigitalIdentity\":2525:2542  user_passport_num */\n      dup5\n        /* \"DigitalIdentity\":2510:2543  userPassportNo[user_passport_num] */\n      mload(0x40)\n      tag_228\n      swap2\n      swap1\n      tag_67\n      jump\t// in\n    tag_228:\n      swap1\n      dup2\n      mstore\n      0x20\n      add\n      mload(0x40)\n      dup1\n      swap2\n      sub\n      swap1\n      keccak256\n        /* \"DigitalIdentity\":2510:2563  userPassportNo[user_passport_num].user_account_status */\n      0x03\n      add\n        /* \"DigitalIdentity\":2493:2564  abi.encodePacked(userPassportNo[user_passport_num].user_account_status) */\n      add(0x20, mload(0x40))\n      tag_229\n      swap2\n      swap1\n      tag_87\n      jump\t// in\n    tag_229:\n      mload(0x40)\n      0x20\n      dup2\n      dup4\n      sub\n      sub\n      dup2\n      mstore\n      swap1\n      0x40\n      mstore\n        /* \"DigitalIdentity\":2483:2565  keccak256(abi.encodePacked(userPassportNo[user_passport_num].user_account_status)) */\n      dup1\n      mload\n      swap1\n      0x20\n      add\n      keccak256\n        /* \"DigitalIdentity\":2483:2609  keccak256(abi.encodePacked(userPassportNo[user_passport_num].user_account_status)) != keccak256(abi.encodePacked(\"suspended\")) */\n      eq\n      iszero\n        /* \"DigitalIdentity\":2474:2643  require (keccak256(abi.encodePacked(userPassportNo[user_passport_num].user_account_status)) != keccak256(abi.encodePacked(\"suspended\")), \"Error! Your account is banned\") */\n      tag_230\n      jumpi\n      mload(0x40)\n      0x08c379a000000000000000000000000000000000000000000000000000000000\n      dup2\n      mstore\n      0x04\n      add\n      tag_231\n      swap1\n      tag_146\n      jump\t// in\n    tag_231:\n      mload(0x40)\n      dup1\n      swap2\n      sub\n      swap1\n      revert\n    tag_230:\n        /* \"DigitalIdentity\":2701:2711  user_email */\n      dup4\n        /* \"DigitalIdentity\":2654:2668  userPassportNo */\n      0x01\n        /* \"DigitalIdentity\":2669:2686  user_passport_num */\n      dup5\n        /* \"DigitalIdentity\":2654:2687  userPassportNo[user_passport_num] */\n      mload(0x40)\n      tag_232\n      swap2\n      swap1\n      tag_67\n      jump\t// in\n    tag_232:\n      swap1\n      dup2\n      mstore\n      0x20\n      add\n      mload(0x40)\n      dup1\n      swap2\n      sub\n      swap1\n      keccak256\n        /* \"DigitalIdentity\":2654:2698  userPassportNo[user_passport_num].user_email */\n      0x01\n      add\n        /* \"DigitalIdentity\":2654:2711  userPassportNo[user_passport_num].user_email = user_email */\n      swap1\n      dup1\n      mload\n      swap1\n      0x20\n      add\n      swap1\n      tag_233\n      swap3\n      swap2\n      swap1\n      tag_69\n      jump\t// in\n    tag_233:\n      pop\n        /* \"DigitalIdentity\":2723:2791  userPassportNo[user_passport_num].user_account_status = \"unverified\" */\n      mload(0x40)\n      dup1\n      0x40\n      add\n      0x40\n      mstore\n      dup1\n      0x0a\n      dup2\n      mstore\n      0x20\n      add\n      0x756e766572696669656400000000000000000000000000000000000000000000\n      dup2\n      mstore\n      pop\n        /* \"DigitalIdentity\":2723:2737  userPassportNo */\n      0x01\n        /* \"DigitalIdentity\":2738:2755  user_passport_num */\n      dup5\n        /* \"DigitalIdentity\":2723:2756  userPassportNo[user_passport_num] */\n      mload(0x40)\n      tag_234\n      swap2\n      swap1\n      tag_67\n      jump\t// in\n    tag_234:\n      swap1\n      dup2\n      mstore\n      0x20\n      add\n      mload(0x40)\n      dup1\n      swap2\n      sub\n      swap1\n      keccak256\n        /* \"DigitalIdentity\":2723:2776  userPassportNo[user_passport_num].user_account_status */\n      0x03\n      add\n        /* \"DigitalIdentity\":2723:2791  userPassportNo[user_passport_num].user_account_status = \"unverified\" */\n      swap1\n      dup1\n      mload\n      swap1\n      0x20\n      add\n      swap1\n      tag_235\n      swap3\n      swap2\n      swap1\n      tag_69\n      jump\t// in\n    tag_235:\n      pop\n        /* \"DigitalIdentity\":2858:2876  user_passport_name */\n      dup2\n        /* \"DigitalIdentity\":2803:2817  userPassportNo */\n      0x01\n        /* \"DigitalIdentity\":2818:2835  user_passport_num */\n      dup5\n        /* \"DigitalIdentity\":2803:2836  userPassportNo[user_passport_num] */\n      mload(0x40)\n      tag_236\n      swap2\n      swap1\n      tag_67\n      jump\t// in\n    tag_236:\n      swap1\n      dup2\n      mstore\n      0x20\n      add\n      mload(0x40)\n      dup1\n      swap2\n      sub\n      swap1\n      keccak256\n        /* \"DigitalIdentity\":2803:2855  userPassportNo[user_passport_num].user_passport_name */\n      0x05\n      add\n        /* \"DigitalIdentity\":2803:2876  userPassportNo[user_passport_num].user_passport_name = user_passport_name */\n      swap1\n      dup1\n      mload\n      swap1\n      0x20\n      add\n      swap1\n      tag_237\n      swap3\n      swap2\n      swap1\n      tag_69\n      jump\t// in\n    tag_237:\n      pop\n        /* \"DigitalIdentity\":2943:2961  user_passport_link */\n      dup1\n        /* \"DigitalIdentity\":2888:2902  userPassportNo */\n      0x01\n        /* \"DigitalIdentity\":2903:2920  user_passport_num */\n      dup5\n        /* \"DigitalIdentity\":2888:2921  userPassportNo[user_passport_num] */\n      mload(0x40)\n      tag_238\n      swap2\n      swap1\n      tag_67\n      jump\t// in\n    tag_238:\n      swap1\n      dup2\n      mstore\n      0x20\n      add\n      mload(0x40)\n      dup1\n      swap2\n      sub\n      swap1\n      keccak256\n        /* \"DigitalIdentity\":2888:2940  userPassportNo[user_passport_num].user_passport_link */\n      0x06\n      add\n        /* \"DigitalIdentity\":2888:2961  userPassportNo[user_passport_num].user_passport_link = user_passport_link */\n      swap1\n      dup1\n      mload\n      swap1\n      0x20\n      add\n      swap1\n      tag_239\n      swap3\n      swap2\n      swap1\n      tag_69\n      jump\t// in\n    tag_239:\n      pop\n        /* \"DigitalIdentity\":2093:2970  function updateUser (string memory user_email, string memory user_passport_num, string memory user_passport_name, string memory user_passport_link) public {\r... */\n      pop\n      pop\n      pop\n      pop\n      jump\t// out\n        /* \"DigitalIdentity\":5953:6416  function adminLogin (string memory a_name, string memory a_pass) public view returns (string memory) {\r... */\n    tag_62:\n        /* \"DigitalIdentity\":6039:6052  string memory */\n      0x60\n        /* \"DigitalIdentity\":6144:6150  a_name */\n      dup3\n        /* \"DigitalIdentity\":6127:6151  abi.encodePacked(a_name) */\n      add(0x20, mload(0x40))\n      tag_241\n      swap2\n      swap1\n      tag_67\n      jump\t// in\n    tag_241:\n      mload(0x40)\n      0x20\n      dup2\n      dup4\n      sub\n      sub\n      dup2\n      mstore\n      swap1\n      0x40\n      mstore\n        /* \"DigitalIdentity\":6117:6152  keccak256(abi.encodePacked(a_name)) */\n      dup1\n      mload\n      swap1\n      0x20\n      add\n      keccak256\n        /* \"DigitalIdentity\":6101:6111  admin_name */\n      0x03\n        /* \"DigitalIdentity\":6084:6112  abi.encodePacked(admin_name) */\n      add(0x20, mload(0x40))\n      tag_242\n      swap2\n      swap1\n      tag_87\n      jump\t// in\n    tag_242:\n      mload(0x40)\n      0x20\n      dup2\n      dup4\n      sub\n      sub\n      dup2\n      mstore\n      swap1\n      0x40\n      mstore\n        /* \"DigitalIdentity\":6074:6113  keccak256(abi.encodePacked(admin_name)) */\n      dup1\n      mload\n      swap1\n      0x20\n      add\n      keccak256\n        /* \"DigitalIdentity\":6074:6152  keccak256(abi.encodePacked(admin_name)) == keccak256(abi.encodePacked(a_name)) */\n      eq\n        /* \"DigitalIdentity\":6065:6182  require (keccak256(abi.encodePacked(admin_name)) == keccak256(abi.encodePacked(a_name)), \"Error! Invalid admin name\") */\n      tag_243\n      jumpi\n      mload(0x40)\n      0x08c379a000000000000000000000000000000000000000000000000000000000\n      dup2\n      mstore\n      0x04\n      add\n      tag_244\n      swap1\n      tag_245\n      jump\t// in\n    tag_244:\n      mload(0x40)\n      dup1\n      swap2\n      sub\n      swap1\n      revert\n    tag_243:\n        /* \"DigitalIdentity\":6193:6208  bytes32 a_pass1 */\n      0x00\n        /* \"DigitalIdentity\":6238:6244  a_pass */\n      dup3\n        /* \"DigitalIdentity\":6221:6245  abi.encodePacked(a_pass) */\n      add(0x20, mload(0x40))\n      tag_246\n      swap2\n      swap1\n      tag_67\n      jump\t// in\n    tag_246:\n      mload(0x40)\n      0x20\n      dup2\n      dup4\n      sub\n      sub\n      dup2\n      mstore\n      swap1\n      0x40\n      mstore\n        /* \"DigitalIdentity\":6211:6246  keccak256(abi.encodePacked(a_pass)) */\n      dup1\n      mload\n      swap1\n      0x20\n      add\n      keccak256\n        /* \"DigitalIdentity\":6193:6246  bytes32 a_pass1 = keccak256(abi.encodePacked(a_pass)) */\n      swap1\n      pop\n        /* \"DigitalIdentity\":6336:6343  a_pass1 */\n      dup1\n        /* \"DigitalIdentity\":6319:6344  abi.encodePacked(a_pass1) */\n      add(0x20, mload(0x40))\n      tag_247\n      swap2\n      swap1\n      tag_169\n      jump\t// in\n    tag_247:\n      mload(0x40)\n      0x20\n      dup2\n      dup4\n      sub\n      sub\n      dup2\n      mstore\n      swap1\n      0x40\n      mstore\n        /* \"DigitalIdentity\":6309:6345  keccak256(abi.encodePacked(a_pass1)) */\n      dup1\n      mload\n      swap1\n      0x20\n      add\n      keccak256\n        /* \"DigitalIdentity\":6293:6303  admin_pass */\n      sload(0x04)\n        /* \"DigitalIdentity\":6276:6304  abi.encodePacked(admin_pass) */\n      add(0x20, mload(0x40))\n      tag_248\n      swap2\n      swap1\n      tag_169\n      jump\t// in\n    tag_248:\n      mload(0x40)\n      0x20\n      dup2\n      dup4\n      sub\n      sub\n      dup2\n      mstore\n      swap1\n      0x40\n      mstore\n        /* \"DigitalIdentity\":6266:6305  keccak256(abi.encodePacked(admin_pass)) */\n      dup1\n      mload\n      swap1\n      0x20\n      add\n      keccak256\n        /* \"DigitalIdentity\":6266:6345  keccak256(abi.encodePacked(admin_pass)) == keccak256(abi.encodePacked(a_pass1)) */\n      eq\n        /* \"DigitalIdentity\":6257:6379  require (keccak256(abi.encodePacked(admin_pass)) == keccak256(abi.encodePacked(a_pass1)), \"Error! Invalid admin password\") */\n      tag_249\n      jumpi\n      mload(0x40)\n      0x08c379a000000000000000000000000000000000000000000000000000000000\n      dup2\n      mstore\n      0x04\n      add\n      tag_250\n      swap1\n      tag_251\n      jump\t// in\n    tag_250:\n      mload(0x40)\n      dup1\n      swap2\n      sub\n      swap1\n      revert\n    tag_249:\n        /* \"DigitalIdentity\":6390:6408  return (\"Success\") */\n      mload(0x40)\n      dup1\n      0x40\n      add\n      0x40\n      mstore\n      dup1\n      0x07\n      dup2\n      mstore\n      0x20\n      add\n      0x5375636365737300000000000000000000000000000000000000000000000000\n      dup2\n      mstore\n      pop\n      swap2\n      pop\n      pop\n        /* \"DigitalIdentity\":5953:6416  function adminLogin (string memory a_name, string memory a_pass) public view returns (string memory) {\r... */\n      swap3\n      swap2\n      pop\n      pop\n      jump\t// out\n    tag_69:\n      dup3\n      dup1\n      sload\n      tag_252\n      swap1\n      tag_72\n      jump\t// in\n    tag_252:\n      swap1\n      0x00\n      mstore\n      keccak256(0x00, 0x20)\n      swap1\n      0x1f\n      add\n      0x20\n      swap1\n      div\n      dup2\n      add\n      swap3\n      dup3\n      tag_254\n      jumpi\n      0x00\n      dup6\n      sstore\n      jump(tag_253)\n    tag_254:\n      dup3\n      0x1f\n      lt\n      tag_255\n      jumpi\n      dup1\n      mload\n      not(0xff)\n      and\n      dup4\n      dup1\n      add\n      or\n      dup6\n      sstore\n      jump(tag_253)\n    tag_255:\n      dup3\n      dup1\n      add\n      0x01\n      add\n      dup6\n      sstore\n      dup3\n      iszero\n      tag_253\n      jumpi\n      swap2\n      dup3\n      add\n    tag_256:\n      dup3\n      dup2\n      gt\n      iszero\n      tag_257\n      jumpi\n      dup3\n      mload\n      dup3\n      sstore\n      swap2\n      0x20\n      add\n      swap2\n      swap1\n      0x01\n      add\n      swap1\n      jump(tag_256)\n    tag_257:\n    tag_253:\n      pop\n      swap1\n      pop\n      tag_258\n      swap2\n      swap1\n      tag_259\n      jump\t// in\n    tag_258:\n      pop\n      swap1\n      jump\t// out\n    tag_259:\n    tag_260:\n      dup1\n      dup3\n      gt\n      iszero\n      tag_261\n      jumpi\n      0x00\n      dup2\n      0x00\n      swap1\n      sstore\n      pop\n      0x01\n      add\n      jump(tag_260)\n    tag_261:\n      pop\n      swap1\n      jump\t// out\n        /* \"#utility.yul\":7:419   */\n    tag_263:\n        /* \"#utility.yul\":85:90   */\n      0x00\n        /* \"#utility.yul\":110:176   */\n      tag_265\n        /* \"#utility.yul\":126:175   */\n      tag_266\n        /* \"#utility.yul\":168:174   */\n      dup5\n        /* \"#utility.yul\":126:175   */\n      tag_267\n      jump\t// in\n    tag_266:\n        /* \"#utility.yul\":110:176   */\n      tag_268\n      jump\t// in\n    tag_265:\n        /* \"#utility.yul\":101:176   */\n      swap1\n      pop\n        /* \"#utility.yul\":199:205   */\n      dup3\n        /* \"#utility.yul\":192:197   */\n      dup2\n        /* \"#utility.yul\":185:206   */\n      mstore\n        /* \"#utility.yul\":237:241   */\n      0x20\n        /* \"#utility.yul\":230:235   */\n      dup2\n        /* \"#utility.yul\":226:242   */\n      add\n        /* \"#utility.yul\":275:278   */\n      dup5\n        /* \"#utility.yul\":266:272   */\n      dup5\n        /* \"#utility.yul\":261:264   */\n      dup5\n        /* \"#utility.yul\":257:273   */\n      add\n        /* \"#utility.yul\":254:279   */\n      gt\n        /* \"#utility.yul\":251:253   */\n      iszero\n      tag_269\n      jumpi\n        /* \"#utility.yul\":282:361   */\n      tag_270\n      tag_271\n      jump\t// in\n    tag_270:\n        /* \"#utility.yul\":251:253   */\n    tag_269:\n        /* \"#utility.yul\":372:413   */\n      tag_272\n        /* \"#utility.yul\":406:412   */\n      dup5\n        /* \"#utility.yul\":401:404   */\n      dup3\n        /* \"#utility.yul\":396:399   */\n      dup6\n        /* \"#utility.yul\":372:413   */\n      tag_273\n      jump\t// in\n    tag_272:\n        /* \"#utility.yul\":91:419   */\n      pop\n      swap4\n      swap3\n      pop\n      pop\n      pop\n      jump\t// out\n        /* \"#utility.yul\":439:779   */\n    tag_274:\n        /* \"#utility.yul\":495:500   */\n      0x00\n        /* \"#utility.yul\":544:547   */\n      dup3\n        /* \"#utility.yul\":537:541   */\n      0x1f\n        /* \"#utility.yul\":529:535   */\n      dup4\n        /* \"#utility.yul\":525:542   */\n      add\n        /* \"#utility.yul\":521:548   */\n      slt\n        /* \"#utility.yul\":511:513   */\n      tag_276\n      jumpi\n        /* \"#utility.yul\":552:631   */\n      tag_277\n      tag_278\n      jump\t// in\n    tag_277:\n        /* \"#utility.yul\":511:513   */\n    tag_276:\n        /* \"#utility.yul\":669:675   */\n      dup2\n        /* \"#utility.yul\":656:676   */\n      calldataload\n        /* \"#utility.yul\":694:773   */\n      tag_279\n        /* \"#utility.yul\":769:772   */\n      dup5\n        /* \"#utility.yul\":761:767   */\n      dup3\n        /* \"#utility.yul\":754:758   */\n      0x20\n        /* \"#utility.yul\":746:752   */\n      dup7\n        /* \"#utility.yul\":742:759   */\n      add\n        /* \"#utility.yul\":694:773   */\n      tag_263\n      jump\t// in\n    tag_279:\n        /* \"#utility.yul\":685:773   */\n      swap2\n      pop\n        /* \"#utility.yul\":501:779   */\n      pop\n      swap3\n      swap2\n      pop\n      pop\n      jump\t// out\n        /* \"#utility.yul\":785:924   */\n    tag_280:\n        /* \"#utility.yul\":831:836   */\n      0x00\n        /* \"#utility.yul\":869:875   */\n      dup2\n        /* \"#utility.yul\":856:876   */\n      calldataload\n        /* \"#utility.yul\":847:876   */\n      swap1\n      pop\n        /* \"#utility.yul\":885:918   */\n      tag_282\n        /* \"#utility.yul\":912:917   */\n      dup2\n        /* \"#utility.yul\":885:918   */\n      tag_283\n      jump\t// in\n    tag_282:\n        /* \"#utility.yul\":837:924   */\n      swap3\n      swap2\n      pop\n      pop\n      jump\t// out\n        /* \"#utility.yul\":930:1764   */\n    tag_43:\n        /* \"#utility.yul\":1018:1024   */\n      0x00\n        /* \"#utility.yul\":1026:1032   */\n      dup1\n        /* \"#utility.yul\":1075:1077   */\n      0x40\n        /* \"#utility.yul\":1063:1072   */\n      dup4\n        /* \"#utility.yul\":1054:1061   */\n      dup6\n        /* \"#utility.yul\":1050:1073   */\n      sub\n        /* \"#utility.yul\":1046:1078   */\n      slt\n        /* \"#utility.yul\":1043:1045   */\n      iszero\n      tag_285\n      jumpi\n        /* \"#utility.yul\":1081:1160   */\n      tag_286\n      tag_287\n      jump\t// in\n    tag_286:\n        /* \"#utility.yul\":1043:1045   */\n    tag_285:\n        /* \"#utility.yul\":1229:1230   */\n      0x00\n        /* \"#utility.yul\":1218:1227   */\n      dup4\n        /* \"#utility.yul\":1214:1231   */\n      add\n        /* \"#utility.yul\":1201:1232   */\n      calldataload\n        /* \"#utility.yul\":1259:1277   */\n      0xffffffffffffffff\n        /* \"#utility.yul\":1251:1257   */\n      dup2\n        /* \"#utility.yul\":1248:1278   */\n      gt\n        /* \"#utility.yul\":1245:1247   */\n      iszero\n      tag_288\n      jumpi\n        /* \"#utility.yul\":1281:1360   */\n      tag_289\n      tag_290\n      jump\t// in\n    tag_289:\n        /* \"#utility.yul\":1245:1247   */\n    tag_288:\n        /* \"#utility.yul\":1386:1449   */\n      tag_291\n        /* \"#utility.yul\":1441:1448   */\n      dup6\n        /* \"#utility.yul\":1432:1438   */\n      dup3\n        /* \"#utility.yul\":1421:1430   */\n      dup7\n        /* \"#utility.yul\":1417:1439   */\n      add\n        /* \"#utility.yul\":1386:1449   */\n      tag_274\n      jump\t// in\n    tag_291:\n        /* \"#utility.yul\":1376:1449   */\n      swap3\n      pop\n        /* \"#utility.yul\":1172:1459   */\n      pop\n        /* \"#utility.yul\":1526:1528   */\n      0x20\n        /* \"#utility.yul\":1515:1524   */\n      dup4\n        /* \"#utility.yul\":1511:1529   */\n      add\n        /* \"#utility.yul\":1498:1530   */\n      calldataload\n        /* \"#utility.yul\":1557:1575   */\n      0xffffffffffffffff\n        /* \"#utility.yul\":1549:1555   */\n      dup2\n        /* \"#utility.yul\":1546:1576   */\n      gt\n        /* \"#utility.yul\":1543:1545   */\n      iszero\n      tag_292\n      jumpi\n        /* \"#utility.yul\":1579:1658   */\n      tag_293\n      tag_290\n      jump\t// in\n    tag_293:\n        /* \"#utility.yul\":1543:1545   */\n    tag_292:\n        /* \"#utility.yul\":1684:1747   */\n      tag_294\n        /* \"#utility.yul\":1739:1746   */\n      dup6\n        /* \"#utility.yul\":1730:1736   */\n      dup3\n        /* \"#utility.yul\":1719:1728   */\n      dup7\n        /* \"#utility.yul\":1715:1737   */\n      add\n        /* \"#utility.yul\":1684:1747   */\n      tag_274\n      jump\t// in\n    tag_294:\n        /* \"#utility.yul\":1674:1747   */\n      swap2\n      pop\n        /* \"#utility.yul\":1469:1757   */\n      pop\n        /* \"#utility.yul\":1033:1764   */\n      swap3\n      pop\n      swap3\n      swap1\n      pop\n      jump\t// out\n        /* \"#utility.yul\":1770:2929   */\n    tag_39:\n        /* \"#utility.yul\":1877:1883   */\n      0x00\n        /* \"#utility.yul\":1885:1891   */\n      dup1\n        /* \"#utility.yul\":1893:1899   */\n      0x00\n        /* \"#utility.yul\":1942:1944   */\n      0x60\n        /* \"#utility.yul\":1930:1939   */\n      dup5\n        /* \"#utility.yul\":1921:1928   */\n      dup7\n        /* \"#utility.yul\":1917:1940   */\n      sub\n        /* \"#utility.yul\":1913:1945   */\n      slt\n        /* \"#utility.yul\":1910:1912   */\n      iszero\n      tag_296\n      jumpi\n        /* \"#utility.yul\":1948:2027   */\n      tag_297\n      tag_287\n      jump\t// in\n    tag_297:\n        /* \"#utility.yul\":1910:1912   */\n    tag_296:\n        /* \"#utility.yul\":2096:2097   */\n      0x00\n        /* \"#utility.yul\":2085:2094   */\n      dup5\n        /* \"#utility.yul\":2081:2098   */\n      add\n        /* \"#utility.yul\":2068:2099   */\n      calldataload\n        /* \"#utility.yul\":2126:2144   */\n      0xffffffffffffffff\n        /* \"#utility.yul\":2118:2124   */\n      dup2\n        /* \"#utility.yul\":2115:2145   */\n      gt\n        /* \"#utility.yul\":2112:2114   */\n      iszero\n      tag_298\n      jumpi\n        /* \"#utility.yul\":2148:2227   */\n      tag_299\n      tag_290\n      jump\t// in\n    tag_299:\n        /* \"#utility.yul\":2112:2114   */\n    tag_298:\n        /* \"#utility.yul\":2253:2316   */\n      tag_300\n        /* \"#utility.yul\":2308:2315   */\n      dup7\n        /* \"#utility.yul\":2299:2305   */\n      dup3\n        /* \"#utility.yul\":2288:2297   */\n      dup8\n        /* \"#utility.yul\":2284:2306   */\n      add\n        /* \"#utility.yul\":2253:2316   */\n      tag_274\n      jump\t// in\n    tag_300:\n        /* \"#utility.yul\":2243:2316   */\n      swap4\n      pop\n        /* \"#utility.yul\":2039:2326   */\n      pop\n        /* \"#utility.yul\":2393:2395   */\n      0x20\n        /* \"#utility.yul\":2382:2391   */\n      dup5\n        /* \"#utility.yul\":2378:2396   */\n      add\n        /* \"#utility.yul\":2365:2397   */\n      calldataload\n        /* \"#utility.yul\":2424:2442   */\n      0xffffffffffffffff\n        /* \"#utility.yul\":2416:2422   */\n      dup2\n        /* \"#utility.yul\":2413:2443   */\n      gt\n        /* \"#utility.yul\":2410:2412   */\n      iszero\n      tag_301\n      jumpi\n        /* \"#utility.yul\":2446:2525   */\n      tag_302\n      tag_290\n      jump\t// in\n    tag_302:\n        /* \"#utility.yul\":2410:2412   */\n    tag_301:\n        /* \"#utility.yul\":2551:2614   */\n      tag_303\n        /* \"#utility.yul\":2606:2613   */\n      dup7\n        /* \"#utility.yul\":2597:2603   */\n      dup3\n        /* \"#utility.yul\":2586:2595   */\n      dup8\n        /* \"#utility.yul\":2582:2604   */\n      add\n        /* \"#utility.yul\":2551:2614   */\n      tag_274\n      jump\t// in\n    tag_303:\n        /* \"#utility.yul\":2541:2614   */\n      swap3\n      pop\n        /* \"#utility.yul\":2336:2624   */\n      pop\n        /* \"#utility.yul\":2691:2693   */\n      0x40\n        /* \"#utility.yul\":2680:2689   */\n      dup5\n        /* \"#utility.yul\":2676:2694   */\n      add\n        /* \"#utility.yul\":2663:2695   */\n      calldataload\n        /* \"#utility.yul\":2722:2740   */\n      0xffffffffffffffff\n        /* \"#utility.yul\":2714:2720   */\n      dup2\n        /* \"#utility.yul\":2711:2741   */\n      gt\n        /* \"#utility.yul\":2708:2710   */\n      iszero\n      tag_304\n      jumpi\n        /* \"#utility.yul\":2744:2823   */\n      tag_305\n      tag_290\n      jump\t// in\n    tag_305:\n        /* \"#utility.yul\":2708:2710   */\n    tag_304:\n        /* \"#utility.yul\":2849:2912   */\n      tag_306\n        /* \"#utility.yul\":2904:2911   */\n      dup7\n        /* \"#utility.yul\":2895:2901   */\n      dup3\n        /* \"#utility.yul\":2884:2893   */\n      dup8\n        /* \"#utility.yul\":2880:2902   */\n      add\n        /* \"#utility.yul\":2849:2912   */\n      tag_274\n      jump\t// in\n    tag_306:\n        /* \"#utility.yul\":2839:2912   */\n      swap2\n      pop\n        /* \"#utility.yul\":2634:2922   */\n      pop\n        /* \"#utility.yul\":1900:2929   */\n      swap3\n      pop\n      swap3\n      pop\n      swap3\n      jump\t// out\n        /* \"#utility.yul\":2935:4420   */\n    tag_58:\n        /* \"#utility.yul\":3061:3067   */\n      0x00\n        /* \"#utility.yul\":3069:3075   */\n      dup1\n        /* \"#utility.yul\":3077:3083   */\n      0x00\n        /* \"#utility.yul\":3085:3091   */\n      dup1\n        /* \"#utility.yul\":3134:3137   */\n      0x80\n        /* \"#utility.yul\":3122:3131   */\n      dup6\n        /* \"#utility.yul\":3113:3120   */\n      dup8\n        /* \"#utility.yul\":3109:3132   */\n      sub\n        /* \"#utility.yul\":3105:3138   */\n      slt\n        /* \"#utility.yul\":3102:3104   */\n      iszero\n      tag_308\n      jumpi\n        /* \"#utility.yul\":3141:3220   */\n      tag_309\n      tag_287\n      jump\t// in\n    tag_309:\n        /* \"#utility.yul\":3102:3104   */\n    tag_308:\n        /* \"#utility.yul\":3289:3290   */\n      0x00\n        /* \"#utility.yul\":3278:3287   */\n      dup6\n        /* \"#utility.yul\":3274:3291   */\n      add\n        /* \"#utility.yul\":3261:3292   */\n      calldataload\n        /* \"#utility.yul\":3319:3337   */\n      0xffffffffffffffff\n        /* \"#utility.yul\":3311:3317   */\n      dup2\n        /* \"#utility.yul\":3308:3338   */\n      gt\n        /* \"#utility.yul\":3305:3307   */\n      iszero\n      tag_310\n      jumpi\n        /* \"#utility.yul\":3341:3420   */\n      tag_311\n      tag_290\n      jump\t// in\n    tag_311:\n        /* \"#utility.yul\":3305:3307   */\n    tag_310:\n        /* \"#utility.yul\":3446:3509   */\n      tag_312\n        /* \"#utility.yul\":3501:3508   */\n      dup8\n        /* \"#utility.yul\":3492:3498   */\n      dup3\n        /* \"#utility.yul\":3481:3490   */\n      dup9\n        /* \"#utility.yul\":3477:3499   */\n      add\n        /* \"#utility.yul\":3446:3509   */\n      tag_274\n      jump\t// in\n    tag_312:\n        /* \"#utility.yul\":3436:3509   */\n      swap5\n      pop\n        /* \"#utility.yul\":3232:3519   */\n      pop\n        /* \"#utility.yul\":3586:3588   */\n      0x20\n        /* \"#utility.yul\":3575:3584   */\n      dup6\n        /* \"#utility.yul\":3571:3589   */\n      add\n        /* \"#utility.yul\":3558:3590   */\n      calldataload\n        /* \"#utility.yul\":3617:3635   */\n      0xffffffffffffffff\n        /* \"#utility.yul\":3609:3615   */\n      dup2\n        /* \"#utility.yul\":3606:3636   */\n      gt\n        /* \"#utility.yul\":3603:3605   */\n      iszero\n      tag_313\n      jumpi\n        /* \"#utility.yul\":3639:3718   */\n      tag_314\n      tag_290\n      jump\t// in\n    tag_314:\n        /* \"#utility.yul\":3603:3605   */\n    tag_313:\n        /* \"#utility.yul\":3744:3807   */\n      tag_315\n        /* \"#utility.yul\":3799:3806   */\n      dup8\n        /* \"#utility.yul\":3790:3796   */\n      dup3\n        /* \"#utility.yul\":3779:3788   */\n      dup9\n        /* \"#utility.yul\":3775:3797   */\n      add\n        /* \"#utility.yul\":3744:3807   */\n      tag_274\n      jump\t// in\n    tag_315:\n        /* \"#utility.yul\":3734:3807   */\n      swap4\n      pop\n        /* \"#utility.yul\":3529:3817   */\n      pop\n        /* \"#utility.yul\":3884:3886   */\n      0x40\n        /* \"#utility.yul\":3873:3882   */\n      dup6\n        /* \"#utility.yul\":3869:3887   */\n      add\n        /* \"#utility.yul\":3856:3888   */\n      calldataload\n        /* \"#utility.yul\":3915:3933   */\n      0xffffffffffffffff\n        /* \"#utility.yul\":3907:3913   */\n      dup2\n        /* \"#utility.yul\":3904:3934   */\n      gt\n        /* \"#utility.yul\":3901:3903   */\n      iszero\n      tag_316\n      jumpi\n        /* \"#utility.yul\":3937:4016   */\n      tag_317\n      tag_290\n      jump\t// in\n    tag_317:\n        /* \"#utility.yul\":3901:3903   */\n    tag_316:\n        /* \"#utility.yul\":4042:4105   */\n      tag_318\n        /* \"#utility.yul\":4097:4104   */\n      dup8\n        /* \"#utility.yul\":4088:4094   */\n      dup3\n        /* \"#utility.yul\":4077:4086   */\n      dup9\n        /* \"#utility.yul\":4073:4095   */\n      add\n        /* \"#utility.yul\":4042:4105   */\n      tag_274\n      jump\t// in\n    tag_318:\n        /* \"#utility.yul\":4032:4105   */\n      swap3\n      pop\n        /* \"#utility.yul\":3827:4115   */\n      pop\n        /* \"#utility.yul\":4182:4184   */\n      0x60\n        /* \"#utility.yul\":4171:4180   */\n      dup6\n        /* \"#utility.yul\":4167:4185   */\n      add\n        /* \"#utility.yul\":4154:4186   */\n      calldataload\n        /* \"#utility.yul\":4213:4231   */\n      0xffffffffffffffff\n        /* \"#utility.yul\":4205:4211   */\n      dup2\n        /* \"#utility.yul\":4202:4232   */\n      gt\n        /* \"#utility.yul\":4199:4201   */\n      iszero\n      tag_319\n      jumpi\n        /* \"#utility.yul\":4235:4314   */\n      tag_320\n      tag_290\n      jump\t// in\n    tag_320:\n        /* \"#utility.yul\":4199:4201   */\n    tag_319:\n        /* \"#utility.yul\":4340:4403   */\n      tag_321\n        /* \"#utility.yul\":4395:4402   */\n      dup8\n        /* \"#utility.yul\":4386:4392   */\n      dup3\n        /* \"#utility.yul\":4375:4384   */\n      dup9\n        /* \"#utility.yul\":4371:4393   */\n      add\n        /* \"#utility.yul\":4340:4403   */\n      tag_274\n      jump\t// in\n    tag_321:\n        /* \"#utility.yul\":4330:4403   */\n      swap2\n      pop\n        /* \"#utility.yul\":4125:4413   */\n      pop\n        /* \"#utility.yul\":3092:4420   */\n      swap3\n      swap6\n      swap2\n      swap5\n      pop\n      swap3\n      pop\n      jump\t// out\n        /* \"#utility.yul\":4426:6563   */\n    tag_35:\n        /* \"#utility.yul\":4590:4596   */\n      0x00\n        /* \"#utility.yul\":4598:4604   */\n      dup1\n        /* \"#utility.yul\":4606:4612   */\n      0x00\n        /* \"#utility.yul\":4614:4620   */\n      dup1\n        /* \"#utility.yul\":4622:4628   */\n      0x00\n        /* \"#utility.yul\":4630:4636   */\n      dup1\n        /* \"#utility.yul\":4679:4682   */\n      0xc0\n        /* \"#utility.yul\":4667:4676   */\n      dup8\n        /* \"#utility.yul\":4658:4665   */\n      dup10\n        /* \"#utility.yul\":4654:4677   */\n      sub\n        /* \"#utility.yul\":4650:4683   */\n      slt\n        /* \"#utility.yul\":4647:4649   */\n      iszero\n      tag_323\n      jumpi\n        /* \"#utility.yul\":4686:4765   */\n      tag_324\n      tag_287\n      jump\t// in\n    tag_324:\n        /* \"#utility.yul\":4647:4649   */\n    tag_323:\n        /* \"#utility.yul\":4834:4835   */\n      0x00\n        /* \"#utility.yul\":4823:4832   */\n      dup8\n        /* \"#utility.yul\":4819:4836   */\n      add\n        /* \"#utility.yul\":4806:4837   */\n      calldataload\n        /* \"#utility.yul\":4864:4882   */\n      0xffffffffffffffff\n        /* \"#utility.yul\":4856:4862   */\n      dup2\n        /* \"#utility.yul\":4853:4883   */\n      gt\n        /* \"#utility.yul\":4850:4852   */\n      iszero\n      tag_325\n      jumpi\n        /* \"#utility.yul\":4886:4965   */\n      tag_326\n      tag_290\n      jump\t// in\n    tag_326:\n        /* \"#utility.yul\":4850:4852   */\n    tag_325:\n        /* \"#utility.yul\":4991:5054   */\n      tag_327\n        /* \"#utility.yul\":5046:5053   */\n      dup10\n        /* \"#utility.yul\":5037:5043   */\n      dup3\n        /* \"#utility.yul\":5026:5035   */\n      dup11\n        /* \"#utility.yul\":5022:5044   */\n      add\n        /* \"#utility.yul\":4991:5054   */\n      tag_274\n      jump\t// in\n    tag_327:\n        /* \"#utility.yul\":4981:5054   */\n      swap7\n      pop\n        /* \"#utility.yul\":4777:5064   */\n      pop\n        /* \"#utility.yul\":5131:5133   */\n      0x20\n        /* \"#utility.yul\":5120:5129   */\n      dup8\n        /* \"#utility.yul\":5116:5134   */\n      add\n        /* \"#utility.yul\":5103:5135   */\n      calldataload\n        /* \"#utility.yul\":5162:5180   */\n      0xffffffffffffffff\n        /* \"#utility.yul\":5154:5160   */\n      dup2\n        /* \"#utility.yul\":5151:5181   */\n      gt\n        /* \"#utility.yul\":5148:5150   */\n      iszero\n      tag_328\n      jumpi\n        /* \"#utility.yul\":5184:5263   */\n      tag_329\n      tag_290\n      jump\t// in\n    tag_329:\n        /* \"#utility.yul\":5148:5150   */\n    tag_328:\n        /* \"#utility.yul\":5289:5352   */\n      tag_330\n        /* \"#utility.yul\":5344:5351   */\n      dup10\n        /* \"#utility.yul\":5335:5341   */\n      dup3\n        /* \"#utility.yul\":5324:5333   */\n      dup11\n        /* \"#utility.yul\":5320:5342   */\n      add\n        /* \"#utility.yul\":5289:5352   */\n      tag_274\n      jump\t// in\n    tag_330:\n        /* \"#utility.yul\":5279:5352   */\n      swap6\n      pop\n        /* \"#utility.yul\":5074:5362   */\n      pop\n        /* \"#utility.yul\":5429:5431   */\n      0x40\n        /* \"#utility.yul\":5418:5427   */\n      dup8\n        /* \"#utility.yul\":5414:5432   */\n      add\n        /* \"#utility.yul\":5401:5433   */\n      calldataload\n        /* \"#utility.yul\":5460:5478   */\n      0xffffffffffffffff\n        /* \"#utility.yul\":5452:5458   */\n      dup2\n        /* \"#utility.yul\":5449:5479   */\n      gt\n        /* \"#utility.yul\":5446:5448   */\n      iszero\n      tag_331\n      jumpi\n        /* \"#utility.yul\":5482:5561   */\n      tag_332\n      tag_290\n      jump\t// in\n    tag_332:\n        /* \"#utility.yul\":5446:5448   */\n    tag_331:\n        /* \"#utility.yul\":5587:5650   */\n      tag_333\n        /* \"#utility.yul\":5642:5649   */\n      dup10\n        /* \"#utility.yul\":5633:5639   */\n      dup3\n        /* \"#utility.yul\":5622:5631   */\n      dup11\n        /* \"#utility.yul\":5618:5640   */\n      add\n        /* \"#utility.yul\":5587:5650   */\n      tag_274\n      jump\t// in\n    tag_333:\n        /* \"#utility.yul\":5577:5650   */\n      swap5\n      pop\n        /* \"#utility.yul\":5372:5660   */\n      pop\n        /* \"#utility.yul\":5727:5729   */\n      0x60\n        /* \"#utility.yul\":5716:5725   */\n      dup8\n        /* \"#utility.yul\":5712:5730   */\n      add\n        /* \"#utility.yul\":5699:5731   */\n      calldataload\n        /* \"#utility.yul\":5758:5776   */\n      0xffffffffffffffff\n        /* \"#utility.yul\":5750:5756   */\n      dup2\n        /* \"#utility.yul\":5747:5777   */\n      gt\n        /* \"#utility.yul\":5744:5746   */\n      iszero\n      tag_334\n      jumpi\n        /* \"#utility.yul\":5780:5859   */\n      tag_335\n      tag_290\n      jump\t// in\n    tag_335:\n        /* \"#utility.yul\":5744:5746   */\n    tag_334:\n        /* \"#utility.yul\":5885:5948   */\n      tag_336\n        /* \"#utility.yul\":5940:5947   */\n      dup10\n        /* \"#utility.yul\":5931:5937   */\n      dup3\n        /* \"#utility.yul\":5920:5929   */\n      dup11\n        /* \"#utility.yul\":5916:5938   */\n      add\n        /* \"#utility.yul\":5885:5948   */\n      tag_274\n      jump\t// in\n    tag_336:\n        /* \"#utility.yul\":5875:5948   */\n      swap4\n      pop\n        /* \"#utility.yul\":5670:5958   */\n      pop\n        /* \"#utility.yul\":6025:6028   */\n      0x80\n        /* \"#utility.yul\":6014:6023   */\n      dup8\n        /* \"#utility.yul\":6010:6029   */\n      add\n        /* \"#utility.yul\":5997:6030   */\n      calldataload\n        /* \"#utility.yul\":6057:6075   */\n      0xffffffffffffffff\n        /* \"#utility.yul\":6049:6055   */\n      dup2\n        /* \"#utility.yul\":6046:6076   */\n      gt\n        /* \"#utility.yul\":6043:6045   */\n      iszero\n      tag_337\n      jumpi\n        /* \"#utility.yul\":6079:6158   */\n      tag_338\n      tag_290\n      jump\t// in\n    tag_338:\n        /* \"#utility.yul\":6043:6045   */\n    tag_337:\n        /* \"#utility.yul\":6184:6247   */\n      tag_339\n        /* \"#utility.yul\":6239:6246   */\n      dup10\n        /* \"#utility.yul\":6230:6236   */\n      dup3\n        /* \"#utility.yul\":6219:6228   */\n      dup11\n        /* \"#utility.yul\":6215:6237   */\n      add\n        /* \"#utility.yul\":6184:6247   */\n      tag_274\n      jump\t// in\n    tag_339:\n        /* \"#utility.yul\":6174:6247   */\n      swap3\n      pop\n        /* \"#utility.yul\":5968:6257   */\n      pop\n        /* \"#utility.yul\":6324:6327   */\n      0xa0\n        /* \"#utility.yul\":6313:6322   */\n      dup8\n        /* \"#utility.yul\":6309:6328   */\n      add\n        /* \"#utility.yul\":6296:6329   */\n      calldataload\n        /* \"#utility.yul\":6356:6374   */\n      0xffffffffffffffff\n        /* \"#utility.yul\":6348:6354   */\n      dup2\n        /* \"#utility.yul\":6345:6375   */\n      gt\n        /* \"#utility.yul\":6342:6344   */\n      iszero\n      tag_340\n      jumpi\n        /* \"#utility.yul\":6378:6457   */\n      tag_341\n      tag_290\n      jump\t// in\n    tag_341:\n        /* \"#utility.yul\":6342:6344   */\n    tag_340:\n        /* \"#utility.yul\":6483:6546   */\n      tag_342\n        /* \"#utility.yul\":6538:6545   */\n      dup10\n        /* \"#utility.yul\":6529:6535   */\n      dup3\n        /* \"#utility.yul\":6518:6527   */\n      dup11\n        /* \"#utility.yul\":6514:6536   */\n      add\n        /* \"#utility.yul\":6483:6546   */\n      tag_274\n      jump\t// in\n    tag_342:\n        /* \"#utility.yul\":6473:6546   */\n      swap2\n      pop\n        /* \"#utility.yul\":6267:6556   */\n      pop\n        /* \"#utility.yul\":4637:6563   */\n      swap3\n      swap6\n      pop\n      swap3\n      swap6\n      pop\n      swap3\n      swap6\n      jump\t// out\n        /* \"#utility.yul\":6569:6898   */\n    tag_17:\n        /* \"#utility.yul\":6628:6634   */\n      0x00\n        /* \"#utility.yul\":6677:6679   */\n      0x20\n        /* \"#utility.yul\":6665:6674   */\n      dup3\n        /* \"#utility.yul\":6656:6663   */\n      dup5\n        /* \"#utility.yul\":6652:6675   */\n      sub\n        /* \"#utility.yul\":6648:6680   */\n      slt\n        /* \"#utility.yul\":6645:6647   */\n      iszero\n      tag_344\n      jumpi\n        /* \"#utility.yul\":6683:6762   */\n      tag_345\n      tag_287\n      jump\t// in\n    tag_345:\n        /* \"#utility.yul\":6645:6647   */\n    tag_344:\n        /* \"#utility.yul\":6803:6804   */\n      0x00\n        /* \"#utility.yul\":6828:6881   */\n      tag_346\n        /* \"#utility.yul\":6873:6880   */\n      dup5\n        /* \"#utility.yul\":6864:6870   */\n      dup3\n        /* \"#utility.yul\":6853:6862   */\n      dup6\n        /* \"#utility.yul\":6849:6871   */\n      add\n        /* \"#utility.yul\":6828:6881   */\n      tag_280\n      jump\t// in\n    tag_346:\n        /* \"#utility.yul\":6818:6881   */\n      swap2\n      pop\n        /* \"#utility.yul\":6774:6891   */\n      pop\n        /* \"#utility.yul\":6635:6898   */\n      swap3\n      swap2\n      pop\n      pop\n      jump\t// out\n        /* \"#utility.yul\":6904:7558   */\n    tag_26:\n        /* \"#utility.yul\":6982:6988   */\n      0x00\n        /* \"#utility.yul\":6990:6996   */\n      dup1\n        /* \"#utility.yul\":7039:7041   */\n      0x40\n        /* \"#utility.yul\":7027:7036   */\n      dup4\n        /* \"#utility.yul\":7018:7025   */\n      dup6\n        /* \"#utility.yul\":7014:7037   */\n      sub\n        /* \"#utility.yul\":7010:7042   */\n      slt\n        /* \"#utility.yul\":7007:7009   */\n      iszero\n      tag_348\n      jumpi\n        /* \"#utility.yul\":7045:7124   */\n      tag_349\n      tag_287\n      jump\t// in\n    tag_349:\n        /* \"#utility.yul\":7007:7009   */\n    tag_348:\n        /* \"#utility.yul\":7165:7166   */\n      0x00\n        /* \"#utility.yul\":7190:7243   */\n      tag_350\n        /* \"#utility.yul\":7235:7242   */\n      dup6\n        /* \"#utility.yul\":7226:7232   */\n      dup3\n        /* \"#utility.yul\":7215:7224   */\n      dup7\n        /* \"#utility.yul\":7211:7233   */\n      add\n        /* \"#utility.yul\":7190:7243   */\n      tag_280\n      jump\t// in\n    tag_350:\n        /* \"#utility.yul\":7180:7243   */\n      swap3\n      pop\n        /* \"#utility.yul\":7136:7253   */\n      pop\n        /* \"#utility.yul\":7320:7322   */\n      0x20\n        /* \"#utility.yul\":7309:7318   */\n      dup4\n        /* \"#utility.yul\":7305:7323   */\n      add\n        /* \"#utility.yul\":7292:7324   */\n      calldataload\n        /* \"#utility.yul\":7351:7369   */\n      0xffffffffffffffff\n        /* \"#utility.yul\":7343:7349   */\n      dup2\n        /* \"#utility.yul\":7340:7370   */\n      gt\n        /* \"#utility.yul\":7337:7339   */\n      iszero\n      tag_351\n      jumpi\n        /* \"#utility.yul\":7373:7452   */\n      tag_352\n      tag_290\n      jump\t// in\n    tag_352:\n        /* \"#utility.yul\":7337:7339   */\n    tag_351:\n        /* \"#utility.yul\":7478:7541   */\n      tag_353\n        /* \"#utility.yul\":7533:7540   */\n      dup6\n        /* \"#utility.yul\":7524:7530   */\n      dup3\n        /* \"#utility.yul\":7513:7522   */\n      dup7\n        /* \"#utility.yul\":7509:7531   */\n      add\n        /* \"#utility.yul\":7478:7541   */\n      tag_274\n      jump\t// in\n    tag_353:\n        /* \"#utility.yul\":7468:7541   */\n      swap2\n      pop\n        /* \"#utility.yul\":7263:7551   */\n      pop\n        /* \"#utility.yul\":6997:7558   */\n      swap3\n      pop\n      swap3\n      swap1\n      pop\n      jump\t// out\n        /* \"#utility.yul\":7564:7721   */\n    tag_354:\n        /* \"#utility.yul\":7669:7714   */\n      tag_356\n        /* \"#utility.yul\":7689:7713   */\n      tag_357\n        /* \"#utility.yul\":7707:7712   */\n      dup3\n        /* \"#utility.yul\":7689:7713   */\n      tag_358\n      jump\t// in\n    tag_357:\n        /* \"#utility.yul\":7669:7714   */\n      tag_359\n      jump\t// in\n    tag_356:\n        /* \"#utility.yul\":7664:7667   */\n      dup3\n        /* \"#utility.yul\":7657:7715   */\n      mstore\n        /* \"#utility.yul\":7647:7721   */\n      pop\n      pop\n      jump\t// out\n        /* \"#utility.yul\":7727:8091   */\n    tag_360:\n        /* \"#utility.yul\":7815:7818   */\n      0x00\n        /* \"#utility.yul\":7843:7882   */\n      tag_362\n        /* \"#utility.yul\":7876:7881   */\n      dup3\n        /* \"#utility.yul\":7843:7882   */\n      tag_363\n      jump\t// in\n    tag_362:\n        /* \"#utility.yul\":7898:7969   */\n      tag_364\n        /* \"#utility.yul\":7962:7968   */\n      dup2\n        /* \"#utility.yul\":7957:7960   */\n      dup6\n        /* \"#utility.yul\":7898:7969   */\n      tag_365\n      jump\t// in\n    tag_364:\n        /* \"#utility.yul\":7891:7969   */\n      swap4\n      pop\n        /* \"#utility.yul\":7978:8030   */\n      tag_366\n        /* \"#utility.yul\":8023:8029   */\n      dup2\n        /* \"#utility.yul\":8018:8021   */\n      dup6\n        /* \"#utility.yul\":8011:8015   */\n      0x20\n        /* \"#utility.yul\":8004:8009   */\n      dup7\n        /* \"#utility.yul\":8000:8016   */\n      add\n        /* \"#utility.yul\":7978:8030   */\n      tag_367\n      jump\t// in\n    tag_366:\n        /* \"#utility.yul\":8055:8084   */\n      tag_368\n        /* \"#utility.yul\":8077:8083   */\n      dup2\n        /* \"#utility.yul\":8055:8084   */\n      tag_369\n      jump\t// in\n    tag_368:\n        /* \"#utility.yul\":8050:8053   */\n      dup5\n        /* \"#utility.yul\":8046:8085   */\n      add\n        /* \"#utility.yul\":8039:8085   */\n      swap2\n      pop\n        /* \"#utility.yul\":7819:8091   */\n      pop\n      swap3\n      swap2\n      pop\n      pop\n      jump\t// out\n        /* \"#utility.yul\":8097:8474   */\n    tag_370:\n        /* \"#utility.yul\":8203:8206   */\n      0x00\n        /* \"#utility.yul\":8231:8270   */\n      tag_372\n        /* \"#utility.yul\":8264:8269   */\n      dup3\n        /* \"#utility.yul\":8231:8270   */\n      tag_363\n      jump\t// in\n    tag_372:\n        /* \"#utility.yul\":8286:8375   */\n      tag_373\n        /* \"#utility.yul\":8368:8374   */\n      dup2\n        /* \"#utility.yul\":8363:8366   */\n      dup6\n        /* \"#utility.yul\":8286:8375   */\n      tag_374\n      jump\t// in\n    tag_373:\n        /* \"#utility.yul\":8279:8375   */\n      swap4\n      pop\n        /* \"#utility.yul\":8384:8436   */\n      tag_375\n        /* \"#utility.yul\":8429:8435   */\n      dup2\n        /* \"#utility.yul\":8424:8427   */\n      dup6\n        /* \"#utility.yul\":8417:8421   */\n      0x20\n        /* \"#utility.yul\":8410:8415   */\n      dup7\n        /* \"#utility.yul\":8406:8422   */\n      add\n        /* \"#utility.yul\":8384:8436   */\n      tag_367\n      jump\t// in\n    tag_375:\n        /* \"#utility.yul\":8461:8467   */\n      dup1\n        /* \"#utility.yul\":8456:8459   */\n      dup5\n        /* \"#utility.yul\":8452:8468   */\n      add\n        /* \"#utility.yul\":8445:8468   */\n      swap2\n      pop\n        /* \"#utility.yul\":8207:8474   */\n      pop\n      swap3\n      swap2\n      pop\n      pop\n      jump\t// out\n        /* \"#utility.yul\":8504:9349   */\n    tag_376:\n        /* \"#utility.yul\":8607:8610   */\n      0x00\n        /* \"#utility.yul\":8644:8649   */\n      dup2\n        /* \"#utility.yul\":8638:8650   */\n      sload\n        /* \"#utility.yul\":8673:8709   */\n      tag_378\n        /* \"#utility.yul\":8699:8708   */\n      dup2\n        /* \"#utility.yul\":8673:8709   */\n      tag_72\n      jump\t// in\n    tag_378:\n        /* \"#utility.yul\":8725:8814   */\n      tag_379\n        /* \"#utility.yul\":8807:8813   */\n      dup2\n        /* \"#utility.yul\":8802:8805   */\n      dup7\n        /* \"#utility.yul\":8725:8814   */\n      tag_374\n      jump\t// in\n    tag_379:\n        /* \"#utility.yul\":8718:8814   */\n      swap5\n      pop\n        /* \"#utility.yul\":8845:8846   */\n      0x01\n        /* \"#utility.yul\":8834:8843   */\n      dup3\n        /* \"#utility.yul\":8830:8847   */\n      and\n        /* \"#utility.yul\":8861:8862   */\n      0x00\n        /* \"#utility.yul\":8856:8993   */\n      dup2\n      eq\n      tag_381\n      jumpi\n        /* \"#utility.yul\":9007:9008   */\n      0x01\n        /* \"#utility.yul\":9002:9343   */\n      dup2\n      eq\n      tag_382\n      jumpi\n        /* \"#utility.yul\":8823:9343   */\n      jump(tag_380)\n        /* \"#utility.yul\":8856:8993   */\n    tag_381:\n        /* \"#utility.yul\":8940:8944   */\n      0xff\n        /* \"#utility.yul\":8936:8945   */\n      not\n        /* \"#utility.yul\":8925:8934   */\n      dup4\n        /* \"#utility.yul\":8921:8946   */\n      and\n        /* \"#utility.yul\":8916:8919   */\n      dup7\n        /* \"#utility.yul\":8909:8947   */\n      mstore\n        /* \"#utility.yul\":8976:8982   */\n      dup2\n        /* \"#utility.yul\":8971:8974   */\n      dup7\n        /* \"#utility.yul\":8967:8983   */\n      add\n        /* \"#utility.yul\":8960:8983   */\n      swap4\n      pop\n        /* \"#utility.yul\":8856:8993   */\n      jump(tag_380)\n        /* \"#utility.yul\":9002:9343   */\n    tag_382:\n        /* \"#utility.yul\":9069:9107   */\n      tag_383\n        /* \"#utility.yul\":9101:9106   */\n      dup6\n        /* \"#utility.yul\":9069:9107   */\n      tag_384\n      jump\t// in\n    tag_383:\n        /* \"#utility.yul\":9129:9130   */\n      0x00\n        /* \"#utility.yul\":9143:9297   */\n    tag_385:\n        /* \"#utility.yul\":9157:9163   */\n      dup4\n        /* \"#utility.yul\":9154:9155   */\n      dup2\n        /* \"#utility.yul\":9151:9164   */\n      lt\n        /* \"#utility.yul\":9143:9297   */\n      iszero\n      tag_387\n      jumpi\n        /* \"#utility.yul\":9231:9238   */\n      dup2\n        /* \"#utility.yul\":9225:9239   */\n      sload\n        /* \"#utility.yul\":9221:9222   */\n      dup2\n        /* \"#utility.yul\":9216:9219   */\n      dup10\n        /* \"#utility.yul\":9212:9223   */\n      add\n        /* \"#utility.yul\":9205:9240   */\n      mstore\n        /* \"#utility.yul\":9281:9282   */\n      0x01\n        /* \"#utility.yul\":9272:9279   */\n      dup3\n        /* \"#utility.yul\":9268:9283   */\n      add\n        /* \"#utility.yul\":9257:9283   */\n      swap2\n      pop\n        /* \"#utility.yul\":9179:9183   */\n      0x20\n        /* \"#utility.yul\":9176:9177   */\n      dup2\n        /* \"#utility.yul\":9172:9184   */\n      add\n        /* \"#utility.yul\":9167:9184   */\n      swap1\n      pop\n        /* \"#utility.yul\":9143:9297   */\n      jump(tag_385)\n    tag_387:\n        /* \"#utility.yul\":9326:9332   */\n      dup4\n        /* \"#utility.yul\":9321:9324   */\n      dup9\n        /* \"#utility.yul\":9317:9333   */\n      add\n        /* \"#utility.yul\":9310:9333   */\n      swap6\n      pop\n        /* \"#utility.yul\":9009:9343   */\n      pop\n      pop\n        /* \"#utility.yul\":8823:9343   */\n    tag_380:\n      pop\n        /* \"#utility.yul\":8611:9349   */\n      pop\n      pop\n      swap3\n      swap2\n      pop\n      pop\n      jump\t// out\n        /* \"#utility.yul\":9355:9757   */\n    tag_388:\n        /* \"#utility.yul\":9515:9518   */\n      0x00\n        /* \"#utility.yul\":9536:9621   */\n      tag_390\n        /* \"#utility.yul\":9618:9620   */\n      0x0a\n        /* \"#utility.yul\":9613:9616   */\n      dup4\n        /* \"#utility.yul\":9536:9621   */\n      tag_374\n      jump\t// in\n    tag_390:\n        /* \"#utility.yul\":9529:9621   */\n      swap2\n      pop\n        /* \"#utility.yul\":9630:9723   */\n      tag_391\n        /* \"#utility.yul\":9719:9722   */\n      dup3\n        /* \"#utility.yul\":9630:9723   */\n      tag_392\n      jump\t// in\n    tag_391:\n        /* \"#utility.yul\":9748:9750   */\n      0x0a\n        /* \"#utility.yul\":9743:9746   */\n      dup3\n        /* \"#utility.yul\":9739:9751   */\n      add\n        /* \"#utility.yul\":9732:9751   */\n      swap1\n      pop\n        /* \"#utility.yul\":9519:9757   */\n      swap2\n      swap1\n      pop\n      jump\t// out\n        /* \"#utility.yul\":9763:10129   */\n    tag_393:\n        /* \"#utility.yul\":9905:9908   */\n      0x00\n        /* \"#utility.yul\":9926:9993   */\n      tag_395\n        /* \"#utility.yul\":9990:9992   */\n      0x2c\n        /* \"#utility.yul\":9985:9988   */\n      dup4\n        /* \"#utility.yul\":9926:9993   */\n      tag_365\n      jump\t// in\n    tag_395:\n        /* \"#utility.yul\":9919:9993   */\n      swap2\n      pop\n        /* \"#utility.yul\":10002:10095   */\n      tag_396\n        /* \"#utility.yul\":10091:10094   */\n      dup3\n        /* \"#utility.yul\":10002:10095   */\n      tag_397\n      jump\t// in\n    tag_396:\n        /* \"#utility.yul\":10120:10122   */\n      0x40\n        /* \"#utility.yul\":10115:10118   */\n      dup3\n        /* \"#utility.yul\":10111:10123   */\n      add\n        /* \"#utility.yul\":10104:10123   */\n      swap1\n      pop\n        /* \"#utility.yul\":9909:10129   */\n      swap2\n      swap1\n      pop\n      jump\t// out\n        /* \"#utility.yul\":10135:10501   */\n    tag_398:\n        /* \"#utility.yul\":10277:10280   */\n      0x00\n        /* \"#utility.yul\":10298:10365   */\n      tag_400\n        /* \"#utility.yul\":10362:10364   */\n      0x28\n        /* \"#utility.yul\":10357:10360   */\n      dup4\n        /* \"#utility.yul\":10298:10365   */\n      tag_365\n      jump\t// in\n    tag_400:\n        /* \"#utility.yul\":10291:10365   */\n      swap2\n      pop\n        /* \"#utility.yul\":10374:10467   */\n      tag_401\n        /* \"#utility.yul\":10463:10466   */\n      dup3\n        /* \"#utility.yul\":10374:10467   */\n      tag_402\n      jump\t// in\n    tag_401:\n        /* \"#utility.yul\":10492:10494   */\n      0x40\n        /* \"#utility.yul\":10487:10490   */\n      dup3\n        /* \"#utility.yul\":10483:10495   */\n      add\n        /* \"#utility.yul\":10476:10495   */\n      swap1\n      pop\n        /* \"#utility.yul\":10281:10501   */\n      swap2\n      swap1\n      pop\n      jump\t// out\n        /* \"#utility.yul\":10507:10873   */\n    tag_403:\n        /* \"#utility.yul\":10649:10652   */\n      0x00\n        /* \"#utility.yul\":10670:10737   */\n      tag_405\n        /* \"#utility.yul\":10734:10736   */\n      0x1d\n        /* \"#utility.yul\":10729:10732   */\n      dup4\n        /* \"#utility.yul\":10670:10737   */\n      tag_365\n      jump\t// in\n    tag_405:\n        /* \"#utility.yul\":10663:10737   */\n      swap2\n      pop\n        /* \"#utility.yul\":10746:10839   */\n      tag_406\n        /* \"#utility.yul\":10835:10838   */\n      dup3\n        /* \"#utility.yul\":10746:10839   */\n      tag_407\n      jump\t// in\n    tag_406:\n        /* \"#utility.yul\":10864:10866   */\n      0x20\n        /* \"#utility.yul\":10859:10862   */\n      dup3\n        /* \"#utility.yul\":10855:10867   */\n      add\n        /* \"#utility.yul\":10848:10867   */\n      swap1\n      pop\n        /* \"#utility.yul\":10653:10873   */\n      swap2\n      swap1\n      pop\n      jump\t// out\n        /* \"#utility.yul\":10879:11245   */\n    tag_408:\n        /* \"#utility.yul\":11021:11024   */\n      0x00\n        /* \"#utility.yul\":11042:11109   */\n      tag_410\n        /* \"#utility.yul\":11106:11108   */\n      0x1d\n        /* \"#utility.yul\":11101:11104   */\n      dup4\n        /* \"#utility.yul\":11042:11109   */\n      tag_365\n      jump\t// in\n    tag_410:\n        /* \"#utility.yul\":11035:11109   */\n      swap2\n      pop\n        /* \"#utility.yul\":11118:11211   */\n      tag_411\n        /* \"#utility.yul\":11207:11210   */\n      dup3\n        /* \"#utility.yul\":11118:11211   */\n      tag_412\n      jump\t// in\n    tag_411:\n        /* \"#utility.yul\":11236:11238   */\n      0x20\n        /* \"#utility.yul\":11231:11234   */\n      dup3\n        /* \"#utility.yul\":11227:11239   */\n      add\n        /* \"#utility.yul\":11220:11239   */\n      swap1\n      pop\n        /* \"#utility.yul\":11025:11245   */\n      swap2\n      swap1\n      pop\n      jump\t// out\n        /* \"#utility.yul\":11251:11617   */\n    tag_413:\n        /* \"#utility.yul\":11393:11396   */\n      0x00\n        /* \"#utility.yul\":11414:11481   */\n      tag_415\n        /* \"#utility.yul\":11478:11480   */\n      0x1b\n        /* \"#utility.yul\":11473:11476   */\n      dup4\n        /* \"#utility.yul\":11414:11481   */\n      tag_365\n      jump\t// in\n    tag_415:\n        /* \"#utility.yul\":11407:11481   */\n      swap2\n      pop\n        /* \"#utility.yul\":11490:11583   */\n      tag_416\n        /* \"#utility.yul\":11579:11582   */\n      dup3\n        /* \"#utility.yul\":11490:11583   */\n      tag_417\n      jump\t// in\n    tag_416:\n        /* \"#utility.yul\":11608:11610   */\n      0x20\n        /* \"#utility.yul\":11603:11606   */\n      dup3\n        /* \"#utility.yul\":11599:11611   */\n      add\n        /* \"#utility.yul\":11592:11611   */\n      swap1\n      pop\n        /* \"#utility.yul\":11397:11617   */\n      swap2\n      swap1\n      pop\n      jump\t// out\n        /* \"#utility.yul\":11623:11989   */\n    tag_418:\n        /* \"#utility.yul\":11765:11768   */\n      0x00\n        /* \"#utility.yul\":11786:11853   */\n      tag_420\n        /* \"#utility.yul\":11850:11852   */\n      0x19\n        /* \"#utility.yul\":11845:11848   */\n      dup4\n        /* \"#utility.yul\":11786:11853   */\n      tag_365\n      jump\t// in\n    tag_420:\n        /* \"#utility.yul\":11779:11853   */\n      swap2\n      pop\n        /* \"#utility.yul\":11862:11955   */\n      tag_421\n        /* \"#utility.yul\":11951:11954   */\n      dup3\n        /* \"#utility.yul\":11862:11955   */\n      tag_422\n      jump\t// in\n    tag_421:\n        /* \"#utility.yul\":11980:11982   */\n      0x20\n        /* \"#utility.yul\":11975:11978   */\n      dup3\n        /* \"#utility.yul\":11971:11983   */\n      add\n        /* \"#utility.yul\":11964:11983   */\n      swap1\n      pop\n        /* \"#utility.yul\":11769:11989   */\n      swap2\n      swap1\n      pop\n      jump\t// out\n        /* \"#utility.yul\":11995:12361   */\n    tag_423:\n        /* \"#utility.yul\":12137:12140   */\n      0x00\n        /* \"#utility.yul\":12158:12225   */\n      tag_425\n        /* \"#utility.yul\":12222:12224   */\n      0x3c\n        /* \"#utility.yul\":12217:12220   */\n      dup4\n        /* \"#utility.yul\":12158:12225   */\n      tag_365\n      jump\t// in\n    tag_425:\n        /* \"#utility.yul\":12151:12225   */\n      swap2\n      pop\n        /* \"#utility.yul\":12234:12327   */\n      tag_426\n        /* \"#utility.yul\":12323:12326   */\n      dup3\n        /* \"#utility.yul\":12234:12327   */\n      tag_427\n      jump\t// in\n    tag_426:\n        /* \"#utility.yul\":12352:12354   */\n      0x40\n        /* \"#utility.yul\":12347:12350   */\n      dup3\n        /* \"#utility.yul\":12343:12355   */\n      add\n        /* \"#utility.yul\":12336:12355   */\n      swap1\n      pop\n        /* \"#utility.yul\":12141:12361   */\n      swap2\n      swap1\n      pop\n      jump\t// out\n        /* \"#utility.yul\":12367:12767   */\n    tag_428:\n        /* \"#utility.yul\":12527:12530   */\n      0x00\n        /* \"#utility.yul\":12548:12632   */\n      tag_430\n        /* \"#utility.yul\":12630:12631   */\n      0x09\n        /* \"#utility.yul\":12625:12628   */\n      dup4\n        /* \"#utility.yul\":12548:12632   */\n      tag_374\n      jump\t// in\n    tag_430:\n        /* \"#utility.yul\":12541:12632   */\n      swap2\n      pop\n        /* \"#utility.yul\":12641:12734   */\n      tag_431\n        /* \"#utility.yul\":12730:12733   */\n      dup3\n        /* \"#utility.yul\":12641:12734   */\n      tag_432\n      jump\t// in\n    tag_431:\n        /* \"#utility.yul\":12759:12760   */\n      0x09\n        /* \"#utility.yul\":12754:12757   */\n      dup3\n        /* \"#utility.yul\":12750:12761   */\n      add\n        /* \"#utility.yul\":12743:12761   */\n      swap1\n      pop\n        /* \"#utility.yul\":12531:12767   */\n      swap2\n      swap1\n      pop\n      jump\t// out\n        /* \"#utility.yul\":12773:13139   */\n    tag_433:\n        /* \"#utility.yul\":12915:12918   */\n      0x00\n        /* \"#utility.yul\":12936:13003   */\n      tag_435\n        /* \"#utility.yul\":13000:13002   */\n      0x2a\n        /* \"#utility.yul\":12995:12998   */\n      dup4\n        /* \"#utility.yul\":12936:13003   */\n      tag_365\n      jump\t// in\n    tag_435:\n        /* \"#utility.yul\":12929:13003   */\n      swap2\n      pop\n        /* \"#utility.yul\":13012:13105   */\n      tag_436\n        /* \"#utility.yul\":13101:13104   */\n      dup3\n        /* \"#utility.yul\":13012:13105   */\n      tag_437\n      jump\t// in\n    tag_436:\n        /* \"#utility.yul\":13130:13132   */\n      0x40\n        /* \"#utility.yul\":13125:13128   */\n      dup3\n        /* \"#utility.yul\":13121:13133   */\n      add\n        /* \"#utility.yul\":13114:13133   */\n      swap1\n      pop\n        /* \"#utility.yul\":12919:13139   */\n      swap2\n      swap1\n      pop\n      jump\t// out\n        /* \"#utility.yul\":13145:13511   */\n    tag_438:\n        /* \"#utility.yul\":13287:13290   */\n      0x00\n        /* \"#utility.yul\":13308:13375   */\n      tag_440\n        /* \"#utility.yul\":13372:13374   */\n      0x1d\n        /* \"#utility.yul\":13367:13370   */\n      dup4\n        /* \"#utility.yul\":13308:13375   */\n      tag_365\n      jump\t// in\n    tag_440:\n        /* \"#utility.yul\":13301:13375   */\n      swap2\n      pop\n        /* \"#utility.yul\":13384:13477   */\n      tag_441\n        /* \"#utility.yul\":13473:13476   */\n      dup3\n        /* \"#utility.yul\":13384:13477   */\n      tag_442\n      jump\t// in\n    tag_441:\n        /* \"#utility.yul\":13502:13504   */\n      0x20\n        /* \"#utility.yul\":13497:13500   */\n      dup3\n        /* \"#utility.yul\":13493:13505   */\n      add\n        /* \"#utility.yul\":13486:13505   */\n      swap1\n      pop\n        /* \"#utility.yul\":13291:13511   */\n      swap2\n      swap1\n      pop\n      jump\t// out\n        /* \"#utility.yul\":13517:13635   */\n    tag_443:\n        /* \"#utility.yul\":13604:13628   */\n      tag_445\n        /* \"#utility.yul\":13622:13627   */\n      dup2\n        /* \"#utility.yul\":13604:13628   */\n      tag_446\n      jump\t// in\n    tag_445:\n        /* \"#utility.yul\":13599:13602   */\n      dup3\n        /* \"#utility.yul\":13592:13629   */\n      mstore\n        /* \"#utility.yul\":13582:13635   */\n      pop\n      pop\n      jump\t// out\n        /* \"#utility.yul\":13641:13897   */\n    tag_169:\n        /* \"#utility.yul\":13753:13756   */\n      0x00\n        /* \"#utility.yul\":13768:13843   */\n      tag_448\n        /* \"#utility.yul\":13839:13842   */\n      dup3\n        /* \"#utility.yul\":13830:13836   */\n      dup5\n        /* \"#utility.yul\":13768:13843   */\n      tag_354\n      jump\t// in\n    tag_448:\n        /* \"#utility.yul\":13868:13870   */\n      0x20\n        /* \"#utility.yul\":13863:13866   */\n      dup3\n        /* \"#utility.yul\":13859:13871   */\n      add\n        /* \"#utility.yul\":13852:13871   */\n      swap2\n      pop\n        /* \"#utility.yul\":13888:13891   */\n      dup2\n        /* \"#utility.yul\":13881:13891   */\n      swap1\n      pop\n        /* \"#utility.yul\":13757:13897   */\n      swap3\n      swap2\n      pop\n      pop\n      jump\t// out\n        /* \"#utility.yul\":13903:14178   */\n    tag_67:\n        /* \"#utility.yul\":14035:14038   */\n      0x00\n        /* \"#utility.yul\":14057:14152   */\n      tag_450\n        /* \"#utility.yul\":14148:14151   */\n      dup3\n        /* \"#utility.yul\":14139:14145   */\n      dup5\n        /* \"#utility.yul\":14057:14152   */\n      tag_370\n      jump\t// in\n    tag_450:\n        /* \"#utility.yul\":14050:14152   */\n      swap2\n      pop\n        /* \"#utility.yul\":14169:14172   */\n      dup2\n        /* \"#utility.yul\":14162:14172   */\n      swap1\n      pop\n        /* \"#utility.yul\":14039:14178   */\n      swap3\n      swap2\n      pop\n      pop\n      jump\t// out\n        /* \"#utility.yul\":14184:14453   */\n    tag_87:\n        /* \"#utility.yul\":14313:14316   */\n      0x00\n        /* \"#utility.yul\":14335:14427   */\n      tag_452\n        /* \"#utility.yul\":14423:14426   */\n      dup3\n        /* \"#utility.yul\":14414:14420   */\n      dup5\n        /* \"#utility.yul\":14335:14427   */\n      tag_376\n      jump\t// in\n    tag_452:\n        /* \"#utility.yul\":14328:14427   */\n      swap2\n      pop\n        /* \"#utility.yul\":14444:14447   */\n      dup2\n        /* \"#utility.yul\":14437:14447   */\n      swap1\n      pop\n        /* \"#utility.yul\":14317:14453   */\n      swap3\n      swap2\n      pop\n      pop\n      jump\t// out\n        /* \"#utility.yul\":14459:14840   */\n    tag_84:\n        /* \"#utility.yul\":14644:14647   */\n      0x00\n        /* \"#utility.yul\":14666:14814   */\n      tag_454\n        /* \"#utility.yul\":14810:14813   */\n      dup3\n        /* \"#utility.yul\":14666:14814   */\n      tag_388\n      jump\t// in\n    tag_454:\n        /* \"#utility.yul\":14659:14814   */\n      swap2\n      pop\n        /* \"#utility.yul\":14831:14834   */\n      dup2\n        /* \"#utility.yul\":14824:14834   */\n      swap1\n      pop\n        /* \"#utility.yul\":14648:14840   */\n      swap2\n      swap1\n      pop\n      jump\t// out\n        /* \"#utility.yul\":14846:15227   */\n    tag_141:\n        /* \"#utility.yul\":15031:15034   */\n      0x00\n        /* \"#utility.yul\":15053:15201   */\n      tag_456\n        /* \"#utility.yul\":15197:15200   */\n      dup3\n        /* \"#utility.yul\":15053:15201   */\n      tag_428\n      jump\t// in\n    tag_456:\n        /* \"#utility.yul\":15046:15201   */\n      swap2\n      pop\n        /* \"#utility.yul\":15218:15221   */\n      dup2\n        /* \"#utility.yul\":15211:15221   */\n      swap1\n      pop\n        /* \"#utility.yul\":15035:15227   */\n      swap2\n      swap1\n      pop\n      jump\t// out\n        /* \"#utility.yul\":15233:15546   */\n    tag_23:\n        /* \"#utility.yul\":15346:15350   */\n      0x00\n        /* \"#utility.yul\":15384:15386   */\n      0x20\n        /* \"#utility.yul\":15373:15382   */\n      dup3\n        /* \"#utility.yul\":15369:15387   */\n      add\n        /* \"#utility.yul\":15361:15387   */\n      swap1\n      pop\n        /* \"#utility.yul\":15433:15442   */\n      dup2\n        /* \"#utility.yul\":15427:15431   */\n      dup2\n        /* \"#utility.yul\":15423:15443   */\n      sub\n        /* \"#utility.yul\":15419:15420   */\n      0x00\n        /* \"#utility.yul\":15408:15417   */\n      dup4\n        /* \"#utility.yul\":15404:15421   */\n      add\n        /* \"#utility.yul\":15397:15444   */\n      mstore\n        /* \"#utility.yul\":15461:15539   */\n      tag_458\n        /* \"#utility.yul\":15534:15538   */\n      dup2\n        /* \"#utility.yul\":15525:15531   */\n      dup5\n        /* \"#utility.yul\":15461:15539   */\n      tag_360\n      jump\t// in\n    tag_458:\n        /* \"#utility.yul\":15453:15539   */\n      swap1\n      pop\n        /* \"#utility.yul\":15351:15546   */\n      swap3\n      swap2\n      pop\n      pop\n      jump\t// out\n        /* \"#utility.yul\":15552:16469   */\n    tag_32:\n        /* \"#utility.yul\":15809:15813   */\n      0x00\n        /* \"#utility.yul\":15847:15850   */\n      0x80\n        /* \"#utility.yul\":15836:15845   */\n      dup3\n        /* \"#utility.yul\":15832:15851   */\n      add\n        /* \"#utility.yul\":15824:15851   */\n      swap1\n      pop\n        /* \"#utility.yul\":15897:15906   */\n      dup2\n        /* \"#utility.yul\":15891:15895   */\n      dup2\n        /* \"#utility.yul\":15887:15907   */\n      sub\n        /* \"#utility.yul\":15883:15884   */\n      0x00\n        /* \"#utility.yul\":15872:15881   */\n      dup4\n        /* \"#utility.yul\":15868:15885   */\n      add\n        /* \"#utility.yul\":15861:15908   */\n      mstore\n        /* \"#utility.yul\":15925:16003   */\n      tag_460\n        /* \"#utility.yul\":15998:16002   */\n      dup2\n        /* \"#utility.yul\":15989:15995   */\n      dup8\n        /* \"#utility.yul\":15925:16003   */\n      tag_360\n      jump\t// in\n    tag_460:\n        /* \"#utility.yul\":15917:16003   */\n      swap1\n      pop\n        /* \"#utility.yul\":16050:16059   */\n      dup2\n        /* \"#utility.yul\":16044:16048   */\n      dup2\n        /* \"#utility.yul\":16040:16060   */\n      sub\n        /* \"#utility.yul\":16035:16037   */\n      0x20\n        /* \"#utility.yul\":16024:16033   */\n      dup4\n        /* \"#utility.yul\":16020:16038   */\n      add\n        /* \"#utility.yul\":16013:16061   */\n      mstore\n        /* \"#utility.yul\":16078:16156   */\n      tag_461\n        /* \"#utility.yul\":16151:16155   */\n      dup2\n        /* \"#utility.yul\":16142:16148   */\n      dup7\n        /* \"#utility.yul\":16078:16156   */\n      tag_360\n      jump\t// in\n    tag_461:\n        /* \"#utility.yul\":16070:16156   */\n      swap1\n      pop\n        /* \"#utility.yul\":16203:16212   */\n      dup2\n        /* \"#utility.yul\":16197:16201   */\n      dup2\n        /* \"#utility.yul\":16193:16213   */\n      sub\n        /* \"#utility.yul\":16188:16190   */\n      0x40\n        /* \"#utility.yul\":16177:16186   */\n      dup4\n        /* \"#utility.yul\":16173:16191   */\n      add\n        /* \"#utility.yul\":16166:16214   */\n      mstore\n        /* \"#utility.yul\":16231:16309   */\n      tag_462\n        /* \"#utility.yul\":16304:16308   */\n      dup2\n        /* \"#utility.yul\":16295:16301   */\n      dup6\n        /* \"#utility.yul\":16231:16309   */\n      tag_360\n      jump\t// in\n    tag_462:\n        /* \"#utility.yul\":16223:16309   */\n      swap1\n      pop\n        /* \"#utility.yul\":16356:16365   */\n      dup2\n        /* \"#utility.yul\":16350:16354   */\n      dup2\n        /* \"#utility.yul\":16346:16366   */\n      sub\n        /* \"#utility.yul\":16341:16343   */\n      0x60\n        /* \"#utility.yul\":16330:16339   */\n      dup4\n        /* \"#utility.yul\":16326:16344   */\n      add\n        /* \"#utility.yul\":16319:16367   */\n      mstore\n        /* \"#utility.yul\":16384:16462   */\n      tag_463\n        /* \"#utility.yul\":16457:16461   */\n      dup2\n        /* \"#utility.yul\":16448:16454   */\n      dup5\n        /* \"#utility.yul\":16384:16462   */\n      tag_360\n      jump\t// in\n    tag_463:\n        /* \"#utility.yul\":16376:16462   */\n      swap1\n      pop\n        /* \"#utility.yul\":15814:16469   */\n      swap6\n      swap5\n      pop\n      pop\n      pop\n      pop\n      pop\n      jump\t// out\n        /* \"#utility.yul\":16475:17594   */\n    tag_55:\n        /* \"#utility.yul\":16780:16784   */\n      0x00\n        /* \"#utility.yul\":16818:16821   */\n      0xa0\n        /* \"#utility.yul\":16807:16816   */\n      dup3\n        /* \"#utility.yul\":16803:16822   */\n      add\n        /* \"#utility.yul\":16795:16822   */\n      swap1\n      pop\n        /* \"#utility.yul\":16868:16877   */\n      dup2\n        /* \"#utility.yul\":16862:16866   */\n      dup2\n        /* \"#utility.yul\":16858:16878   */\n      sub\n        /* \"#utility.yul\":16854:16855   */\n      0x00\n        /* \"#utility.yul\":16843:16852   */\n      dup4\n        /* \"#utility.yul\":16839:16856   */\n      add\n        /* \"#utility.yul\":16832:16879   */\n      mstore\n        /* \"#utility.yul\":16896:16974   */\n      tag_465\n        /* \"#utility.yul\":16969:16973   */\n      dup2\n        /* \"#utility.yul\":16960:16966   */\n      dup9\n        /* \"#utility.yul\":16896:16974   */\n      tag_360\n      jump\t// in\n    tag_465:\n        /* \"#utility.yul\":16888:16974   */\n      swap1\n      pop\n        /* \"#utility.yul\":17021:17030   */\n      dup2\n        /* \"#utility.yul\":17015:17019   */\n      dup2\n        /* \"#utility.yul\":17011:17031   */\n      sub\n        /* \"#utility.yul\":17006:17008   */\n      0x20\n        /* \"#utility.yul\":16995:17004   */\n      dup4\n        /* \"#utility.yul\":16991:17009   */\n      add\n        /* \"#utility.yul\":16984:17032   */\n      mstore\n        /* \"#utility.yul\":17049:17127   */\n      tag_466\n        /* \"#utility.yul\":17122:17126   */\n      dup2\n        /* \"#utility.yul\":17113:17119   */\n      dup8\n        /* \"#utility.yul\":17049:17127   */\n      tag_360\n      jump\t// in\n    tag_466:\n        /* \"#utility.yul\":17041:17127   */\n      swap1\n      pop\n        /* \"#utility.yul\":17174:17183   */\n      dup2\n        /* \"#utility.yul\":17168:17172   */\n      dup2\n        /* \"#utility.yul\":17164:17184   */\n      sub\n        /* \"#utility.yul\":17159:17161   */\n      0x40\n        /* \"#utility.yul\":17148:17157   */\n      dup4\n        /* \"#utility.yul\":17144:17162   */\n      add\n        /* \"#utility.yul\":17137:17185   */\n      mstore\n        /* \"#utility.yul\":17202:17280   */\n      tag_467\n        /* \"#utility.yul\":17275:17279   */\n      dup2\n        /* \"#utility.yul\":17266:17272   */\n      dup7\n        /* \"#utility.yul\":17202:17280   */\n      tag_360\n      jump\t// in\n    tag_467:\n        /* \"#utility.yul\":17194:17280   */\n      swap1\n      pop\n        /* \"#utility.yul\":17327:17336   */\n      dup2\n        /* \"#utility.yul\":17321:17325   */\n      dup2\n        /* \"#utility.yul\":17317:17337   */\n      sub\n        /* \"#utility.yul\":17312:17314   */\n      0x60\n        /* \"#utility.yul\":17301:17310   */\n      dup4\n        /* \"#utility.yul\":17297:17315   */\n      add\n        /* \"#utility.yul\":17290:17338   */\n      mstore\n        /* \"#utility.yul\":17355:17433   */\n      tag_468\n        /* \"#utility.yul\":17428:17432   */\n      dup2\n        /* \"#utility.yul\":17419:17425   */\n      dup6\n        /* \"#utility.yul\":17355:17433   */\n      tag_360\n      jump\t// in\n    tag_468:\n        /* \"#utility.yul\":17347:17433   */\n      swap1\n      pop\n        /* \"#utility.yul\":17481:17490   */\n      dup2\n        /* \"#utility.yul\":17475:17479   */\n      dup2\n        /* \"#utility.yul\":17471:17491   */\n      sub\n        /* \"#utility.yul\":17465:17468   */\n      0x80\n        /* \"#utility.yul\":17454:17463   */\n      dup4\n        /* \"#utility.yul\":17450:17469   */\n      add\n        /* \"#utility.yul\":17443:17492   */\n      mstore\n        /* \"#utility.yul\":17509:17587   */\n      tag_469\n        /* \"#utility.yul\":17582:17586   */\n      dup2\n        /* \"#utility.yul\":17573:17579   */\n      dup5\n        /* \"#utility.yul\":17509:17587   */\n      tag_360\n      jump\t// in\n    tag_469:\n        /* \"#utility.yul\":17501:17587   */\n      swap1\n      pop\n        /* \"#utility.yul\":16785:17594   */\n      swap7\n      swap6\n      pop\n      pop\n      pop\n      pop\n      pop\n      pop\n      jump\t// out\n        /* \"#utility.yul\":17600:18019   */\n    tag_152:\n        /* \"#utility.yul\":17766:17770   */\n      0x00\n        /* \"#utility.yul\":17804:17806   */\n      0x20\n        /* \"#utility.yul\":17793:17802   */\n      dup3\n        /* \"#utility.yul\":17789:17807   */\n      add\n        /* \"#utility.yul\":17781:17807   */\n      swap1\n      pop\n        /* \"#utility.yul\":17853:17862   */\n      dup2\n        /* \"#utility.yul\":17847:17851   */\n      dup2\n        /* \"#utility.yul\":17843:17863   */\n      sub\n        /* \"#utility.yul\":17839:17840   */\n      0x00\n        /* \"#utility.yul\":17828:17837   */\n      dup4\n        /* \"#utility.yul\":17824:17841   */\n      add\n        /* \"#utility.yul\":17817:17864   */\n      mstore\n        /* \"#utility.yul\":17881:18012   */\n      tag_471\n        /* \"#utility.yul\":18007:18011   */\n      dup2\n        /* \"#utility.yul\":17881:18012   */\n      tag_393\n      jump\t// in\n    tag_471:\n        /* \"#utility.yul\":17873:18012   */\n      swap1\n      pop\n        /* \"#utility.yul\":17771:18019   */\n      swap2\n      swap1\n      pop\n      jump\t// out\n        /* \"#utility.yul\":18025:18444   */\n    tag_90:\n        /* \"#utility.yul\":18191:18195   */\n      0x00\n        /* \"#utility.yul\":18229:18231   */\n      0x20\n        /* \"#utility.yul\":18218:18227   */\n      dup3\n        /* \"#utility.yul\":18214:18232   */\n      add\n        /* \"#utility.yul\":18206:18232   */\n      swap1\n      pop\n        /* \"#utility.yul\":18278:18287   */\n      dup2\n        /* \"#utility.yul\":18272:18276   */\n      dup2\n        /* \"#utility.yul\":18268:18288   */\n      sub\n        /* \"#utility.yul\":18264:18265   */\n      0x00\n        /* \"#utility.yul\":18253:18262   */\n      dup4\n        /* \"#utility.yul\":18249:18266   */\n      add\n        /* \"#utility.yul\":18242:18289   */\n      mstore\n        /* \"#utility.yul\":18306:18437   */\n      tag_473\n        /* \"#utility.yul\":18432:18436   */\n      dup2\n        /* \"#utility.yul\":18306:18437   */\n      tag_398\n      jump\t// in\n    tag_473:\n        /* \"#utility.yul\":18298:18437   */\n      swap1\n      pop\n        /* \"#utility.yul\":18196:18444   */\n      swap2\n      swap1\n      pop\n      jump\t// out\n        /* \"#utility.yul\":18450:18869   */\n    tag_166:\n        /* \"#utility.yul\":18616:18620   */\n      0x00\n        /* \"#utility.yul\":18654:18656   */\n      0x20\n        /* \"#utility.yul\":18643:18652   */\n      dup3\n        /* \"#utility.yul\":18639:18657   */\n      add\n        /* \"#utility.yul\":18631:18657   */\n      swap1\n      pop\n        /* \"#utility.yul\":18703:18712   */\n      dup2\n        /* \"#utility.yul\":18697:18701   */\n      dup2\n        /* \"#utility.yul\":18693:18713   */\n      sub\n        /* \"#utility.yul\":18689:18690   */\n      0x00\n        /* \"#utility.yul\":18678:18687   */\n      dup4\n        /* \"#utility.yul\":18674:18691   */\n      add\n        /* \"#utility.yul\":18667:18714   */\n      mstore\n        /* \"#utility.yul\":18731:18862   */\n      tag_475\n        /* \"#utility.yul\":18857:18861   */\n      dup2\n        /* \"#utility.yul\":18731:18862   */\n      tag_403\n      jump\t// in\n    tag_475:\n        /* \"#utility.yul\":18723:18862   */\n      swap1\n      pop\n        /* \"#utility.yul\":18621:18869   */\n      swap2\n      swap1\n      pop\n      jump\t// out\n        /* \"#utility.yul\":18875:19294   */\n    tag_146:\n        /* \"#utility.yul\":19041:19045   */\n      0x00\n        /* \"#utility.yul\":19079:19081   */\n      0x20\n        /* \"#utility.yul\":19068:19077   */\n      dup3\n        /* \"#utility.yul\":19064:19082   */\n      add\n        /* \"#utility.yul\":19056:19082   */\n      swap1\n      pop\n        /* \"#utility.yul\":19128:19137   */\n      dup2\n        /* \"#utility.yul\":19122:19126   */\n      dup2\n        /* \"#utility.yul\":19118:19138   */\n      sub\n        /* \"#utility.yul\":19114:19115   */\n      0x00\n        /* \"#utility.yul\":19103:19112   */\n      dup4\n        /* \"#utility.yul\":19099:19116   */\n      add\n        /* \"#utility.yul\":19092:19139   */\n      mstore\n        /* \"#utility.yul\":19156:19287   */\n      tag_477\n        /* \"#utility.yul\":19282:19286   */\n      dup2\n        /* \"#utility.yul\":19156:19287   */\n      tag_408\n      jump\t// in\n    tag_477:\n        /* \"#utility.yul\":19148:19287   */\n      swap1\n      pop\n        /* \"#utility.yul\":19046:19294   */\n      swap2\n      swap1\n      pop\n      jump\t// out\n        /* \"#utility.yul\":19300:19719   */\n    tag_121:\n        /* \"#utility.yul\":19466:19470   */\n      0x00\n        /* \"#utility.yul\":19504:19506   */\n      0x20\n        /* \"#utility.yul\":19493:19502   */\n      dup3\n        /* \"#utility.yul\":19489:19507   */\n      add\n        /* \"#utility.yul\":19481:19507   */\n      swap1\n      pop\n        /* \"#utility.yul\":19553:19562   */\n      dup2\n        /* \"#utility.yul\":19547:19551   */\n      dup2\n        /* \"#utility.yul\":19543:19563   */\n      sub\n        /* \"#utility.yul\":19539:19540   */\n      0x00\n        /* \"#utility.yul\":19528:19537   */\n      dup4\n        /* \"#utility.yul\":19524:19541   */\n      add\n        /* \"#utility.yul\":19517:19564   */\n      mstore\n        /* \"#utility.yul\":19581:19712   */\n      tag_479\n        /* \"#utility.yul\":19707:19711   */\n      dup2\n        /* \"#utility.yul\":19581:19712   */\n      tag_413\n      jump\t// in\n    tag_479:\n        /* \"#utility.yul\":19573:19712   */\n      swap1\n      pop\n        /* \"#utility.yul\":19471:19719   */\n      swap2\n      swap1\n      pop\n      jump\t// out\n        /* \"#utility.yul\":19725:20144   */\n    tag_245:\n        /* \"#utility.yul\":19891:19895   */\n      0x00\n        /* \"#utility.yul\":19929:19931   */\n      0x20\n        /* \"#utility.yul\":19918:19927   */\n      dup3\n        /* \"#utility.yul\":19914:19932   */\n      add\n        /* \"#utility.yul\":19906:19932   */\n      swap1\n      pop\n        /* \"#utility.yul\":19978:19987   */\n      dup2\n        /* \"#utility.yul\":19972:19976   */\n      dup2\n        /* \"#utility.yul\":19968:19988   */\n      sub\n        /* \"#utility.yul\":19964:19965   */\n      0x00\n        /* \"#utility.yul\":19953:19962   */\n      dup4\n        /* \"#utility.yul\":19949:19966   */\n      add\n        /* \"#utility.yul\":19942:19989   */\n      mstore\n        /* \"#utility.yul\":20006:20137   */\n      tag_481\n        /* \"#utility.yul\":20132:20136   */\n      dup2\n        /* \"#utility.yul\":20006:20137   */\n      tag_418\n      jump\t// in\n    tag_481:\n        /* \"#utility.yul\":19998:20137   */\n      swap1\n      pop\n        /* \"#utility.yul\":19896:20144   */\n      swap2\n      swap1\n      pop\n      jump\t// out\n        /* \"#utility.yul\":20150:20569   */\n    tag_139:\n        /* \"#utility.yul\":20316:20320   */\n      0x00\n        /* \"#utility.yul\":20354:20356   */\n      0x20\n        /* \"#utility.yul\":20343:20352   */\n      dup3\n        /* \"#utility.yul\":20339:20357   */\n      add\n        /* \"#utility.yul\":20331:20357   */\n      swap1\n      pop\n        /* \"#utility.yul\":20403:20412   */\n      dup2\n        /* \"#utility.yul\":20397:20401   */\n      dup2\n        /* \"#utility.yul\":20393:20413   */\n      sub\n        /* \"#utility.yul\":20389:20390   */\n      0x00\n        /* \"#utility.yul\":20378:20387   */\n      dup4\n        /* \"#utility.yul\":20374:20391   */\n      add\n        /* \"#utility.yul\":20367:20414   */\n      mstore\n        /* \"#utility.yul\":20431:20562   */\n      tag_483\n        /* \"#utility.yul\":20557:20561   */\n      dup2\n        /* \"#utility.yul\":20431:20562   */\n      tag_423\n      jump\t// in\n    tag_483:\n        /* \"#utility.yul\":20423:20562   */\n      swap1\n      pop\n        /* \"#utility.yul\":20321:20569   */\n      swap2\n      swap1\n      pop\n      jump\t// out\n        /* \"#utility.yul\":20575:20994   */\n    tag_174:\n        /* \"#utility.yul\":20741:20745   */\n      0x00\n        /* \"#utility.yul\":20779:20781   */\n      0x20\n        /* \"#utility.yul\":20768:20777   */\n      dup3\n        /* \"#utility.yul\":20764:20782   */\n      add\n        /* \"#utility.yul\":20756:20782   */\n      swap1\n      pop\n        /* \"#utility.yul\":20828:20837   */\n      dup2\n        /* \"#utility.yul\":20822:20826   */\n      dup2\n        /* \"#utility.yul\":20818:20838   */\n      sub\n        /* \"#utility.yul\":20814:20815   */\n      0x00\n        /* \"#utility.yul\":20803:20812   */\n      dup4\n        /* \"#utility.yul\":20799:20816   */\n      add\n        /* \"#utility.yul\":20792:20839   */\n      mstore\n        /* \"#utility.yul\":20856:20987   */\n      tag_485\n        /* \"#utility.yul\":20982:20986   */\n      dup2\n        /* \"#utility.yul\":20856:20987   */\n      tag_433\n      jump\t// in\n    tag_485:\n        /* \"#utility.yul\":20848:20987   */\n      swap1\n      pop\n        /* \"#utility.yul\":20746:20994   */\n      swap2\n      swap1\n      pop\n      jump\t// out\n        /* \"#utility.yul\":21000:21419   */\n    tag_251:\n        /* \"#utility.yul\":21166:21170   */\n      0x00\n        /* \"#utility.yul\":21204:21206   */\n      0x20\n        /* \"#utility.yul\":21193:21202   */\n      dup3\n        /* \"#utility.yul\":21189:21207   */\n      add\n        /* \"#utility.yul\":21181:21207   */\n      swap1\n      pop\n        /* \"#utility.yul\":21253:21262   */\n      dup2\n        /* \"#utility.yul\":21247:21251   */\n      dup2\n        /* \"#utility.yul\":21243:21263   */\n      sub\n        /* \"#utility.yul\":21239:21240   */\n      0x00\n        /* \"#utility.yul\":21228:21237   */\n      dup4\n        /* \"#utility.yul\":21224:21241   */\n      add\n        /* \"#utility.yul\":21217:21264   */\n      mstore\n        /* \"#utility.yul\":21281:21412   */\n      tag_487\n        /* \"#utility.yul\":21407:21411   */\n      dup2\n        /* \"#utility.yul\":21281:21412   */\n      tag_438\n      jump\t// in\n    tag_487:\n        /* \"#utility.yul\":21273:21412   */\n      swap1\n      pop\n        /* \"#utility.yul\":21171:21419   */\n      swap2\n      swap1\n      pop\n      jump\t// out\n        /* \"#utility.yul\":21425:21647   */\n    tag_50:\n        /* \"#utility.yul\":21518:21522   */\n      0x00\n        /* \"#utility.yul\":21556:21558   */\n      0x20\n        /* \"#utility.yul\":21545:21554   */\n      dup3\n        /* \"#utility.yul\":21541:21559   */\n      add\n        /* \"#utility.yul\":21533:21559   */\n      swap1\n      pop\n        /* \"#utility.yul\":21569:21640   */\n      tag_489\n        /* \"#utility.yul\":21637:21638   */\n      0x00\n        /* \"#utility.yul\":21626:21635   */\n      dup4\n        /* \"#utility.yul\":21622:21639   */\n      add\n        /* \"#utility.yul\":21613:21619   */\n      dup5\n        /* \"#utility.yul\":21569:21640   */\n      tag_443\n      jump\t// in\n    tag_489:\n        /* \"#utility.yul\":21523:21647   */\n      swap3\n      swap2\n      pop\n      pop\n      jump\t// out\n        /* \"#utility.yul\":21653:22277   */\n    tag_46:\n        /* \"#utility.yul\":21842:21846   */\n      0x00\n        /* \"#utility.yul\":21880:21882   */\n      0x60\n        /* \"#utility.yul\":21869:21878   */\n      dup3\n        /* \"#utility.yul\":21865:21883   */\n      add\n        /* \"#utility.yul\":21857:21883   */\n      swap1\n      pop\n        /* \"#utility.yul\":21893:21964   */\n      tag_491\n        /* \"#utility.yul\":21961:21962   */\n      0x00\n        /* \"#utility.yul\":21950:21959   */\n      dup4\n        /* \"#utility.yul\":21946:21963   */\n      add\n        /* \"#utility.yul\":21937:21943   */\n      dup7\n        /* \"#utility.yul\":21893:21964   */\n      tag_443\n      jump\t// in\n    tag_491:\n        /* \"#utility.yul\":22011:22020   */\n      dup2\n        /* \"#utility.yul\":22005:22009   */\n      dup2\n        /* \"#utility.yul\":22001:22021   */\n      sub\n        /* \"#utility.yul\":21996:21998   */\n      0x20\n        /* \"#utility.yul\":21985:21994   */\n      dup4\n        /* \"#utility.yul\":21981:21999   */\n      add\n        /* \"#utility.yul\":21974:22022   */\n      mstore\n        /* \"#utility.yul\":22039:22117   */\n      tag_492\n        /* \"#utility.yul\":22112:22116   */\n      dup2\n        /* \"#utility.yul\":22103:22109   */\n      dup6\n        /* \"#utility.yul\":22039:22117   */\n      tag_360\n      jump\t// in\n    tag_492:\n        /* \"#utility.yul\":22031:22117   */\n      swap1\n      pop\n        /* \"#utility.yul\":22164:22173   */\n      dup2\n        /* \"#utility.yul\":22158:22162   */\n      dup2\n        /* \"#utility.yul\":22154:22174   */\n      sub\n        /* \"#utility.yul\":22149:22151   */\n      0x40\n        /* \"#utility.yul\":22138:22147   */\n      dup4\n        /* \"#utility.yul\":22134:22152   */\n      add\n        /* \"#utility.yul\":22127:22175   */\n      mstore\n        /* \"#utility.yul\":22192:22270   */\n      tag_493\n        /* \"#utility.yul\":22265:22269   */\n      dup2\n        /* \"#utility.yul\":22256:22262   */\n      dup5\n        /* \"#utility.yul\":22192:22270   */\n      tag_360\n      jump\t// in\n    tag_493:\n        /* \"#utility.yul\":22184:22270   */\n      swap1\n      pop\n        /* \"#utility.yul\":21847:22277   */\n      swap5\n      swap4\n      pop\n      pop\n      pop\n      pop\n      jump\t// out\n        /* \"#utility.yul\":22283:22412   */\n    tag_268:\n        /* \"#utility.yul\":22317:22323   */\n      0x00\n        /* \"#utility.yul\":22344:22364   */\n      tag_495\n      tag_496\n      jump\t// in\n    tag_495:\n        /* \"#utility.yul\":22334:22364   */\n      swap1\n      pop\n        /* \"#utility.yul\":22373:22406   */\n      tag_497\n        /* \"#utility.yul\":22401:22405   */\n      dup3\n        /* \"#utility.yul\":22393:22399   */\n      dup3\n        /* \"#utility.yul\":22373:22406   */\n      tag_498\n      jump\t// in\n    tag_497:\n        /* \"#utility.yul\":22324:22412   */\n      swap2\n      swap1\n      pop\n      jump\t// out\n        /* \"#utility.yul\":22418:22493   */\n    tag_496:\n        /* \"#utility.yul\":22451:22457   */\n      0x00\n        /* \"#utility.yul\":22484:22486   */\n      0x40\n        /* \"#utility.yul\":22478:22487   */\n      mload\n        /* \"#utility.yul\":22468:22487   */\n      swap1\n      pop\n        /* \"#utility.yul\":22458:22493   */\n      swap1\n      jump\t// out\n        /* \"#utility.yul\":22499:22807   */\n    tag_267:\n        /* \"#utility.yul\":22561:22565   */\n      0x00\n        /* \"#utility.yul\":22651:22669   */\n      0xffffffffffffffff\n        /* \"#utility.yul\":22643:22649   */\n      dup3\n        /* \"#utility.yul\":22640:22670   */\n      gt\n        /* \"#utility.yul\":22637:22639   */\n      iszero\n      tag_501\n      jumpi\n        /* \"#utility.yul\":22673:22691   */\n      tag_502\n      tag_503\n      jump\t// in\n    tag_502:\n        /* \"#utility.yul\":22637:22639   */\n    tag_501:\n        /* \"#utility.yul\":22711:22740   */\n      tag_504\n        /* \"#utility.yul\":22733:22739   */\n      dup3\n        /* \"#utility.yul\":22711:22740   */\n      tag_369\n      jump\t// in\n    tag_504:\n        /* \"#utility.yul\":22703:22740   */\n      swap1\n      pop\n        /* \"#utility.yul\":22795:22799   */\n      0x20\n        /* \"#utility.yul\":22789:22793   */\n      dup2\n        /* \"#utility.yul\":22785:22800   */\n      add\n        /* \"#utility.yul\":22777:22800   */\n      swap1\n      pop\n        /* \"#utility.yul\":22566:22807   */\n      swap2\n      swap1\n      pop\n      jump\t// out\n        /* \"#utility.yul\":22813:22954   */\n    tag_384:\n        /* \"#utility.yul\":22862:22866   */\n      0x00\n        /* \"#utility.yul\":22885:22888   */\n      dup2\n        /* \"#utility.yul\":22877:22888   */\n      swap1\n      pop\n        /* \"#utility.yul\":22908:22911   */\n      dup2\n        /* \"#utility.yul\":22905:22906   */\n      0x00\n        /* \"#utility.yul\":22898:22912   */\n      mstore\n        /* \"#utility.yul\":22942:22946   */\n      0x20\n        /* \"#utility.yul\":22939:22940   */\n      0x00\n        /* \"#utility.yul\":22929:22947   */\n      keccak256\n        /* \"#utility.yul\":22921:22947   */\n      swap1\n      pop\n        /* \"#utility.yul\":22867:22954   */\n      swap2\n      swap1\n      pop\n      jump\t// out\n        /* \"#utility.yul\":22960:23059   */\n    tag_363:\n        /* \"#utility.yul\":23012:23018   */\n      0x00\n        /* \"#utility.yul\":23046:23051   */\n      dup2\n        /* \"#utility.yul\":23040:23052   */\n      mload\n        /* \"#utility.yul\":23030:23052   */\n      swap1\n      pop\n        /* \"#utility.yul\":23019:23059   */\n      swap2\n      swap1\n      pop\n      jump\t// out\n        /* \"#utility.yul\":23065:23234   */\n    tag_365:\n        /* \"#utility.yul\":23149:23160   */\n      0x00\n        /* \"#utility.yul\":23183:23189   */\n      dup3\n        /* \"#utility.yul\":23178:23181   */\n      dup3\n        /* \"#utility.yul\":23171:23190   */\n      mstore\n        /* \"#utility.yul\":23223:23227   */\n      0x20\n        /* \"#utility.yul\":23218:23221   */\n      dup3\n        /* \"#utility.yul\":23214:23228   */\n      add\n        /* \"#utility.yul\":23199:23228   */\n      swap1\n      pop\n        /* \"#utility.yul\":23161:23234   */\n      swap3\n      swap2\n      pop\n      pop\n      jump\t// out\n        /* \"#utility.yul\":23240:23388   */\n    tag_374:\n        /* \"#utility.yul\":23342:23353   */\n      0x00\n        /* \"#utility.yul\":23379:23382   */\n      dup2\n        /* \"#utility.yul\":23364:23382   */\n      swap1\n      pop\n        /* \"#utility.yul\":23354:23388   */\n      swap3\n      swap2\n      pop\n      pop\n      jump\t// out\n        /* \"#utility.yul\":23394:23471   */\n    tag_358:\n        /* \"#utility.yul\":23431:23438   */\n      0x00\n        /* \"#utility.yul\":23460:23465   */\n      dup2\n        /* \"#utility.yul\":23449:23465   */\n      swap1\n      pop\n        /* \"#utility.yul\":23439:23471   */\n      swap2\n      swap1\n      pop\n      jump\t// out\n        /* \"#utility.yul\":23477:23554   */\n    tag_446:\n        /* \"#utility.yul\":23514:23521   */\n      0x00\n        /* \"#utility.yul\":23543:23548   */\n      dup2\n        /* \"#utility.yul\":23532:23548   */\n      swap1\n      pop\n        /* \"#utility.yul\":23522:23554   */\n      swap2\n      swap1\n      pop\n      jump\t// out\n        /* \"#utility.yul\":23560:23714   */\n    tag_273:\n        /* \"#utility.yul\":23644:23650   */\n      dup3\n        /* \"#utility.yul\":23639:23642   */\n      dup2\n        /* \"#utility.yul\":23634:23637   */\n      dup4\n        /* \"#utility.yul\":23621:23651   */\n      calldatacopy\n        /* \"#utility.yul\":23706:23707   */\n      0x00\n        /* \"#utility.yul\":23697:23703   */\n      dup4\n        /* \"#utility.yul\":23692:23695   */\n      dup4\n        /* \"#utility.yul\":23688:23704   */\n      add\n        /* \"#utility.yul\":23681:23708   */\n      mstore\n        /* \"#utility.yul\":23611:23714   */\n      pop\n      pop\n      pop\n      jump\t// out\n        /* \"#utility.yul\":23720:24027   */\n    tag_367:\n        /* \"#utility.yul\":23788:23789   */\n      0x00\n        /* \"#utility.yul\":23798:23911   */\n    tag_513:\n        /* \"#utility.yul\":23812:23818   */\n      dup4\n        /* \"#utility.yul\":23809:23810   */\n      dup2\n        /* \"#utility.yul\":23806:23819   */\n      lt\n        /* \"#utility.yul\":23798:23911   */\n      iszero\n      tag_515\n      jumpi\n        /* \"#utility.yul\":23897:23898   */\n      dup1\n        /* \"#utility.yul\":23892:23895   */\n      dup3\n        /* \"#utility.yul\":23888:23899   */\n      add\n        /* \"#utility.yul\":23882:23900   */\n      mload\n        /* \"#utility.yul\":23878:23879   */\n      dup2\n        /* \"#utility.yul\":23873:23876   */\n      dup5\n        /* \"#utility.yul\":23869:23880   */\n      add\n        /* \"#utility.yul\":23862:23901   */\n      mstore\n        /* \"#utility.yul\":23834:23836   */\n      0x20\n        /* \"#utility.yul\":23831:23832   */\n      dup2\n        /* \"#utility.yul\":23827:23837   */\n      add\n        /* \"#utility.yul\":23822:23837   */\n      swap1\n      pop\n        /* \"#utility.yul\":23798:23911   */\n      jump(tag_513)\n    tag_515:\n        /* \"#utility.yul\":23929:23935   */\n      dup4\n        /* \"#utility.yul\":23926:23927   */\n      dup2\n        /* \"#utility.yul\":23923:23936   */\n      gt\n        /* \"#utility.yul\":23920:23922   */\n      iszero\n      tag_516\n      jumpi\n        /* \"#utility.yul\":24009:24010   */\n      0x00\n        /* \"#utility.yul\":24000:24006   */\n      dup5\n        /* \"#utility.yul\":23995:23998   */\n      dup5\n        /* \"#utility.yul\":23991:24007   */\n      add\n        /* \"#utility.yul\":23984:24011   */\n      mstore\n        /* \"#utility.yul\":23920:23922   */\n    tag_516:\n        /* \"#utility.yul\":23769:24027   */\n      pop\n      pop\n      pop\n      pop\n      jump\t// out\n        /* \"#utility.yul\":24033:24353   */\n    tag_72:\n        /* \"#utility.yul\":24077:24083   */\n      0x00\n        /* \"#utility.yul\":24114:24115   */\n      0x02\n        /* \"#utility.yul\":24108:24112   */\n      dup3\n        /* \"#utility.yul\":24104:24116   */\n      div\n        /* \"#utility.yul\":24094:24116   */\n      swap1\n      pop\n        /* \"#utility.yul\":24161:24162   */\n      0x01\n        /* \"#utility.yul\":24155:24159   */\n      dup3\n        /* \"#utility.yul\":24151:24163   */\n      and\n        /* \"#utility.yul\":24182:24200   */\n      dup1\n        /* \"#utility.yul\":24172:24174   */\n      tag_518\n      jumpi\n        /* \"#utility.yul\":24238:24242   */\n      0x7f\n        /* \"#utility.yul\":24230:24236   */\n      dup3\n        /* \"#utility.yul\":24226:24243   */\n      and\n        /* \"#utility.yul\":24216:24243   */\n      swap2\n      pop\n        /* \"#utility.yul\":24172:24174   */\n    tag_518:\n        /* \"#utility.yul\":24300:24302   */\n      0x20\n        /* \"#utility.yul\":24292:24298   */\n      dup3\n        /* \"#utility.yul\":24289:24303   */\n      lt\n        /* \"#utility.yul\":24269:24287   */\n      dup2\n        /* \"#utility.yul\":24266:24304   */\n      eq\n        /* \"#utility.yul\":24263:24265   */\n      iszero\n      tag_519\n      jumpi\n        /* \"#utility.yul\":24319:24337   */\n      tag_520\n      tag_521\n      jump\t// in\n    tag_520:\n        /* \"#utility.yul\":24263:24265   */\n    tag_519:\n        /* \"#utility.yul\":24084:24353   */\n      pop\n      swap2\n      swap1\n      pop\n      jump\t// out\n        /* \"#utility.yul\":24359:24640   */\n    tag_498:\n        /* \"#utility.yul\":24442:24469   */\n      tag_523\n        /* \"#utility.yul\":24464:24468   */\n      dup3\n        /* \"#utility.yul\":24442:24469   */\n      tag_369\n      jump\t// in\n    tag_523:\n        /* \"#utility.yul\":24434:24440   */\n      dup2\n        /* \"#utility.yul\":24430:24470   */\n      add\n        /* \"#utility.yul\":24572:24578   */\n      dup2\n        /* \"#utility.yul\":24560:24570   */\n      dup2\n        /* \"#utility.yul\":24557:24579   */\n      lt\n        /* \"#utility.yul\":24536:24554   */\n      0xffffffffffffffff\n        /* \"#utility.yul\":24524:24534   */\n      dup3\n        /* \"#utility.yul\":24521:24555   */\n      gt\n        /* \"#utility.yul\":24518:24580   */\n      or\n        /* \"#utility.yul\":24515:24517   */\n      iszero\n      tag_524\n      jumpi\n        /* \"#utility.yul\":24583:24601   */\n      tag_525\n      tag_503\n      jump\t// in\n    tag_525:\n        /* \"#utility.yul\":24515:24517   */\n    tag_524:\n        /* \"#utility.yul\":24623:24633   */\n      dup1\n        /* \"#utility.yul\":24619:24621   */\n      0x40\n        /* \"#utility.yul\":24612:24634   */\n      mstore\n        /* \"#utility.yul\":24402:24640   */\n      pop\n      pop\n      pop\n      jump\t// out\n        /* \"#utility.yul\":24646:24879   */\n    tag_123:\n        /* \"#utility.yul\":24685:24688   */\n      0x00\n        /* \"#utility.yul\":24708:24732   */\n      tag_527\n        /* \"#utility.yul\":24726:24731   */\n      dup3\n        /* \"#utility.yul\":24708:24732   */\n      tag_446\n      jump\t// in\n    tag_527:\n        /* \"#utility.yul\":24699:24732   */\n      swap2\n      pop\n        /* \"#utility.yul\":24754:24820   */\n      0xffffffffffffffffffffffffffffffffffffffffffffffffffffffffffffffff\n        /* \"#utility.yul\":24747:24752   */\n      dup3\n        /* \"#utility.yul\":24744:24821   */\n      eq\n        /* \"#utility.yul\":24741:24743   */\n      iszero\n      tag_528\n      jumpi\n        /* \"#utility.yul\":24824:24842   */\n      tag_529\n      tag_530\n      jump\t// in\n    tag_529:\n        /* \"#utility.yul\":24741:24743   */\n    tag_528:\n        /* \"#utility.yul\":24871:24872   */\n      0x01\n        /* \"#utility.yul\":24864:24869   */\n      dup3\n        /* \"#utility.yul\":24860:24873   */\n      add\n        /* \"#utility.yul\":24853:24873   */\n      swap1\n      pop\n        /* \"#utility.yul\":24689:24879   */\n      swap2\n      swap1\n      pop\n      jump\t// out\n        /* \"#utility.yul\":24885:24964   */\n    tag_359:\n        /* \"#utility.yul\":24924:24931   */\n      0x00\n        /* \"#utility.yul\":24953:24958   */\n      dup2\n        /* \"#utility.yul\":24942:24958   */\n      swap1\n      pop\n        /* \"#utility.yul\":24932:24964   */\n      swap2\n      swap1\n      pop\n      jump\t// out\n        /* \"#utility.yul\":24970:25150   */\n    tag_530:\n        /* \"#utility.yul\":25018:25095   */\n      0x4e487b7100000000000000000000000000000000000000000000000000000000\n        /* \"#utility.yul\":25015:25016   */\n      0x00\n        /* \"#utility.yul\":25008:25096   */\n      mstore\n        /* \"#utility.yul\":25115:25119   */\n      0x11\n        /* \"#utility.yul\":25112:25113   */\n      0x04\n        /* \"#utility.yul\":25105:25120   */\n      mstore\n        /* \"#utility.yul\":25139:25143   */\n      0x24\n        /* \"#utility.yul\":25136:25137   */\n      0x00\n        /* \"#utility.yul\":25129:25144   */\n      revert\n        /* \"#utility.yul\":25156:25336   */\n    tag_521:\n        /* \"#utility.yul\":25204:25281   */\n      0x4e487b7100000000000000000000000000000000000000000000000000000000\n        /* \"#utility.yul\":25201:25202   */\n      0x00\n        /* \"#utility.yul\":25194:25282   */\n      mstore\n        /* \"#utility.yul\":25301:25305   */\n      0x22\n        /* \"#utility.yul\":25298:25299   */\n      0x04\n        /* \"#utility.yul\":25291:25306   */\n      mstore\n        /* \"#utility.yul\":25325:25329   */\n      0x24\n        /* \"#utility.yul\":25322:25323   */\n      0x00\n        /* \"#utility.yul\":25315:25330   */\n      revert\n        /* \"#utility.yul\":25342:25522   */\n    tag_503:\n        /* \"#utility.yul\":25390:25467   */\n      0x4e487b7100000000000000000000000000000000000000000000000000000000\n        /* \"#utility.yul\":25387:25388   */\n      0x00\n        /* \"#utility.yul\":25380:25468   */\n      mstore\n        /* \"#utility.yul\":25487:25491   */\n      0x41\n        /* \"#utility.yul\":25484:25485   */\n      0x04\n        /* \"#utility.yul\":25477:25492   */\n      mstore\n        /* \"#utility.yul\":25511:25515   */\n      0x24\n        /* \"#utility.yul\":25508:25509   */\n      0x00\n        /* \"#utility.yul\":25501:25516   */\n      revert\n        /* \"#utility.yul\":25528:25645   */\n    tag_278:\n        /* \"#utility.yul\":25637:25638   */\n      0x00\n        /* \"#utility.yul\":25634:25635   */\n      dup1\n        /* \"#utility.yul\":25627:25639   */\n      revert\n        /* \"#utility.yul\":25651:25768   */\n    tag_271:\n        /* \"#utility.yul\":25760:25761   */\n      0x00\n        /* \"#utility.yul\":25757:25758   */\n      dup1\n        /* \"#utility.yul\":25750:25762   */\n      revert\n        /* \"#utility.yul\":25774:25891   */\n    tag_290:\n        /* \"#utility.yul\":25883:25884   */\n      0x00\n        /* \"#utility.yul\":25880:25881   */\n      dup1\n        /* \"#utility.yul\":25873:25885   */\n      revert\n        /* \"#utility.yul\":25897:26014   */\n    tag_287:\n        /* \"#utility.yul\":26006:26007   */\n      0x00\n        /* \"#utility.yul\":26003:26004   */\n      dup1\n        /* \"#utility.yul\":25996:26008   */\n      revert\n        /* \"#utility.yul\":26020:26122   */\n    tag_369:\n        /* \"#utility.yul\":26061:26067   */\n      0x00\n        /* \"#utility.yul\":26112:26114   */\n      0x1f\n        /* \"#utility.yul\":26108:26115   */\n      not\n        /* \"#utility.yul\":26103:26105   */\n      0x1f\n        /* \"#utility.yul\":26096:26101   */\n      dup4\n        /* \"#utility.yul\":26092:26106   */\n      add\n        /* \"#utility.yul\":26088:26116   */\n      and\n        /* \"#utility.yul\":26078:26116   */\n      swap1\n      pop\n        /* \"#utility.yul\":26068:26122   */\n      swap2\n      swap1\n      pop\n      jump\t// out\n        /* \"#utility.yul\":26128:26288   */\n    tag_392:\n        /* \"#utility.yul\":26268:26280   */\n      0x756e766572696669656400000000000000000000000000000000000000000000\n        /* \"#utility.yul\":26264:26265   */\n      0x00\n        /* \"#utility.yul\":26256:26262   */\n      dup3\n        /* \"#utility.yul\":26252:26266   */\n      add\n        /* \"#utility.yul\":26245:26281   */\n      mstore\n        /* \"#utility.yul\":26234:26288   */\n      pop\n      jump\t// out\n        /* \"#utility.yul\":26294:26525   */\n    tag_397:\n        /* \"#utility.yul\":26434:26468   */\n      0x4572726f722120496e76616c696420736563726574206b65792e20506c656173\n        /* \"#utility.yul\":26430:26431   */\n      0x00\n        /* \"#utility.yul\":26422:26428   */\n      dup3\n        /* \"#utility.yul\":26418:26432   */\n      add\n        /* \"#utility.yul\":26411:26469   */\n      mstore\n        /* \"#utility.yul\":26503:26517   */\n      0x652074727920616761696e2e0000000000000000000000000000000000000000\n        /* \"#utility.yul\":26498:26500   */\n      0x20\n        /* \"#utility.yul\":26490:26496   */\n      dup3\n        /* \"#utility.yul\":26486:26501   */\n      add\n        /* \"#utility.yul\":26479:26518   */\n      mstore\n        /* \"#utility.yul\":26400:26525   */\n      pop\n      jump\t// out\n        /* \"#utility.yul\":26531:26758   */\n    tag_402:\n        /* \"#utility.yul\":26671:26705   */\n      0x4572726f7221205573657220697320616c72656164792076657269666965642f\n        /* \"#utility.yul\":26667:26668   */\n      0x00\n        /* \"#utility.yul\":26659:26665   */\n      dup3\n        /* \"#utility.yul\":26655:26669   */\n      add\n        /* \"#utility.yul\":26648:26706   */\n      mstore\n        /* \"#utility.yul\":26740:26750   */\n      0x72656a6563746564000000000000000000000000000000000000000000000000\n        /* \"#utility.yul\":26735:26737   */\n      0x20\n        /* \"#utility.yul\":26727:26733   */\n      dup3\n        /* \"#utility.yul\":26723:26738   */\n      add\n        /* \"#utility.yul\":26716:26751   */\n      mstore\n        /* \"#utility.yul\":26637:26758   */\n      pop\n      jump\t// out\n        /* \"#utility.yul\":26764:26943   */\n    tag_407:\n        /* \"#utility.yul\":26904:26935   */\n      0x4572726f722120546865206163636f756e742069732062616e6e65642e000000\n        /* \"#utility.yul\":26900:26901   */\n      0x00\n        /* \"#utility.yul\":26892:26898   */\n      dup3\n        /* \"#utility.yul\":26888:26902   */\n      add\n        /* \"#utility.yul\":26881:26936   */\n      mstore\n        /* \"#utility.yul\":26870:26943   */\n      pop\n      jump\t// out\n        /* \"#utility.yul\":26949:27128   */\n    tag_412:\n        /* \"#utility.yul\":27089:27120   */\n      0x4572726f722120596f7572206163636f756e742069732062616e6e6564000000\n        /* \"#utility.yul\":27085:27086   */\n      0x00\n        /* \"#utility.yul\":27077:27083   */\n      dup3\n        /* \"#utility.yul\":27073:27087   */\n      add\n        /* \"#utility.yul\":27066:27121   */\n      mstore\n        /* \"#utility.yul\":27055:27128   */\n      pop\n      jump\t// out\n        /* \"#utility.yul\":27134:27311   */\n    tag_417:\n        /* \"#utility.yul\":27274:27303   */\n      0x4572726f7221205573657220616c7265616479206578697374732e0000000000\n        /* \"#utility.yul\":27270:27271   */\n      0x00\n        /* \"#utility.yul\":27262:27268   */\n      dup3\n        /* \"#utility.yul\":27258:27272   */\n      add\n        /* \"#utility.yul\":27251:27304   */\n      mstore\n        /* \"#utility.yul\":27240:27311   */\n      pop\n      jump\t// out\n        /* \"#utility.yul\":27317:27492   */\n    tag_422:\n        /* \"#utility.yul\":27457:27484   */\n      0x4572726f722120496e76616c69642061646d696e206e616d6500000000000000\n        /* \"#utility.yul\":27453:27454   */\n      0x00\n        /* \"#utility.yul\":27445:27451   */\n      dup3\n        /* \"#utility.yul\":27441:27455   */\n      add\n        /* \"#utility.yul\":27434:27485   */\n      mstore\n        /* \"#utility.yul\":27423:27492   */\n      pop\n      jump\t// out\n        /* \"#utility.yul\":27498:27745   */\n    tag_427:\n        /* \"#utility.yul\":27638:27672   */\n      0x4572726f72212055736572206e6f742072656769737465726564206f72207772\n        /* \"#utility.yul\":27634:27635   */\n      0x00\n        /* \"#utility.yul\":27626:27632   */\n      dup3\n        /* \"#utility.yul\":27622:27636   */\n      add\n        /* \"#utility.yul\":27615:27673   */\n      mstore\n        /* \"#utility.yul\":27707:27737   */\n      0x6f6e672070617373706f7274206e756d62657220656e74657265642e00000000\n        /* \"#utility.yul\":27702:27704   */\n      0x20\n        /* \"#utility.yul\":27694:27700   */\n      dup3\n        /* \"#utility.yul\":27690:27705   */\n      add\n        /* \"#utility.yul\":27683:27738   */\n      mstore\n        /* \"#utility.yul\":27604:27745   */\n      pop\n      jump\t// out\n        /* \"#utility.yul\":27751:27910   */\n    tag_432:\n        /* \"#utility.yul\":27891:27902   */\n      0x73757370656e6465640000000000000000000000000000000000000000000000\n        /* \"#utility.yul\":27887:27888   */\n      0x00\n        /* \"#utility.yul\":27879:27885   */\n      dup3\n        /* \"#utility.yul\":27875:27889   */\n      add\n        /* \"#utility.yul\":27868:27903   */\n      mstore\n        /* \"#utility.yul\":27857:27910   */\n      pop\n      jump\t// out\n        /* \"#utility.yul\":27916:28145   */\n    tag_437:\n        /* \"#utility.yul\":28056:28090   */\n      0x4572726f722120496e76616c69642070617373776f72642e20506c6561736520\n        /* \"#utility.yul\":28052:28053   */\n      0x00\n        /* \"#utility.yul\":28044:28050   */\n      dup3\n        /* \"#utility.yul\":28040:28054   */\n      add\n        /* \"#utility.yul\":28033:28091   */\n      mstore\n        /* \"#utility.yul\":28125:28137   */\n      0x74727920616761696e2e00000000000000000000000000000000000000000000\n        /* \"#utility.yul\":28120:28122   */\n      0x20\n        /* \"#utility.yul\":28112:28118   */\n      dup3\n        /* \"#utility.yul\":28108:28123   */\n      add\n        /* \"#utility.yul\":28101:28138   */\n      mstore\n        /* \"#utility.yul\":28022:28145   */\n      pop\n      jump\t// out\n        /* \"#utility.yul\":28151:28330   */\n    tag_442:\n        /* \"#utility.yul\":28291:28322   */\n      0x4572726f722120496e76616c69642061646d696e2070617373776f7264000000\n        /* \"#utility.yul\":28287:28288   */\n      0x00\n        /* \"#utility.yul\":28279:28285   */\n      dup3\n        /* \"#utility.yul\":28275:28289   */\n      add\n        /* \"#utility.yul\":28268:28323   */\n      mstore\n        /* \"#utility.yul\":28257:28330   */\n      pop\n      jump\t// out\n        /* \"#utility.yul\":28336:28458   */\n    tag_283:\n        /* \"#utility.yul\":28409:28433   */\n      tag_552\n        /* \"#utility.yul\":28427:28432   */\n      dup2\n        /* \"#utility.yul\":28409:28433   */\n      tag_446\n      jump\t// in\n    tag_552:\n        /* \"#utility.yul\":28402:28407   */\n      dup2\n        /* \"#utility.yul\":28399:28434   */\n      eq\n        /* \"#utility.yul\":28389:28391   */\n      tag_553\n      jumpi\n        /* \"#utility.yul\":28448:28449   */\n      0x00\n        /* \"#utility.yul\":28445:28446   */\n      dup1\n        /* \"#utility.yul\":28438:28450   */\n      revert\n        /* \"#utility.yul\":28389:28391   */\n    tag_553:\n        /* \"#utility.yul\":28379:28458   */\n      pop\n      jump\t// out\n\n    auxdata: 0xa264697066735822122030a638e7852ace64e276a6a2fbc050ff9fa26913652b75bed480f70868e44a8c64736f6c63430008060033\n}\n",
    "bytecode": {
      "linkReferences": {},
      "object": "60806040526040518060400160405280600581526020017f61646d696e000000000000000000000000000000000000000000000000000000815250600390805190602001906200005192919062000090565b50604051602001620000639062000167565b604051602081830303815290604052805190602001206004553480156200008957600080fd5b5062000217565b8280546200009e9062000189565b90600052602060002090601f016020900481019282620000c257600085556200010e565b82601f10620000dd57805160ff19168380011785556200010e565b828001600101855582156200010e579182015b828111156200010d578251825591602001919060010190620000f0565b5b5090506200011d919062000121565b5090565b5b808211156200013c57600081600090555060010162000122565b5090565b60006200014f6004836200017e565b91506200015c82620001ee565b600482019050919050565b6000620001748262000140565b9150819050919050565b600081905092915050565b60006002820490506001821680620001a257607f821691505b60208210811415620001b957620001b8620001bf565b5b50919050565b7f4e487b7100000000000000000000000000000000000000000000000000000000600052602260045260246000fd5b7f7061737300000000000000000000000000000000000000000000000000000000600082015250565b6126e280620002276000396000f3fe608060405234801561001057600080fd5b50600436106100a85760003560e01c8063507b4e7911610071578063507b4e791461016457806358467dbc14610180578063880e97a0146101b2578063b0467deb146101d0578063b5c24a0114610204578063c715408014610220576100a8565b8062a05dc3146100ad5780630d3645ba146100c95780631112bdf2146100f95780631d93e5d41461011557806345b7ba1214610148575b600080fd5b6100c760048036038101906100c29190611be5565b610250565b005b6100e360048036038101906100de9190611be5565b6102cc565b6040516100f09190611f71565b60405180910390f35b610113600480360381019061010e9190611c12565b610374565b005b61012f600480360381019061012a9190611be5565b6103bc565b60405161013f9493929190611f93565b60405180910390f35b610162600480360381019061015d9190611ab0565b61073f565b005b61017e60048036038101906101799190611932565b6109e2565b005b61019a600480360381019061019591906118ba565b610c42565b6040516101a9939291906121a5565b60405180910390f35b6101ba611006565b6040516101c7919061218a565b60405180910390f35b6101ea60048036038101906101e59190611be5565b61100f565b6040516101fb959493929190611ff4565b60405180910390f35b61021e600480360381019061021991906119d9565b611399565b005b61023a600480360381019061023591906118ba565b611607565b6040516102479190611f71565b60405180910390f35b600061025b826102cc565b90506040518060400160405280600981526020017f73757370656e64656400000000000000000000000000000000000000000000008152506001826040516102a39190611f19565b908152602001604051809103902060030190805190602001906102c7929190611792565b505050565b60606002600083815260200190815260200160002060010180546102ef906122d2565b80601f016020809104026020016040519081016040528092919081815260200182805461031b906122d2565b80156103685780601f1061033d57610100808354040283529160200191610368565b820191906000526020600020905b81548152906001019060200180831161034b57829003601f168201915b50505050509050919050565b600061037f836102cc565b9050816001826040516103929190611f19565b908152602001604051809103902060030190805190602001906103b6929190611792565b50505050565b60608060608060006103cd866102cc565b90506040516020016103de90611f47565b604051602081830303815290604052805190602001206001826040516104049190611f19565b90815260200160405180910390206003016040516020016104259190611f30565b604051602081830303815290604052805190602001201461047b576040517f08c379a00000000000000000000000000000000000000000000000000000000081526004016104729061208a565b60405180910390fd5b60018160405161048b9190611f19565b90815260200160405180910390206001016001826040516104ac9190611f19565b90815260200160405180910390206004016001836040516104cd9190611f19565b90815260200160405180910390206005016001846040516104ee9190611f19565b908152602001604051809103902060060183805461050b906122d2565b80601f0160208091040260200160405190810160405280929190818152602001828054610537906122d2565b80156105845780601f1061055957610100808354040283529160200191610584565b820191906000526020600020905b81548152906001019060200180831161056757829003601f168201915b50505050509350828054610597906122d2565b80601f01602080910402602001604051908101604052809291908181526020018280546105c3906122d2565b80156106105780601f106105e557610100808354040283529160200191610610565b820191906000526020600020905b8154815290600101906020018083116105f357829003601f168201915b50505050509250818054610623906122d2565b80601f016020809104026020016040519081016040528092919081815260200182805461064f906122d2565b801561069c5780601f106106715761010080835404028352916020019161069c565b820191906000526020600020905b81548152906001019060200180831161067f57829003601f168201915b505050505091508080546106af906122d2565b80601f01602080910402602001604051908101604052809291908181526020018280546106db906122d2565b80156107285780601f106106fd57610100808354040283529160200191610728565b820191906000526020600020905b81548152906001019060200180831161070b57829003601f168201915b505050505090509450945094509450509193509193565b836040516020016107509190611f19565b604051602081830303815290604052805190602001206001856040516107769190611f19565b90815260200160405180910390206004016040516020016107979190611f30565b6040516020818303038152906040528051906020012014156107ee576040517f08c379a00000000000000000000000000000000000000000000000000000000081526004016107e5906120ea565b60405180910390fd5b60008081548092919061080090612335565b91905055506000856040516020016108189190611f19565b60405160208183030381529060405280519060200120905060405180610100016040528060005481526020018881526020018281526020016040518060400160405280600a81526020017f756e7665726966696564000000000000000000000000000000000000000000008152508152602001868152602001858152602001848152602001838152506001866040516108b19190611f19565b90815260200160405180910390206000820151816000015560208201518160010190805190602001906108e5929190611792565b5060408201518160020155606082015181600301908051906020019061090c929190611792565b506080820151816004019080519060200190610929929190611792565b5060a0820151816005019080519060200190610946929190611792565b5060c0820151816006019080519060200190610963929190611792565b5060e0820151816007019080519060200190610980929190611792565b50905050604051806040016040528060005481526020018681525060026000805481526020019081526020016000206000820151816000015560208201518160010190805190602001906109d5929190611792565b5090505050505050505050565b826040516020016109f39190611f19565b60405160208183030381529060405280519060200120600184604051610a199190611f19565b9081526020016040518091039020600401604051602001610a3a9190611f30565b6040516020818303038152906040528051906020012014610a90576040517f08c379a0000000000000000000000000000000000000000000000000000000008152600401610a879061212a565b60405180910390fd5b604051602001610a9f90611f5c565b60405160208183030381529060405280519060200120600184604051610ac59190611f19565b9081526020016040518091039020600301604051602001610ae69190611f30565b604051602081830303815290604052805190602001201415610b3d576040517f08c379a0000000000000000000000000000000000000000000000000000000008152600401610b34906120ca565b60405180910390fd5b80604051602001610b4e9190611f19565b60405160208183030381529060405280519060200120600184604051610b749190611f19565b9081526020016040518091039020600701604051602001610b959190611f30565b6040516020818303038152906040528051906020012014610beb576040517f08c379a0000000000000000000000000000000000000000000000000000000008152600401610be29061206a565b60405180910390fd5b600082604051602001610bfe9190611f19565b60405160208183030381529060405280519060200120905080600185604051610c279190611f19565b90815260200160405180910390206002018190555050505050565b600060608084604051602001610c589190611f19565b60405160208183030381529060405280519060200120600186604051610c7e9190611f19565b9081526020016040518091039020600401604051602001610c9f9190611f30565b6040516020818303038152906040528051906020012014610cf5576040517f08c379a0000000000000000000000000000000000000000000000000000000008152600401610cec9061212a565b60405180910390fd5b604051602001610d0490611f5c565b60405160208183030381529060405280519060200120600186604051610d2a9190611f19565b9081526020016040518091039020600301604051602001610d4b9190611f30565b604051602081830303815290604052805190602001201415610da2576040517f08c379a0000000000000000000000000000000000000000000000000000000008152600401610d99906120aa565b60405180910390fd5b600084604051602001610db59190611f19565b60405160208183030381529060405280519060200120905080604051602001610dde9190611efe565b60405160208183030381529060405280519060200120600187604051610e049190611f19565b908152602001604051809103902060020154604051602001610e269190611efe565b6040516020818303038152906040528051906020012014610e7c576040517f08c379a0000000000000000000000000000000000000000000000000000000008152600401610e739061214a565b60405180910390fd5b600186604051610e8c9190611f19565b908152602001604051809103902060000154600187604051610eae9190611f19565b9081526020016040518091039020600301600188604051610ecf9190611f19565b9081526020016040518091039020600101818054610eec906122d2565b80601f0160208091040260200160405190810160405280929190818152602001828054610f18906122d2565b8015610f655780601f10610f3a57610100808354040283529160200191610f65565b820191906000526020600020905b815481529060010190602001808311610f4857829003601f168201915b50505050509150808054610f78906122d2565b80601f0160208091040260200160405190810160405280929190818152602001828054610fa4906122d2565b8015610ff15780601f10610fc657610100808354040283529160200191610ff1565b820191906000526020600020905b815481529060010190602001808311610fd457829003601f168201915b50505050509050935093509350509250925092565b60008054905090565b60608060608060606000611022876102cc565b90506001816040516110349190611f19565b90815260200160405180910390206001016001826040516110559190611f19565b90815260200160405180910390206003016001836040516110769190611f19565b90815260200160405180910390206004016001846040516110979190611f19565b90815260200160405180910390206005016001856040516110b89190611f19565b90815260200160405180910390206006018480546110d5906122d2565b80601f0160208091040260200160405190810160405280929190818152602001828054611101906122d2565b801561114e5780601f106111235761010080835404028352916020019161114e565b820191906000526020600020905b81548152906001019060200180831161113157829003601f168201915b50505050509450838054611161906122d2565b80601f016020809104026020016040519081016040528092919081815260200182805461118d906122d2565b80156111da5780601f106111af576101008083540402835291602001916111da565b820191906000526020600020905b8154815290600101906020018083116111bd57829003601f168201915b505050505093508280546111ed906122d2565b80601f0160208091040260200160405190810160405280929190818152602001828054611219906122d2565b80156112665780601f1061123b57610100808354040283529160200191611266565b820191906000526020600020905b81548152906001019060200180831161124957829003601f168201915b50505050509250818054611279906122d2565b80601f01602080910402602001604051908101604052809291908181526020018280546112a5906122d2565b80156112f25780601f106112c7576101008083540402835291602001916112f2565b820191906000526020600020905b8154815290600101906020018083116112d557829003601f168201915b50505050509150808054611305906122d2565b80601f0160208091040260200160405190810160405280929190818152602001828054611331906122d2565b801561137e5780601f106113535761010080835404028352916020019161137e565b820191906000526020600020905b81548152906001019060200180831161136157829003601f168201915b50505050509050955095509550955095505091939590929450565b826040516020016113aa9190611f19565b604051602081830303815290604052805190602001206001846040516113d09190611f19565b90815260200160405180910390206004016040516020016113f19190611f30565b6040516020818303038152906040528051906020012014611447576040517f08c379a000000000000000000000000000000000000000000000000000000000815260040161143e9061212a565b60405180910390fd5b60405160200161145690611f5c565b6040516020818303038152906040528051906020012060018460405161147c9190611f19565b908152602001604051809103902060030160405160200161149d9190611f30565b6040516020818303038152906040528051906020012014156114f4576040517f08c379a00000000000000000000000000000000000000000000000000000000081526004016114eb906120ca565b60405180910390fd5b836001846040516115059190611f19565b90815260200160405180910390206001019080519060200190611529929190611792565b506040518060400160405280600a81526020017f756e7665726966696564000000000000000000000000000000000000000000008152506001846040516115709190611f19565b90815260200160405180910390206003019080519060200190611594929190611792565b50816001846040516115a69190611f19565b908152602001604051809103902060050190805190602001906115ca929190611792565b50806001846040516115dc9190611f19565b90815260200160405180910390206006019080519060200190611600929190611792565b5050505050565b60608260405160200161161a9190611f19565b6040516020818303038152906040528051906020012060036040516020016116429190611f30565b6040516020818303038152906040528051906020012014611698576040517f08c379a000000000000000000000000000000000000000000000000000000000815260040161168f9061210a565b60405180910390fd5b6000826040516020016116ab9190611f19565b604051602081830303815290604052805190602001209050806040516020016116d49190611efe565b604051602081830303815290604052805190602001206004546040516020016116fd9190611efe565b6040516020818303038152906040528051906020012014611753576040517f08c379a000000000000000000000000000000000000000000000000000000000815260040161174a9061216a565b60405180910390fd5b6040518060400160405280600781526020017f537563636573730000000000000000000000000000000000000000000000000081525091505092915050565b82805461179e906122d2565b90600052602060002090601f0160209004810192826117c05760008555611807565b82601f106117d957805160ff1916838001178555611807565b82800160010185558215611807579182015b828111156118065782518255916020019190600101906117eb565b5b5090506118149190611818565b5090565b5b80821115611831576000816000905550600101611819565b5090565b60006118486118438461220f565b6121ea565b9050828152602081018484840111156118645761186361241a565b5b61186f848285612290565b509392505050565b600082601f83011261188c5761188b612415565b5b813561189c848260208601611835565b91505092915050565b6000813590506118b481612695565b92915050565b600080604083850312156118d1576118d0612424565b5b600083013567ffffffffffffffff8111156118ef576118ee61241f565b5b6118fb85828601611877565b925050602083013567ffffffffffffffff81111561191c5761191b61241f565b5b61192885828601611877565b9150509250929050565b60008060006060848603121561194b5761194a612424565b5b600084013567ffffffffffffffff8111156119695761196861241f565b5b61197586828701611877565b935050602084013567ffffffffffffffff8111156119965761199561241f565b5b6119a286828701611877565b925050604084013567ffffffffffffffff8111156119c3576119c261241f565b5b6119cf86828701611877565b9150509250925092565b600080600080608085870312156119f3576119f2612424565b5b600085013567ffffffffffffffff811115611a1157611a1061241f565b5b611a1d87828801611877565b945050602085013567ffffffffffffffff811115611a3e57611a3d61241f565b5b611a4a87828801611877565b935050604085013567ffffffffffffffff811115611a6b57611a6a61241f565b5b611a7787828801611877565b925050606085013567ffffffffffffffff811115611a9857611a9761241f565b5b611aa487828801611877565b91505092959194509250565b60008060008060008060c08789031215611acd57611acc612424565b5b600087013567ffffffffffffffff811115611aeb57611aea61241f565b5b611af789828a01611877565b965050602087013567ffffffffffffffff811115611b1857611b1761241f565b5b611b2489828a01611877565b955050604087013567ffffffffffffffff811115611b4557611b4461241f565b5b611b5189828a01611877565b945050606087013567ffffffffffffffff811115611b7257611b7161241f565b5b611b7e89828a01611877565b935050608087013567ffffffffffffffff811115611b9f57611b9e61241f565b5b611bab89828a01611877565b92505060a087013567ffffffffffffffff811115611bcc57611bcb61241f565b5b611bd889828a01611877565b9150509295509295509295565b600060208284031215611bfb57611bfa612424565b5b6000611c09848285016118a5565b91505092915050565b60008060408385031215611c2957611c28612424565b5b6000611c37858286016118a5565b925050602083013567ffffffffffffffff811115611c5857611c5761241f565b5b611c6485828601611877565b9150509250929050565b611c7f611c7a8261227c565b61237e565b82525050565b6000611c9082612255565b611c9a8185612260565b9350611caa81856020860161229f565b611cb381612429565b840191505092915050565b6000611cc982612255565b611cd38185612271565b9350611ce381856020860161229f565b80840191505092915050565b60008154611cfc816122d2565b611d068186612271565b94506001821660008114611d215760018114611d3257611d65565b60ff19831686528186019350611d65565b611d3b85612240565b60005b83811015611d5d57815481890152600182019150602081019050611d3e565b838801955050505b50505092915050565b6000611d7b600a83612271565b9150611d868261243a565b600a82019050919050565b6000611d9e602c83612260565b9150611da982612463565b604082019050919050565b6000611dc1602883612260565b9150611dcc826124b2565b604082019050919050565b6000611de4601d83612260565b9150611def82612501565b602082019050919050565b6000611e07601d83612260565b9150611e128261252a565b602082019050919050565b6000611e2a601b83612260565b9150611e3582612553565b602082019050919050565b6000611e4d601983612260565b9150611e588261257c565b602082019050919050565b6000611e70603c83612260565b9150611e7b826125a5565b604082019050919050565b6000611e93600983612271565b9150611e9e826125f4565b600982019050919050565b6000611eb6602a83612260565b9150611ec18261261d565b604082019050919050565b6000611ed9601d83612260565b9150611ee48261266c565b602082019050919050565b611ef881612286565b82525050565b6000611f0a8284611c6e565b60208201915081905092915050565b6000611f258284611cbe565b915081905092915050565b6000611f3c8284611cef565b915081905092915050565b6000611f5282611d6e565b9150819050919050565b6000611f6782611e86565b9150819050919050565b60006020820190508181036000830152611f8b8184611c85565b905092915050565b60006080820190508181036000830152611fad8187611c85565b90508181036020830152611fc18186611c85565b90508181036040830152611fd58185611c85565b90508181036060830152611fe98184611c85565b905095945050505050565b600060a082019050818103600083015261200e8188611c85565b905081810360208301526120228187611c85565b905081810360408301526120368186611c85565b9050818103606083015261204a8185611c85565b9050818103608083015261205e8184611c85565b90509695505050505050565b6000602082019050818103600083015261208381611d91565b9050919050565b600060208201905081810360008301526120a381611db4565b9050919050565b600060208201905081810360008301526120c381611dd7565b9050919050565b600060208201905081810360008301526120e381611dfa565b9050919050565b6000602082019050818103600083015261210381611e1d565b9050919050565b6000602082019050818103600083015261212381611e40565b9050919050565b6000602082019050818103600083015261214381611e63565b9050919050565b6000602082019050818103600083015261216381611ea9565b9050919050565b6000602082019050818103600083015261218381611ecc565b9050919050565b600060208201905061219f6000830184611eef565b92915050565b60006060820190506121ba6000830186611eef565b81810360208301526121cc8185611c85565b905081810360408301526121e08184611c85565b9050949350505050565b60006121f4612205565b90506122008282612304565b919050565b6000604051905090565b600067ffffffffffffffff82111561222a576122296123e6565b5b61223382612429565b9050602081019050919050565b60008190508160005260206000209050919050565b600081519050919050565b600082825260208201905092915050565b600081905092915050565b6000819050919050565b6000819050919050565b82818337600083830152505050565b60005b838110156122bd5780820151818401526020810190506122a2565b838111156122cc576000848401525b50505050565b600060028204905060018216806122ea57607f821691505b602082108114156122fe576122fd6123b7565b5b50919050565b61230d82612429565b810181811067ffffffffffffffff8211171561232c5761232b6123e6565b5b80604052505050565b600061234082612286565b91507fffffffffffffffffffffffffffffffffffffffffffffffffffffffffffffffff82141561237357612372612388565b5b600182019050919050565b6000819050919050565b7f4e487b7100000000000000000000000000000000000000000000000000000000600052601160045260246000fd5b7f4e487b7100000000000000000000000000000000000000000000000000000000600052602260045260246000fd5b7f4e487b7100000000000000000000000000000000000000000000000000000000600052604160045260246000fd5b600080fd5b600080fd5b600080fd5b600080fd5b6000601f19601f8301169050919050565b7f756e766572696669656400000000000000000000000000000000000000000000600082015250565b7f4572726f722120496e76616c696420736563726574206b65792e20506c65617360008201527f652074727920616761696e2e0000000000000000000000000000000000000000602082015250565b7f4572726f7221205573657220697320616c72656164792076657269666965642f60008201527f72656a6563746564000000000000000000000000000000000000000000000000602082015250565b7f4572726f722120546865206163636f756e742069732062616e6e65642e000000600082015250565b7f4572726f722120596f7572206163636f756e742069732062616e6e6564000000600082015250565b7f4572726f7221205573657220616c7265616479206578697374732e0000000000600082015250565b7f4572726f722120496e76616c69642061646d696e206e616d6500000000000000600082015250565b7f4572726f72212055736572206e6f742072656769737465726564206f7220777260008201527f6f6e672070617373706f7274206e756d62657220656e74657265642e00000000602082015250565b7f73757370656e6465640000000000000000000000000000000000000000000000600082015250565b7f4572726f722120496e76616c69642070617373776f72642e20506c656173652060008201527f74727920616761696e2e00000000000000000000000000000000000000000000602082015250565b7f4572726f722120496e76616c69642061646d696e2070617373776f7264000000600082015250565b61269e81612286565b81146126a957600080fd5b5056fea264697066735822122030a638e7852ace64e276a6a2fbc050ff9fa26913652b75bed480f70868e44a8c64736f6c63430008060033",
      "opcodes": "PUSH1 0x80 PUSH1 0x40 MSTORE PUSH1 0x40 MLOAD DUP1 PUSH1 0x40 ADD PUSH1 0x40 MSTORE DUP1 PUSH1 0x5 DUP2 MSTORE PUSH1 0x20 ADD PUSH32 0x61646D696E000000000000000000000000000000000000000000000000000000 DUP2 MSTORE POP PUSH1 0x3 SWAP1 DUP1 MLOAD SWAP1 PUSH1 0x20 ADD SWAP1 PUSH3 0x51 SWAP3 SWAP2 SWAP1 PUSH3 0x90 JUMP JUMPDEST POP PUSH1 0x40 MLOAD PUSH1 0x20 ADD PUSH3 0x63 SWAP1 PUSH3 0x167 JUMP JUMPDEST PUSH1 0x40 MLOAD PUSH1 0x20 DUP2 DUP4 SUB SUB DUP2 MSTORE SWAP1 PUSH1 0x40 MSTORE DUP1 MLOAD SWAP1 PUSH1 0x20 ADD KECCAK256 PUSH1 0x4 SSTORE CALLVALUE DUP1 ISZERO PUSH3 0x89 JUMPI PUSH1 0x0 DUP1 REVERT JUMPDEST POP PUSH3 0x217 JUMP JUMPDEST DUP3 DUP1 SLOAD PUSH3 0x9E SWAP1 PUSH3 0x189 JUMP JUMPDEST SWAP1 PUSH1 0x0 MSTORE PUSH1 0x20 PUSH1 0x0 KECCAK256 SWAP1 PUSH1 0x1F ADD PUSH1 0x20 SWAP1 DIV DUP2 ADD SWAP3 DUP3 PUSH3 0xC2 JUMPI PUSH1 0x0 DUP6 SSTORE PUSH3 0x10E JUMP JUMPDEST DUP3 PUSH1 0x1F LT PUSH3 0xDD JUMPI DUP1 MLOAD PUSH1 0xFF NOT AND DUP4 DUP1 ADD OR DUP6 SSTORE PUSH3 0x10E JUMP JUMPDEST DUP3 DUP1 ADD PUSH1 0x1 ADD DUP6 SSTORE DUP3 ISZERO PUSH3 0x10E JUMPI SWAP2 DUP3 ADD JUMPDEST DUP3 DUP2 GT ISZERO PUSH3 0x10D JUMPI DUP3 MLOAD DUP3 SSTORE SWAP2 PUSH1 0x20 ADD SWAP2 SWAP1 PUSH1 0x1 ADD SWAP1 PUSH3 0xF0 JUMP JUMPDEST JUMPDEST POP SWAP1 POP PUSH3 0x11D SWAP2 SWAP1 PUSH3 0x121 JUMP JUMPDEST POP SWAP1 JUMP JUMPDEST JUMPDEST DUP1 DUP3 GT ISZERO PUSH3 0x13C JUMPI PUSH1 0x0 DUP2 PUSH1 0x0 SWAP1 SSTORE POP PUSH1 0x1 ADD PUSH3 0x122 JUMP JUMPDEST POP SWAP1 JUMP JUMPDEST PUSH1 0x0 PUSH3 0x14F PUSH1 0x4 DUP4 PUSH3 0x17E JUMP JUMPDEST SWAP2 POP PUSH3 0x15C DUP3 PUSH3 0x1EE JUMP JUMPDEST PUSH1 0x4 DUP3 ADD SWAP1 POP SWAP2 SWAP1 POP JUMP JUMPDEST PUSH1 0x0 PUSH3 0x174 DUP3 PUSH3 0x140 JUMP JUMPDEST SWAP2 POP DUP2 SWAP1 POP SWAP2 SWAP1 POP JUMP JUMPDEST PUSH1 0x0 DUP2 SWAP1 POP SWAP3 SWAP2 POP POP JUMP JUMPDEST PUSH1 0x0 PUSH1 0x2 DUP3 DIV SWAP1 POP PUSH1 0x1 DUP3 AND DUP1 PUSH3 0x1A2 JUMPI PUSH1 0x7F DUP3 AND SWAP2 POP JUMPDEST PUSH1 0x20 DUP3 LT DUP2 EQ ISZERO PUSH3 0x1B9 JUMPI PUSH3 0x1B8 PUSH3 0x1BF JUMP JUMPDEST JUMPDEST POP SWAP2 SWAP1 POP JUMP JUMPDEST PUSH32 0x4E487B7100000000000000000000000000000000000000000000000000000000 PUSH1 0x0 MSTORE PUSH1 0x22 PUSH1 0x4 MSTORE PUSH1 0x24 PUSH1 0x0 REVERT JUMPDEST PUSH32 0x7061737300000000000000000000000000000000000000000000000000000000 PUSH1 0x0 DUP3 ADD MSTORE POP JUMP JUMPDEST PUSH2 0x26E2 DUP1 PUSH3 0x227 PUSH1 0x0 CODECOPY PUSH1 0x0 RETURN INVALID PUSH1 0x80 PUSH1 0x40 MSTORE CALLVALUE DUP1 ISZERO PUSH2 0x10 JUMPI PUSH1 0x0 DUP1 REVERT JUMPDEST POP PUSH1 0x4 CALLDATASIZE LT PUSH2 0xA8 JUMPI PUSH1 0x0 CALLDATALOAD PUSH1 0xE0 SHR DUP1 PUSH4 0x507B4E79 GT PUSH2 0x71 JUMPI DUP1 PUSH4 0x507B4E79 EQ PUSH2 0x164 JUMPI DUP1 PUSH4 0x58467DBC EQ PUSH2 0x180 JUMPI DUP1 PUSH4 0x880E97A0 EQ PUSH2 0x1B2 JUMPI DUP1 PUSH4 0xB0467DEB EQ PUSH2 0x1D0 JUMPI DUP1 PUSH4 0xB5C24A01 EQ PUSH2 0x204 JUMPI DUP1 PUSH4 0xC7154080 EQ PUSH2 0x220 JUMPI PUSH2 0xA8 JUMP JUMPDEST DUP1 PUSH3 0xA05DC3 EQ PUSH2 0xAD JUMPI DUP1 PUSH4 0xD3645BA EQ PUSH2 0xC9 JUMPI DUP1 PUSH4 0x1112BDF2 EQ PUSH2 0xF9 JUMPI DUP1 PUSH4 0x1D93E5D4 EQ PUSH2 0x115 JUMPI DUP1 PUSH4 0x45B7BA12 EQ PUSH2 0x148 JUMPI JUMPDEST PUSH1 0x0 DUP1 REVERT JUMPDEST PUSH2 0xC7 PUSH1 0x4 DUP1 CALLDATASIZE SUB DUP2 ADD SWAP1 PUSH2 0xC2 SWAP2 SWAP1 PUSH2 0x1BE5 JUMP JUMPDEST PUSH2 0x250 JUMP JUMPDEST STOP JUMPDEST PUSH2 0xE3 PUSH1 0x4 DUP1 CALLDATASIZE SUB DUP2 ADD SWAP1 PUSH2 0xDE SWAP2 SWAP1 PUSH2 0x1BE5 JUMP JUMPDEST PUSH2 0x2CC JUMP JUMPDEST PUSH1 0x40 MLOAD PUSH2 0xF0 SWAP2 SWAP1 PUSH2 0x1F71 JUMP JUMPDEST PUSH1 0x40 MLOAD DUP1 SWAP2 SUB SWAP1 RETURN JUMPDEST PUSH2 0x113 PUSH1 0x4 DUP1 CALLDATASIZE SUB DUP2 ADD SWAP1 PUSH2 0x10E SWAP2 SWAP1 PUSH2 0x1C12 JUMP JUMPDEST PUSH2 0x374 JUMP JUMPDEST STOP JUMPDEST PUSH2 0x12F PUSH1 0x4 DUP1 CALLDATASIZE SUB DUP2 ADD SWAP1 PUSH2 0x12A SWAP2 SWAP1 PUSH2 0x1BE5 JUMP JUMPDEST PUSH2 0x3BC JUMP JUMPDEST PUSH1 0x40 MLOAD PUSH2 0x13F SWAP5 SWAP4 SWAP3 SWAP2 SWAP1 PUSH2 0x1F93 JUMP JUMPDEST PUSH1 0x40 MLOAD DUP1 SWAP2 SUB SWAP1 RETURN JUMPDEST PUSH2 0x162 PUSH1 0x4 DUP1 CALLDATASIZE SUB DUP2 ADD SWAP1 PUSH2 0x15D SWAP2 SWAP1 PUSH2 0x1AB0 JUMP JUMPDEST PUSH2 0x73F JUMP JUMPDEST STOP JUMPDEST PUSH2 0x17E PUSH1 0x4 DUP1 CALLDATASIZE SUB DUP2 ADD SWAP1 PUSH2 0x179 SWAP2 SWAP1 PUSH2 0x1932 JUMP JUMPDEST PUSH2 0x9E2 JUMP JUMPDEST STOP JUMPDEST PUSH2 0x19A PUSH1 0x4 DUP1 CALLDATASIZE SUB DUP2 ADD SWAP1 PUSH2 0x195 SWAP2 SWAP1 PUSH2 0x18BA JUMP JUMPDEST PUSH2 0xC42 JUMP JUMPDEST PUSH1 0x40 MLOAD PUSH2 0x1A9 SWAP4 SWAP3 SWAP2 SWAP1 PUSH2 0x21A5 JUMP JUMPDEST PUSH1 0x40 MLOAD DUP1 SWAP2 SUB SWAP1 RETURN JUMPDEST PUSH2 0x1BA PUSH2 0x1006 JUMP JUMPDEST PUSH1 0x40 MLOAD PUSH2 0x1C7 SWAP2 SWAP1 PUSH2 0x218A JUMP JUMPDEST PUSH1 0x40 MLOAD DUP1 SWAP2 SUB SWAP1 RETURN JUMPDEST PUSH2 0x1EA PUSH1 0x4 DUP1 CALLDATASIZE SUB DUP2 ADD SWAP1 PUSH2 0x1E5 SWAP2 SWAP1 PUSH2 0x1BE5 JUMP JUMPDEST PUSH2 0x100F JUMP JUMPDEST PUSH1 0x40 MLOAD PUSH2 0x1FB SWAP6 SWAP5 SWAP4 SWAP3 SWAP2 SWAP1 PUSH2 0x1FF4 JUMP JUMPDEST PUSH1 0x40 MLOAD DUP1 SWAP2 SUB SWAP1 RETURN JUMPDEST PUSH2 0x21E PUSH1 0x4 DUP1 CALLDATASIZE SUB DUP2 ADD SWAP1 PUSH2 0x219 SWAP2 SWAP1 PUSH2 0x19D9 JUMP JUMPDEST PUSH2 0x1399 JUMP JUMPDEST STOP JUMPDEST PUSH2 0x23A PUSH1 0x4 DUP1 CALLDATASIZE SUB DUP2 ADD SWAP1 PUSH2 0x235 SWAP2 SWAP1 PUSH2 0x18BA JUMP JUMPDEST PUSH2 0x1607 JUMP JUMPDEST PUSH1 0x40 MLOAD PUSH2 0x247 SWAP2 SWAP1 PUSH2 0x1F71 JUMP JUMPDEST PUSH1 0x40 MLOAD DUP1 SWAP2 SUB SWAP1 RETURN JUMPDEST PUSH1 0x0 PUSH2 0x25B DUP3 PUSH2 0x2CC JUMP JUMPDEST SWAP1 POP PUSH1 0x40 MLOAD DUP1 PUSH1 0x40 ADD PUSH1 0x40 MSTORE DUP1 PUSH1 0x9 DUP2 MSTORE PUSH1 0x20 ADD PUSH32 0x73757370656E6465640000000000000000000000000000000000000000000000 DUP2 MSTORE POP PUSH1 0x1 DUP3 PUSH1 0x40 MLOAD PUSH2 0x2A3 SWAP2 SWAP1 PUSH2 0x1F19 JUMP JUMPDEST SWAP1 DUP2 MSTORE PUSH1 0x20 ADD PUSH1 0x40 MLOAD DUP1 SWAP2 SUB SWAP1 KECCAK256 PUSH1 0x3 ADD SWAP1 DUP1 MLOAD SWAP1 PUSH1 0x20 ADD SWAP1 PUSH2 0x2C7 SWAP3 SWAP2 SWAP1 PUSH2 0x1792 JUMP JUMPDEST POP POP POP JUMP JUMPDEST PUSH1 0x60 PUSH1 0x2 PUSH1 0x0 DUP4 DUP2 MSTORE PUSH1 0x20 ADD SWAP1 DUP2 MSTORE PUSH1 0x20 ADD PUSH1 0x0 KECCAK256 PUSH1 0x1 ADD DUP1 SLOAD PUSH2 0x2EF SWAP1 PUSH2 0x22D2 JUMP JUMPDEST DUP1 PUSH1 0x1F ADD PUSH1 0x20 DUP1 SWAP2 DIV MUL PUSH1 0x20 ADD PUSH1 0x40 MLOAD SWAP1 DUP2 ADD PUSH1 0x40 MSTORE DUP1 SWAP3 SWAP2 SWAP1 DUP2 DUP2 MSTORE PUSH1 0x20 ADD DUP3 DUP1 SLOAD PUSH2 0x31B SWAP1 PUSH2 0x22D2 JUMP JUMPDEST DUP1 ISZERO PUSH2 0x368 JUMPI DUP1 PUSH1 0x1F LT PUSH2 0x33D JUMPI PUSH2 0x100 DUP1 DUP4 SLOAD DIV MUL DUP4 MSTORE SWAP2 PUSH1 0x20 ADD SWAP2 PUSH2 0x368 JUMP JUMPDEST DUP3 ADD SWAP2 SWAP1 PUSH1 0x0 MSTORE PUSH1 0x20 PUSH1 0x0 KECCAK256 SWAP1 JUMPDEST DUP2 SLOAD DUP2 MSTORE SWAP1 PUSH1 0x1 ADD SWAP1 PUSH1 0x20 ADD DUP1 DUP4 GT PUSH2 0x34B JUMPI DUP3 SWAP1 SUB PUSH1 0x1F AND DUP3 ADD SWAP2 JUMPDEST POP POP POP POP POP SWAP1 POP SWAP2 SWAP1 POP JUMP JUMPDEST PUSH1 0x0 PUSH2 0x37F DUP4 PUSH2 0x2CC JUMP JUMPDEST SWAP1 POP DUP2 PUSH1 0x1 DUP3 PUSH1 0x40 MLOAD PUSH2 0x392 SWAP2 SWAP1 PUSH2 0x1F19 JUMP JUMPDEST SWAP1 DUP2 MSTORE PUSH1 0x20 ADD PUSH1 0x40 MLOAD DUP1 SWAP2 SUB SWAP1 KECCAK256 PUSH1 0x3 ADD SWAP1 DUP1 MLOAD SWAP1 PUSH1 0x20 ADD SWAP1 PUSH2 0x3B6 SWAP3 SWAP2 SWAP1 PUSH2 0x1792 JUMP JUMPDEST POP POP POP POP JUMP JUMPDEST PUSH1 0x60 DUP1 PUSH1 0x60 DUP1 PUSH1 0x0 PUSH2 0x3CD DUP7 PUSH2 0x2CC JUMP JUMPDEST SWAP1 POP PUSH1 0x40 MLOAD PUSH1 0x20 ADD PUSH2 0x3DE SWAP1 PUSH2 0x1F47 JUMP JUMPDEST PUSH1 0x40 MLOAD PUSH1 0x20 DUP2 DUP4 SUB SUB DUP2 MSTORE SWAP1 PUSH1 0x40 MSTORE DUP1 MLOAD SWAP1 PUSH1 0x20 ADD KECCAK256 PUSH1 0x1 DUP3 PUSH1 0x40 MLOAD PUSH2 0x404 SWAP2 SWAP1 PUSH2 0x1F19 JUMP JUMPDEST SWAP1 DUP2 MSTORE PUSH1 0x20 ADD PUSH1 0x40 MLOAD DUP1 SWAP2 SUB SWAP1 KECCAK256 PUSH1 0x3 ADD PUSH1 0x40 MLOAD PUSH1 0x20 ADD PUSH2 0x425 SWAP2 SWAP1 PUSH2 0x1F30 JUMP JUMPDEST PUSH1 0x40 MLOAD PUSH1 0x20 DUP2 DUP4 SUB SUB DUP2 MSTORE SWAP1 PUSH1 0x40 MSTORE DUP1 MLOAD SWAP1 PUSH1 0x20 ADD KECCAK256 EQ PUSH2 0x47B JUMPI PUSH1 0x40 MLOAD PUSH32 0x8C379A000000000000000000000000000000000000000000000000000000000 DUP2 MSTORE PUSH1 0x4 ADD PUSH2 0x472 SWAP1 PUSH2 0x208A JUMP JUMPDEST PUSH1 0x40 MLOAD DUP1 SWAP2 SUB SWAP1 REVERT JUMPDEST PUSH1 0x1 DUP2 PUSH1 0x40 MLOAD PUSH2 0x48B SWAP2 SWAP1 PUSH2 0x1F19 JUMP JUMPDEST SWAP1 DUP2 MSTORE PUSH1 0x20 ADD PUSH1 0x40 MLOAD DUP1 SWAP2 SUB SWAP1 KECCAK256 PUSH1 0x1 ADD PUSH1 0x1 DUP3 PUSH1 0x40 MLOAD PUSH2 0x4AC SWAP2 SWAP1 PUSH2 0x1F19 JUMP JUMPDEST SWAP1 DUP2 MSTORE PUSH1 0x20 ADD PUSH1 0x40 MLOAD DUP1 SWAP2 SUB SWAP1 KECCAK256 PUSH1 0x4 ADD PUSH1 0x1 DUP4 PUSH1 0x40 MLOAD PUSH2 0x4CD SWAP2 SWAP1 PUSH2 0x1F19 JUMP JUMPDEST SWAP1 DUP2 MSTORE PUSH1 0x20 ADD PUSH1 0x40 MLOAD DUP1 SWAP2 SUB SWAP1 KECCAK256 PUSH1 0x5 ADD PUSH1 0x1 DUP5 PUSH1 0x40 MLOAD PUSH2 0x4EE SWAP2 SWAP1 PUSH2 0x1F19 JUMP JUMPDEST SWAP1 DUP2 MSTORE PUSH1 0x20 ADD PUSH1 0x40 MLOAD DUP1 SWAP2 SUB SWAP1 KECCAK256 PUSH1 0x6 ADD DUP4 DUP1 SLOAD PUSH2 0x50B SWAP1 PUSH2 0x22D2 JUMP JUMPDEST DUP1 PUSH1 0x1F ADD PUSH1 0x20 DUP1 SWAP2 DIV MUL PUSH1 0x20 ADD PUSH1 0x40 MLOAD SWAP1 DUP2 ADD PUSH1 0x40 MSTORE DUP1 SWAP3 SWAP2 SWAP1 DUP2 DUP2 MSTORE PUSH1 0x20 ADD DUP3 DUP1 SLOAD PUSH2 0x537 SWAP1 PUSH2 0x22D2 JUMP JUMPDEST DUP1 ISZERO PUSH2 0x584 JUMPI DUP1 PUSH1 0x1F LT PUSH2 0x559 JUMPI PUSH2 0x100 DUP1 DUP4 SLOAD DIV MUL DUP4 MSTORE SWAP2 PUSH1 0x20 ADD SWAP2 PUSH2 0x584 JUMP JUMPDEST DUP3 ADD SWAP2 SWAP1 PUSH1 0x0 MSTORE PUSH1 0x20 PUSH1 0x0 KECCAK256 SWAP1 JUMPDEST DUP2 SLOAD DUP2 MSTORE SWAP1 PUSH1 0x1 ADD SWAP1 PUSH1 0x20 ADD DUP1 DUP4 GT PUSH2 0x567 JUMPI DUP3 SWAP1 SUB PUSH1 0x1F AND DUP3 ADD SWAP2 JUMPDEST POP POP POP POP POP SWAP4 POP DUP3 DUP1 SLOAD PUSH2 0x597 SWAP1 PUSH2 0x22D2 JUMP JUMPDEST DUP1 PUSH1 0x1F ADD PUSH1 0x20 DUP1 SWAP2 DIV MUL PUSH1 0x20 ADD PUSH1 0x40 MLOAD SWAP1 DUP2 ADD PUSH1 0x40 MSTORE DUP1 SWAP3 SWAP2 SWAP1 DUP2 DUP2 MSTORE PUSH1 0x20 ADD DUP3 DUP1 SLOAD PUSH2 0x5C3 SWAP1 PUSH2 0x22D2 JUMP JUMPDEST DUP1 ISZERO PUSH2 0x610 JUMPI DUP1 PUSH1 0x1F LT PUSH2 0x5E5 JUMPI PUSH2 0x100 DUP1 DUP4 SLOAD DIV MUL DUP4 MSTORE SWAP2 PUSH1 0x20 ADD SWAP2 PUSH2 0x610 JUMP JUMPDEST DUP3 ADD SWAP2 SWAP1 PUSH1 0x0 MSTORE PUSH1 0x20 PUSH1 0x0 KECCAK256 SWAP1 JUMPDEST DUP2 SLOAD DUP2 MSTORE SWAP1 PUSH1 0x1 ADD SWAP1 PUSH1 0x20 ADD DUP1 DUP4 GT PUSH2 0x5F3 JUMPI DUP3 SWAP1 SUB PUSH1 0x1F AND DUP3 ADD SWAP2 JUMPDEST POP POP POP POP POP SWAP3 POP DUP2 DUP1 SLOAD PUSH2 0x623 SWAP1 PUSH2 0x22D2 JUMP JUMPDEST DUP1 PUSH1 0x1F ADD PUSH1 0x20 DUP1 SWAP2 DIV MUL PUSH1 0x20 ADD PUSH1 0x40 MLOAD SWAP1 DUP2 ADD PUSH1 0x40 MSTORE DUP1 SWAP3 SWAP2 SWAP1 DUP2 DUP2 MSTORE PUSH1 0x20 ADD DUP3 DUP1 SLOAD PUSH2 0x64F SWAP1 PUSH2 0x22D2 JUMP JUMPDEST DUP1 ISZERO PUSH2 0x69C JUMPI DUP1 PUSH1 0x1F LT PUSH2 0x671 JUMPI PUSH2 0x100 DUP1 DUP4 SLOAD DIV MUL DUP4 MSTORE SWAP2 PUSH1 0x20 ADD SWAP2 PUSH2 0x69C JUMP JUMPDEST DUP3 ADD SWAP2 SWAP1 PUSH1 0x0 MSTORE PUSH1 0x20 PUSH1 0x0 KECCAK256 SWAP1 JUMPDEST DUP2 SLOAD DUP2 MSTORE SWAP1 PUSH1 0x1 ADD SWAP1 PUSH1 0x20 ADD DUP1 DUP4 GT PUSH2 0x67F JUMPI DUP3 SWAP1 SUB PUSH1 0x1F AND DUP3 ADD SWAP2 JUMPDEST POP POP POP POP POP SWAP2 POP DUP1 DUP1 SLOAD PUSH2 0x6AF SWAP1 PUSH2 0x22D2 JUMP JUMPDEST DUP1 PUSH1 0x1F ADD PUSH1 0x20 DUP1 SWAP2 DIV MUL PUSH1 0x20 ADD PUSH1 0x40 MLOAD SWAP1 DUP2 ADD PUSH1 0x40 MSTORE DUP1 SWAP3 SWAP2 SWAP1 DUP2 DUP2 MSTORE PUSH1 0x20 ADD DUP3 DUP1 SLOAD PUSH2 0x6DB SWAP1 PUSH2 0x22D2 JUMP JUMPDEST DUP1 ISZERO PUSH2 0x728 JUMPI DUP1 PUSH1 0x1F LT PUSH2 0x6FD JUMPI PUSH2 0x100 DUP1 DUP4 SLOAD DIV MUL DUP4 MSTORE SWAP2 PUSH1 0x20 ADD SWAP2 PUSH2 0x728 JUMP JUMPDEST DUP3 ADD SWAP2 SWAP1 PUSH1 0x0 MSTORE PUSH1 0x20 PUSH1 0x0 KECCAK256 SWAP1 JUMPDEST DUP2 SLOAD DUP2 MSTORE SWAP1 PUSH1 0x1 ADD SWAP1 PUSH1 0x20 ADD DUP1 DUP4 GT PUSH2 0x70B JUMPI DUP3 SWAP1 SUB PUSH1 0x1F AND DUP3 ADD SWAP2 JUMPDEST POP POP POP POP POP SWAP1 POP SWAP5 POP SWAP5 POP SWAP5 POP SWAP5 POP POP SWAP2 SWAP4 POP SWAP2 SWAP4 JUMP JUMPDEST DUP4 PUSH1 0x40 MLOAD PUSH1 0x20 ADD PUSH2 0x750 SWAP2 SWAP1 PUSH2 0x1F19 JUMP JUMPDEST PUSH1 0x40 MLOAD PUSH1 0x20 DUP2 DUP4 SUB SUB DUP2 MSTORE SWAP1 PUSH1 0x40 MSTORE DUP1 MLOAD SWAP1 PUSH1 0x20 ADD KECCAK256 PUSH1 0x1 DUP6 PUSH1 0x40 MLOAD PUSH2 0x776 SWAP2 SWAP1 PUSH2 0x1F19 JUMP JUMPDEST SWAP1 DUP2 MSTORE PUSH1 0x20 ADD PUSH1 0x40 MLOAD DUP1 SWAP2 SUB SWAP1 KECCAK256 PUSH1 0x4 ADD PUSH1 0x40 MLOAD PUSH1 0x20 ADD PUSH2 0x797 SWAP2 SWAP1 PUSH2 0x1F30 JUMP JUMPDEST PUSH1 0x40 MLOAD PUSH1 0x20 DUP2 DUP4 SUB SUB DUP2 MSTORE SWAP1 PUSH1 0x40 MSTORE DUP1 MLOAD SWAP1 PUSH1 0x20 ADD KECCAK256 EQ ISZERO PUSH2 0x7EE JUMPI PUSH1 0x40 MLOAD PUSH32 0x8C379A000000000000000000000000000000000000000000000000000000000 DUP2 MSTORE PUSH1 0x4 ADD PUSH2 0x7E5 SWAP1 PUSH2 0x20EA JUMP JUMPDEST PUSH1 0x40 MLOAD DUP1 SWAP2 SUB SWAP1 REVERT JUMPDEST PUSH1 0x0 DUP1 DUP2 SLOAD DUP1 SWAP3 SWAP2 SWAP1 PUSH2 0x800 SWAP1 PUSH2 0x2335 JUMP JUMPDEST SWAP2 SWAP1 POP SSTORE POP PUSH1 0x0 DUP6 PUSH1 0x40 MLOAD PUSH1 0x20 ADD PUSH2 0x818 SWAP2 SWAP1 PUSH2 0x1F19 JUMP JUMPDEST PUSH1 0x40 MLOAD PUSH1 0x20 DUP2 DUP4 SUB SUB DUP2 MSTORE SWAP1 PUSH1 0x40 MSTORE DUP1 MLOAD SWAP1 PUSH1 0x20 ADD KECCAK256 SWAP1 POP PUSH1 0x40 MLOAD DUP1 PUSH2 0x100 ADD PUSH1 0x40 MSTORE DUP1 PUSH1 0x0 SLOAD DUP2 MSTORE PUSH1 0x20 ADD DUP9 DUP2 MSTORE PUSH1 0x20 ADD DUP3 DUP2 MSTORE PUSH1 0x20 ADD PUSH1 0x40 MLOAD DUP1 PUSH1 0x40 ADD PUSH1 0x40 MSTORE DUP1 PUSH1 0xA DUP2 MSTORE PUSH1 0x20 ADD PUSH32 0x756E766572696669656400000000000000000000000000000000000000000000 DUP2 MSTORE POP DUP2 MSTORE PUSH1 0x20 ADD DUP7 DUP2 MSTORE PUSH1 0x20 ADD DUP6 DUP2 MSTORE PUSH1 0x20 ADD DUP5 DUP2 MSTORE PUSH1 0x20 ADD DUP4 DUP2 MSTORE POP PUSH1 0x1 DUP7 PUSH1 0x40 MLOAD PUSH2 0x8B1 SWAP2 SWAP1 PUSH2 0x1F19 JUMP JUMPDEST SWAP1 DUP2 MSTORE PUSH1 0x20 ADD PUSH1 0x40 MLOAD DUP1 SWAP2 SUB SWAP1 KECCAK256 PUSH1 0x0 DUP3 ADD MLOAD DUP2 PUSH1 0x0 ADD SSTORE PUSH1 0x20 DUP3 ADD MLOAD DUP2 PUSH1 0x1 ADD SWAP1 DUP1 MLOAD SWAP1 PUSH1 0x20 ADD SWAP1 PUSH2 0x8E5 SWAP3 SWAP2 SWAP1 PUSH2 0x1792 JUMP JUMPDEST POP PUSH1 0x40 DUP3 ADD MLOAD DUP2 PUSH1 0x2 ADD SSTORE PUSH1 0x60 DUP3 ADD MLOAD DUP2 PUSH1 0x3 ADD SWAP1 DUP1 MLOAD SWAP1 PUSH1 0x20 ADD SWAP1 PUSH2 0x90C SWAP3 SWAP2 SWAP1 PUSH2 0x1792 JUMP JUMPDEST POP PUSH1 0x80 DUP3 ADD MLOAD DUP2 PUSH1 0x4 ADD SWAP1 DUP1 MLOAD SWAP1 PUSH1 0x20 ADD SWAP1 PUSH2 0x929 SWAP3 SWAP2 SWAP1 PUSH2 0x1792 JUMP JUMPDEST POP PUSH1 0xA0 DUP3 ADD MLOAD DUP2 PUSH1 0x5 ADD SWAP1 DUP1 MLOAD SWAP1 PUSH1 0x20 ADD SWAP1 PUSH2 0x946 SWAP3 SWAP2 SWAP1 PUSH2 0x1792 JUMP JUMPDEST POP PUSH1 0xC0 DUP3 ADD MLOAD DUP2 PUSH1 0x6 ADD SWAP1 DUP1 MLOAD SWAP1 PUSH1 0x20 ADD SWAP1 PUSH2 0x963 SWAP3 SWAP2 SWAP1 PUSH2 0x1792 JUMP JUMPDEST POP PUSH1 0xE0 DUP3 ADD MLOAD DUP2 PUSH1 0x7 ADD SWAP1 DUP1 MLOAD SWAP1 PUSH1 0x20 ADD SWAP1 PUSH2 0x980 SWAP3 SWAP2 SWAP1 PUSH2 0x1792 JUMP JUMPDEST POP SWAP1 POP POP PUSH1 0x40 MLOAD DUP1 PUSH1 0x40 ADD PUSH1 0x40 MSTORE DUP1 PUSH1 0x0 SLOAD DUP2 MSTORE PUSH1 0x20 ADD DUP7 DUP2 MSTORE POP PUSH1 0x2 PUSH1 0x0 DUP1 SLOAD DUP2 MSTORE PUSH1 0x20 ADD SWAP1 DUP2 MSTORE PUSH1 0x20 ADD PUSH1 0x0 KECCAK256 PUSH1 0x0 DUP3 ADD MLOAD DUP2 PUSH1 0x0 ADD SSTORE PUSH1 0x20 DUP3 ADD MLOAD DUP2 PUSH1 0x1 ADD SWAP1 DUP1 MLOAD SWAP1 PUSH1 0x20 ADD SWAP1 PUSH2 0x9D5 SWAP3 SWAP2 SWAP1 PUSH2 0x1792 JUMP JUMPDEST POP SWAP1 POP POP POP POP POP POP POP POP POP JUMP JUMPDEST DUP3 PUSH1 0x40 MLOAD PUSH1 0x20 ADD PUSH2 0x9F3 SWAP2 SWAP1 PUSH2 0x1F19 JUMP JUMPDEST PUSH1 0x40 MLOAD PUSH1 0x20 DUP2 DUP4 SUB SUB DUP2 MSTORE SWAP1 PUSH1 0x40 MSTORE DUP1 MLOAD SWAP1 PUSH1 0x20 ADD KECCAK256 PUSH1 0x1 DUP5 PUSH1 0x40 MLOAD PUSH2 0xA19 SWAP2 SWAP1 PUSH2 0x1F19 JUMP JUMPDEST SWAP1 DUP2 MSTORE PUSH1 0x20 ADD PUSH1 0x40 MLOAD DUP1 SWAP2 SUB SWAP1 KECCAK256 PUSH1 0x4 ADD PUSH1 0x40 MLOAD PUSH1 0x20 ADD PUSH2 0xA3A SWAP2 SWAP1 PUSH2 0x1F30 JUMP JUMPDEST PUSH1 0x40 MLOAD PUSH1 0x20 DUP2 DUP4 SUB SUB DUP2 MSTORE SWAP1 PUSH1 0x40 MSTORE DUP1 MLOAD SWAP1 PUSH1 0x20 ADD KECCAK256 EQ PUSH2 0xA90 JUMPI PUSH1 0x40 MLOAD PUSH32 0x8C379A000000000000000000000000000000000000000000000000000000000 DUP2 MSTORE PUSH1 0x4 ADD PUSH2 0xA87 SWAP1 PUSH2 0x212A JUMP JUMPDEST PUSH1 0x40 MLOAD DUP1 SWAP2 SUB SWAP1 REVERT JUMPDEST PUSH1 0x40 MLOAD PUSH1 0x20 ADD PUSH2 0xA9F SWAP1 PUSH2 0x1F5C JUMP JUMPDEST PUSH1 0x40 MLOAD PUSH1 0x20 DUP2 DUP4 SUB SUB DUP2 MSTORE SWAP1 PUSH1 0x40 MSTORE DUP1 MLOAD SWAP1 PUSH1 0x20 ADD KECCAK256 PUSH1 0x1 DUP5 PUSH1 0x40 MLOAD PUSH2 0xAC5 SWAP2 SWAP1 PUSH2 0x1F19 JUMP JUMPDEST SWAP1 DUP2 MSTORE PUSH1 0x20 ADD PUSH1 0x40 MLOAD DUP1 SWAP2 SUB SWAP1 KECCAK256 PUSH1 0x3 ADD PUSH1 0x40 MLOAD PUSH1 0x20 ADD PUSH2 0xAE6 SWAP2 SWAP1 PUSH2 0x1F30 JUMP JUMPDEST PUSH1 0x40 MLOAD PUSH1 0x20 DUP2 DUP4 SUB SUB DUP2 MSTORE SWAP1 PUSH1 0x40 MSTORE DUP1 MLOAD SWAP1 PUSH1 0x20 ADD KECCAK256 EQ ISZERO PUSH2 0xB3D JUMPI PUSH1 0x40 MLOAD PUSH32 0x8C379A000000000000000000000000000000000000000000000000000000000 DUP2 MSTORE PUSH1 0x4 ADD PUSH2 0xB34 SWAP1 PUSH2 0x20CA JUMP JUMPDEST PUSH1 0x40 MLOAD DUP1 SWAP2 SUB SWAP1 REVERT JUMPDEST DUP1 PUSH1 0x40 MLOAD PUSH1 0x20 ADD PUSH2 0xB4E SWAP2 SWAP1 PUSH2 0x1F19 JUMP JUMPDEST PUSH1 0x40 MLOAD PUSH1 0x20 DUP2 DUP4 SUB SUB DUP2 MSTORE SWAP1 PUSH1 0x40 MSTORE DUP1 MLOAD SWAP1 PUSH1 0x20 ADD KECCAK256 PUSH1 0x1 DUP5 PUSH1 0x40 MLOAD PUSH2 0xB74 SWAP2 SWAP1 PUSH2 0x1F19 JUMP JUMPDEST SWAP1 DUP2 MSTORE PUSH1 0x20 ADD PUSH1 0x40 MLOAD DUP1 SWAP2 SUB SWAP1 KECCAK256 PUSH1 0x7 ADD PUSH1 0x40 MLOAD PUSH1 0x20 ADD PUSH2 0xB95 SWAP2 SWAP1 PUSH2 0x1F30 JUMP JUMPDEST PUSH1 0x40 MLOAD PUSH1 0x20 DUP2 DUP4 SUB SUB DUP2 MSTORE SWAP1 PUSH1 0x40 MSTORE DUP1 MLOAD SWAP1 PUSH1 0x20 ADD KECCAK256 EQ PUSH2 0xBEB JUMPI PUSH1 0x40 MLOAD PUSH32 0x8C379A000000000000000000000000000000000000000000000000000000000 DUP2 MSTORE PUSH1 0x4 ADD PUSH2 0xBE2 SWAP1 PUSH2 0x206A JUMP JUMPDEST PUSH1 0x40 MLOAD DUP1 SWAP2 SUB SWAP1 REVERT JUMPDEST PUSH1 0x0 DUP3 PUSH1 0x40 MLOAD PUSH1 0x20 ADD PUSH2 0xBFE SWAP2 SWAP1 PUSH2 0x1F19 JUMP JUMPDEST PUSH1 0x40 MLOAD PUSH1 0x20 DUP2 DUP4 SUB SUB DUP2 MSTORE SWAP1 PUSH1 0x40 MSTORE DUP1 MLOAD SWAP1 PUSH1 0x20 ADD KECCAK256 SWAP1 POP DUP1 PUSH1 0x1 DUP6 PUSH1 0x40 MLOAD PUSH2 0xC27 SWAP2 SWAP1 PUSH2 0x1F19 JUMP JUMPDEST SWAP1 DUP2 MSTORE PUSH1 0x20 ADD PUSH1 0x40 MLOAD DUP1 SWAP2 SUB SWAP1 KECCAK256 PUSH1 0x2 ADD DUP2 SWAP1 SSTORE POP POP POP POP POP JUMP JUMPDEST PUSH1 0x0 PUSH1 0x60 DUP1 DUP5 PUSH1 0x40 MLOAD PUSH1 0x20 ADD PUSH2 0xC58 SWAP2 SWAP1 PUSH2 0x1F19 JUMP JUMPDEST PUSH1 0x40 MLOAD PUSH1 0x20 DUP2 DUP4 SUB SUB DUP2 MSTORE SWAP1 PUSH1 0x40 MSTORE DUP1 MLOAD SWAP1 PUSH1 0x20 ADD KECCAK256 PUSH1 0x1 DUP7 PUSH1 0x40 MLOAD PUSH2 0xC7E SWAP2 SWAP1 PUSH2 0x1F19 JUMP JUMPDEST SWAP1 DUP2 MSTORE PUSH1 0x20 ADD PUSH1 0x40 MLOAD DUP1 SWAP2 SUB SWAP1 KECCAK256 PUSH1 0x4 ADD PUSH1 0x40 MLOAD PUSH1 0x20 ADD PUSH2 0xC9F SWAP2 SWAP1 PUSH2 0x1F30 JUMP JUMPDEST PUSH1 0x40 MLOAD PUSH1 0x20 DUP2 DUP4 SUB SUB DUP2 MSTORE SWAP1 PUSH1 0x40 MSTORE DUP1 MLOAD SWAP1 PUSH1 0x20 ADD KECCAK256 EQ PUSH2 0xCF5 JUMPI PUSH1 0x40 MLOAD PUSH32 0x8C379A000000000000000000000000000000000000000000000000000000000 DUP2 MSTORE PUSH1 0x4 ADD PUSH2 0xCEC SWAP1 PUSH2 0x212A JUMP JUMPDEST PUSH1 0x40 MLOAD DUP1 SWAP2 SUB SWAP1 REVERT JUMPDEST PUSH1 0x40 MLOAD PUSH1 0x20 ADD PUSH2 0xD04 SWAP1 PUSH2 0x1F5C JUMP JUMPDEST PUSH1 0x40 MLOAD PUSH1 0x20 DUP2 DUP4 SUB SUB DUP2 MSTORE SWAP1 PUSH1 0x40 MSTORE DUP1 MLOAD SWAP1 PUSH1 0x20 ADD KECCAK256 PUSH1 0x1 DUP7 PUSH1 0x40 MLOAD PUSH2 0xD2A SWAP2 SWAP1 PUSH2 0x1F19 JUMP JUMPDEST SWAP1 DUP2 MSTORE PUSH1 0x20 ADD PUSH1 0x40 MLOAD DUP1 SWAP2 SUB SWAP1 KECCAK256 PUSH1 0x3 ADD PUSH1 0x40 MLOAD PUSH1 0x20 ADD PUSH2 0xD4B SWAP2 SWAP1 PUSH2 0x1F30 JUMP JUMPDEST PUSH1 0x40 MLOAD PUSH1 0x20 DUP2 DUP4 SUB SUB DUP2 MSTORE SWAP1 PUSH1 0x40 MSTORE DUP1 MLOAD SWAP1 PUSH1 0x20 ADD KECCAK256 EQ ISZERO PUSH2 0xDA2 JUMPI PUSH1 0x40 MLOAD PUSH32 0x8C379A000000000000000000000000000000000000000000000000000000000 DUP2 MSTORE PUSH1 0x4 ADD PUSH2 0xD99 SWAP1 PUSH2 0x20AA JUMP JUMPDEST PUSH1 0x40 MLOAD DUP1 SWAP2 SUB SWAP1 REVERT JUMPDEST PUSH1 0x0 DUP5 PUSH1 0x40 MLOAD PUSH1 0x20 ADD PUSH2 0xDB5 SWAP2 SWAP1 PUSH2 0x1F19 JUMP JUMPDEST PUSH1 0x40 MLOAD PUSH1 0x20 DUP2 DUP4 SUB SUB DUP2 MSTORE SWAP1 PUSH1 0x40 MSTORE DUP1 MLOAD SWAP1 PUSH1 0x20 ADD KECCAK256 SWAP1 POP DUP1 PUSH1 0x40 MLOAD PUSH1 0x20 ADD PUSH2 0xDDE SWAP2 SWAP1 PUSH2 0x1EFE JUMP JUMPDEST PUSH1 0x40 MLOAD PUSH1 0x20 DUP2 DUP4 SUB SUB DUP2 MSTORE SWAP1 PUSH1 0x40 MSTORE DUP1 MLOAD SWAP1 PUSH1 0x20 ADD KECCAK256 PUSH1 0x1 DUP8 PUSH1 0x40 MLOAD PUSH2 0xE04 SWAP2 SWAP1 PUSH2 0x1F19 JUMP JUMPDEST SWAP1 DUP2 MSTORE PUSH1 0x20 ADD PUSH1 0x40 MLOAD DUP1 SWAP2 SUB SWAP1 KECCAK256 PUSH1 0x2 ADD SLOAD PUSH1 0x40 MLOAD PUSH1 0x20 ADD PUSH2 0xE26 SWAP2 SWAP1 PUSH2 0x1EFE JUMP JUMPDEST PUSH1 0x40 MLOAD PUSH1 0x20 DUP2 DUP4 SUB SUB DUP2 MSTORE SWAP1 PUSH1 0x40 MSTORE DUP1 MLOAD SWAP1 PUSH1 0x20 ADD KECCAK256 EQ PUSH2 0xE7C JUMPI PUSH1 0x40 MLOAD PUSH32 0x8C379A000000000000000000000000000000000000000000000000000000000 DUP2 MSTORE PUSH1 0x4 ADD PUSH2 0xE73 SWAP1 PUSH2 0x214A JUMP JUMPDEST PUSH1 0x40 MLOAD DUP1 SWAP2 SUB SWAP1 REVERT JUMPDEST PUSH1 0x1 DUP7 PUSH1 0x40 MLOAD PUSH2 0xE8C SWAP2 SWAP1 PUSH2 0x1F19 JUMP JUMPDEST SWAP1 DUP2 MSTORE PUSH1 0x20 ADD PUSH1 0x40 MLOAD DUP1 SWAP2 SUB SWAP1 KECCAK256 PUSH1 0x0 ADD SLOAD PUSH1 0x1 DUP8 PUSH1 0x40 MLOAD PUSH2 0xEAE SWAP2 SWAP1 PUSH2 0x1F19 JUMP JUMPDEST SWAP1 DUP2 MSTORE PUSH1 0x20 ADD PUSH1 0x40 MLOAD DUP1 SWAP2 SUB SWAP1 KECCAK256 PUSH1 0x3 ADD PUSH1 0x1 DUP9 PUSH1 0x40 MLOAD PUSH2 0xECF SWAP2 SWAP1 PUSH2 0x1F19 JUMP JUMPDEST SWAP1 DUP2 MSTORE PUSH1 0x20 ADD PUSH1 0x40 MLOAD DUP1 SWAP2 SUB SWAP1 KECCAK256 PUSH1 0x1 ADD DUP2 DUP1 SLOAD PUSH2 0xEEC SWAP1 PUSH2 0x22D2 JUMP JUMPDEST DUP1 PUSH1 0x1F ADD PUSH1 0x20 DUP1 SWAP2 DIV MUL PUSH1 0x20 ADD PUSH1 0x40 MLOAD SWAP1 DUP2 ADD PUSH1 0x40 MSTORE DUP1 SWAP3 SWAP2 SWAP1 DUP2 DUP2 MSTORE PUSH1 0x20 ADD DUP3 DUP1 SLOAD PUSH2 0xF18 SWAP1 PUSH2 0x22D2 JUMP JUMPDEST DUP1 ISZERO PUSH2 0xF65 JUMPI DUP1 PUSH1 0x1F LT PUSH2 0xF3A JUMPI PUSH2 0x100 DUP1 DUP4 SLOAD DIV MUL DUP4 MSTORE SWAP2 PUSH1 0x20 ADD SWAP2 PUSH2 0xF65 JUMP JUMPDEST DUP3 ADD SWAP2 SWAP1 PUSH1 0x0 MSTORE PUSH1 0x20 PUSH1 0x0 KECCAK256 SWAP1 JUMPDEST DUP2 SLOAD DUP2 MSTORE SWAP1 PUSH1 0x1 ADD SWAP1 PUSH1 0x20 ADD DUP1 DUP4 GT PUSH2 0xF48 JUMPI DUP3 SWAP1 SUB PUSH1 0x1F AND DUP3 ADD SWAP2 JUMPDEST POP POP POP POP POP SWAP2 POP DUP1 DUP1 SLOAD PUSH2 0xF78 SWAP1 PUSH2 0x22D2 JUMP JUMPDEST DUP1 PUSH1 0x1F ADD PUSH1 0x20 DUP1 SWAP2 DIV MUL PUSH1 0x20 ADD PUSH1 0x40 MLOAD SWAP1 DUP2 ADD PUSH1 0x40 MSTORE DUP1 SWAP3 SWAP2 SWAP1 DUP2 DUP2 MSTORE PUSH1 0x20 ADD DUP3 DUP1 SLOAD PUSH2 0xFA4 SWAP1 PUSH2 0x22D2 JUMP JUMPDEST DUP1 ISZERO PUSH2 0xFF1 JUMPI DUP1 PUSH1 0x1F LT PUSH2 0xFC6 JUMPI PUSH2 0x100 DUP1 DUP4 SLOAD DIV MUL DUP4 MSTORE SWAP2 PUSH1 0x20 ADD SWAP2 PUSH2 0xFF1 JUMP JUMPDEST DUP3 ADD SWAP2 SWAP1 PUSH1 0x0 MSTORE PUSH1 0x20 PUSH1 0x0 KECCAK256 SWAP1 JUMPDEST DUP2 SLOAD DUP2 MSTORE SWAP1 PUSH1 0x1 ADD SWAP1 PUSH1 0x20 ADD DUP1 DUP4 GT PUSH2 0xFD4 JUMPI DUP3 SWAP1 SUB PUSH1 0x1F AND DUP3 ADD SWAP2 JUMPDEST POP POP POP POP POP SWAP1 POP SWAP4 POP SWAP4 POP SWAP4 POP POP SWAP3 POP SWAP3 POP SWAP3 JUMP JUMPDEST PUSH1 0x0 DUP1 SLOAD SWAP1 POP SWAP1 JUMP JUMPDEST PUSH1 0x60 DUP1 PUSH1 0x60 DUP1 PUSH1 0x60 PUSH1 0x0 PUSH2 0x1022 DUP8 PUSH2 0x2CC JUMP JUMPDEST SWAP1 POP PUSH1 0x1 DUP2 PUSH1 0x40 MLOAD PUSH2 0x1034 SWAP2 SWAP1 PUSH2 0x1F19 JUMP JUMPDEST SWAP1 DUP2 MSTORE PUSH1 0x20 ADD PUSH1 0x40 MLOAD DUP1 SWAP2 SUB SWAP1 KECCAK256 PUSH1 0x1 ADD PUSH1 0x1 DUP3 PUSH1 0x40 MLOAD PUSH2 0x1055 SWAP2 SWAP1 PUSH2 0x1F19 JUMP JUMPDEST SWAP1 DUP2 MSTORE PUSH1 0x20 ADD PUSH1 0x40 MLOAD DUP1 SWAP2 SUB SWAP1 KECCAK256 PUSH1 0x3 ADD PUSH1 0x1 DUP4 PUSH1 0x40 MLOAD PUSH2 0x1076 SWAP2 SWAP1 PUSH2 0x1F19 JUMP JUMPDEST SWAP1 DUP2 MSTORE PUSH1 0x20 ADD PUSH1 0x40 MLOAD DUP1 SWAP2 SUB SWAP1 KECCAK256 PUSH1 0x4 ADD PUSH1 0x1 DUP5 PUSH1 0x40 MLOAD PUSH2 0x1097 SWAP2 SWAP1 PUSH2 0x1F19 JUMP JUMPDEST SWAP1 DUP2 MSTORE PUSH1 0x20 ADD PUSH1 0x40 MLOAD DUP1 SWAP2 SUB SWAP1 KECCAK256 PUSH1 0x5 ADD PUSH1 0x1 DUP6 PUSH1 0x40 MLOAD PUSH2 0x10B8 SWAP2 SWAP1 PUSH2 0x1F19 JUMP JUMPDEST SWAP1 DUP2 MSTORE PUSH1 0x20 ADD PUSH1 0x40 MLOAD DUP1 SWAP2 SUB SWAP1 KECCAK256 PUSH1 0x6 ADD DUP5 DUP1 SLOAD PUSH2 0x10D5 SWAP1 PUSH2 0x22D2 JUMP JUMPDEST DUP1 PUSH1 0x1F ADD PUSH1 0x20 DUP1 SWAP2 DIV MUL PUSH1 0x20 ADD PUSH1 0x40 MLOAD SWAP1 DUP2 ADD PUSH1 0x40 MSTORE DUP1 SWAP3 SWAP2 SWAP1 DUP2 DUP2 MSTORE PUSH1 0x20 ADD DUP3 DUP1 SLOAD PUSH2 0x1101 SWAP1 PUSH2 0x22D2 JUMP JUMPDEST DUP1 ISZERO PUSH2 0x114E JUMPI DUP1 PUSH1 0x1F LT PUSH2 0x1123 JUMPI PUSH2 0x100 DUP1 DUP4 SLOAD DIV MUL DUP4 MSTORE SWAP2 PUSH1 0x20 ADD SWAP2 PUSH2 0x114E JUMP JUMPDEST DUP3 ADD SWAP2 SWAP1 PUSH1 0x0 MSTORE PUSH1 0x20 PUSH1 0x0 KECCAK256 SWAP1 JUMPDEST DUP2 SLOAD DUP2 MSTORE SWAP1 PUSH1 0x1 ADD SWAP1 PUSH1 0x20 ADD DUP1 DUP4 GT PUSH2 0x1131 JUMPI DUP3 SWAP1 SUB PUSH1 0x1F AND DUP3 ADD SWAP2 JUMPDEST POP POP POP POP POP SWAP5 POP DUP4 DUP1 SLOAD PUSH2 0x1161 SWAP1 PUSH2 0x22D2 JUMP JUMPDEST DUP1 PUSH1 0x1F ADD PUSH1 0x20 DUP1 SWAP2 DIV MUL PUSH1 0x20 ADD PUSH1 0x40 MLOAD SWAP1 DUP2 ADD PUSH1 0x40 MSTORE DUP1 SWAP3 SWAP2 SWAP1 DUP2 DUP2 MSTORE PUSH1 0x20 ADD DUP3 DUP1 SLOAD PUSH2 0x118D SWAP1 PUSH2 0x22D2 JUMP JUMPDEST DUP1 ISZERO PUSH2 0x11DA JUMPI DUP1 PUSH1 0x1F LT PUSH2 0x11AF JUMPI PUSH2 0x100 DUP1 DUP4 SLOAD DIV MUL DUP4 MSTORE SWAP2 PUSH1 0x20 ADD SWAP2 PUSH2 0x11DA JUMP JUMPDEST DUP3 ADD SWAP2 SWAP1 PUSH1 0x0 MSTORE PUSH1 0x20 PUSH1 0x0 KECCAK256 SWAP1 JUMPDEST DUP2 SLOAD DUP2 MSTORE SWAP1 PUSH1 0x1 ADD SWAP1 PUSH1 0x20 ADD DUP1 DUP4 GT PUSH2 0x11BD JUMPI DUP3 SWAP1 SUB PUSH1 0x1F AND DUP3 ADD SWAP2 JUMPDEST POP POP POP POP POP SWAP4 POP DUP3 DUP1 SLOAD PUSH2 0x11ED SWAP1 PUSH2 0x22D2 JUMP JUMPDEST DUP1 PUSH1 0x1F ADD PUSH1 0x20 DUP1 SWAP2 DIV MUL PUSH1 0x20 ADD PUSH1 0x40 MLOAD SWAP1 DUP2 ADD PUSH1 0x40 MSTORE DUP1 SWAP3 SWAP2 SWAP1 DUP2 DUP2 MSTORE PUSH1 0x20 ADD DUP3 DUP1 SLOAD PUSH2 0x1219 SWAP1 PUSH2 0x22D2 JUMP JUMPDEST DUP1 ISZERO PUSH2 0x1266 JUMPI DUP1 PUSH1 0x1F LT PUSH2 0x123B JUMPI PUSH2 0x100 DUP1 DUP4 SLOAD DIV MUL DUP4 MSTORE SWAP2 PUSH1 0x20 ADD SWAP2 PUSH2 0x1266 JUMP JUMPDEST DUP3 ADD SWAP2 SWAP1 PUSH1 0x0 MSTORE PUSH1 0x20 PUSH1 0x0 KECCAK256 SWAP1 JUMPDEST DUP2 SLOAD DUP2 MSTORE SWAP1 PUSH1 0x1 ADD SWAP1 PUSH1 0x20 ADD DUP1 DUP4 GT PUSH2 0x1249 JUMPI DUP3 SWAP1 SUB PUSH1 0x1F AND DUP3 ADD SWAP2 JUMPDEST POP POP POP POP POP SWAP3 POP DUP2 DUP1 SLOAD PUSH2 0x1279 SWAP1 PUSH2 0x22D2 JUMP JUMPDEST DUP1 PUSH1 0x1F ADD PUSH1 0x20 DUP1 SWAP2 DIV MUL PUSH1 0x20 ADD PUSH1 0x40 MLOAD SWAP1 DUP2 ADD PUSH1 0x40 MSTORE DUP1 SWAP3 SWAP2 SWAP1 DUP2 DUP2 MSTORE PUSH1 0x20 ADD DUP3 DUP1 SLOAD PUSH2 0x12A5 SWAP1 PUSH2 0x22D2 JUMP JUMPDEST DUP1 ISZERO PUSH2 0x12F2 JUMPI DUP1 PUSH1 0x1F LT PUSH2 0x12C7 JUMPI PUSH2 0x100 DUP1 DUP4 SLOAD DIV MUL DUP4 MSTORE SWAP2 PUSH1 0x20 ADD SWAP2 PUSH2 0x12F2 JUMP JUMPDEST DUP3 ADD SWAP2 SWAP1 PUSH1 0x0 MSTORE PUSH1 0x20 PUSH1 0x0 KECCAK256 SWAP1 JUMPDEST DUP2 SLOAD DUP2 MSTORE SWAP1 PUSH1 0x1 ADD SWAP1 PUSH1 0x20 ADD DUP1 DUP4 GT PUSH2 0x12D5 JUMPI DUP3 SWAP1 SUB PUSH1 0x1F AND DUP3 ADD SWAP2 JUMPDEST POP POP POP POP POP SWAP2 POP DUP1 DUP1 SLOAD PUSH2 0x1305 SWAP1 PUSH2 0x22D2 JUMP JUMPDEST DUP1 PUSH1 0x1F ADD PUSH1 0x20 DUP1 SWAP2 DIV MUL PUSH1 0x20 ADD PUSH1 0x40 MLOAD SWAP1 DUP2 ADD PUSH1 0x40 MSTORE DUP1 SWAP3 SWAP2 SWAP1 DUP2 DUP2 MSTORE PUSH1 0x20 ADD DUP3 DUP1 SLOAD PUSH2 0x1331 SWAP1 PUSH2 0x22D2 JUMP JUMPDEST DUP1 ISZERO PUSH2 0x137E JUMPI DUP1 PUSH1 0x1F LT PUSH2 0x1353 JUMPI PUSH2 0x100 DUP1 DUP4 SLOAD DIV MUL DUP4 MSTORE SWAP2 PUSH1 0x20 ADD SWAP2 PUSH2 0x137E JUMP JUMPDEST DUP3 ADD SWAP2 SWAP1 PUSH1 0x0 MSTORE PUSH1 0x20 PUSH1 0x0 KECCAK256 SWAP1 JUMPDEST DUP2 SLOAD DUP2 MSTORE SWAP1 PUSH1 0x1 ADD SWAP1 PUSH1 0x20 ADD DUP1 DUP4 GT PUSH2 0x1361 JUMPI DUP3 SWAP1 SUB PUSH1 0x1F AND DUP3 ADD SWAP2 JUMPDEST POP POP POP POP POP SWAP1 POP SWAP6 POP SWAP6 POP SWAP6 POP SWAP6 POP SWAP6 POP POP SWAP2 SWAP4 SWAP6 SWAP1 SWAP3 SWAP5 POP JUMP JUMPDEST DUP3 PUSH1 0x40 MLOAD PUSH1 0x20 ADD PUSH2 0x13AA SWAP2 SWAP1 PUSH2 0x1F19 JUMP JUMPDEST PUSH1 0x40 MLOAD PUSH1 0x20 DUP2 DUP4 SUB SUB DUP2 MSTORE SWAP1 PUSH1 0x40 MSTORE DUP1 MLOAD SWAP1 PUSH1 0x20 ADD KECCAK256 PUSH1 0x1 DUP5 PUSH1 0x40 MLOAD PUSH2 0x13D0 SWAP2 SWAP1 PUSH2 0x1F19 JUMP JUMPDEST SWAP1 DUP2 MSTORE PUSH1 0x20 ADD PUSH1 0x40 MLOAD DUP1 SWAP2 SUB SWAP1 KECCAK256 PUSH1 0x4 ADD PUSH1 0x40 MLOAD PUSH1 0x20 ADD PUSH2 0x13F1 SWAP2 SWAP1 PUSH2 0x1F30 JUMP JUMPDEST PUSH1 0x40 MLOAD PUSH1 0x20 DUP2 DUP4 SUB SUB DUP2 MSTORE SWAP1 PUSH1 0x40 MSTORE DUP1 MLOAD SWAP1 PUSH1 0x20 ADD KECCAK256 EQ PUSH2 0x1447 JUMPI PUSH1 0x40 MLOAD PUSH32 0x8C379A000000000000000000000000000000000000000000000000000000000 DUP2 MSTORE PUSH1 0x4 ADD PUSH2 0x143E SWAP1 PUSH2 0x212A JUMP JUMPDEST PUSH1 0x40 MLOAD DUP1 SWAP2 SUB SWAP1 REVERT JUMPDEST PUSH1 0x40 MLOAD PUSH1 0x20 ADD PUSH2 0x1456 SWAP1 PUSH2 0x1F5C JUMP JUMPDEST PUSH1 0x40 MLOAD PUSH1 0x20 DUP2 DUP4 SUB SUB DUP2 MSTORE SWAP1 PUSH1 0x40 MSTORE DUP1 MLOAD SWAP1 PUSH1 0x20 ADD KECCAK256 PUSH1 0x1 DUP5 PUSH1 0x40 MLOAD PUSH2 0x147C SWAP2 SWAP1 PUSH2 0x1F19 JUMP JUMPDEST SWAP1 DUP2 MSTORE PUSH1 0x20 ADD PUSH1 0x40 MLOAD DUP1 SWAP2 SUB SWAP1 KECCAK256 PUSH1 0x3 ADD PUSH1 0x40 MLOAD PUSH1 0x20 ADD PUSH2 0x149D SWAP2 SWAP1 PUSH2 0x1F30 JUMP JUMPDEST PUSH1 0x40 MLOAD PUSH1 0x20 DUP2 DUP4 SUB SUB DUP2 MSTORE SWAP1 PUSH1 0x40 MSTORE DUP1 MLOAD SWAP1 PUSH1 0x20 ADD KECCAK256 EQ ISZERO PUSH2 0x14F4 JUMPI PUSH1 0x40 MLOAD PUSH32 0x8C379A000000000000000000000000000000000000000000000000000000000 DUP2 MSTORE PUSH1 0x4 ADD PUSH2 0x14EB SWAP1 PUSH2 0x20CA JUMP JUMPDEST PUSH1 0x40 MLOAD DUP1 SWAP2 SUB SWAP1 REVERT JUMPDEST DUP4 PUSH1 0x1 DUP5 PUSH1 0x40 MLOAD PUSH2 0x1505 SWAP2 SWAP1 PUSH2 0x1F19 JUMP JUMPDEST SWAP1 DUP2 MSTORE PUSH1 0x20 ADD PUSH1 0x40 MLOAD DUP1 SWAP2 SUB SWAP1 KECCAK256 PUSH1 0x1 ADD SWAP1 DUP1 MLOAD SWAP1 PUSH1 0x20 ADD SWAP1 PUSH2 0x1529 SWAP3 SWAP2 SWAP1 PUSH2 0x1792 JUMP JUMPDEST POP PUSH1 0x40 MLOAD DUP1 PUSH1 0x40 ADD PUSH1 0x40 MSTORE DUP1 PUSH1 0xA DUP2 MSTORE PUSH1 0x20 ADD PUSH32 0x756E766572696669656400000000000000000000000000000000000000000000 DUP2 MSTORE POP PUSH1 0x1 DUP5 PUSH1 0x40 MLOAD PUSH2 0x1570 SWAP2 SWAP1 PUSH2 0x1F19 JUMP JUMPDEST SWAP1 DUP2 MSTORE PUSH1 0x20 ADD PUSH1 0x40 MLOAD DUP1 SWAP2 SUB SWAP1 KECCAK256 PUSH1 0x3 ADD SWAP1 DUP1 MLOAD SWAP1 PUSH1 0x20 ADD SWAP1 PUSH2 0x1594 SWAP3 SWAP2 SWAP1 PUSH2 0x1792 JUMP JUMPDEST POP DUP2 PUSH1 0x1 DUP5 PUSH1 0x40 MLOAD PUSH2 0x15A6 SWAP2 SWAP1 PUSH2 0x1F19 JUMP JUMPDEST SWAP1 DUP2 MSTORE PUSH1 0x20 ADD PUSH1 0x40 MLOAD DUP1 SWAP2 SUB SWAP1 KECCAK256 PUSH1 0x5 ADD SWAP1 DUP1 MLOAD SWAP1 PUSH1 0x20 ADD SWAP1 PUSH2 0x15CA SWAP3 SWAP2 SWAP1 PUSH2 0x1792 JUMP JUMPDEST POP DUP1 PUSH1 0x1 DUP5 PUSH1 0x40 MLOAD PUSH2 0x15DC SWAP2 SWAP1 PUSH2 0x1F19 JUMP JUMPDEST SWAP1 DUP2 MSTORE PUSH1 0x20 ADD PUSH1 0x40 MLOAD DUP1 SWAP2 SUB SWAP1 KECCAK256 PUSH1 0x6 ADD SWAP1 DUP1 MLOAD SWAP1 PUSH1 0x20 ADD SWAP1 PUSH2 0x1600 SWAP3 SWAP2 SWAP1 PUSH2 0x1792 JUMP JUMPDEST POP POP POP POP POP JUMP JUMPDEST PUSH1 0x60 DUP3 PUSH1 0x40 MLOAD PUSH1 0x20 ADD PUSH2 0x161A SWAP2 SWAP1 PUSH2 0x1F19 JUMP JUMPDEST PUSH1 0x40 MLOAD PUSH1 0x20 DUP2 DUP4 SUB SUB DUP2 MSTORE SWAP1 PUSH1 0x40 MSTORE DUP1 MLOAD SWAP1 PUSH1 0x20 ADD KECCAK256 PUSH1 0x3 PUSH1 0x40 MLOAD PUSH1 0x20 ADD PUSH2 0x1642 SWAP2 SWAP1 PUSH2 0x1F30 JUMP JUMPDEST PUSH1 0x40 MLOAD PUSH1 0x20 DUP2 DUP4 SUB SUB DUP2 MSTORE SWAP1 PUSH1 0x40 MSTORE DUP1 MLOAD SWAP1 PUSH1 0x20 ADD KECCAK256 EQ PUSH2 0x1698 JUMPI PUSH1 0x40 MLOAD PUSH32 0x8C379A000000000000000000000000000000000000000000000000000000000 DUP2 MSTORE PUSH1 0x4 ADD PUSH2 0x168F SWAP1 PUSH2 0x210A JUMP JUMPDEST PUSH1 0x40 MLOAD DUP1 SWAP2 SUB SWAP1 REVERT JUMPDEST PUSH1 0x0 DUP3 PUSH1 0x40 MLOAD PUSH1 0x20 ADD PUSH2 0x16AB SWAP2 SWAP1 PUSH2 0x1F19 JUMP JUMPDEST PUSH1 0x40 MLOAD PUSH1 0x20 DUP2 DUP4 SUB SUB DUP2 MSTORE SWAP1 PUSH1 0x40 MSTORE DUP1 MLOAD SWAP1 PUSH1 0x20 ADD KECCAK256 SWAP1 POP DUP1 PUSH1 0x40 MLOAD PUSH1 0x20 ADD PUSH2 0x16D4 SWAP2 SWAP1 PUSH2 0x1EFE JUMP JUMPDEST PUSH1 0x40 MLOAD PUSH1 0x20 DUP2 DUP4 SUB SUB DUP2 MSTORE SWAP1 PUSH1 0x40 MSTORE DUP1 MLOAD SWAP1 PUSH1 0x20 ADD KECCAK256 PUSH1 0x4 SLOAD PUSH1 0x40 MLOAD PUSH1 0x20 ADD PUSH2 0x16FD SWAP2 SWAP1 PUSH2 0x1EFE JUMP JUMPDEST PUSH1 0x40 MLOAD PUSH1 0x20 DUP2 DUP4 SUB SUB DUP2 MSTORE SWAP1 PUSH1 0x40 MSTORE DUP1 MLOAD SWAP1 PUSH1 0x20 ADD KECCAK256 EQ PUSH2 0x1753 JUMPI PUSH1 0x40 MLOAD PUSH32 0x8C379A000000000000000000000000000000000000000000000000000000000 DUP2 MSTORE PUSH1 0x4 ADD PUSH2 0x174A SWAP1 PUSH2 0x216A JUMP JUMPDEST PUSH1 0x40 MLOAD DUP1 SWAP2 SUB SWAP1 REVERT JUMPDEST PUSH1 0x40 MLOAD DUP1 PUSH1 0x40 ADD PUSH1 0x40 MSTORE DUP1 PUSH1 0x7 DUP2 MSTORE PUSH1 0x20 ADD PUSH32 0x5375636365737300000000000000000000000000000000000000000000000000 DUP2 MSTORE POP SWAP2 POP POP SWAP3 SWAP2 POP POP JUMP JUMPDEST DUP3 DUP1 SLOAD PUSH2 0x179E SWAP1 PUSH2 0x22D2 JUMP JUMPDEST SWAP1 PUSH1 0x0 MSTORE PUSH1 0x20 PUSH1 0x0 KECCAK256 SWAP1 PUSH1 0x1F ADD PUSH1 0x20 SWAP1 DIV DUP2 ADD SWAP3 DUP3 PUSH2 0x17C0 JUMPI PUSH1 0x0 DUP6 SSTORE PUSH2 0x1807 JUMP JUMPDEST DUP3 PUSH1 0x1F LT PUSH2 0x17D9 JUMPI DUP1 MLOAD PUSH1 0xFF NOT AND DUP4 DUP1 ADD OR DUP6 SSTORE PUSH2 0x1807 JUMP JUMPDEST DUP3 DUP1 ADD PUSH1 0x1 ADD DUP6 SSTORE DUP3 ISZERO PUSH2 0x1807 JUMPI SWAP2 DUP3 ADD JUMPDEST DUP3 DUP2 GT ISZERO PUSH2 0x1806 JUMPI DUP3 MLOAD DUP3 SSTORE SWAP2 PUSH1 0x20 ADD SWAP2 SWAP1 PUSH1 0x1 ADD SWAP1 PUSH2 0x17EB JUMP JUMPDEST JUMPDEST POP SWAP1 POP PUSH2 0x1814 SWAP2 SWAP1 PUSH2 0x1818 JUMP JUMPDEST POP SWAP1 JUMP JUMPDEST JUMPDEST DUP1 DUP3 GT ISZERO PUSH2 0x1831 JUMPI PUSH1 0x0 DUP2 PUSH1 0x0 SWAP1 SSTORE POP PUSH1 0x1 ADD PUSH2 0x1819 JUMP JUMPDEST POP SWAP1 JUMP JUMPDEST PUSH1 0x0 PUSH2 0x1848 PUSH2 0x1843 DUP5 PUSH2 0x220F JUMP JUMPDEST PUSH2 0x21EA JUMP JUMPDEST SWAP1 POP DUP3 DUP2 MSTORE PUSH1 0x20 DUP2 ADD DUP5 DUP5 DUP5 ADD GT ISZERO PUSH2 0x1864 JUMPI PUSH2 0x1863 PUSH2 0x241A JUMP JUMPDEST JUMPDEST PUSH2 0x186F DUP5 DUP3 DUP6 PUSH2 0x2290 JUMP JUMPDEST POP SWAP4 SWAP3 POP POP POP JUMP JUMPDEST PUSH1 0x0 DUP3 PUSH1 0x1F DUP4 ADD SLT PUSH2 0x188C JUMPI PUSH2 0x188B PUSH2 0x2415 JUMP JUMPDEST JUMPDEST DUP2 CALLDATALOAD PUSH2 0x189C DUP5 DUP3 PUSH1 0x20 DUP7 ADD PUSH2 0x1835 JUMP JUMPDEST SWAP2 POP POP SWAP3 SWAP2 POP POP JUMP JUMPDEST PUSH1 0x0 DUP2 CALLDATALOAD SWAP1 POP PUSH2 0x18B4 DUP2 PUSH2 0x2695 JUMP JUMPDEST SWAP3 SWAP2 POP POP JUMP JUMPDEST PUSH1 0x0 DUP1 PUSH1 0x40 DUP4 DUP6 SUB SLT ISZERO PUSH2 0x18D1 JUMPI PUSH2 0x18D0 PUSH2 0x2424 JUMP JUMPDEST JUMPDEST PUSH1 0x0 DUP4 ADD CALLDATALOAD PUSH8 0xFFFFFFFFFFFFFFFF DUP2 GT ISZERO PUSH2 0x18EF JUMPI PUSH2 0x18EE PUSH2 0x241F JUMP JUMPDEST JUMPDEST PUSH2 0x18FB DUP6 DUP3 DUP7 ADD PUSH2 0x1877 JUMP JUMPDEST SWAP3 POP POP PUSH1 0x20 DUP4 ADD CALLDATALOAD PUSH8 0xFFFFFFFFFFFFFFFF DUP2 GT ISZERO PUSH2 0x191C JUMPI PUSH2 0x191B PUSH2 0x241F JUMP JUMPDEST JUMPDEST PUSH2 0x1928 DUP6 DUP3 DUP7 ADD PUSH2 0x1877 JUMP JUMPDEST SWAP2 POP POP SWAP3 POP SWAP3 SWAP1 POP JUMP JUMPDEST PUSH1 0x0 DUP1 PUSH1 0x0 PUSH1 0x60 DUP5 DUP7 SUB SLT ISZERO PUSH2 0x194B JUMPI PUSH2 0x194A PUSH2 0x2424 JUMP JUMPDEST JUMPDEST PUSH1 0x0 DUP5 ADD CALLDATALOAD PUSH8 0xFFFFFFFFFFFFFFFF DUP2 GT ISZERO PUSH2 0x1969 JUMPI PUSH2 0x1968 PUSH2 0x241F JUMP JUMPDEST JUMPDEST PUSH2 0x1975 DUP7 DUP3 DUP8 ADD PUSH2 0x1877 JUMP JUMPDEST SWAP4 POP POP PUSH1 0x20 DUP5 ADD CALLDATALOAD PUSH8 0xFFFFFFFFFFFFFFFF DUP2 GT ISZERO PUSH2 0x1996 JUMPI PUSH2 0x1995 PUSH2 0x241F JUMP JUMPDEST JUMPDEST PUSH2 0x19A2 DUP7 DUP3 DUP8 ADD PUSH2 0x1877 JUMP JUMPDEST SWAP3 POP POP PUSH1 0x40 DUP5 ADD CALLDATALOAD PUSH8 0xFFFFFFFFFFFFFFFF DUP2 GT ISZERO PUSH2 0x19C3 JUMPI PUSH2 0x19C2 PUSH2 0x241F JUMP JUMPDEST JUMPDEST PUSH2 0x19CF DUP7 DUP3 DUP8 ADD PUSH2 0x1877 JUMP JUMPDEST SWAP2 POP POP SWAP3 POP SWAP3 POP SWAP3 JUMP JUMPDEST PUSH1 0x0 DUP1 PUSH1 0x0 DUP1 PUSH1 0x80 DUP6 DUP8 SUB SLT ISZERO PUSH2 0x19F3 JUMPI PUSH2 0x19F2 PUSH2 0x2424 JUMP JUMPDEST JUMPDEST PUSH1 0x0 DUP6 ADD CALLDATALOAD PUSH8 0xFFFFFFFFFFFFFFFF DUP2 GT ISZERO PUSH2 0x1A11 JUMPI PUSH2 0x1A10 PUSH2 0x241F JUMP JUMPDEST JUMPDEST PUSH2 0x1A1D DUP8 DUP3 DUP9 ADD PUSH2 0x1877 JUMP JUMPDEST SWAP5 POP POP PUSH1 0x20 DUP6 ADD CALLDATALOAD PUSH8 0xFFFFFFFFFFFFFFFF DUP2 GT ISZERO PUSH2 0x1A3E JUMPI PUSH2 0x1A3D PUSH2 0x241F JUMP JUMPDEST JUMPDEST PUSH2 0x1A4A DUP8 DUP3 DUP9 ADD PUSH2 0x1877 JUMP JUMPDEST SWAP4 POP POP PUSH1 0x40 DUP6 ADD CALLDATALOAD PUSH8 0xFFFFFFFFFFFFFFFF DUP2 GT ISZERO PUSH2 0x1A6B JUMPI PUSH2 0x1A6A PUSH2 0x241F JUMP JUMPDEST JUMPDEST PUSH2 0x1A77 DUP8 DUP3 DUP9 ADD PUSH2 0x1877 JUMP JUMPDEST SWAP3 POP POP PUSH1 0x60 DUP6 ADD CALLDATALOAD PUSH8 0xFFFFFFFFFFFFFFFF DUP2 GT ISZERO PUSH2 0x1A98 JUMPI PUSH2 0x1A97 PUSH2 0x241F JUMP JUMPDEST JUMPDEST PUSH2 0x1AA4 DUP8 DUP3 DUP9 ADD PUSH2 0x1877 JUMP JUMPDEST SWAP2 POP POP SWAP3 SWAP6 SWAP2 SWAP5 POP SWAP3 POP JUMP JUMPDEST PUSH1 0x0 DUP1 PUSH1 0x0 DUP1 PUSH1 0x0 DUP1 PUSH1 0xC0 DUP8 DUP10 SUB SLT ISZERO PUSH2 0x1ACD JUMPI PUSH2 0x1ACC PUSH2 0x2424 JUMP JUMPDEST JUMPDEST PUSH1 0x0 DUP8 ADD CALLDATALOAD PUSH8 0xFFFFFFFFFFFFFFFF DUP2 GT ISZERO PUSH2 0x1AEB JUMPI PUSH2 0x1AEA PUSH2 0x241F JUMP JUMPDEST JUMPDEST PUSH2 0x1AF7 DUP10 DUP3 DUP11 ADD PUSH2 0x1877 JUMP JUMPDEST SWAP7 POP POP PUSH1 0x20 DUP8 ADD CALLDATALOAD PUSH8 0xFFFFFFFFFFFFFFFF DUP2 GT ISZERO PUSH2 0x1B18 JUMPI PUSH2 0x1B17 PUSH2 0x241F JUMP JUMPDEST JUMPDEST PUSH2 0x1B24 DUP10 DUP3 DUP11 ADD PUSH2 0x1877 JUMP JUMPDEST SWAP6 POP POP PUSH1 0x40 DUP8 ADD CALLDATALOAD PUSH8 0xFFFFFFFFFFFFFFFF DUP2 GT ISZERO PUSH2 0x1B45 JUMPI PUSH2 0x1B44 PUSH2 0x241F JUMP JUMPDEST JUMPDEST PUSH2 0x1B51 DUP10 DUP3 DUP11 ADD PUSH2 0x1877 JUMP JUMPDEST SWAP5 POP POP PUSH1 0x60 DUP8 ADD CALLDATALOAD PUSH8 0xFFFFFFFFFFFFFFFF DUP2 GT ISZERO PUSH2 0x1B72 JUMPI PUSH2 0x1B71 PUSH2 0x241F JUMP JUMPDEST JUMPDEST PUSH2 0x1B7E DUP10 DUP3 DUP11 ADD PUSH2 0x1877 JUMP JUMPDEST SWAP4 POP POP PUSH1 0x80 DUP8 ADD CALLDATALOAD PUSH8 0xFFFFFFFFFFFFFFFF DUP2 GT ISZERO PUSH2 0x1B9F JUMPI PUSH2 0x1B9E PUSH2 0x241F JUMP JUMPDEST JUMPDEST PUSH2 0x1BAB DUP10 DUP3 DUP11 ADD PUSH2 0x1877 JUMP JUMPDEST SWAP3 POP POP PUSH1 0xA0 DUP8 ADD CALLDATALOAD PUSH8 0xFFFFFFFFFFFFFFFF DUP2 GT ISZERO PUSH2 0x1BCC JUMPI PUSH2 0x1BCB PUSH2 0x241F JUMP JUMPDEST JUMPDEST PUSH2 0x1BD8 DUP10 DUP3 DUP11 ADD PUSH2 0x1877 JUMP JUMPDEST SWAP2 POP POP SWAP3 SWAP6 POP SWAP3 SWAP6 POP SWAP3 SWAP6 JUMP JUMPDEST PUSH1 0x0 PUSH1 0x20 DUP3 DUP5 SUB SLT ISZERO PUSH2 0x1BFB JUMPI PUSH2 0x1BFA PUSH2 0x2424 JUMP JUMPDEST JUMPDEST PUSH1 0x0 PUSH2 0x1C09 DUP5 DUP3 DUP6 ADD PUSH2 0x18A5 JUMP JUMPDEST SWAP2 POP POP SWAP3 SWAP2 POP POP JUMP JUMPDEST PUSH1 0x0 DUP1 PUSH1 0x40 DUP4 DUP6 SUB SLT ISZERO PUSH2 0x1C29 JUMPI PUSH2 0x1C28 PUSH2 0x2424 JUMP JUMPDEST JUMPDEST PUSH1 0x0 PUSH2 0x1C37 DUP6 DUP3 DUP7 ADD PUSH2 0x18A5 JUMP JUMPDEST SWAP3 POP POP PUSH1 0x20 DUP4 ADD CALLDATALOAD PUSH8 0xFFFFFFFFFFFFFFFF DUP2 GT ISZERO PUSH2 0x1C58 JUMPI PUSH2 0x1C57 PUSH2 0x241F JUMP JUMPDEST JUMPDEST PUSH2 0x1C64 DUP6 DUP3 DUP7 ADD PUSH2 0x1877 JUMP JUMPDEST SWAP2 POP POP SWAP3 POP SWAP3 SWAP1 POP JUMP JUMPDEST PUSH2 0x1C7F PUSH2 0x1C7A DUP3 PUSH2 0x227C JUMP JUMPDEST PUSH2 0x237E JUMP JUMPDEST DUP3 MSTORE POP POP JUMP JUMPDEST PUSH1 0x0 PUSH2 0x1C90 DUP3 PUSH2 0x2255 JUMP JUMPDEST PUSH2 0x1C9A DUP2 DUP6 PUSH2 0x2260 JUMP JUMPDEST SWAP4 POP PUSH2 0x1CAA DUP2 DUP6 PUSH1 0x20 DUP7 ADD PUSH2 0x229F JUMP JUMPDEST PUSH2 0x1CB3 DUP2 PUSH2 0x2429 JUMP JUMPDEST DUP5 ADD SWAP2 POP POP SWAP3 SWAP2 POP POP JUMP JUMPDEST PUSH1 0x0 PUSH2 0x1CC9 DUP3 PUSH2 0x2255 JUMP JUMPDEST PUSH2 0x1CD3 DUP2 DUP6 PUSH2 0x2271 JUMP JUMPDEST SWAP4 POP PUSH2 0x1CE3 DUP2 DUP6 PUSH1 0x20 DUP7 ADD PUSH2 0x229F JUMP JUMPDEST DUP1 DUP5 ADD SWAP2 POP POP SWAP3 SWAP2 POP POP JUMP JUMPDEST PUSH1 0x0 DUP2 SLOAD PUSH2 0x1CFC DUP2 PUSH2 0x22D2 JUMP JUMPDEST PUSH2 0x1D06 DUP2 DUP7 PUSH2 0x2271 JUMP JUMPDEST SWAP5 POP PUSH1 0x1 DUP3 AND PUSH1 0x0 DUP2 EQ PUSH2 0x1D21 JUMPI PUSH1 0x1 DUP2 EQ PUSH2 0x1D32 JUMPI PUSH2 0x1D65 JUMP JUMPDEST PUSH1 0xFF NOT DUP4 AND DUP7 MSTORE DUP2 DUP7 ADD SWAP4 POP PUSH2 0x1D65 JUMP JUMPDEST PUSH2 0x1D3B DUP6 PUSH2 0x2240 JUMP JUMPDEST PUSH1 0x0 JUMPDEST DUP4 DUP2 LT ISZERO PUSH2 0x1D5D JUMPI DUP2 SLOAD DUP2 DUP10 ADD MSTORE PUSH1 0x1 DUP3 ADD SWAP2 POP PUSH1 0x20 DUP2 ADD SWAP1 POP PUSH2 0x1D3E JUMP JUMPDEST DUP4 DUP9 ADD SWAP6 POP POP POP JUMPDEST POP POP POP SWAP3 SWAP2 POP POP JUMP JUMPDEST PUSH1 0x0 PUSH2 0x1D7B PUSH1 0xA DUP4 PUSH2 0x2271 JUMP JUMPDEST SWAP2 POP PUSH2 0x1D86 DUP3 PUSH2 0x243A JUMP JUMPDEST PUSH1 0xA DUP3 ADD SWAP1 POP SWAP2 SWAP1 POP JUMP JUMPDEST PUSH1 0x0 PUSH2 0x1D9E PUSH1 0x2C DUP4 PUSH2 0x2260 JUMP JUMPDEST SWAP2 POP PUSH2 0x1DA9 DUP3 PUSH2 0x2463 JUMP JUMPDEST PUSH1 0x40 DUP3 ADD SWAP1 POP SWAP2 SWAP1 POP JUMP JUMPDEST PUSH1 0x0 PUSH2 0x1DC1 PUSH1 0x28 DUP4 PUSH2 0x2260 JUMP JUMPDEST SWAP2 POP PUSH2 0x1DCC DUP3 PUSH2 0x24B2 JUMP JUMPDEST PUSH1 0x40 DUP3 ADD SWAP1 POP SWAP2 SWAP1 POP JUMP JUMPDEST PUSH1 0x0 PUSH2 0x1DE4 PUSH1 0x1D DUP4 PUSH2 0x2260 JUMP JUMPDEST SWAP2 POP PUSH2 0x1DEF DUP3 PUSH2 0x2501 JUMP JUMPDEST PUSH1 0x20 DUP3 ADD SWAP1 POP SWAP2 SWAP1 POP JUMP JUMPDEST PUSH1 0x0 PUSH2 0x1E07 PUSH1 0x1D DUP4 PUSH2 0x2260 JUMP JUMPDEST SWAP2 POP PUSH2 0x1E12 DUP3 PUSH2 0x252A JUMP JUMPDEST PUSH1 0x20 DUP3 ADD SWAP1 POP SWAP2 SWAP1 POP JUMP JUMPDEST PUSH1 0x0 PUSH2 0x1E2A PUSH1 0x1B DUP4 PUSH2 0x2260 JUMP JUMPDEST SWAP2 POP PUSH2 0x1E35 DUP3 PUSH2 0x2553 JUMP JUMPDEST PUSH1 0x20 DUP3 ADD SWAP1 POP SWAP2 SWAP1 POP JUMP JUMPDEST PUSH1 0x0 PUSH2 0x1E4D PUSH1 0x19 DUP4 PUSH2 0x2260 JUMP JUMPDEST SWAP2 POP PUSH2 0x1E58 DUP3 PUSH2 0x257C JUMP JUMPDEST PUSH1 0x20 DUP3 ADD SWAP1 POP SWAP2 SWAP1 POP JUMP JUMPDEST PUSH1 0x0 PUSH2 0x1E70 PUSH1 0x3C DUP4 PUSH2 0x2260 JUMP JUMPDEST SWAP2 POP PUSH2 0x1E7B DUP3 PUSH2 0x25A5 JUMP JUMPDEST PUSH1 0x40 DUP3 ADD SWAP1 POP SWAP2 SWAP1 POP JUMP JUMPDEST PUSH1 0x0 PUSH2 0x1E93 PUSH1 0x9 DUP4 PUSH2 0x2271 JUMP JUMPDEST SWAP2 POP PUSH2 0x1E9E DUP3 PUSH2 0x25F4 JUMP JUMPDEST PUSH1 0x9 DUP3 ADD SWAP1 POP SWAP2 SWAP1 POP JUMP JUMPDEST PUSH1 0x0 PUSH2 0x1EB6 PUSH1 0x2A DUP4 PUSH2 0x2260 JUMP JUMPDEST SWAP2 POP PUSH2 0x1EC1 DUP3 PUSH2 0x261D JUMP JUMPDEST PUSH1 0x40 DUP3 ADD SWAP1 POP SWAP2 SWAP1 POP JUMP JUMPDEST PUSH1 0x0 PUSH2 0x1ED9 PUSH1 0x1D DUP4 PUSH2 0x2260 JUMP JUMPDEST SWAP2 POP PUSH2 0x1EE4 DUP3 PUSH2 0x266C JUMP JUMPDEST PUSH1 0x20 DUP3 ADD SWAP1 POP SWAP2 SWAP1 POP JUMP JUMPDEST PUSH2 0x1EF8 DUP2 PUSH2 0x2286 JUMP JUMPDEST DUP3 MSTORE POP POP JUMP JUMPDEST PUSH1 0x0 PUSH2 0x1F0A DUP3 DUP5 PUSH2 0x1C6E JUMP JUMPDEST PUSH1 0x20 DUP3 ADD SWAP2 POP DUP2 SWAP1 POP SWAP3 SWAP2 POP POP JUMP JUMPDEST PUSH1 0x0 PUSH2 0x1F25 DUP3 DUP5 PUSH2 0x1CBE JUMP JUMPDEST SWAP2 POP DUP2 SWAP1 POP SWAP3 SWAP2 POP POP JUMP JUMPDEST PUSH1 0x0 PUSH2 0x1F3C DUP3 DUP5 PUSH2 0x1CEF JUMP JUMPDEST SWAP2 POP DUP2 SWAP1 POP SWAP3 SWAP2 POP POP JUMP JUMPDEST PUSH1 0x0 PUSH2 0x1F52 DUP3 PUSH2 0x1D6E JUMP JUMPDEST SWAP2 POP DUP2 SWAP1 POP SWAP2 SWAP1 POP JUMP JUMPDEST PUSH1 0x0 PUSH2 0x1F67 DUP3 PUSH2 0x1E86 JUMP JUMPDEST SWAP2 POP DUP2 SWAP1 POP SWAP2 SWAP1 POP JUMP JUMPDEST PUSH1 0x0 PUSH1 0x20 DUP3 ADD SWAP1 POP DUP2 DUP2 SUB PUSH1 0x0 DUP4 ADD MSTORE PUSH2 0x1F8B DUP2 DUP5 PUSH2 0x1C85 JUMP JUMPDEST SWAP1 POP SWAP3 SWAP2 POP POP JUMP JUMPDEST PUSH1 0x0 PUSH1 0x80 DUP3 ADD SWAP1 POP DUP2 DUP2 SUB PUSH1 0x0 DUP4 ADD MSTORE PUSH2 0x1FAD DUP2 DUP8 PUSH2 0x1C85 JUMP JUMPDEST SWAP1 POP DUP2 DUP2 SUB PUSH1 0x20 DUP4 ADD MSTORE PUSH2 0x1FC1 DUP2 DUP7 PUSH2 0x1C85 JUMP JUMPDEST SWAP1 POP DUP2 DUP2 SUB PUSH1 0x40 DUP4 ADD MSTORE PUSH2 0x1FD5 DUP2 DUP6 PUSH2 0x1C85 JUMP JUMPDEST SWAP1 POP DUP2 DUP2 SUB PUSH1 0x60 DUP4 ADD MSTORE PUSH2 0x1FE9 DUP2 DUP5 PUSH2 0x1C85 JUMP JUMPDEST SWAP1 POP SWAP6 SWAP5 POP POP POP POP POP JUMP JUMPDEST PUSH1 0x0 PUSH1 0xA0 DUP3 ADD SWAP1 POP DUP2 DUP2 SUB PUSH1 0x0 DUP4 ADD MSTORE PUSH2 0x200E DUP2 DUP9 PUSH2 0x1C85 JUMP JUMPDEST SWAP1 POP DUP2 DUP2 SUB PUSH1 0x20 DUP4 ADD MSTORE PUSH2 0x2022 DUP2 DUP8 PUSH2 0x1C85 JUMP JUMPDEST SWAP1 POP DUP2 DUP2 SUB PUSH1 0x40 DUP4 ADD MSTORE PUSH2 0x2036 DUP2 DUP7 PUSH2 0x1C85 JUMP JUMPDEST SWAP1 POP DUP2 DUP2 SUB PUSH1 0x60 DUP4 ADD MSTORE PUSH2 0x204A DUP2 DUP6 PUSH2 0x1C85 JUMP JUMPDEST SWAP1 POP DUP2 DUP2 SUB PUSH1 0x80 DUP4 ADD MSTORE PUSH2 0x205E DUP2 DUP5 PUSH2 0x1C85 JUMP JUMPDEST SWAP1 POP SWAP7 SWAP6 POP POP POP POP POP POP JUMP JUMPDEST PUSH1 0x0 PUSH1 0x20 DUP3 ADD SWAP1 POP DUP2 DUP2 SUB PUSH1 0x0 DUP4 ADD MSTORE PUSH2 0x2083 DUP2 PUSH2 0x1D91 JUMP JUMPDEST SWAP1 POP SWAP2 SWAP1 POP JUMP JUMPDEST PUSH1 0x0 PUSH1 0x20 DUP3 ADD SWAP1 POP DUP2 DUP2 SUB PUSH1 0x0 DUP4 ADD MSTORE PUSH2 0x20A3 DUP2 PUSH2 0x1DB4 JUMP JUMPDEST SWAP1 POP SWAP2 SWAP1 POP JUMP JUMPDEST PUSH1 0x0 PUSH1 0x20 DUP3 ADD SWAP1 POP DUP2 DUP2 SUB PUSH1 0x0 DUP4 ADD MSTORE PUSH2 0x20C3 DUP2 PUSH2 0x1DD7 JUMP JUMPDEST SWAP1 POP SWAP2 SWAP1 POP JUMP JUMPDEST PUSH1 0x0 PUSH1 0x20 DUP3 ADD SWAP1 POP DUP2 DUP2 SUB PUSH1 0x0 DUP4 ADD MSTORE PUSH2 0x20E3 DUP2 PUSH2 0x1DFA JUMP JUMPDEST SWAP1 POP SWAP2 SWAP1 POP JUMP JUMPDEST PUSH1 0x0 PUSH1 0x20 DUP3 ADD SWAP1 POP DUP2 DUP2 SUB PUSH1 0x0 DUP4 ADD MSTORE PUSH2 0x2103 DUP2 PUSH2 0x1E1D JUMP JUMPDEST SWAP1 POP SWAP2 SWAP1 POP JUMP JUMPDEST PUSH1 0x0 PUSH1 0x20 DUP3 ADD SWAP1 POP DUP2 DUP2 SUB PUSH1 0x0 DUP4 ADD MSTORE PUSH2 0x2123 DUP2 PUSH2 0x1E40 JUMP JUMPDEST SWAP1 POP SWAP2 SWAP1 POP JUMP JUMPDEST PUSH1 0x0 PUSH1 0x20 DUP3 ADD SWAP1 POP DUP2 DUP2 SUB PUSH1 0x0 DUP4 ADD MSTORE PUSH2 0x2143 DUP2 PUSH2 0x1E63 JUMP JUMPDEST SWAP1 POP SWAP2 SWAP1 POP JUMP JUMPDEST PUSH1 0x0 PUSH1 0x20 DUP3 ADD SWAP1 POP DUP2 DUP2 SUB PUSH1 0x0 DUP4 ADD MSTORE PUSH2 0x2163 DUP2 PUSH2 0x1EA9 JUMP JUMPDEST SWAP1 POP SWAP2 SWAP1 POP JUMP JUMPDEST PUSH1 0x0 PUSH1 0x20 DUP3 ADD SWAP1 POP DUP2 DUP2 SUB PUSH1 0x0 DUP4 ADD MSTORE PUSH2 0x2183 DUP2 PUSH2 0x1ECC JUMP JUMPDEST SWAP1 POP SWAP2 SWAP1 POP JUMP JUMPDEST PUSH1 0x0 PUSH1 0x20 DUP3 ADD SWAP1 POP PUSH2 0x219F PUSH1 0x0 DUP4 ADD DUP5 PUSH2 0x1EEF JUMP JUMPDEST SWAP3 SWAP2 POP POP JUMP JUMPDEST PUSH1 0x0 PUSH1 0x60 DUP3 ADD SWAP1 POP PUSH2 0x21BA PUSH1 0x0 DUP4 ADD DUP7 PUSH2 0x1EEF JUMP JUMPDEST DUP2 DUP2 SUB PUSH1 0x20 DUP4 ADD MSTORE PUSH2 0x21CC DUP2 DUP6 PUSH2 0x1C85 JUMP JUMPDEST SWAP1 POP DUP2 DUP2 SUB PUSH1 0x40 DUP4 ADD MSTORE PUSH2 0x21E0 DUP2 DUP5 PUSH2 0x1C85 JUMP JUMPDEST SWAP1 POP SWAP5 SWAP4 POP POP POP POP JUMP JUMPDEST PUSH1 0x0 PUSH2 0x21F4 PUSH2 0x2205 JUMP JUMPDEST SWAP1 POP PUSH2 0x2200 DUP3 DUP3 PUSH2 0x2304 JUMP JUMPDEST SWAP2 SWAP1 POP JUMP JUMPDEST PUSH1 0x0 PUSH1 0x40 MLOAD SWAP1 POP SWAP1 JUMP JUMPDEST PUSH1 0x0 PUSH8 0xFFFFFFFFFFFFFFFF DUP3 GT ISZERO PUSH2 0x222A JUMPI PUSH2 0x2229 PUSH2 0x23E6 JUMP JUMPDEST JUMPDEST PUSH2 0x2233 DUP3 PUSH2 0x2429 JUMP JUMPDEST SWAP1 POP PUSH1 0x20 DUP2 ADD SWAP1 POP SWAP2 SWAP1 POP JUMP JUMPDEST PUSH1 0x0 DUP2 SWAP1 POP DUP2 PUSH1 0x0 MSTORE PUSH1 0x20 PUSH1 0x0 KECCAK256 SWAP1 POP SWAP2 SWAP1 POP JUMP JUMPDEST PUSH1 0x0 DUP2 MLOAD SWAP1 POP SWAP2 SWAP1 POP JUMP JUMPDEST PUSH1 0x0 DUP3 DUP3 MSTORE PUSH1 0x20 DUP3 ADD SWAP1 POP SWAP3 SWAP2 POP POP JUMP JUMPDEST PUSH1 0x0 DUP2 SWAP1 POP SWAP3 SWAP2 POP POP JUMP JUMPDEST PUSH1 0x0 DUP2 SWAP1 POP SWAP2 SWAP1 POP JUMP JUMPDEST PUSH1 0x0 DUP2 SWAP1 POP SWAP2 SWAP1 POP JUMP JUMPDEST DUP3 DUP2 DUP4 CALLDATACOPY PUSH1 0x0 DUP4 DUP4 ADD MSTORE POP POP POP JUMP JUMPDEST PUSH1 0x0 JUMPDEST DUP4 DUP2 LT ISZERO PUSH2 0x22BD JUMPI DUP1 DUP3 ADD MLOAD DUP2 DUP5 ADD MSTORE PUSH1 0x20 DUP2 ADD SWAP1 POP PUSH2 0x22A2 JUMP JUMPDEST DUP4 DUP2 GT ISZERO PUSH2 0x22CC JUMPI PUSH1 0x0 DUP5 DUP5 ADD MSTORE JUMPDEST POP POP POP POP JUMP JUMPDEST PUSH1 0x0 PUSH1 0x2 DUP3 DIV SWAP1 POP PUSH1 0x1 DUP3 AND DUP1 PUSH2 0x22EA JUMPI PUSH1 0x7F DUP3 AND SWAP2 POP JUMPDEST PUSH1 0x20 DUP3 LT DUP2 EQ ISZERO PUSH2 0x22FE JUMPI PUSH2 0x22FD PUSH2 0x23B7 JUMP JUMPDEST JUMPDEST POP SWAP2 SWAP1 POP JUMP JUMPDEST PUSH2 0x230D DUP3 PUSH2 0x2429 JUMP JUMPDEST DUP2 ADD DUP2 DUP2 LT PUSH8 0xFFFFFFFFFFFFFFFF DUP3 GT OR ISZERO PUSH2 0x232C JUMPI PUSH2 0x232B PUSH2 0x23E6 JUMP JUMPDEST JUMPDEST DUP1 PUSH1 0x40 MSTORE POP POP POP JUMP JUMPDEST PUSH1 0x0 PUSH2 0x2340 DUP3 PUSH2 0x2286 JUMP JUMPDEST SWAP2 POP PUSH32 0xFFFFFFFFFFFFFFFFFFFFFFFFFFFFFFFFFFFFFFFFFFFFFFFFFFFFFFFFFFFFFFFF DUP3 EQ ISZERO PUSH2 0x2373 JUMPI PUSH2 0x2372 PUSH2 0x2388 JUMP JUMPDEST JUMPDEST PUSH1 0x1 DUP3 ADD SWAP1 POP SWAP2 SWAP1 POP JUMP JUMPDEST PUSH1 0x0 DUP2 SWAP1 POP SWAP2 SWAP1 POP JUMP JUMPDEST PUSH32 0x4E487B7100000000000000000000000000000000000000000000000000000000 PUSH1 0x0 MSTORE PUSH1 0x11 PUSH1 0x4 MSTORE PUSH1 0x24 PUSH1 0x0 REVERT JUMPDEST PUSH32 0x4E487B7100000000000000000000000000000000000000000000000000000000 PUSH1 0x0 MSTORE PUSH1 0x22 PUSH1 0x4 MSTORE PUSH1 0x24 PUSH1 0x0 REVERT JUMPDEST PUSH32 0x4E487B7100000000000000000000000000000000000000000000000000000000 PUSH1 0x0 MSTORE PUSH1 0x41 PUSH1 0x4 MSTORE PUSH1 0x24 PUSH1 0x0 REVERT JUMPDEST PUSH1 0x0 DUP1 REVERT JUMPDEST PUSH1 0x0 DUP1 REVERT JUMPDEST PUSH1 0x0 DUP1 REVERT JUMPDEST PUSH1 0x0 DUP1 REVERT JUMPDEST PUSH1 0x0 PUSH1 0x1F NOT PUSH1 0x1F DUP4 ADD AND SWAP1 POP SWAP2 SWAP1 POP JUMP JUMPDEST PUSH32 0x756E766572696669656400000000000000000000000000000000000000000000 PUSH1 0x0 DUP3 ADD MSTORE POP JUMP JUMPDEST PUSH32 0x4572726F722120496E76616C696420736563726574206B65792E20506C656173 PUSH1 0x0 DUP3 ADD MSTORE PUSH32 0x652074727920616761696E2E0000000000000000000000000000000000000000 PUSH1 0x20 DUP3 ADD MSTORE POP JUMP JUMPDEST PUSH32 0x4572726F7221205573657220697320616C72656164792076657269666965642F PUSH1 0x0 DUP3 ADD MSTORE PUSH32 0x72656A6563746564000000000000000000000000000000000000000000000000 PUSH1 0x20 DUP3 ADD MSTORE POP JUMP JUMPDEST PUSH32 0x4572726F722120546865206163636F756E742069732062616E6E65642E000000 PUSH1 0x0 DUP3 ADD MSTORE POP JUMP JUMPDEST PUSH32 0x4572726F722120596F7572206163636F756E742069732062616E6E6564000000 PUSH1 0x0 DUP3 ADD MSTORE POP JUMP JUMPDEST PUSH32 0x4572726F7221205573657220616C7265616479206578697374732E0000000000 PUSH1 0x0 DUP3 ADD MSTORE POP JUMP JUMPDEST PUSH32 0x4572726F722120496E76616C69642061646D696E206E616D6500000000000000 PUSH1 0x0 DUP3 ADD MSTORE POP JUMP JUMPDEST PUSH32 0x4572726F72212055736572206E6F742072656769737465726564206F72207772 PUSH1 0x0 DUP3 ADD MSTORE PUSH32 0x6F6E672070617373706F7274206E756D62657220656E74657265642E00000000 PUSH1 0x20 DUP3 ADD MSTORE POP JUMP JUMPDEST PUSH32 0x73757370656E6465640000000000000000000000000000000000000000000000 PUSH1 0x0 DUP3 ADD MSTORE POP JUMP JUMPDEST PUSH32 0x4572726F722120496E76616C69642070617373776F72642E20506C6561736520 PUSH1 0x0 DUP3 ADD MSTORE PUSH32 0x74727920616761696E2E00000000000000000000000000000000000000000000 PUSH1 0x20 DUP3 ADD MSTORE POP JUMP JUMPDEST PUSH32 0x4572726F722120496E76616C69642061646D696E2070617373776F7264000000 PUSH1 0x0 DUP3 ADD MSTORE POP JUMP JUMPDEST PUSH2 0x269E DUP2 PUSH2 0x2286 JUMP JUMPDEST DUP2 EQ PUSH2 0x26A9 JUMPI PUSH1 0x0 DUP1 REVERT JUMPDEST POP JUMP INVALID LOG2 PUSH5 0x6970667358 0x22 SLT KECCAK256 ADDRESS 0xA6 CODESIZE 0xE7 DUP6 0x2A 0xCE PUSH5 0xE276A6A2FB 0xC0 POP SELFDESTRUCT SWAP16 LOG2 PUSH10 0x13652B75BED480F70868 0xE4 0x4A DUP13 PUSH5 0x736F6C6343 STOP ADDMOD MOD STOP CALLER "
    },
    "gasEstimates": {
      "creation": {
        "codeDepositCost": "1990800",
        "executionCost": "infinite",
        "totalCost": "infinite"
      },
      "external": {
        "addUser(string,string,string,string,string,string)": "infinite",
        "adminLogin(string,string)": "infinite",
        "getNumOfUsers()": "2481",
        "getPassportNoById(uint256)": "infinite",
        "getUnverifiedUser(uint256)": "infinite",
        "getUser(uint256)": "infinite",
        "login(string,string)": "infinite",
        "suspendUser(uint256)": "infinite",
        "updatePassword(string,string,string)": "infinite",
        "updateUser(string,string,string,string)": "infinite",
        "verifyUser(uint256,string)": "infinite"
      }
    },
    "methodIdentifiers": {
      "addUser(string,string,string,string,string,string)": "45b7ba12",
      "adminLogin(string,string)": "c7154080",
      "getNumOfUsers()": "880e97a0",
      "getPassportNoById(uint256)": "0d3645ba",
      "getUnverifiedUser(uint256)": "1d93e5d4",
      "getUser(uint256)": "b0467deb",
      "login(string,string)": "58467dbc",
      "suspendUser(uint256)": "00a05dc3",
      "updatePassword(string,string,string)": "507b4e79",
      "updateUser(string,string,string,string)": "b5c24a01",
      "verifyUser(uint256,string)": "1112bdf2"
    }
  },
  "storageLayout": {
    "storage": [
      {
        "astId": 294,
        "contract": "DigitalIdentity:DigitalIdentity",
        "label": "numUsers",
        "offset": 0,
        "slot": "0",
        "type": "t_uint256"
      },
      {
        "astId": 299,
        "contract": "DigitalIdentity:DigitalIdentity",
        "label": "userPassportNo",
        "offset": 0,
        "slot": "1",
        "type": "t_mapping(t_string_memory_ptr,t_struct(UserData)287_storage)"
      },
      {
        "astId": 304,
        "contract": "DigitalIdentity:DigitalIdentity",
        "label": "userCounter",
        "offset": 0,
        "slot": "2",
        "type": "t_mapping(t_uint256,t_struct(UserCred)292_storage)"
      },
      {
        "astId": 806,
        "contract": "DigitalIdentity:DigitalIdentity",
        "label": "admin_name",
        "offset": 0,
        "slot": "3",
        "type": "t_string_storage"
      },
      {
        "astId": 814,
        "contract": "DigitalIdentity:DigitalIdentity",
        "label": "admin_pass",
        "offset": 0,
        "slot": "4",
        "type": "t_bytes32"
      }
    ],
    "types": {
      "t_bytes32": {
        "encoding": "inplace",
        "label": "bytes32",
        "numberOfBytes": "32"
      },
      "t_mapping(t_string_memory_ptr,t_struct(UserData)287_storage)": {
        "encoding": "mapping",
        "key": "t_string_memory_ptr",
        "label": "mapping(string => struct DigitalIdentity.UserData)",
        "numberOfBytes": "32",
        "value": "t_struct(UserData)287_storage"
      },
      "t_mapping(t_uint256,t_struct(UserCred)292_storage)": {
        "encoding": "mapping",
        "key": "t_uint256",
        "label": "mapping(uint256 => struct DigitalIdentity.UserCred)",
        "numberOfBytes": "32",
        "value": "t_struct(UserCred)292_storage"
      },
      "t_string_memory_ptr": {
        "encoding": "bytes",
        "label": "string",
        "numberOfBytes": "32"
      },
      "t_string_storage": {
        "encoding": "bytes",
        "label": "string",
        "numberOfBytes": "32"
      },
      "t_struct(UserCred)292_storage": {
        "encoding": "inplace",
        "label": "struct DigitalIdentity.UserCred",
        "members": [
          {
            "astId": 289,
            "contract": "DigitalIdentity:DigitalIdentity",
            "label": "user_id",
            "offset": 0,
            "slot": "0",
            "type": "t_uint256"
          },
          {
            "astId": 291,
            "contract": "DigitalIdentity:DigitalIdentity",
            "label": "user_passport_num",
            "offset": 0,
            "slot": "1",
            "type": "t_string_storage"
          }
        ],
        "numberOfBytes": "64"
      },
      "t_struct(UserData)287_storage": {
        "encoding": "inplace",
        "label": "struct DigitalIdentity.UserData",
        "members": [
          {
            "astId": 272,
            "contract": "DigitalIdentity:DigitalIdentity",
            "label": "user_id",
            "offset": 0,
            "slot": "0",
            "type": "t_uint256"
          },
          {
            "astId": 274,
            "contract": "DigitalIdentity:DigitalIdentity",
            "label": "user_email",
            "offset": 0,
            "slot": "1",
            "type": "t_string_storage"
          },
          {
            "astId": 276,
            "contract": "DigitalIdentity:DigitalIdentity",
            "label": "user_password",
            "offset": 0,
            "slot": "2",
            "type": "t_bytes32"
          },
          {
            "astId": 278,
            "contract": "DigitalIdentity:DigitalIdentity",
            "label": "user_account_status",
            "offset": 0,
            "slot": "3",
            "type": "t_string_storage"
          },
          {
            "astId": 280,
            "contract": "DigitalIdentity:DigitalIdentity",
            "label": "user_passport_num",
            "offset": 0,
            "slot": "4",
            "type": "t_string_storage"
          },
          {
            "astId": 282,
            "contract": "DigitalIdentity:DigitalIdentity",
            "label": "user_passport_name",
            "offset": 0,
            "slot": "5",
            "type": "t_string_storage"
          },
          {
            "astId": 284,
            "contract": "DigitalIdentity:DigitalIdentity",
            "label": "user_passport_link",
            "offset": 0,
            "slot": "6",
            "type": "t_string_storage"
          },
          {
            "astId": 286,
            "contract": "DigitalIdentity:DigitalIdentity",
            "label": "secret_key",
            "offset": 0,
            "slot": "7",
            "type": "t_string_storage"
          }
        ],
        "numberOfBytes": "256"
      },
      "t_uint256": {
        "encoding": "inplace",
        "label": "uint256",
        "numberOfBytes": "32"
      }
    }
  },
  "userdoc": {
    "kind": "user",
    "methods": {},
    "version": 1
  }
}